{
  "_format": "hh-sol-artifact-1",
  "contractName": "NodesSale",
  "sourceName": "contracts/NodesSale.sol",
  "abi": [
    {
      "inputs": [
        {
          "internalType": "address",
          "name": "owner",
          "type": "address"
        },
        {
          "internalType": "address",
          "name": "erc20PaymentToken",
          "type": "address"
        },
        {
          "internalType": "address",
          "name": "nodeProviderPaymentAddress",
          "type": "address"
        },
        {
          "internalType": "address",
          "name": "ntPaymentAddress",
          "type": "address"
        },
        {
          "internalType": "uint256",
          "name": "maxAllowedNodes",
          "type": "uint256"
        },
        {
          "internalType": "uint256",
          "name": "ntCommissionsInBp",
          "type": "uint256"
        },
        {
          "internalType": "uint256",
          "name": "nodePrice",
          "type": "uint256"
        },
        {
          "internalType": "uint256",
          "name": "commonCap",
          "type": "uint256"
        }
      ],
      "stateMutability": "nonpayable",
      "type": "constructor"
    },
    {
      "inputs": [],
      "name": "AccessControlBadConfirmation",
      "type": "error"
    },
    {
      "inputs": [
        {
          "internalType": "address",
          "name": "account",
          "type": "address"
        },
        {
          "internalType": "bytes32",
          "name": "neededRole",
          "type": "bytes32"
        }
      ],
      "name": "AccessControlUnauthorizedAccount",
      "type": "error"
    },
    {
      "inputs": [
        {
          "internalType": "address",
          "name": "target",
          "type": "address"
        }
      ],
      "name": "AddressEmptyCode",
      "type": "error"
    },
    {
      "inputs": [
        {
          "internalType": "address",
          "name": "account",
          "type": "address"
        }
      ],
      "name": "AddressInsufficientBalance",
      "type": "error"
    },
    {
      "inputs": [
        {
          "internalType": "bytes32",
          "name": "key",
          "type": "bytes32"
        }
      ],
      "name": "EnumerableMapNonexistentKey",
      "type": "error"
    },
    {
      "inputs": [],
      "name": "FailedInnerCall",
      "type": "error"
    },
    {
      "inputs": [],
      "name": "InsufficientAllowance",
      "type": "error"
    },
    {
      "inputs": [],
      "name": "InsufficientBalance",
      "type": "error"
    },
    {
      "inputs": [],
      "name": "InvalidParameter",
      "type": "error"
    },
    {
      "inputs": [],
      "name": "NodesAllAllocated",
      "type": "error"
    },
    {
      "inputs": [],
      "name": "ReentrancyGuardReentrantCall",
      "type": "error"
    },
    {
      "inputs": [
        {
          "internalType": "address",
          "name": "token",
          "type": "address"
        }
      ],
      "name": "SafeERC20FailedOperation",
      "type": "error"
    },
    {
      "inputs": [],
      "name": "SaleNotActive",
      "type": "error"
    },
    {
      "inputs": [],
      "name": "WalletCapExceeded",
      "type": "error"
    },
    {
      "inputs": [],
      "name": "ZeroAddress",
      "type": "error"
    },
    {
      "anonymous": false,
      "inputs": [
        {
          "indexed": true,
          "internalType": "address",
          "name": "caller",
          "type": "address"
        },
        {
          "indexed": true,
          "internalType": "uint256",
          "name": "newCap",
          "type": "uint256"
        }
      ],
      "name": "CommonWalletCapChanged",
      "type": "event"
    },
    {
      "anonymous": false,
      "inputs": [
        {
          "indexed": true,
          "internalType": "address",
          "name": "account",
          "type": "address"
        },
        {
          "indexed": true,
          "internalType": "uint256",
          "name": "newMaxSupply",
          "type": "uint256"
        }
      ],
      "name": "MaxSupplyChanged",
      "type": "event"
    },
    {
      "anonymous": false,
      "inputs": [
        {
          "indexed": true,
          "internalType": "address",
          "name": "account",
          "type": "address"
        },
        {
          "indexed": true,
          "internalType": "uint256",
          "name": "newPrice",
          "type": "uint256"
        }
      ],
      "name": "NodePriceChanged",
      "type": "event"
    },
    {
      "anonymous": false,
      "inputs": [
        {
          "indexed": true,
          "internalType": "address",
          "name": "account",
          "type": "address"
        },
        {
          "indexed": false,
          "internalType": "uint256",
          "name": "numberOfNodes",
          "type": "uint256"
        }
      ],
      "name": "NodesAirdropped",
      "type": "event"
    },
    {
      "anonymous": false,
      "inputs": [
        {
          "indexed": true,
          "internalType": "address",
          "name": "account",
          "type": "address"
        },
        {
          "indexed": false,
          "internalType": "uint256",
          "name": "numberOfNodes",
          "type": "uint256"
        }
      ],
      "name": "NodesPurchased",
      "type": "event"
    },
    {
      "anonymous": false,
      "inputs": [
        {
          "indexed": true,
          "internalType": "address",
          "name": "account",
          "type": "address"
        },
        {
          "indexed": false,
          "internalType": "uint256",
          "name": "numberOfNodes",
          "type": "uint256"
        }
      ],
      "name": "NumberOfNodesUpdated",
      "type": "event"
    },
    {
      "anonymous": false,
      "inputs": [
        {
          "indexed": true,
          "internalType": "bytes32",
          "name": "role",
          "type": "bytes32"
        },
        {
          "indexed": true,
          "internalType": "bytes32",
          "name": "previousAdminRole",
          "type": "bytes32"
        },
        {
          "indexed": true,
          "internalType": "bytes32",
          "name": "newAdminRole",
          "type": "bytes32"
        }
      ],
      "name": "RoleAdminChanged",
      "type": "event"
    },
    {
      "anonymous": false,
      "inputs": [
        {
          "indexed": true,
          "internalType": "bytes32",
          "name": "role",
          "type": "bytes32"
        },
        {
          "indexed": true,
          "internalType": "address",
          "name": "account",
          "type": "address"
        },
        {
          "indexed": true,
          "internalType": "address",
          "name": "sender",
          "type": "address"
        }
      ],
      "name": "RoleGranted",
      "type": "event"
    },
    {
      "anonymous": false,
      "inputs": [
        {
          "indexed": true,
          "internalType": "bytes32",
          "name": "role",
          "type": "bytes32"
        },
        {
          "indexed": true,
          "internalType": "address",
          "name": "account",
          "type": "address"
        },
        {
          "indexed": true,
          "internalType": "address",
          "name": "sender",
          "type": "address"
        }
      ],
      "name": "RoleRevoked",
      "type": "event"
    },
    {
      "anonymous": false,
      "inputs": [
        {
          "indexed": true,
          "internalType": "bool",
          "name": "isActive",
          "type": "bool"
        }
      ],
      "name": "SaleActivationSet",
      "type": "event"
    },
    {
      "anonymous": false,
      "inputs": [
        {
          "indexed": true,
          "internalType": "address",
          "name": "caller",
          "type": "address"
        },
        {
          "indexed": true,
          "internalType": "address",
          "name": "account",
          "type": "address"
        },
        {
          "indexed": true,
          "internalType": "uint256",
          "name": "newCap",
          "type": "uint256"
        }
      ],
      "name": "SingleWalletCapChanged",
      "type": "event"
    },
    {
      "inputs": [],
      "name": "ADMIN_ROLE",
      "outputs": [
        {
          "internalType": "bytes32",
          "name": "",
          "type": "bytes32"
        }
      ],
      "stateMutability": "view",
      "type": "function"
    },
    {
      "inputs": [],
      "name": "DEFAULT_ADMIN_ROLE",
      "outputs": [
        {
          "internalType": "bytes32",
          "name": "",
          "type": "bytes32"
        }
      ],
      "stateMutability": "view",
      "type": "function"
    },
    {
      "inputs": [],
      "name": "MASTER_ROLE",
      "outputs": [
        {
          "internalType": "bytes32",
          "name": "",
          "type": "bytes32"
        }
      ],
      "stateMutability": "view",
      "type": "function"
    },
    {
      "inputs": [
        {
          "internalType": "address",
          "name": "account",
          "type": "address"
        },
        {
          "internalType": "uint256",
          "name": "numberOfNodes",
          "type": "uint256"
        }
      ],
      "name": "addMultipleNodes",
      "outputs": [],
      "stateMutability": "nonpayable",
      "type": "function"
    },
    {
      "inputs": [],
      "name": "commissionsWallet",
      "outputs": [
        {
          "internalType": "address",
          "name": "",
          "type": "address"
        }
      ],
      "stateMutability": "view",
      "type": "function"
    },
    {
      "inputs": [],
      "name": "commonWalletCap",
      "outputs": [
        {
          "internalType": "uint256",
          "name": "",
          "type": "uint256"
        }
      ],
      "stateMutability": "view",
      "type": "function"
    },
    {
      "inputs": [],
      "name": "getAccounts",
      "outputs": [
        {
          "internalType": "address[]",
          "name": "accounts",
          "type": "address[]"
        }
      ],
      "stateMutability": "view",
      "type": "function"
    },
    {
      "inputs": [],
      "name": "getAccountsAndNumberOfNodes",
      "outputs": [
        {
          "internalType": "address[]",
          "name": "accounts",
          "type": "address[]"
        },
        {
          "internalType": "uint256[]",
          "name": "nodes",
          "type": "uint256[]"
        }
      ],
      "stateMutability": "view",
      "type": "function"
    },
    {
      "inputs": [],
      "name": "getAvailableNodes",
      "outputs": [
        {
          "internalType": "uint256",
          "name": "available",
          "type": "uint256"
        }
      ],
      "stateMutability": "view",
      "type": "function"
    },
    {
      "inputs": [
        {
          "internalType": "address",
          "name": "account",
          "type": "address"
        }
      ],
      "name": "getNumberOfNodes",
      "outputs": [
        {
          "internalType": "uint256",
          "name": "",
          "type": "uint256"
        }
      ],
      "stateMutability": "view",
      "type": "function"
    },
    {
      "inputs": [],
      "name": "getPricePerNode",
      "outputs": [
        {
          "internalType": "uint256",
          "name": "price",
          "type": "uint256"
        }
      ],
      "stateMutability": "view",
      "type": "function"
    },
    {
      "inputs": [
        {
          "internalType": "bytes32",
          "name": "role",
          "type": "bytes32"
        }
      ],
      "name": "getRoleAdmin",
      "outputs": [
        {
          "internalType": "bytes32",
          "name": "",
          "type": "bytes32"
        }
      ],
      "stateMutability": "view",
      "type": "function"
    },
    {
      "inputs": [
        {
          "internalType": "bytes32",
          "name": "role",
          "type": "bytes32"
        },
        {
          "internalType": "uint256",
          "name": "index",
          "type": "uint256"
        }
      ],
      "name": "getRoleMember",
      "outputs": [
        {
          "internalType": "address",
          "name": "",
          "type": "address"
        }
      ],
      "stateMutability": "view",
      "type": "function"
    },
    {
      "inputs": [
        {
          "internalType": "bytes32",
          "name": "role",
          "type": "bytes32"
        }
      ],
      "name": "getRoleMemberCount",
      "outputs": [
        {
          "internalType": "uint256",
          "name": "",
          "type": "uint256"
        }
      ],
      "stateMutability": "view",
      "type": "function"
    },
    {
      "inputs": [
        {
          "internalType": "address",
          "name": "account",
          "type": "address"
        }
      ],
      "name": "getWalletCap",
      "outputs": [
        {
          "internalType": "uint256",
          "name": "",
          "type": "uint256"
        }
      ],
      "stateMutability": "view",
      "type": "function"
    },
    {
      "inputs": [
        {
          "internalType": "bytes32",
          "name": "role",
          "type": "bytes32"
        },
        {
          "internalType": "address",
          "name": "account",
          "type": "address"
        }
      ],
      "name": "grantRole",
      "outputs": [],
      "stateMutability": "nonpayable",
      "type": "function"
    },
    {
      "inputs": [
        {
          "internalType": "bytes32",
          "name": "role",
          "type": "bytes32"
        },
        {
          "internalType": "address",
          "name": "account",
          "type": "address"
        }
      ],
      "name": "hasRole",
      "outputs": [
        {
          "internalType": "bool",
          "name": "",
          "type": "bool"
        }
      ],
      "stateMutability": "view",
      "type": "function"
    },
    {
      "inputs": [],
      "name": "isSaleActive",
      "outputs": [
        {
          "internalType": "bool",
          "name": "",
          "type": "bool"
        }
      ],
      "stateMutability": "view",
      "type": "function"
    },
    {
      "inputs": [],
      "name": "maxSupply",
      "outputs": [
        {
          "internalType": "uint256",
          "name": "",
          "type": "uint256"
        }
      ],
      "stateMutability": "view",
      "type": "function"
    },
    {
      "inputs": [],
      "name": "nodeCount",
      "outputs": [
        {
          "internalType": "uint256",
          "name": "",
          "type": "uint256"
        }
      ],
      "stateMutability": "view",
      "type": "function"
    },
    {
      "inputs": [],
      "name": "nodeProviderWallet",
      "outputs": [
        {
          "internalType": "address",
          "name": "",
          "type": "address"
        }
      ],
      "stateMutability": "view",
      "type": "function"
    },
    {
      "inputs": [],
      "name": "ntCommissions",
      "outputs": [
        {
          "internalType": "uint256",
          "name": "",
          "type": "uint256"
        }
      ],
      "stateMutability": "view",
      "type": "function"
    },
    {
      "inputs": [],
      "name": "paymentToken",
      "outputs": [
        {
          "internalType": "address",
          "name": "",
          "type": "address"
        }
      ],
      "stateMutability": "view",
      "type": "function"
    },
    {
      "inputs": [
        {
          "internalType": "uint256",
          "name": "numberOfNodes",
          "type": "uint256"
        }
      ],
      "name": "purchaseNodes",
      "outputs": [],
      "stateMutability": "payable",
      "type": "function"
    },
    {
      "inputs": [
        {
          "internalType": "bytes32",
          "name": "role",
          "type": "bytes32"
        },
        {
          "internalType": "address",
          "name": "callerConfirmation",
          "type": "address"
        }
      ],
      "name": "renounceRole",
      "outputs": [],
      "stateMutability": "nonpayable",
      "type": "function"
    },
    {
      "inputs": [
        {
          "internalType": "bytes32",
          "name": "role",
          "type": "bytes32"
        },
        {
          "internalType": "address",
          "name": "account",
          "type": "address"
        }
      ],
      "name": "revokeRole",
      "outputs": [],
      "stateMutability": "nonpayable",
      "type": "function"
    },
    {
      "inputs": [
        {
          "internalType": "uint256",
          "name": "cap",
          "type": "uint256"
        }
      ],
      "name": "setCommonWalletCap",
      "outputs": [],
      "stateMutability": "nonpayable",
      "type": "function"
    },
    {
      "inputs": [
        {
          "internalType": "bool",
          "name": "state",
          "type": "bool"
        }
      ],
      "name": "setIsSaleActive",
      "outputs": [],
      "stateMutability": "nonpayable",
      "type": "function"
    },
    {
      "inputs": [
        {
          "internalType": "uint256",
          "name": "value",
          "type": "uint256"
        }
      ],
      "name": "setMaxSupply",
      "outputs": [],
      "stateMutability": "nonpayable",
      "type": "function"
    },
    {
      "inputs": [
        {
          "internalType": "address",
          "name": "account",
          "type": "address"
        },
        {
          "internalType": "uint256",
          "name": "value",
          "type": "uint256"
        }
      ],
      "name": "setNumberOfNodes",
      "outputs": [],
      "stateMutability": "nonpayable",
      "type": "function"
    },
    {
      "inputs": [
        {
          "internalType": "uint256",
          "name": "newPrice",
          "type": "uint256"
        }
      ],
      "name": "setPricePerNode",
      "outputs": [],
      "stateMutability": "nonpayable",
      "type": "function"
    },
    {
      "inputs": [
        {
          "internalType": "address[]",
          "name": "accounts",
          "type": "address[]"
        },
        {
          "internalType": "uint256",
          "name": "cap",
          "type": "uint256"
        }
      ],
      "name": "setSingleWalletCap",
      "outputs": [],
      "stateMutability": "nonpayable",
      "type": "function"
    },
    {
      "inputs": [
        {
          "internalType": "bytes4",
          "name": "interfaceId",
          "type": "bytes4"
        }
      ],
      "name": "supportsInterface",
      "outputs": [
        {
          "internalType": "bool",
          "name": "",
          "type": "bool"
        }
      ],
      "stateMutability": "view",
      "type": "function"
    }
  ],
  "bytecode": "0x6101006040523480156200001257600080fd5b506040516200207c3803806200207c833981016040819052620000359162000304565b60016002556001600160a01b03881615806200005857506001600160a01b038616155b806200006b57506001600160a01b038516155b8062000075575083155b806200007f575082155b8062000089575081155b15620000a857604051630309cb8760e51b815260040160405180910390fd5b6001600160a01b0380881660805286811660a052851660c05260e0839052620000d18262000103565b620000dc8462000138565b620000e7816200016d565b620000f4600089620001a2565b50505050505050505062000388565b6007819055604051819033907fabebbdca0a0eb22011751610703d50315edeb5985669335423b2f188ad4bc8f290600090a350565b6005819055604051819033907f28c4702f31a5488ef1826a30b4d837dab0940e925b9f503fe0644b7f1bd2f20f90600090a350565b6006819055604051819033907f4f1f7a7dd50dad7476574149e5ad81aeaf8b6e0a517c538da862b794cb0fb3f690600090a350565b600080620001b18484620001df565b90508015620001d6576000848152600160205260409020620001d490846200028d565b505b90505b92915050565b6000828152602081815260408083206001600160a01b038516845290915281205460ff1662000284576000838152602081815260408083206001600160a01b03861684529091529020805460ff191660011790556200023b3390565b6001600160a01b0316826001600160a01b0316847f2f8788117e7eff1d82e926ec794901d17c78024a50270940304540a733656f0d60405160405180910390a4506001620001d9565b506000620001d9565b6000620001d6836001600160a01b03841660008181526001830160205260408120546200028457508154600181810184556000848152602080822090930184905584548482528286019093526040902091909155620001d9565b80516001600160a01b0381168114620002ff57600080fd5b919050565b600080600080600080600080610100898b0312156200032257600080fd5b6200032d89620002e7565b97506200033d60208a01620002e7565b96506200034d60408a01620002e7565b95506200035d60608a01620002e7565b94506080890151935060a0890151925060c0890151915060e089015190509295985092959890939650565b60805160a05160c05160e051611c82620003fa600039600081816103be0152610fad01526000818161058d0152610fe301526000818161047f015261101b0152600081816102cd015281816106d701528181610740015281816107ef0152818161121701526112860152611c826000f3fe6080604052600436106101ee5760003560e01c806375b238fc1161010d578063aaa1801e116100a0578063d2d65ff51161006f578063d2d65ff5146105cf578063d547741f146105ef578063d5abeb011461060f578063d79ed80414610625578063dc2248631461064557600080fd5b8063aaa1801e1461053b578063c156e7511461055b578063c3bc63e41461057b578063ca15c873146105af57600080fd5b80638d549f17116100dc5780638d549f17146104c35780639010d07c146104e657806391d1485414610506578063a217fddf1461052657600080fd5b806375b238fc146104365780637caf7c92146104585780637fcd7a541461046d5780638a48ac03146104a157600080fd5b8063436a014a1161018557806358a7dc2c1161015457806358a7dc2c146103ac5780635a4074ef146103e05780636da49b83146104005780636f8b44b01461041657600080fd5b8063436a014a1461033d57806349b514f214610352578063548cc74f14610372578063564566a81461039257600080fd5b80632f2ff15d116101c15780632f2ff15d1461029b5780633013ce29146102bb57806336568abe146103075780633d08c14f1461032757600080fd5b806301be583b146101f357806301ffc9a71461020857806317fb4c3b1461023d578063248a9ca31461026b575b600080fd5b610206610201366004611879565b610679565b005b34801561021457600080fd5b50610228610223366004611892565b6108e0565b60405190151581526020015b60405180910390f35b34801561024957600080fd5b5061025d6102583660046118d8565b61090b565b604051908152602001610234565b34801561027757600080fd5b5061025d610286366004611879565b60009081526020819052604090206001015490565b3480156102a757600080fd5b506102066102b63660046118f3565b61092e565b3480156102c757600080fd5b506102ef7f000000000000000000000000000000000000000000000000000000000000000081565b6040516001600160a01b039091168152602001610234565b34801561031357600080fd5b506102066103223660046118f3565b610959565b34801561033357600080fd5b5061025d60065481565b34801561034957600080fd5b5061025d61098c565b34801561035e57600080fd5b5061020661036d36600461191f565b6109a3565b34801561037e57600080fd5b5061020661038d366004611879565b610a78565b34801561039e57600080fd5b506003546102289060ff1681565b3480156103b857600080fd5b5061025d7f000000000000000000000000000000000000000000000000000000000000000081565b3480156103ec57600080fd5b5061025d6103fb3660046118d8565b610abe565b34801561040c57600080fd5b5061025d60045481565b34801561042257600080fd5b50610206610431366004611879565b610aed565b34801561044257600080fd5b5061025d600080516020611c2d83398151915281565b34801561046457600080fd5b5060075461025d565b34801561047957600080fd5b506102ef7f000000000000000000000000000000000000000000000000000000000000000081565b3480156104ad57600080fd5b506104b6610b31565b604051610234919061198e565b3480156104cf57600080fd5b506104d8610b3d565b6040516102349291906119a1565b3480156104f257600080fd5b506102ef6105013660046119f8565b610c56565b34801561051257600080fd5b506102286105213660046118f3565b610c6e565b34801561053257600080fd5b5061025d600081565b34801561054757600080fd5b50610206610556366004611879565b610c97565b34801561056757600080fd5b50610206610576366004611a30565b610cb8565b34801561058757600080fd5b506102ef7f000000000000000000000000000000000000000000000000000000000000000081565b3480156105bb57600080fd5b5061025d6105ca366004611879565b610da3565b3480156105db57600080fd5b506102066105ea366004611b09565b610dba565b3480156105fb57600080fd5b5061020661060a3660046118f3565b610e22565b34801561061b57600080fd5b5061025d60055481565b34801561063157600080fd5b5061020661064036600461191f565b610e47565b34801561065157600080fd5b5061025d7f8b8c0776df2c2176edf6f82391c35ea4891146d7a976ee36fd07f1a6fb4ead4c81565b60035460ff1661069c5760405163b7b2409760e01b815260040160405180910390fd5b80806000036106be57604051630309cb8760e51b815260040160405180910390fd5b60006106c960075490565b6106d39083611b3c565b90507f00000000000000000000000000000000000000000000000000000000000000006001600160a01b0316610729578034101561072457604051631e9acf1760e31b815260040160405180910390fd5b610881565b6040516370a0823160e01b815233600482015281907f00000000000000000000000000000000000000000000000000000000000000006001600160a01b0316906370a0823190602401602060405180830381865afa15801561078f573d6000803e3d6000fd5b505050506040513d601f19601f820116820180604052508101906107b39190611b53565b10156107d257604051631e9acf1760e31b815260040160405180910390fd5b604051636eb1769f60e11b815233600482015230602482015281907f00000000000000000000000000000000000000000000000000000000000000006001600160a01b03169063dd62ed3e90604401602060405180830381865afa15801561083e573d6000803e3d6000fd5b505050506040513d601f19601f820116820180604052508101906108629190611b53565b1015610881576040516313be252b60e01b815260040160405180910390fd5b610889610eb1565b6108933384610ed9565b61089c83610f8c565b60405183815233907fb1fa818518486db21d0612d7016d1f746b32651a7e8225bae5f00453713f2f909060200160405180910390a26108db6001600255565b505050565b60006001600160e01b03198216635a05180f60e01b1480610905575061090582611040565b92915050565b6000610918600883611075565b610923576000610905565b61090560088361108a565b6000828152602081905260409020600101546109498161109f565b61095383836110ac565b50505050565b6001600160a01b03811633146109825760405163334bd91960e11b815260040160405180910390fd5b6108db82826110e1565b600060045460055461099e9190611b6c565b905090565b60006109ae8161109f565b60006109b98461090b565b905060008184116109e0576109ce8483611b6c565b6004546109db9190611b6c565b6109f7565b6109ea8285611b6c565b6004546109f79190611b7f565b9050600554811115610a1c576040516373be2ceb60e01b815260040160405180910390fd5b6004819055610a2d6008868661110e565b50846001600160a01b03167f6084067be11d2a99b87a4584b9b4830451f2333678b321be652716ce0eb0990285604051610a6991815260200190565b60405180910390a25050505050565b600080516020611c2d833981519152610a908161109f565b81600003610ab157604051630309cb8760e51b815260040160405180910390fd5b610aba8261112c565b5050565b6001600160a01b0381166000908152600b602052604081205480610ae457600654610ae6565b805b9392505050565b600080516020611c2d833981519152610b058161109f565b600454821015610b2857604051630309cb8760e51b815260040160405180910390fd5b610aba82611161565b606061099e6008611196565b6060806000610b4c60086111a3565b90508067ffffffffffffffff811115610b6757610b67611a1a565b604051908082528060200260200182016040528015610b90578160200160208202803683370190505b5092508067ffffffffffffffff811115610bac57610bac611a1a565b604051908082528060200260200182016040528015610bd5578160200160208202803683370190505b50915060005b81811015610c5057600080610bf16008846111ae565b9150915081868481518110610c0857610c08611b92565b60200260200101906001600160a01b031690816001600160a01b03168152505080858481518110610c3b57610c3b611b92565b60209081029190910101525050600101610bdb565b50509091565b6000828152600160205260408120610ae690836111ca565b6000918252602082815260408084206001600160a01b0393909316845291905290205460ff1690565b600080516020611c2d833981519152610caf8161109f565b610aba826111d6565b600080516020611c2d833981519152610cd08161109f565b8251600003610cf257604051630309cb8760e51b815260040160405180910390fd5b60005b83518110156109535782600b6000868481518110610d1557610d15611b92565b60200260200101516001600160a01b03166001600160a01b031681526020019081526020016000208190555082848281518110610d5457610d54611b92565b60200260200101516001600160a01b0316336001600160a01b03167f1636bfb30653a611d751713530f2756f29de0cd0b8b675077b0b3bc85af7120560405160405180910390a4600101610cf5565b60008181526001602052604081206109059061120b565b7f8b8c0776df2c2176edf6f82391c35ea4891146d7a976ee36fd07f1a6fb4ead4c610de48161109f565b6003805460ff19168315159081179091556040517fbe3f4746d5114e9c4381d5d2ea1e5dc4e1acb7e7876b6a9a7b4e4a1179f572e490600090a25050565b600082815260208190526040902060010154610e3d8161109f565b61095383836110e1565b600080516020611c2d833981519152610e5f8161109f565b610e698383610ed9565b826001600160a01b03167f3037cba7f4bf85701fc31c9d01f58f1e2e8604d58f4593ab104d9999a89b953083604051610ea491815260200190565b60405180910390a2505050565b6002805403610ed357604051633ee5aeb560e01b815260040160405180910390fd5b60028055565b600081600454610ee99190611b7f565b9050600554811115610f0e576040516373be2ceb60e01b815260040160405180910390fd5b600082610f1a8561090b565b610f249190611b7f565b90506000610f3185610abe565b9050600081118015610f4257508082115b15610f60576040516341f5f85960e11b815260040160405180910390fd5b8360046000828254610f729190611b7f565b90915550610f8490506008868461110e565b505050505050565b6000610f9760075490565b610fa19083611b3c565b90506000612710610fd27f000000000000000000000000000000000000000000000000000000000000000084611b3c565b610fdc9190611ba8565b90506110087f000000000000000000000000000000000000000000000000000000000000000082611215565b60006110148284611b6c565b90506109537f000000000000000000000000000000000000000000000000000000000000000082611215565b60006001600160e01b03198216637965db0b60e01b148061090557506301ffc9a760e01b6001600160e01b0319831614610905565b6000610ae6836001600160a01b0384166112ae565b6000610ae6836001600160a01b0384166112ba565b6110a98133611306565b50565b6000806110b9848461133f565b90508015610ae65760008481526001602052604090206110d990846113d1565b509392505050565b6000806110ee84846113e6565b90508015610ae65760008481526001602052604090206110d99084611451565b6000611124846001600160a01b03851684611466565b949350505050565b6007819055604051819033907fabebbdca0a0eb22011751610703d50315edeb5985669335423b2f188ad4bc8f290600090a350565b6005819055604051819033907f28c4702f31a5488ef1826a30b4d837dab0940e925b9f503fe0644b7f1bd2f20f90600090a350565b60606000610ae683611483565b60006109058261148e565b60008080806111bd8686611499565b9097909650945050505050565b6000610ae683836114c4565b6006819055604051819033907f4f1f7a7dd50dad7476574149e5ad81aeaf8b6e0a517c538da862b794cb0fb3f690600090a350565b6000610905825490565b7f00000000000000000000000000000000000000000000000000000000000000006001600160a01b0316611279576040516001600160a01b0383169082156108fc029083906000818181858888f193505050501580156108db573d6000803e3d6000fd5b610aba6001600160a01b037f0000000000000000000000000000000000000000000000000000000000000000163384846114ee565b6000610ae68383611548565b6000818152600283016020526040812054801580156112e057506112de84846112ae565b155b15610ae65760405163015ab34360e11b8152600481018490526024015b60405180910390fd5b6113108282610c6e565b610aba5760405163e2517d3f60e01b81526001600160a01b0382166004820152602481018390526044016112fd565b600061134b8383610c6e565b6113c9576000838152602081815260408083206001600160a01b03861684529091529020805460ff191660011790556113813390565b6001600160a01b0316826001600160a01b0316847f2f8788117e7eff1d82e926ec794901d17c78024a50270940304540a733656f0d60405160405180910390a4506001610905565b506000610905565b6000610ae6836001600160a01b038416611560565b60006113f28383610c6e565b156113c9576000838152602081815260408083206001600160a01b0386168085529252808320805460ff1916905551339286917ff6391f5c32d9c69d2a47ea670b442974b53935d1edc7fd64eb21e047a839171b9190a4506001610905565b6000610ae6836001600160a01b0384166115a7565b60008281526002840160205260408120829055611124848461169a565b6060610905826116a6565b60006109058261120b565b600080806114a785856111ca565b600081815260029690960160205260409095205494959350505050565b60008260000182815481106114db576114db611b92565b9060005260206000200154905092915050565b604080516001600160a01b0385811660248301528416604482015260648082018490528251808303909101815260849091019091526020810180516001600160e01b03166323b872dd60e01b1790526109539085906116b3565b60008181526001830160205260408120541515610ae6565b60008181526001830160205260408120546113c957508154600181810184556000848152602080822090930184905584548482528286019093526040902091909155610905565b600081815260018301602052604081205480156116905760006115cb600183611b6c565b85549091506000906115df90600190611b6c565b90508082146116445760008660000182815481106115ff576115ff611b92565b906000526020600020015490508087600001848154811061162257611622611b92565b6000918252602080832090910192909255918252600188019052604090208390555b855486908061165557611655611bca565b600190038181906000526020600020016000905590558560010160008681526020019081526020016000206000905560019350505050610905565b6000915050610905565b6000610ae68383611560565b60606000610ae683611716565b60006116c86001600160a01b03841683611772565b905080516000141580156116ed5750808060200190518101906116eb9190611be0565b155b156108db57604051635274afe760e01b81526001600160a01b03841660048201526024016112fd565b60608160000180548060200260200160405190810160405280929190818152602001828054801561176657602002820191906000526020600020905b815481526020019060010190808311611752575b50505050509050919050565b6060610ae68383600084600080856001600160a01b031684866040516117989190611bfd565b60006040518083038185875af1925050503d80600081146117d5576040519150601f19603f3d011682016040523d82523d6000602084013e6117da565b606091505b50915091506117ea8683836117f4565b9695505050505050565b6060826118095761180482611850565b610ae6565b815115801561182057506001600160a01b0384163b155b1561184957604051639996b31560e01b81526001600160a01b03851660048201526024016112fd565b5080610ae6565b8051156118605780518082602001fd5b604051630a12f52160e11b815260040160405180910390fd5b60006020828403121561188b57600080fd5b5035919050565b6000602082840312156118a457600080fd5b81356001600160e01b031981168114610ae657600080fd5b80356001600160a01b03811681146118d357600080fd5b919050565b6000602082840312156118ea57600080fd5b610ae6826118bc565b6000806040838503121561190657600080fd5b82359150611916602084016118bc565b90509250929050565b6000806040838503121561193257600080fd5b61193b836118bc565b946020939093013593505050565b60008151808452602080850194506020840160005b838110156119835781516001600160a01b03168752958201959082019060010161195e565b509495945050505050565b602081526000610ae66020830184611949565b6040815260006119b46040830185611949565b82810360208481019190915284518083528582019282019060005b818110156119eb578451835293830193918301916001016119cf565b5090979650505050505050565b60008060408385031215611a0b57600080fd5b50508035926020909101359150565b634e487b7160e01b600052604160045260246000fd5b60008060408385031215611a4357600080fd5b823567ffffffffffffffff80821115611a5b57600080fd5b818501915085601f830112611a6f57600080fd5b8135602082821115611a8357611a83611a1a565b8160051b604051601f19603f83011681018181108682111715611aa857611aa8611a1a565b604052928352818301935084810182019289841115611ac657600080fd5b948201945b83861015611aeb57611adc866118bc565b85529482019493820193611acb565b9997909101359750505050505050565b80151581146110a957600080fd5b600060208284031215611b1b57600080fd5b8135610ae681611afb565b634e487b7160e01b600052601160045260246000fd5b808202811582820484141761090557610905611b26565b600060208284031215611b6557600080fd5b5051919050565b8181038181111561090557610905611b26565b8082018082111561090557610905611b26565b634e487b7160e01b600052603260045260246000fd5b600082611bc557634e487b7160e01b600052601260045260246000fd5b500490565b634e487b7160e01b600052603160045260246000fd5b600060208284031215611bf257600080fd5b8151610ae681611afb565b6000825160005b81811015611c1e5760208186018101518583015201611c04565b50600092019182525091905056fea49807205ce4d355092ef5a8a18f56e8913cf4a201fbe287825b095693c21775a26469706673582212202042f35d90863dd7020b79814512eb249fff53edb3bfc27fce0032cbd02148af64736f6c63430008180033",
  "linkReferences": {},
  "deployedLinkReferences": {}
}