{
  "_format": "hh-sol-artifact-1",
  "contractName": "XaiNodeLicense5",
  "sourceName": "contracts/test/XaiNodeLicence5.sol",
  "abi": [
    {
      "anonymous": false,
      "inputs": [
        {
          "indexed": true,
          "internalType": "address",
          "name": "owner",
          "type": "address"
        },
        {
          "indexed": true,
          "internalType": "address",
          "name": "approved",
          "type": "address"
        },
        {
          "indexed": true,
          "internalType": "uint256",
          "name": "tokenId",
          "type": "uint256"
        }
      ],
      "name": "Approval",
      "type": "event"
    },
    {
      "anonymous": false,
      "inputs": [
        {
          "indexed": true,
          "internalType": "address",
          "name": "owner",
          "type": "address"
        },
        {
          "indexed": true,
          "internalType": "address",
          "name": "operator",
          "type": "address"
        },
        {
          "indexed": false,
          "internalType": "bool",
          "name": "approved",
          "type": "bool"
        }
      ],
      "name": "ApprovalForAll",
      "type": "event"
    },
    {
      "anonymous": false,
      "inputs": [
        {
          "indexed": true,
          "internalType": "address",
          "name": "admin",
          "type": "address"
        },
        {
          "indexed": false,
          "internalType": "bool",
          "name": "newClaimableState",
          "type": "bool"
        }
      ],
      "name": "ClaimableChanged",
      "type": "event"
    },
    {
      "anonymous": false,
      "inputs": [
        {
          "indexed": true,
          "internalType": "address",
          "name": "admin",
          "type": "address"
        },
        {
          "indexed": false,
          "internalType": "address",
          "name": "newFundsReceiver",
          "type": "address"
        }
      ],
      "name": "FundsReceiverChanged",
      "type": "event"
    },
    {
      "anonymous": false,
      "inputs": [
        {
          "indexed": true,
          "internalType": "address",
          "name": "admin",
          "type": "address"
        },
        {
          "indexed": false,
          "internalType": "uint256",
          "name": "amount",
          "type": "uint256"
        }
      ],
      "name": "FundsWithdrawn",
      "type": "event"
    },
    {
      "anonymous": false,
      "inputs": [
        {
          "indexed": false,
          "internalType": "uint8",
          "name": "version",
          "type": "uint8"
        }
      ],
      "name": "Initialized",
      "type": "event"
    },
    {
      "anonymous": false,
      "inputs": [
        {
          "indexed": false,
          "internalType": "uint256",
          "name": "index",
          "type": "uint256"
        },
        {
          "indexed": false,
          "internalType": "uint256",
          "name": "price",
          "type": "uint256"
        },
        {
          "indexed": false,
          "internalType": "uint256",
          "name": "quantity",
          "type": "uint256"
        }
      ],
      "name": "PricingTierSetOrAdded",
      "type": "event"
    },
    {
      "anonymous": false,
      "inputs": [
        {
          "indexed": false,
          "internalType": "string",
          "name": "promoCode",
          "type": "string"
        },
        {
          "indexed": false,
          "internalType": "address",
          "name": "recipient",
          "type": "address"
        }
      ],
      "name": "PromoCodeCreated",
      "type": "event"
    },
    {
      "anonymous": false,
      "inputs": [
        {
          "indexed": false,
          "internalType": "string",
          "name": "promoCode",
          "type": "string"
        }
      ],
      "name": "PromoCodeRemoved",
      "type": "event"
    },
    {
      "anonymous": false,
      "inputs": [
        {
          "indexed": true,
          "internalType": "address",
          "name": "buyer",
          "type": "address"
        },
        {
          "indexed": true,
          "internalType": "address",
          "name": "referralAddress",
          "type": "address"
        },
        {
          "indexed": false,
          "internalType": "uint256",
          "name": "amount",
          "type": "uint256"
        }
      ],
      "name": "ReferralReward",
      "type": "event"
    },
    {
      "anonymous": false,
      "inputs": [
        {
          "indexed": false,
          "internalType": "uint256",
          "name": "referralDiscountPercentage",
          "type": "uint256"
        },
        {
          "indexed": false,
          "internalType": "uint256",
          "name": "referralRewardPercentage",
          "type": "uint256"
        }
      ],
      "name": "ReferralRewardPercentagesChanged",
      "type": "event"
    },
    {
      "anonymous": false,
      "inputs": [
        {
          "indexed": true,
          "internalType": "address",
          "name": "refundee",
          "type": "address"
        },
        {
          "indexed": false,
          "internalType": "uint256",
          "name": "amount",
          "type": "uint256"
        }
      ],
      "name": "RefundOccurred",
      "type": "event"
    },
    {
      "anonymous": false,
      "inputs": [
        {
          "indexed": true,
          "internalType": "address",
          "name": "claimer",
          "type": "address"
        },
        {
          "indexed": false,
          "internalType": "uint256",
          "name": "amount",
          "type": "uint256"
        }
      ],
      "name": "RewardClaimed",
      "type": "event"
    },
    {
      "anonymous": false,
      "inputs": [
        {
          "indexed": true,
          "internalType": "bytes32",
          "name": "role",
          "type": "bytes32"
        },
        {
          "indexed": true,
          "internalType": "bytes32",
          "name": "previousAdminRole",
          "type": "bytes32"
        },
        {
          "indexed": true,
          "internalType": "bytes32",
          "name": "newAdminRole",
          "type": "bytes32"
        }
      ],
      "name": "RoleAdminChanged",
      "type": "event"
    },
    {
      "anonymous": false,
      "inputs": [
        {
          "indexed": true,
          "internalType": "bytes32",
          "name": "role",
          "type": "bytes32"
        },
        {
          "indexed": true,
          "internalType": "address",
          "name": "account",
          "type": "address"
        },
        {
          "indexed": true,
          "internalType": "address",
          "name": "sender",
          "type": "address"
        }
      ],
      "name": "RoleGranted",
      "type": "event"
    },
    {
      "anonymous": false,
      "inputs": [
        {
          "indexed": true,
          "internalType": "bytes32",
          "name": "role",
          "type": "bytes32"
        },
        {
          "indexed": true,
          "internalType": "address",
          "name": "account",
          "type": "address"
        },
        {
          "indexed": true,
          "internalType": "address",
          "name": "sender",
          "type": "address"
        }
      ],
      "name": "RoleRevoked",
      "type": "event"
    },
    {
      "anonymous": false,
      "inputs": [
        {
          "indexed": true,
          "internalType": "address",
          "name": "from",
          "type": "address"
        },
        {
          "indexed": true,
          "internalType": "address",
          "name": "to",
          "type": "address"
        },
        {
          "indexed": true,
          "internalType": "uint256",
          "name": "tokenId",
          "type": "uint256"
        }
      ],
      "name": "Transfer",
      "type": "event"
    },
    {
      "anonymous": false,
      "inputs": [
        {
          "indexed": true,
          "internalType": "address",
          "name": "redeemer",
          "type": "address"
        },
        {
          "indexed": false,
          "internalType": "uint16",
          "name": "newAmount",
          "type": "uint16"
        }
      ],
      "name": "WhitelistAmountRedeemed",
      "type": "event"
    },
    {
      "anonymous": false,
      "inputs": [
        {
          "indexed": true,
          "internalType": "address",
          "name": "redeemer",
          "type": "address"
        },
        {
          "indexed": false,
          "internalType": "uint16",
          "name": "newAmount",
          "type": "uint16"
        }
      ],
      "name": "WhitelistAmountUpdatedByAdmin",
      "type": "event"
    },
    {
      "inputs": [],
      "name": "DEFAULT_ADMIN_ROLE",
      "outputs": [
        {
          "internalType": "bytes32",
          "name": "",
          "type": "bytes32"
        }
      ],
      "stateMutability": "view",
      "type": "function"
    },
    {
      "inputs": [
        {
          "internalType": "address",
          "name": "to",
          "type": "address"
        },
        {
          "internalType": "uint256",
          "name": "tokenId",
          "type": "uint256"
        }
      ],
      "name": "approve",
      "outputs": [],
      "stateMutability": "nonpayable",
      "type": "function"
    },
    {
      "inputs": [
        {
          "internalType": "address",
          "name": "owner",
          "type": "address"
        }
      ],
      "name": "balanceOf",
      "outputs": [
        {
          "internalType": "uint256",
          "name": "",
          "type": "uint256"
        }
      ],
      "stateMutability": "view",
      "type": "function"
    },
    {
      "inputs": [],
      "name": "claimReferralReward",
      "outputs": [],
      "stateMutability": "nonpayable",
      "type": "function"
    },
    {
      "inputs": [],
      "name": "claimable",
      "outputs": [
        {
          "internalType": "bool",
          "name": "",
          "type": "bool"
        }
      ],
      "stateMutability": "view",
      "type": "function"
    },
    {
      "inputs": [
        {
          "internalType": "string",
          "name": "_promoCode",
          "type": "string"
        },
        {
          "internalType": "address",
          "name": "_recipient",
          "type": "address"
        }
      ],
      "name": "createPromoCode",
      "outputs": [],
      "stateMutability": "nonpayable",
      "type": "function"
    },
    {
      "inputs": [],
      "name": "fundsReceiver",
      "outputs": [
        {
          "internalType": "address payable",
          "name": "",
          "type": "address"
        }
      ],
      "stateMutability": "view",
      "type": "function"
    },
    {
      "inputs": [
        {
          "internalType": "uint256",
          "name": "tokenId",
          "type": "uint256"
        }
      ],
      "name": "getApproved",
      "outputs": [
        {
          "internalType": "address",
          "name": "",
          "type": "address"
        }
      ],
      "stateMutability": "view",
      "type": "function"
    },
    {
      "inputs": [
        {
          "internalType": "uint256",
          "name": "_tokenId",
          "type": "uint256"
        }
      ],
      "name": "getAverageCost",
      "outputs": [
        {
          "internalType": "uint256",
          "name": "",
          "type": "uint256"
        }
      ],
      "stateMutability": "view",
      "type": "function"
    },
    {
      "inputs": [
        {
          "internalType": "uint256",
          "name": "_tokenId",
          "type": "uint256"
        }
      ],
      "name": "getMintTimestamp",
      "outputs": [
        {
          "internalType": "uint256",
          "name": "",
          "type": "uint256"
        }
      ],
      "stateMutability": "view",
      "type": "function"
    },
    {
      "inputs": [
        {
          "internalType": "uint256",
          "name": "_index",
          "type": "uint256"
        }
      ],
      "name": "getPricingTier",
      "outputs": [
        {
          "components": [
            {
              "internalType": "uint256",
              "name": "price",
              "type": "uint256"
            },
            {
              "internalType": "uint256",
              "name": "quantity",
              "type": "uint256"
            }
          ],
          "internalType": "struct XaiNodeLicense5.Tier",
          "name": "",
          "type": "tuple"
        }
      ],
      "stateMutability": "view",
      "type": "function"
    },
    {
      "inputs": [],
      "name": "getPricingTiersLength",
      "outputs": [
        {
          "internalType": "uint256",
          "name": "",
          "type": "uint256"
        }
      ],
      "stateMutability": "view",
      "type": "function"
    },
    {
      "inputs": [
        {
          "internalType": "string",
          "name": "_promoCode",
          "type": "string"
        }
      ],
      "name": "getPromoCode",
      "outputs": [
        {
          "components": [
            {
              "internalType": "address",
              "name": "recipient",
              "type": "address"
            },
            {
              "internalType": "bool",
              "name": "active",
              "type": "bool"
            },
            {
              "internalType": "uint256",
              "name": "receivedLifetime",
              "type": "uint256"
            }
          ],
          "internalType": "struct XaiNodeLicense5.PromoCode",
          "name": "",
          "type": "tuple"
        }
      ],
      "stateMutability": "view",
      "type": "function"
    },
    {
      "inputs": [
        {
          "internalType": "bytes32",
          "name": "role",
          "type": "bytes32"
        }
      ],
      "name": "getRoleAdmin",
      "outputs": [
        {
          "internalType": "bytes32",
          "name": "",
          "type": "bytes32"
        }
      ],
      "stateMutability": "view",
      "type": "function"
    },
    {
      "inputs": [
        {
          "internalType": "bytes32",
          "name": "role",
          "type": "bytes32"
        },
        {
          "internalType": "address",
          "name": "account",
          "type": "address"
        }
      ],
      "name": "grantRole",
      "outputs": [],
      "stateMutability": "nonpayable",
      "type": "function"
    },
    {
      "inputs": [
        {
          "internalType": "bytes32",
          "name": "role",
          "type": "bytes32"
        },
        {
          "internalType": "address",
          "name": "account",
          "type": "address"
        }
      ],
      "name": "hasRole",
      "outputs": [
        {
          "internalType": "bool",
          "name": "",
          "type": "bool"
        }
      ],
      "stateMutability": "view",
      "type": "function"
    },
    {
      "inputs": [
        {
          "internalType": "address",
          "name": "admin",
          "type": "address"
        }
      ],
      "name": "initialize",
      "outputs": [],
      "stateMutability": "nonpayable",
      "type": "function"
    },
    {
      "inputs": [
        {
          "internalType": "address",
          "name": "owner",
          "type": "address"
        },
        {
          "internalType": "address",
          "name": "operator",
          "type": "address"
        }
      ],
      "name": "isApprovedForAll",
      "outputs": [
        {
          "internalType": "bool",
          "name": "",
          "type": "bool"
        }
      ],
      "stateMutability": "view",
      "type": "function"
    },
    {
      "inputs": [],
      "name": "maxSupply",
      "outputs": [
        {
          "internalType": "uint256",
          "name": "",
          "type": "uint256"
        }
      ],
      "stateMutability": "view",
      "type": "function"
    },
    {
      "inputs": [
        {
          "internalType": "uint256",
          "name": "_amount",
          "type": "uint256"
        },
        {
          "internalType": "string",
          "name": "_promoCode",
          "type": "string"
        }
      ],
      "name": "mint",
      "outputs": [],
      "stateMutability": "payable",
      "type": "function"
    },
    {
      "inputs": [],
      "name": "name",
      "outputs": [
        {
          "internalType": "string",
          "name": "",
          "type": "string"
        }
      ],
      "stateMutability": "view",
      "type": "function"
    },
    {
      "inputs": [
        {
          "internalType": "uint256",
          "name": "tokenId",
          "type": "uint256"
        }
      ],
      "name": "ownerOf",
      "outputs": [
        {
          "internalType": "address",
          "name": "",
          "type": "address"
        }
      ],
      "stateMutability": "view",
      "type": "function"
    },
    {
      "inputs": [
        {
          "internalType": "uint256",
          "name": "_amount",
          "type": "uint256"
        },
        {
          "internalType": "string",
          "name": "_promoCode",
          "type": "string"
        }
      ],
      "name": "price",
      "outputs": [
        {
          "internalType": "uint256",
          "name": "",
          "type": "uint256"
        }
      ],
      "stateMutability": "view",
      "type": "function"
    },
    {
      "inputs": [],
      "name": "redeemFromWhitelist",
      "outputs": [],
      "stateMutability": "nonpayable",
      "type": "function"
    },
    {
      "inputs": [],
      "name": "referralDiscountPercentage",
      "outputs": [
        {
          "internalType": "uint256",
          "name": "",
          "type": "uint256"
        }
      ],
      "stateMutability": "view",
      "type": "function"
    },
    {
      "inputs": [],
      "name": "referralRewardPercentage",
      "outputs": [
        {
          "internalType": "uint256",
          "name": "",
          "type": "uint256"
        }
      ],
      "stateMutability": "view",
      "type": "function"
    },
    {
      "inputs": [
        {
          "internalType": "uint256",
          "name": "_tokenId",
          "type": "uint256"
        }
      ],
      "name": "refundNodeLicense",
      "outputs": [],
      "stateMutability": "payable",
      "type": "function"
    },
    {
      "inputs": [
        {
          "internalType": "string",
          "name": "_promoCode",
          "type": "string"
        }
      ],
      "name": "removePromoCode",
      "outputs": [],
      "stateMutability": "nonpayable",
      "type": "function"
    },
    {
      "inputs": [
        {
          "internalType": "bytes32",
          "name": "role",
          "type": "bytes32"
        },
        {
          "internalType": "address",
          "name": "account",
          "type": "address"
        }
      ],
      "name": "renounceRole",
      "outputs": [],
      "stateMutability": "nonpayable",
      "type": "function"
    },
    {
      "inputs": [
        {
          "internalType": "bytes32",
          "name": "role",
          "type": "bytes32"
        },
        {
          "internalType": "address",
          "name": "account",
          "type": "address"
        }
      ],
      "name": "revokeRole",
      "outputs": [],
      "stateMutability": "nonpayable",
      "type": "function"
    },
    {
      "inputs": [
        {
          "internalType": "address",
          "name": "from",
          "type": "address"
        },
        {
          "internalType": "address",
          "name": "to",
          "type": "address"
        },
        {
          "internalType": "uint256",
          "name": "tokenId",
          "type": "uint256"
        }
      ],
      "name": "safeTransferFrom",
      "outputs": [],
      "stateMutability": "nonpayable",
      "type": "function"
    },
    {
      "inputs": [
        {
          "internalType": "address",
          "name": "from",
          "type": "address"
        },
        {
          "internalType": "address",
          "name": "to",
          "type": "address"
        },
        {
          "internalType": "uint256",
          "name": "tokenId",
          "type": "uint256"
        },
        {
          "internalType": "bytes",
          "name": "data",
          "type": "bytes"
        }
      ],
      "name": "safeTransferFrom",
      "outputs": [],
      "stateMutability": "nonpayable",
      "type": "function"
    },
    {
      "inputs": [
        {
          "internalType": "address",
          "name": "operator",
          "type": "address"
        },
        {
          "internalType": "bool",
          "name": "approved",
          "type": "bool"
        }
      ],
      "name": "setApprovalForAll",
      "outputs": [],
      "stateMutability": "nonpayable",
      "type": "function"
    },
    {
      "inputs": [
        {
          "internalType": "bool",
          "name": "_claimable",
          "type": "bool"
        }
      ],
      "name": "setClaimable",
      "outputs": [],
      "stateMutability": "nonpayable",
      "type": "function"
    },
    {
      "inputs": [
        {
          "internalType": "address payable",
          "name": "_newFundsReceiver",
          "type": "address"
        }
      ],
      "name": "setFundsReceiver",
      "outputs": [],
      "stateMutability": "nonpayable",
      "type": "function"
    },
    {
      "inputs": [
        {
          "internalType": "uint256",
          "name": "_index",
          "type": "uint256"
        },
        {
          "internalType": "uint256",
          "name": "_price",
          "type": "uint256"
        },
        {
          "internalType": "uint256",
          "name": "_quantity",
          "type": "uint256"
        }
      ],
      "name": "setOrAddPricingTier",
      "outputs": [],
      "stateMutability": "nonpayable",
      "type": "function"
    },
    {
      "inputs": [
        {
          "internalType": "uint256",
          "name": "_referralDiscountPercentage",
          "type": "uint256"
        },
        {
          "internalType": "uint256",
          "name": "_referralRewardPercentage",
          "type": "uint256"
        }
      ],
      "name": "setReferralPercentages",
      "outputs": [],
      "stateMutability": "nonpayable",
      "type": "function"
    },
    {
      "inputs": [
        {
          "internalType": "bytes4",
          "name": "interfaceId",
          "type": "bytes4"
        }
      ],
      "name": "supportsInterface",
      "outputs": [
        {
          "internalType": "bool",
          "name": "",
          "type": "bool"
        }
      ],
      "stateMutability": "view",
      "type": "function"
    },
    {
      "inputs": [],
      "name": "symbol",
      "outputs": [
        {
          "internalType": "string",
          "name": "",
          "type": "string"
        }
      ],
      "stateMutability": "view",
      "type": "function"
    },
    {
      "inputs": [
        {
          "internalType": "uint256",
          "name": "index",
          "type": "uint256"
        }
      ],
      "name": "tokenByIndex",
      "outputs": [
        {
          "internalType": "uint256",
          "name": "",
          "type": "uint256"
        }
      ],
      "stateMutability": "view",
      "type": "function"
    },
    {
      "inputs": [
        {
          "internalType": "address",
          "name": "owner",
          "type": "address"
        },
        {
          "internalType": "uint256",
          "name": "index",
          "type": "uint256"
        }
      ],
      "name": "tokenOfOwnerByIndex",
      "outputs": [
        {
          "internalType": "uint256",
          "name": "",
          "type": "uint256"
        }
      ],
      "stateMutability": "view",
      "type": "function"
    },
    {
      "inputs": [
        {
          "internalType": "uint256",
          "name": "_tokenId",
          "type": "uint256"
        }
      ],
      "name": "tokenURI",
      "outputs": [
        {
          "internalType": "string",
          "name": "",
          "type": "string"
        }
      ],
      "stateMutability": "view",
      "type": "function"
    },
    {
      "inputs": [],
      "name": "totalSupply",
      "outputs": [
        {
          "internalType": "uint256",
          "name": "",
          "type": "uint256"
        }
      ],
      "stateMutability": "view",
      "type": "function"
    },
    {
      "inputs": [
        {
          "internalType": "address",
          "name": "from",
          "type": "address"
        },
        {
          "internalType": "address",
          "name": "to",
          "type": "address"
        },
        {
          "internalType": "uint256",
          "name": "tokenId",
          "type": "uint256"
        }
      ],
      "name": "transferFrom",
      "outputs": [],
      "stateMutability": "nonpayable",
      "type": "function"
    },
    {
      "inputs": [
        {
          "internalType": "address[]",
          "name": "_toWhitelist",
          "type": "address[]"
        },
        {
          "internalType": "uint16[]",
          "name": "_amounts",
          "type": "uint16[]"
        }
      ],
      "name": "updateWhitelistAmounts",
      "outputs": [],
      "stateMutability": "nonpayable",
      "type": "function"
    },
    {
      "inputs": [
        {
          "internalType": "address",
          "name": "",
          "type": "address"
        }
      ],
      "name": "whitelistAmounts",
      "outputs": [
        {
          "internalType": "uint16",
          "name": "",
          "type": "uint16"
        }
      ],
      "stateMutability": "view",
      "type": "function"
    },
    {
      "inputs": [],
      "name": "withdrawFunds",
      "outputs": [],
      "stateMutability": "nonpayable",
      "type": "function"
    }
  ],
  "bytecode": "0x608060405234801561001057600080fd5b506144cf806100206000396000f3fe6080604052600436106102885760003560e01c806359cb05e71161015a578063a22cb465116100c1578063c96535391161007a578063c9653539146107e4578063d547741f146107fa578063d5abeb011461081a578063d717d59d14610830578063e985e9c514610845578063ed0b2ed01461088e57600080fd5b8063a22cb46514610729578063af38d75714610749578063b88d4fde14610764578063c4d66de814610784578063c87b56dd146107a4578063c8b34759146107c457600080fd5b806377097fc81161011357806377097fc8146106a057806391d14854146106b3578063920a253e146106d357806395d89b41146106ea5780639b4b2c9c146106ff578063a217fddf1461071457600080fd5b806359cb05e71461058e5780636352211e146105d357806369fbd9a8146105f35780636c3609231461064057806370a08231146106605780637683d6811461068057600080fd5b806323c7e09c116101fe57806336568abe116101b757806336568abe146104ce578063378c93ad146104ee5780633cf9aa011461050e57806342842e0e1461052e5780634f6ccce71461054e578063574082af1461056e57600080fd5b806323c7e09c1461041457806324600fc314610434578063248a9ca31461044957806327d5e390146104795780632f2ff15d1461048e5780632f745c59146104ae57600080fd5b8063141edd5811610250578063141edd581461035157806314cbdc72146103715780631679cab01461039157806316c856fc146103bf57806318160ddd146103df57806323b872dd146103f457600080fd5b806301ffc9a71461028d57806306fdde03146102c2578063081812fc146102e4578063095ea7b31461031c5780630bb0953d1461033e575b600080fd5b34801561029957600080fd5b506102ad6102a83660046135f6565b6108c9565b60405190151581526020015b60405180910390f35b3480156102ce57600080fd5b506102d76108f8565b6040516102b99190613663565b3480156102f057600080fd5b506103046102ff366004613676565b61098a565b6040516001600160a01b0390911681526020016102b9565b34801561032857600080fd5b5061033c6103373660046136a4565b6109b1565b005b61033c61034c366004613676565b610acb565b34801561035d57600080fd5b5061033c61036c3660046136d0565b610c9a565b34801561037d57600080fd5b5061033c61038c3660046136ed565b610d68565b34801561039d57600080fd5b506103b16103ac366004613676565b610f27565b6040519081526020016102b9565b3480156103cb57600080fd5b5061033c6103da366004613719565b610f62565b3480156103eb57600080fd5b506099546103b1565b34801561040057600080fd5b5061033c61040f36600461373b565b611095565b34801561042057600080fd5b5060fc54610304906001600160a01b031681565b34801561044057600080fd5b5061033c6110c6565b34801561045557600080fd5b506103b1610464366004613676565b600090815260c9602052604090206001015490565b34801561048557600080fd5b5060fe546103b1565b34801561049a57600080fd5b5061033c6104a936600461377c565b61113e565b3480156104ba57600080fd5b506103b16104c93660046136a4565b611163565b3480156104da57600080fd5b5061033c6104e936600461377c565b6111f9565b3480156104fa57600080fd5b5061033c6105093660046137c1565b611277565b34801561051a57600080fd5b5061033c6105293660046138c7565b6112c6565b34801561053a57600080fd5b5061033c61054936600461373b565b611378565b34801561055a57600080fd5b506103b1610569366004613676565b611393565b34801561057a57600080fd5b5061033c6105893660046139d2565b611426565b34801561059a57600080fd5b506105c06105a93660046136d0565b6101066020526000908152604090205461ffff1681565b60405161ffff90911681526020016102b9565b3480156105df57600080fd5b506103046105ee366004613676565b611523565b3480156105ff57600080fd5b5061061361060e3660046139d2565b611583565b6040805182516001600160a01b0316815260208084015115159082015291810151908201526060016102b9565b34801561064c57600080fd5b506103b161065b366004613676565b6115f9565b34801561066c57600080fd5b506103b161067b3660046136d0565b611634565b34801561068c57600080fd5b506103b161069b366004613a14565b6116ba565b61033c6106ae366004613a14565b611895565b3480156106bf57600080fd5b506102ad6106ce36600461377c565b611d3c565b3480156106df57600080fd5b506103b16101005481565b3480156106f657600080fd5b506102d7611d67565b34801561070b57600080fd5b5061033c611d76565b34801561072057600080fd5b506103b1600081565b34801561073557600080fd5b5061033c610744366004613a60565b611f0f565b34801561075557600080fd5b50610101546102ad9060ff1681565b34801561077057600080fd5b5061033c61077f366004613a95565b611f1a565b34801561079057600080fd5b5061033c61079f3660046136d0565b611f4c565b3480156107b057600080fd5b506102d76107bf366004613676565b612060565b3480156107d057600080fd5b5061033c6107df366004613b59565b6121c8565b3480156107f057600080fd5b506103b160ff5481565b34801561080657600080fd5b5061033c61081536600461377c565b6122dc565b34801561082657600080fd5b506103b160fd5481565b34801561083c57600080fd5b5061033c612301565b34801561085157600080fd5b506102ad610860366004613bb0565b6001600160a01b039182166000908152606a6020908152604080832093909416825291909152205460ff1690565b34801561089a57600080fd5b506108ae6108a9366004613676565b612565565b604080518251815260209283015192810192909252016102b9565b60006108d482612607565b806108e357506108e382612628565b806108f257506108f282612607565b92915050565b60606065805461090790613bde565b80601f016020809104026020016040519081016040528092919081815260200182805461093390613bde565b80156109805780601f1061095557610100808354040283529160200191610980565b820191906000526020600020905b81548152906001019060200180831161096357829003601f168201915b5050505050905090565b60006109958261264d565b506000908152606960205260409020546001600160a01b031690565b60006109bc82611523565b9050806001600160a01b0316836001600160a01b031603610a2e5760405162461bcd60e51b815260206004820152602160248201527f4552433732313a20617070726f76616c20746f2063757272656e74206f776e656044820152603960f91b60648201526084015b60405180910390fd5b336001600160a01b0382161480610a4a5750610a4a8133610860565b610abc5760405162461bcd60e51b815260206004820152603d60248201527f4552433732313a20617070726f76652063616c6c6572206973206e6f7420746f60448201527f6b656e206f776e6572206f7220617070726f76656420666f7220616c6c0000006064820152608401610a25565b610ac683836126a0565b505050565b6000610ad68161270e565b610adf82612718565b610b405760405162461bcd60e51b815260206004820152602c60248201527f4552433732314d657461646174613a20526566756e6420666f72206e6f6e657860448201526b34b9ba32b73a103a37b5b2b760a11b6064820152608401610a25565b6000828152610105602052604090205480610b925760405162461bcd60e51b8152602060048201526012602482015271139bc8199d5b991cc81d1bc81c99599d5b9960721b6044820152606401610a25565b600083815261010560205260408120819055610bad84611523565b6001600160a01b03168260405160006040518083038185875af1925050503d8060008114610bf7576040519150601f19603f3d011682016040523d82523d6000602084013e610bfc565b606091505b5050905080610c405760405162461bcd60e51b815260206004820152601060248201526f2a3930b739b332b9103330b4b632b21760811b6044820152606401610a25565b610c4984611523565b6001600160a01b03167f6ff41247dea4ea051e23e1cb3e47b1d80c28e1a4e27d0163a335b523ccaccf9683604051610c8391815260200190565b60405180910390a2610c9484612735565b50505050565b6000610ca58161270e565b6001600160a01b038216610d105760405162461bcd60e51b815260206004820152602c60248201527f4e65772066756e647352656365697665722063616e6e6f74206265207468652060448201526b7a65726f206164647265737360a01b6064820152608401610a25565b60fc80546001600160a01b0319166001600160a01b03841690811790915560405190815233907fa02270409724ab2ef0cbf8f5c198a4f2693e2be21e66c222570aef73316b6643906020015b60405180910390a25050565b6000610d738161270e565b60fe54841015610e065760fe8481548110610d9057610d90613c18565b90600052602060002090600202016001015460fd6000828254610db39190613c44565b9250508190555060405180604001604052808481526020018381525060fe8581548110610de257610de2613c18565b60009182526020918290208351600290920201908155910151600190910155610ec8565b60fe548403610e8a57604080518082019091528381526020810183815260fe805460018101825560009190915291517f54075df80ec1ae6ac9100e1fd0ebf3246c17f5c933137af392011f4c5f61513a600290930292830155517f54075df80ec1ae6ac9100e1fd0ebf3246c17f5c933137af392011f4c5f61513b90910155610ec8565b60405162461bcd60e51b8152602060048201526013602482015272496e646578206f7574206f6620626f756e647360681b6044820152606401610a25565b8160fd6000828254610eda9190613c57565b909155505060408051858152602081018590529081018390527f8b492e853a36800006edcd7f0e52e61e9fff6c5ad5230c6afba1d4a1f12576d5906060015b60405180910390a150505050565b6000610f3282612718565b610f4e5760405162461bcd60e51b8152600401610a2590613c6a565b506000908152610105602052604090205490565b6000610f6d8161270e565b6063831115610fdd5760405162461bcd60e51b815260206004820152603660248201527f526566657272616c20646973636f756e742070657263656e746167652063616e6044820152756e6f742062652067726561746572207468616e20393960501b6064820152608401610a25565b606382111561104b5760405162461bcd60e51b815260206004820152603460248201527f526566657272616c207265776172642070657263656e746167652063616e6e6f604482015273742062652067726561746572207468616e20393960601b6064820152608401610a25565b60ff83905561010082905560408051848152602081018490527faace8d1ce94bdd845df56ed02bfd42b2c8d32de60f01f20c2a1ace2855b3eaa091015b60405180910390a1505050565b61109f33826127d8565b6110bb5760405162461bcd60e51b8152600401610a2590613cb5565b610ac6838383612857565b60006110d18161270e565b60fc5460405147916001600160a01b03169082156108fc029083906000818181858888f1935050505015801561110b573d6000803e3d6000fd5b5060405181815233907feaff4b37086828766ad3268786972c0cd24259d4c87a80f9d3963a3c3d999b0d90602001610d5c565b600082815260c960205260409020600101546111598161270e565b610ac683836128ab565b600061116e83611634565b82106111d05760405162461bcd60e51b815260206004820152602b60248201527f455243373231456e756d657261626c653a206f776e657220696e646578206f7560448201526a74206f6620626f756e647360a81b6064820152608401610a25565b506001600160a01b03919091166000908152609760209081526040808320938352929052205490565b6001600160a01b03811633146112695760405162461bcd60e51b815260206004820152602f60248201527f416363657373436f6e74726f6c3a2063616e206f6e6c792072656e6f756e636560448201526e103937b632b9903337b91039b2b63360891b6064820152608401610a25565b6112738282612931565b5050565b60006112828161270e565b610101805460ff191683151590811790915560405190815233907feb60b65bbf5667d23958c56ef890ad604d8fc4d001cec7ad7ade701b46fd02ff90602001610d5c565b60006112d18161270e565b81518351146113125760405162461bcd60e51b815260206004820152600d60248201526c125b9d985b1a59081a5b9c1d5d609a1b6044820152606401610a25565b60005b83518161ffff161015610c9457611366848261ffff168151811061133b5761133b613c18565b6020026020010151848361ffff168151811061135957611359613c18565b6020026020010151612998565b8061137081613d02565b915050611315565b610ac683838360405180602001604052806000815250611f1a565b600061139e60995490565b82106114015760405162461bcd60e51b815260206004820152602c60248201527f455243373231456e756d657261626c653a20676c6f62616c20696e646578206f60448201526b7574206f6620626f756e647360a01b6064820152608401610a25565b6099828154811061141457611414613c18565b90600052602060002001549050919050565b60006114318161270e565b60006001600160a01b0316610103848460405161144f929190613d23565b908152604051908190036020019020546001600160a01b0316036114b55760405162461bcd60e51b815260206004820152601960248201527f50726f6d6f20636f646520646f6573206e6f74206578697374000000000000006044820152606401610a25565b600061010384846040516114ca929190613d23565b9081526040519081900360200181208054921515600160a01b0260ff60a01b19909316929092179091557f95f9c856ea5546cfb98f825a18a32ae1cd3d41148eefb1e2c5c674e75ff987b2906110889085908590613d5c565b6000818152606760205260408120546001600160a01b0316806108f25760405162461bcd60e51b8152602060048201526018602482015277115490cdcc8c4e881a5b9d985b1a59081d1bdad95b88125160421b6044820152606401610a25565b60408051606081018252600080825260208201819052818301529051610103906115b09085908590613d23565b908152604080516020928190038301812060608201835280546001600160a01b0381168352600160a01b900460ff16151593820193909352600190920154908201529392505050565b600061160482612718565b6116205760405162461bcd60e51b8152600401610a2590613c6a565b506000908152610102602052604090205490565b60006001600160a01b03821661169e5760405162461bcd60e51b815260206004820152602960248201527f4552433732313a2061646472657373207a65726f206973206e6f7420612076616044820152683634b21037bbb732b960b91b6064820152608401610a25565b506001600160a01b031660009081526068602052604090205490565b6000806116c660995490565b905060008581805b60fe548110156117d05760fe81815481106116eb576116eb613c18565b906000526020600020906002020160010154826117089190613c57565b9150600085831161171a576000611724565b6117248684613c44565b90508084116117735760fe828154811061174057611740613c18565b9060005260206000209060020201600001548461175d9190613d70565b6117679086613c57565b945060009350506117d0565b60fe828154811061178657611786613c18565b906000526020600020906002020160000154816117a39190613d70565b6117ad9086613c57565b94506117b98185613c44565b93506117c58187613c57565b9550506001016116ce565b50811561182e5760405162461bcd60e51b815260206004820152602660248201527f4e6f7420656e6f756768206c6963656e73657320617661696c61626c6520666f604482015265722073616c6560d01b6064820152608401610a25565b6101038787604051611841929190613d23565b9081526040519081900360200190205460ff600160a01b909104161561188957606460ff5460646118729190613c44565b61187c9085613d70565b6118869190613d87565b92505b50909695505050505050565b60fd54836118a260fb5490565b6118ac9190613c57565b11156118ee5760405162461bcd60e51b815260206004820152601160248201527045786365656473206d6178537570706c7960781b6044820152606401610a25565b60006101038383604051611903929190613d23565b908152604080516020928190038301812060608201835280546001600160a01b038116808452600160a01b90910460ff161515948301949094526001015491810191909152915015801590611959575080602001515b80611962575081155b6119ae5760405162461bcd60e51b815260206004820152601e60248201527f496e76616c6964206f7220696e6163746976652070726f6d6f20636f646500006044820152606401610a25565b8051336001600160a01b0390911603611a215760405162461bcd60e51b815260206004820152602f60248201527f526566657272616c20616464726573732063616e6e6f7420626520746865207360448201526e656e6465722773206164647265737360881b6064820152608401610a25565b6000611a2e8585856116ba565b90506000611a3c8634613d87565b905081341015611a8e5760405162461bcd60e51b815260206004820152601f60248201527f45746865722076616c75652073656e74206973206e6f7420636f7272656374006044820152606401610a25565b60005b86811015611ae657611aa760fb80546001019055565b6000611ab260fb5490565b9050611abe33826129f4565b6000908152610102602090815260408083204290556101059091529020829055600101611a91565b5082516000906001600160a01b031615611bc85760646101005484611b0b9190613d70565b611b159190613d87565b84516001600160a01b031660009081526101046020526040812080549293508392909190611b44908490613c57565b92505081905550806101038787604051611b5f929190613d23565b90815260200160405180910390206001016000828254611b7f9190613c57565b909155505083516040518281526001600160a01b039091169033907f53958b9c644a1d5529da7c36929d59417eb9a996f08e02a52632bfe20c92ef489060200160405180910390a35b6000611bd48434613c44565b60fc5490915060009081906001600160a01b0316611bf28588613c44565b604051600081818185875af1925050503d8060008114611c2e576040519150601f19603f3d011682016040523d82523d6000602084013e611c33565b606091505b509150915081611c7c5760405162461bcd60e51b81526020600482015260146024820152732330b4b632b2103a379039b2b7321022ba3432b960611b6044820152606401610a25565b8215611d30576040516000908190339086908381818185875af1925050503d8060008114611cc6576040519150601f19603f3d011682016040523d82523d6000602084013e611ccb565b606091505b509150915081611d2d5760405162461bcd60e51b815260206004820152602760248201527f4661696c656420746f2073656e64206261636b207468652072656d61696e6465604482015266391022ba3432b960c91b6064820152608401610a25565b50505b50505050505050505050565b600091825260c9602090815260408084206001600160a01b0393909316845291905290205460ff1690565b60606066805461090790613bde565b6101015460ff16611de45760405162461bcd60e51b815260206004820152603260248201527f436c61696d696e67206f6620726566657272616c20726577617264732069732060448201527118dd5c9c995b9d1b1e48191a5cd8589b195960721b6064820152608401610a25565b336000908152610104602052604090205480611e425760405162461bcd60e51b815260206004820152601b60248201527f4e6f20726566657272616c2072657761726420746f20636c61696d00000000006044820152606401610a25565b33600081815261010460205260408082208290555190919083908381818185875af1925050503d8060008114611e94576040519150601f19603f3d011682016040523d82523d6000602084013e611e99565b606091505b5050905080611edd5760405162461bcd60e51b815260206004820152601060248201526f2a3930b739b332b9103330b4b632b21760811b6044820152606401610a25565b60405182815233907f106f923f993c2149d49b4255ff723acafa1f2d94393f561d3eda32ae348f724190602001610d5c565b611273338383612b6f565b611f2433836127d8565b611f405760405162461bcd60e51b8152600401610a2590613cb5565b610c9484848484612c3d565b600054610100900460ff1615808015611f6c5750600054600160ff909116105b80611f865750303b158015611f86575060005460ff166001145b611fe95760405162461bcd60e51b815260206004820152602e60248201527f496e697469616c697a61626c653a20636f6e747261637420697320616c72656160448201526d191e481a5b9a5d1a585b1a5e995960921b6064820152608401610a25565b6000805460ff19166001179055801561200c576000805461ff0019166101001790555b612017600083612c70565b8015611273576000805461ff0019169055604051600181527f7f26b83ff96e1f2b6a682f133852f6798a09c465da95921460cefb38474024989060200160405180910390a15050565b606061206b82612718565b6120cf5760405162461bcd60e51b815260206004820152602f60248201527f4552433732314d657461646174613a2055524920717565727920666f72206e6f60448201526e3732bc34b9ba32b73a103a37b5b2b760891b6064820152608401610a25565b60006120da83611523565b905060006120e784612c7a565b6120f9836001600160a01b0316612d0d565b6000868152610102602052604090205461211290612c7a565b61212361211e86611634565b612c7a565b6040516020016121369493929190613dc5565b6040516020818303038152906040529050600061215282612d24565b9050600061219b61216287612c7a565b83612175876001600160a01b0316612d0d565b6040516020016121879392919061410c565b604051602081830303815290604052612d24565b9050806040516020016121ae9190614282565b604051602081830303815290604052945050505050919050565b60006121d38161270e565b6001600160a01b0382166122295760405162461bcd60e51b815260206004820181905260248201527f526563697069656e7420616464726573732063616e6e6f74206265207a65726f6044820152606401610a25565b604080516060810182526001600160a01b03841681526001602082015260008183015290516101039061225f9087908790613d23565b90815260408051918290036020908101832084518154928601511515600160a01b026001600160a81b03199093166001600160a01b03909116179190911781559201516001909201919091557fced415b966fa8bae0231d9f3df21b6cecf7f6d8384273015a047adbd7a1bed0e90610f19908690869086906142c7565b600082815260c960205260409020600101546122f78161270e565b610ac68383612931565b636585eac0428111156123565760405162461bcd60e51b815260206004820152601e60248201527f526564656d7074696f6e206973206e6f7420656c696769626c652079657400006044820152606401610a25565b6123638162278d00613c57565b4211156123b25760405162461bcd60e51b815260206004820152601b60248201527f526564656d7074696f6e20706572696f642068617320656e64656400000000006044820152606401610a25565b336000908152610106602052604090205461ffff166124135760405162461bcd60e51b815260206004820152601860248201527f496e76616c69642077686974656c69737420616d6f756e7400000000000000006044820152606401610a25565b336000908152610106602052604090205461ffff166032811115612435575060325b60fd548161ffff1661244660fb5490565b6124509190613c57565b11156124925760405162461bcd60e51b815260206004820152601160248201527045786365656473206d6178537570706c7960781b6044820152606401610a25565b60005b8161ffff168161ffff1610156124e4576124b360fb80546001019055565b60006124be60fb5490565b90506124ca33826129f4565b600090815261010260205260409020429055600101612495565b50336000908152610106602052604081205461250590839061ffff166142f3565b3360008181526101066020908152604091829020805461ffff191661ffff8616908117909155915191825292935090917f89875d9b68b823e9cf760bc6cd71cc3635ad713427f73b2e4f802d6033189dbe910160405180910390a2505050565b604080518082019091526000808252602082015260fe5482106125c05760405162461bcd60e51b8152602060048201526013602482015272496e646578206f7574206f6620626f756e647360681b6044820152606401610a25565b60fe82815481106125d3576125d3613c18565b9060005260206000209060020201604051806040016040529081600082015481526020016001820154815250509050919050565b60006001600160e01b03198216637965db0b60e01b14806108f257506108f2825b60006001600160e01b0319821663780e9d6360e01b14806108f257506108f282612e77565b61265681612718565b61269d5760405162461bcd60e51b8152602060048201526018602482015277115490cdcc8c4e881a5b9d985b1a59081d1bdad95b88125160421b6044820152606401610a25565b50565b600081815260696020526040902080546001600160a01b0319166001600160a01b03841690811790915581906126d582611523565b6001600160a01b03167f8c5be1e5ebec7d5bd14f71427d1e84f3dd0314c0f7b2291e5b200ac8c7c3b92560405160405180910390a45050565b61269d8133612ec7565b6000908152606760205260409020546001600160a01b0316151590565b600061274082611523565b9050612750816000846001612f20565b61275982611523565b600083815260696020908152604080832080546001600160a01b03199081169091556001600160a01b0385168085526068845282852080546000190190558785526067909352818420805490911690555192935084927fddf252ad1be2c89b69c2b068fc378daa952ba7f163c4a11628f55a4df523b3ef908390a45050565b6000806127e483611523565b9050806001600160a01b0316846001600160a01b0316148061282b57506001600160a01b038082166000908152606a602090815260408083209388168352929052205460ff165b8061284f5750836001600160a01b03166128448461098a565b6001600160a01b0316145b949350505050565b60405162461bcd60e51b8152602060048201526024808201527f4e6f64654c6963656e73653a207472616e73666572206973206e6f7420616c6c6044820152631bddd95960e21b6064820152608401610a25565b6128b58282611d3c565b61127357600082815260c9602090815260408083206001600160a01b03851684529091529020805460ff191660011790556128ed3390565b6001600160a01b0316816001600160a01b0316837f2f8788117e7eff1d82e926ec794901d17c78024a50270940304540a733656f0d60405160405180910390a45050565b61293b8282611d3c565b1561127357600082815260c9602090815260408083206001600160a01b0385168085529252808320805460ff1916905551339285917ff6391f5c32d9c69d2a47ea670b442974b53935d1edc7fd64eb21e047a839171b9190a45050565b6001600160a01b03821660008181526101066020908152604091829020805461ffff191661ffff861690811790915591519182527f6700d39f70694fcd465d77dc72d835b0051f821f18de92165b3151940d7f66949101610d5c565b6001600160a01b038216612a4a5760405162461bcd60e51b815260206004820181905260248201527f4552433732313a206d696e7420746f20746865207a65726f20616464726573736044820152606401610a25565b612a5381612718565b15612aa05760405162461bcd60e51b815260206004820152601c60248201527f4552433732313a20746f6b656e20616c7265616479206d696e746564000000006044820152606401610a25565b612aae600083836001612f20565b612ab781612718565b15612b045760405162461bcd60e51b815260206004820152601c60248201527f4552433732313a20746f6b656e20616c7265616479206d696e746564000000006044820152606401610a25565b6001600160a01b038216600081815260686020908152604080832080546001019055848352606790915280822080546001600160a01b0319168417905551839291907fddf252ad1be2c89b69c2b068fc378daa952ba7f163c4a11628f55a4df523b3ef908290a45050565b816001600160a01b0316836001600160a01b031603612bd05760405162461bcd60e51b815260206004820152601960248201527f4552433732313a20617070726f766520746f2063616c6c6572000000000000006044820152606401610a25565b6001600160a01b038381166000818152606a6020908152604080832094871680845294825291829020805460ff191686151590811790915591519182527f17307eab39ab6107e8899845ad3d59bd9653f200f220920489ca2b5937696c31910160405180910390a3505050565b612c48848484612857565b612c5484848484613054565b610c945760405162461bcd60e51b8152600401610a2590614315565b61127382826128ab565b60606000612c8783613155565b600101905060008167ffffffffffffffff811115612ca757612ca76137dc565b6040519080825280601f01601f191660200182016040528015612cd1576020820181803683370190505b5090508181016020015b600019016f181899199a1a9b1b9c1cb0b131b232b360811b600a86061a8153600a8504945084612cdb57509392505050565b60606108f282612d1c8461322d565b600101613297565b60608151600003612d4357505060408051602081019091526000815290565b600060405180606001604052806040815260200161445a6040913990506000600384516002612d729190613c57565b612d7c9190613d87565b612d87906004613d70565b67ffffffffffffffff811115612d9f57612d9f6137dc565b6040519080825280601f01601f191660200182016040528015612dc9576020820181803683370190505b509050600182016020820185865187015b80821015612e35576003820191508151603f8160121c168501518453600184019350603f81600c1c168501518453600184019350603f8160061c168501518453600184019350603f8116850151845350600183019250612dda565b5050600386510660018114612e515760028114612e6457612e6c565b603d6001830353603d6002830353612e6c565b603d60018303535b509195945050505050565b60006001600160e01b031982166380ac58cd60e01b1480612ea857506001600160e01b03198216635b5e139f60e01b145b806108f257506301ffc9a760e01b6001600160e01b03198316146108f2565b612ed18282611d3c565b61127357612ede8161343a565b612ee9836020613297565b604051602001612efa929190614367565b60408051601f198184030181529082905262461bcd60e51b8252610a2591600401613663565b6001811115612f8f5760405162461bcd60e51b815260206004820152603560248201527f455243373231456e756d657261626c653a20636f6e7365637574697665207472604482015274185b9cd9995c9cc81b9bdd081cdd5c1c1bdc9d1959605a1b6064820152608401610a25565b816001600160a01b038516612feb57612fe681609980546000838152609a60205260408120829055600182018355919091527f72a152ddfb8e864297c917af52ea6c1c68aead0fee1a62673fcc7e0c94979d000155565b61300e565b836001600160a01b0316856001600160a01b03161461300e5761300e8582613450565b6001600160a01b03841661302a57613025816134ed565b61304d565b846001600160a01b0316846001600160a01b03161461304d5761304d848261359c565b5050505050565b60006001600160a01b0384163b1561314a57604051630a85bd0160e11b81526001600160a01b0385169063150b7a02906130989033908990889088906004016143dc565b6020604051808303816000875af19250505080156130d3575060408051601f3d908101601f191682019092526130d09181019061440f565b60015b613130573d808015613101576040519150601f19603f3d011682016040523d82523d6000602084013e613106565b606091505b5080516000036131285760405162461bcd60e51b8152600401610a2590614315565b805181602001fd5b6001600160e01b031916630a85bd0160e11b14905061284f565b506001949350505050565b60008072184f03e93ff9f4daa797ed6e38ed64bf6a1f0160401b83106131945772184f03e93ff9f4daa797ed6e38ed64bf6a1f0160401b830492506040015b6d04ee2d6d415b85acef810000000083106131c0576d04ee2d6d415b85acef8100000000830492506020015b662386f26fc1000083106131de57662386f26fc10000830492506010015b6305f5e10083106131f6576305f5e100830492506008015b612710831061320a57612710830492506004015b6064831061321c576064830492506002015b600a83106108f25760010192915050565b600080608083901c156132455760809290921c916010015b604083901c1561325a5760409290921c916008015b602083901c1561326f5760209290921c916004015b601083901c156132845760109290921c916002015b600883901c156108f25760010192915050565b606060006132a6836002613d70565b6132b1906002613c57565b67ffffffffffffffff8111156132c9576132c96137dc565b6040519080825280601f01601f1916602001820160405280156132f3576020820181803683370190505b509050600360fc1b8160008151811061330e5761330e613c18565b60200101906001600160f81b031916908160001a905350600f60fb1b8160018151811061333d5761333d613c18565b60200101906001600160f81b031916908160001a9053506000613361846002613d70565b61336c906001613c57565b90505b60018111156133e4576f181899199a1a9b1b9c1cb0b131b232b360811b85600f16601081106133a0576133a0613c18565b1a60f81b8282815181106133b6576133b6613c18565b60200101906001600160f81b031916908160001a90535060049490941c936133dd8161442c565b905061336f565b5083156134335760405162461bcd60e51b815260206004820181905260248201527f537472696e67733a20686578206c656e67746820696e73756666696369656e746044820152606401610a25565b9392505050565b60606108f26001600160a01b0383166014613297565b6000600161345d84611634565b6134679190613c44565b6000838152609860205260409020549091508082146134ba576001600160a01b03841660009081526097602090815260408083208584528252808320548484528184208190558352609890915290208190555b5060009182526098602090815260408084208490556001600160a01b039094168352609781528383209183525290812055565b6099546000906134ff90600190613c44565b6000838152609a60205260408120546099805493945090928490811061352757613527613c18565b90600052602060002001549050806099838154811061354857613548613c18565b6000918252602080832090910192909255828152609a9091526040808220849055858252812055609980548061358057613580614443565b6001900381819060005260206000200160009055905550505050565b60006135a783611634565b6001600160a01b039093166000908152609760209081526040808320868452825280832085905593825260989052919091209190915550565b6001600160e01b03198116811461269d57600080fd5b60006020828403121561360857600080fd5b8135613433816135e0565b60005b8381101561362e578181015183820152602001613616565b50506000910152565b6000815180845261364f816020860160208601613613565b601f01601f19169290920160200192915050565b6020815260006134336020830184613637565b60006020828403121561368857600080fd5b5035919050565b6001600160a01b038116811461269d57600080fd5b600080604083850312156136b757600080fd5b82356136c28161368f565b946020939093013593505050565b6000602082840312156136e257600080fd5b81356134338161368f565b60008060006060848603121561370257600080fd5b505081359360208301359350604090920135919050565b6000806040838503121561372c57600080fd5b50508035926020909101359150565b60008060006060848603121561375057600080fd5b833561375b8161368f565b9250602084013561376b8161368f565b929592945050506040919091013590565b6000806040838503121561378f57600080fd5b8235915060208301356137a18161368f565b809150509250929050565b803580151581146137bc57600080fd5b919050565b6000602082840312156137d357600080fd5b613433826137ac565b634e487b7160e01b600052604160045260246000fd5b604051601f8201601f1916810167ffffffffffffffff8111828210171561381b5761381b6137dc565b604052919050565b600067ffffffffffffffff82111561383d5761383d6137dc565b5060051b60200190565b600082601f83011261385857600080fd5b8135602061386d61386883613823565b6137f2565b8083825260208201915060208460051b87010193508684111561388f57600080fd5b602086015b848110156138bc57803561ffff811681146138af5760008081fd5b8352918301918301613894565b509695505050505050565b600080604083850312156138da57600080fd5b823567ffffffffffffffff808211156138f257600080fd5b818501915085601f83011261390657600080fd5b8135602061391661386883613823565b82815260059290921b8401810191818101908984111561393557600080fd5b948201945b8386101561395c57853561394d8161368f565b8252948201949082019061393a565b9650508601359250508082111561397257600080fd5b5061397f85828601613847565b9150509250929050565b60008083601f84011261399b57600080fd5b50813567ffffffffffffffff8111156139b357600080fd5b6020830191508360208285010111156139cb57600080fd5b9250929050565b600080602083850312156139e557600080fd5b823567ffffffffffffffff8111156139fc57600080fd5b613a0885828601613989565b90969095509350505050565b600080600060408486031215613a2957600080fd5b83359250602084013567ffffffffffffffff811115613a4757600080fd5b613a5386828701613989565b9497909650939450505050565b60008060408385031215613a7357600080fd5b8235613a7e8161368f565b9150613a8c602084016137ac565b90509250929050565b60008060008060808587031215613aab57600080fd5b8435613ab68161368f565b9350602085810135613ac78161368f565b935060408601359250606086013567ffffffffffffffff80821115613aeb57600080fd5b818801915088601f830112613aff57600080fd5b813581811115613b1157613b116137dc565b613b23601f8201601f191685016137f2565b91508082528984828501011115613b3957600080fd5b808484018584013760008482840101525080935050505092959194509250565b600080600060408486031215613b6e57600080fd5b833567ffffffffffffffff811115613b8557600080fd5b613b9186828701613989565b9094509250506020840135613ba58161368f565b809150509250925092565b60008060408385031215613bc357600080fd5b8235613bce8161368f565b915060208301356137a18161368f565b600181811c90821680613bf257607f821691505b602082108103613c1257634e487b7160e01b600052602260045260246000fd5b50919050565b634e487b7160e01b600052603260045260246000fd5b634e487b7160e01b600052601160045260246000fd5b818103818111156108f2576108f2613c2e565b808201808211156108f2576108f2613c2e565b6020808252602b908201527f4552433732314d657461646174613a20517565727920666f72206e6f6e65786960408201526a39ba32b73a103a37b5b2b760a91b606082015260800190565b6020808252602d908201527f4552433732313a2063616c6c6572206973206e6f7420746f6b656e206f776e6560408201526c1c881bdc88185c1c1c9bdd9959609a1b606082015260800190565b600061ffff808316818103613d1957613d19613c2e565b6001019392505050565b8183823760009101908152919050565b81835281816020850137506000828201602090810191909152601f909101601f19169091010190565b60208152600061284f602083018486613d33565b80820281158282048414176108f2576108f2613c2e565b600082613da457634e487b7160e01b600052601260045260246000fd5b500490565b60008151613dbb818560208601613613565b9290920192915050565b7f3c73766720786d6c6e733d27687474703a2f2f7777772e77332e6f72672f323081527f30302f737667272077696474683d2731303027206865696768743d273130302760208201527f207374796c653d276261636b67726f756e642d636f6c6f723a626c61636b3b2760408201527f3e3c706f6c79676f6e20706f696e74733d2735302c3020302c38362e3620313060608201527f302c38362e36272066696c6c3d276e6f6e6527207374726f6b653d277265642760808201527f207374726f6b652d77696474683d27323027207472616e73666f726d3d27736360a08201527f616c6528302e3129207472616e736c6174652836302c20363029272f3e3c746560c08201527f787420783d27352720793d2732352720666f6e742d73697a653d27322e38272060e08201527f66696c6c3d2777686974652720666f6e742d66616d696c793d276d6f6e6f737061010082015270030b1b2939f2634b1b2b739b29024b21d1607d1b61012082015260006141026140e96140e3614048614042613fcd613fc7613f596101318a018e613da9565b7f3c2f746578743e3c7465787420783d27352720793d2733302720666f6e742d7381527f697a653d27322e38272066696c6c3d2777686974652720666f6e742d66616d696020820152750363c9e93b6b7b737b9b830b1b2939f27bbb732b91d160551b604082015260560190565b8b613da9565b7f3c2f746578743e3c7465787420783d27352720793d2733352720666f6e742d7381527f697a653d27322e38272066696c6c3d2777686974652720666f6e742d66616d6960208201527f6c793d276d6f6e6f7370616365273e4d696e742054696d657374616d703a20006040820152605f0190565b88613da9565b7f3c2f746578743e3c7465787420783d27352720793d2734302720666f6e742d7381527f697a653d27322e38272066696c6c3d2777686974652720666f6e742d66616d6960208201527f6c793d276d6f6e6f7370616365273e546f74616c204e756d626572206f66204c60408201527f6963656e736573204f776e6564206279204f776e65723a200000000000000000606082015260780190565b85613da9565b6c1e17ba32bc3a1f1e17b9bb339f60991b8152600d0190565b9695505050505050565b707b226e616d65223a2022546f6b656e202360781b81528351600090614139816011850160208901613613565b7f222c20226465736372697074696f6e223a202241204e6f64654c6963656e73656011918401918201527f20746f6b656e222c2022696d616765223a2022646174613a696d6167652f737660318201526c19cade1b5b0ed8985cd94d8d0b609a1b605182015284516141b281605e840160208901613613565b7f222c202261747472696275746573223a205b7b2274726169745f74797065223a605e929091019182015273101127bbb732b9111610113b30b63ab2911d101160611b607e820152835161420d816092840160208801613613565b7f227d2c207b2274726169745f74797065223a20224c6567616c222c202276616c609292909101918201527f7565223a202268747470733a2f2f7861692e67616d65732f73656e7472796e6f60b28201526e646561677265656d656e74227d5d7d60881b60d282015260e10195945050505050565b7f646174613a6170706c69636174696f6e2f6a736f6e3b6261736536342c0000008152600082516142ba81601d850160208701613613565b91909101601d0192915050565b6040815260006142db604083018587613d33565b905060018060a01b0383166020830152949350505050565b61ffff82811682821603908082111561430e5761430e613c2e565b5092915050565b60208082526032908201527f4552433732313a207472616e7366657220746f206e6f6e20455243373231526560408201527131b2b4bb32b91034b6b83632b6b2b73a32b960711b606082015260800190565b7f416363657373436f6e74726f6c3a206163636f756e742000000000000000000081526000835161439f816017850160208801613613565b7001034b99036b4b9b9b4b733903937b6329607d1b60179184019182015283516143d0816028840160208801613613565b01602801949350505050565b6001600160a01b038581168252841660208201526040810183905260806060820181905260009061410290830184613637565b60006020828403121561442157600080fd5b8151613433816135e0565b60008161443b5761443b613c2e565b506000190190565b634e487b7160e01b600052603160045260246000fdfe4142434445464748494a4b4c4d4e4f505152535455565758595a6162636465666768696a6b6c6d6e6f707172737475767778797a303132333435363738392b2fa2646970667358221220791742b2f639b7a188e5ab4b11142f9d76445c74966c42b6d9b53e21917b7c1564736f6c63430008180033",
  "linkReferences": {},
  "deployedLinkReferences": {}
}