{
  "_format": "hh-sol-artifact-1",
  "contractName": "AirdroppedLicence",
  "sourceName": "contracts/test/AirdroppedLicence.sol",
  "abi": [
    {
      "inputs": [],
      "stateMutability": "nonpayable",
      "type": "constructor"
    },
    {
      "inputs": [],
      "name": "ApprovalCallerNotOwnerNorApproved",
      "type": "error"
    },
    {
      "inputs": [],
      "name": "ApprovalQueryForNonexistentToken",
      "type": "error"
    },
    {
      "inputs": [],
      "name": "BalanceQueryForZeroAddress",
      "type": "error"
    },
    {
      "inputs": [],
      "name": "InvalidInitialization",
      "type": "error"
    },
    {
      "inputs": [],
      "name": "InvalidQueryRange",
      "type": "error"
    },
    {
      "inputs": [],
      "name": "MintERC2309QuantityExceedsLimit",
      "type": "error"
    },
    {
      "inputs": [],
      "name": "MintToZeroAddress",
      "type": "error"
    },
    {
      "inputs": [],
      "name": "MintZeroQuantity",
      "type": "error"
    },
    {
      "inputs": [],
      "name": "NotCompatibleWithSpotMints",
      "type": "error"
    },
    {
      "inputs": [],
      "name": "NotInitializing",
      "type": "error"
    },
    {
      "inputs": [],
      "name": "OwnerQueryForNonexistentToken",
      "type": "error"
    },
    {
      "inputs": [],
      "name": "OwnershipNotInitializedForExtraData",
      "type": "error"
    },
    {
      "inputs": [],
      "name": "SequentialMintExceedsLimit",
      "type": "error"
    },
    {
      "inputs": [],
      "name": "SequentialUpToTooSmall",
      "type": "error"
    },
    {
      "inputs": [],
      "name": "SpotMintTokenIdTooSmall",
      "type": "error"
    },
    {
      "inputs": [],
      "name": "TokenAlreadyExists",
      "type": "error"
    },
    {
      "inputs": [],
      "name": "TransferCallerNotOwnerNorApproved",
      "type": "error"
    },
    {
      "inputs": [],
      "name": "TransferFromIncorrectOwner",
      "type": "error"
    },
    {
      "inputs": [],
      "name": "TransferToNonERC721ReceiverImplementer",
      "type": "error"
    },
    {
      "inputs": [],
      "name": "TransferToZeroAddress",
      "type": "error"
    },
    {
      "inputs": [],
      "name": "URIQueryForNonexistentToken",
      "type": "error"
    },
    {
      "anonymous": false,
      "inputs": [
        {
          "indexed": true,
          "internalType": "address",
          "name": "owner",
          "type": "address"
        },
        {
          "indexed": true,
          "internalType": "address",
          "name": "approved",
          "type": "address"
        },
        {
          "indexed": true,
          "internalType": "uint256",
          "name": "tokenId",
          "type": "uint256"
        }
      ],
      "name": "Approval",
      "type": "event"
    },
    {
      "anonymous": false,
      "inputs": [
        {
          "indexed": true,
          "internalType": "address",
          "name": "owner",
          "type": "address"
        },
        {
          "indexed": true,
          "internalType": "address",
          "name": "operator",
          "type": "address"
        },
        {
          "indexed": false,
          "internalType": "bool",
          "name": "approved",
          "type": "bool"
        }
      ],
      "name": "ApprovalForAll",
      "type": "event"
    },
    {
      "anonymous": false,
      "inputs": [
        {
          "indexed": true,
          "internalType": "uint256",
          "name": "fromTokenId",
          "type": "uint256"
        },
        {
          "indexed": false,
          "internalType": "uint256",
          "name": "toTokenId",
          "type": "uint256"
        },
        {
          "indexed": true,
          "internalType": "address",
          "name": "from",
          "type": "address"
        },
        {
          "indexed": true,
          "internalType": "address",
          "name": "to",
          "type": "address"
        }
      ],
      "name": "ConsecutiveTransfer",
      "type": "event"
    },
    {
      "anonymous": false,
      "inputs": [
        {
          "indexed": false,
          "internalType": "uint64",
          "name": "version",
          "type": "uint64"
        }
      ],
      "name": "Initialized",
      "type": "event"
    },
    {
      "anonymous": false,
      "inputs": [
        {
          "indexed": true,
          "internalType": "address",
          "name": "from",
          "type": "address"
        },
        {
          "indexed": true,
          "internalType": "address",
          "name": "to",
          "type": "address"
        },
        {
          "indexed": true,
          "internalType": "uint256",
          "name": "tokenId",
          "type": "uint256"
        }
      ],
      "name": "Transfer",
      "type": "event"
    },
    {
      "inputs": [
        {
          "internalType": "address",
          "name": "to",
          "type": "address"
        },
        {
          "internalType": "uint256",
          "name": "tokenId",
          "type": "uint256"
        }
      ],
      "name": "approve",
      "outputs": [],
      "stateMutability": "payable",
      "type": "function"
    },
    {
      "inputs": [
        {
          "internalType": "address",
          "name": "owner",
          "type": "address"
        }
      ],
      "name": "balanceOf",
      "outputs": [
        {
          "internalType": "uint256",
          "name": "",
          "type": "uint256"
        }
      ],
      "stateMutability": "view",
      "type": "function"
    },
    {
      "inputs": [
        {
          "internalType": "uint256",
          "name": "tokenId",
          "type": "uint256"
        }
      ],
      "name": "explicitOwnershipOf",
      "outputs": [
        {
          "components": [
            {
              "internalType": "address",
              "name": "addr",
              "type": "address"
            },
            {
              "internalType": "uint64",
              "name": "startTimestamp",
              "type": "uint64"
            },
            {
              "internalType": "bool",
              "name": "burned",
              "type": "bool"
            },
            {
              "internalType": "uint24",
              "name": "extraData",
              "type": "uint24"
            }
          ],
          "internalType": "struct IERC721AUpgradeable.TokenOwnership",
          "name": "ownership",
          "type": "tuple"
        }
      ],
      "stateMutability": "view",
      "type": "function"
    },
    {
      "inputs": [
        {
          "internalType": "uint256[]",
          "name": "tokenIds",
          "type": "uint256[]"
        }
      ],
      "name": "explicitOwnershipsOf",
      "outputs": [
        {
          "components": [
            {
              "internalType": "address",
              "name": "addr",
              "type": "address"
            },
            {
              "internalType": "uint64",
              "name": "startTimestamp",
              "type": "uint64"
            },
            {
              "internalType": "bool",
              "name": "burned",
              "type": "bool"
            },
            {
              "internalType": "uint24",
              "name": "extraData",
              "type": "uint24"
            }
          ],
          "internalType": "struct IERC721AUpgradeable.TokenOwnership[]",
          "name": "",
          "type": "tuple[]"
        }
      ],
      "stateMutability": "view",
      "type": "function"
    },
    {
      "inputs": [
        {
          "internalType": "uint256",
          "name": "tokenId",
          "type": "uint256"
        }
      ],
      "name": "getApproved",
      "outputs": [
        {
          "internalType": "address",
          "name": "",
          "type": "address"
        }
      ],
      "stateMutability": "view",
      "type": "function"
    },
    {
      "inputs": [],
      "name": "initialize",
      "outputs": [],
      "stateMutability": "nonpayable",
      "type": "function"
    },
    {
      "inputs": [
        {
          "internalType": "address",
          "name": "owner",
          "type": "address"
        },
        {
          "internalType": "address",
          "name": "operator",
          "type": "address"
        }
      ],
      "name": "isApprovedForAll",
      "outputs": [
        {
          "internalType": "bool",
          "name": "",
          "type": "bool"
        }
      ],
      "stateMutability": "view",
      "type": "function"
    },
    {
      "inputs": [
        {
          "internalType": "address",
          "name": "account",
          "type": "address"
        },
        {
          "internalType": "uint256",
          "name": "quantity",
          "type": "uint256"
        }
      ],
      "name": "mint",
      "outputs": [],
      "stateMutability": "nonpayable",
      "type": "function"
    },
    {
      "inputs": [],
      "name": "name",
      "outputs": [
        {
          "internalType": "string",
          "name": "",
          "type": "string"
        }
      ],
      "stateMutability": "view",
      "type": "function"
    },
    {
      "inputs": [
        {
          "internalType": "uint256",
          "name": "tokenId",
          "type": "uint256"
        }
      ],
      "name": "ownerOf",
      "outputs": [
        {
          "internalType": "address",
          "name": "",
          "type": "address"
        }
      ],
      "stateMutability": "view",
      "type": "function"
    },
    {
      "inputs": [
        {
          "internalType": "address",
          "name": "from",
          "type": "address"
        },
        {
          "internalType": "address",
          "name": "to",
          "type": "address"
        },
        {
          "internalType": "uint256",
          "name": "tokenId",
          "type": "uint256"
        }
      ],
      "name": "safeTransferFrom",
      "outputs": [],
      "stateMutability": "payable",
      "type": "function"
    },
    {
      "inputs": [
        {
          "internalType": "address",
          "name": "from",
          "type": "address"
        },
        {
          "internalType": "address",
          "name": "to",
          "type": "address"
        },
        {
          "internalType": "uint256",
          "name": "tokenId",
          "type": "uint256"
        },
        {
          "internalType": "bytes",
          "name": "_data",
          "type": "bytes"
        }
      ],
      "name": "safeTransferFrom",
      "outputs": [],
      "stateMutability": "payable",
      "type": "function"
    },
    {
      "inputs": [
        {
          "internalType": "address",
          "name": "operator",
          "type": "address"
        },
        {
          "internalType": "bool",
          "name": "approved",
          "type": "bool"
        }
      ],
      "name": "setApprovalForAll",
      "outputs": [],
      "stateMutability": "nonpayable",
      "type": "function"
    },
    {
      "inputs": [
        {
          "internalType": "bytes4",
          "name": "interfaceId",
          "type": "bytes4"
        }
      ],
      "name": "supportsInterface",
      "outputs": [
        {
          "internalType": "bool",
          "name": "",
          "type": "bool"
        }
      ],
      "stateMutability": "view",
      "type": "function"
    },
    {
      "inputs": [],
      "name": "symbol",
      "outputs": [
        {
          "internalType": "string",
          "name": "",
          "type": "string"
        }
      ],
      "stateMutability": "view",
      "type": "function"
    },
    {
      "inputs": [
        {
          "internalType": "uint256",
          "name": "tokenId",
          "type": "uint256"
        }
      ],
      "name": "tokenURI",
      "outputs": [
        {
          "internalType": "string",
          "name": "",
          "type": "string"
        }
      ],
      "stateMutability": "view",
      "type": "function"
    },
    {
      "inputs": [
        {
          "internalType": "address",
          "name": "owner",
          "type": "address"
        }
      ],
      "name": "tokensOfOwner",
      "outputs": [
        {
          "internalType": "uint256[]",
          "name": "",
          "type": "uint256[]"
        }
      ],
      "stateMutability": "view",
      "type": "function"
    },
    {
      "inputs": [
        {
          "internalType": "address",
          "name": "owner",
          "type": "address"
        },
        {
          "internalType": "uint256",
          "name": "start",
          "type": "uint256"
        },
        {
          "internalType": "uint256",
          "name": "stop",
          "type": "uint256"
        }
      ],
      "name": "tokensOfOwnerIn",
      "outputs": [
        {
          "internalType": "uint256[]",
          "name": "",
          "type": "uint256[]"
        }
      ],
      "stateMutability": "view",
      "type": "function"
    },
    {
      "inputs": [],
      "name": "totalSupply",
      "outputs": [
        {
          "internalType": "uint256",
          "name": "result",
          "type": "uint256"
        }
      ],
      "stateMutability": "view",
      "type": "function"
    },
    {
      "inputs": [
        {
          "internalType": "address",
          "name": "from",
          "type": "address"
        },
        {
          "internalType": "address",
          "name": "to",
          "type": "address"
        },
        {
          "internalType": "uint256",
          "name": "tokenId",
          "type": "uint256"
        }
      ],
      "name": "transferFrom",
      "outputs": [],
      "stateMutability": "payable",
      "type": "function"
    }
  ],
  "bytecode": "0x6080604052348015600f57600080fd5b506016601a565b60ca565b7ff0c57e16840df040f15088dc2f81fe391c3923bec73e23a9662efc9c229c6a00805468010000000000000000900460ff161560695760405163f92ee8a960e01b815260040160405180910390fd5b80546001600160401b039081161460c75780546001600160401b0319166001600160401b0390811782556040519081527fc7f505b2f371ae2175ee4913f4499e1f2633a7b5936321eed1cdaeb6115181d29060200160405180910390a15b50565b6116d2806100d96000396000f3fe60806040526004361061011f5760003560e01c806370a08231116100a0578063a22cb46511610064578063a22cb46514610315578063b88d4fde14610335578063c23dc68f14610348578063c87b56dd14610375578063e985e9c51461039557600080fd5b806370a082311461027e5780638129fc1c1461029e5780638462151c146102b357806395d89b41146102e057806399a2557a146102f557600080fd5b806323b872dd116100e757806323b872dd146101eb57806340c10f19146101fe57806342842e0e1461021e5780635bbb2177146102315780636352211e1461025e57600080fd5b806301ffc9a71461012457806306fdde0314610159578063081812fc1461017b578063095ea7b3146101b357806318160ddd146101c8575b600080fd5b34801561013057600080fd5b5061014461013f366004611189565b6103b5565b60405190151581526020015b60405180910390f35b34801561016557600080fd5b5061016e610407565b60405161015091906111f6565b34801561018757600080fd5b5061019b610196366004611209565b6104a2565b6040516001600160a01b039091168152602001610150565b6101c66101c1366004611239565b6104e6565b005b3480156101d457600080fd5b506101dd6104f6565b604051908152602001610150565b6101c66101f9366004611263565b610515565b34801561020a57600080fd5b506101c6610219366004611239565b6106d8565b6101c661022c366004611263565b6106e2565b34801561023d57600080fd5b5061025161024c36600461129f565b610702565b6040516101509190611351565b34801561026a57600080fd5b5061019b610279366004611209565b61074e565b34801561028a57600080fd5b506101dd61029936600461139f565b610759565b3480156102aa57600080fd5b506101c66107b9565b3480156102bf57600080fd5b506102d36102ce36600461139f565b6108c6565b60405161015091906113ba565b3480156102ec57600080fd5b5061016e6108f4565b34801561030157600080fd5b506102d36103103660046113f2565b61090c565b34801561032157600080fd5b506101c6610330366004611425565b610919565b6101c6610343366004611477565b610996565b34801561035457600080fd5b50610368610363366004611209565b6109d7565b6040516101509190611553565b34801561038157600080fd5b5061016e610390366004611209565b610a32565b3480156103a157600080fd5b506101446103b0366004611561565b610aba565b60006301ffc9a760e01b6001600160e01b0319831614806103e657506380ac58cd60e01b6001600160e01b03198316145b806104015750635b5e139f60e01b6001600160e01b03198316145b92915050565b6060610411610af7565b600201805461041f90611594565b80601f016020809104026020016040519081016040528092919081815260200182805461044b90611594565b80156104985780601f1061046d57610100808354040283529160200191610498565b820191906000526020600020905b81548152906001019060200180831161047b57829003601f168201915b5050505050905090565b60006104ad82610b1b565b6104c1576104c16333d1c03960e21b610b71565b6104c9610af7565b60009283526006016020525060409020546001600160a01b031690565b6104f282826001610b7b565b5050565b600080610501610af7565b6001015461050d610af7565b540303905090565b600061052082610c2c565b6001600160a01b0394851694909150811684146105465761054662a1148160e81b610b71565b60008061055284610ce7565b9150915061057781876105623390565b6001600160a01b039081169116811491141790565b610599576105858633610aba565b61059957610599632ce44b5f60e11b610b71565b80156105a457600082555b6105ac610af7565b6001600160a01b03871660009081526005919091016020526040902080546000190190556105d8610af7565b6001600160a01b03861660008181526005929092016020526040909120805460010190554260a01b17600160e11b1761060f610af7565b60008681526004919091016020526040812091909155600160e11b84169003610685576001840161063e610af7565b6000828152600491909101602052604081205490036106835761065f610af7565b548114610683578361066f610af7565b600083815260049190910160205260409020555b505b6001600160a01b0385168481887fddf252ad1be2c89b69c2b068fc378daa952ba7f163c4a11628f55a4df523b3ef600080a4806000036106cf576106cf633a954ecd60e21b610b71565b50505050505050565b6104f28282610d0f565b6106fd83838360405180602001604052806000815250610996565b505050565b60408051828152600583901b8082016020019092526060915b801561074657601f1980820191860101356000610737826109d7565b848401602001525061071b9050565b509392505050565b600061040182610c2c565b60006001600160a01b038216610779576107796323d3ad8160e21b610b71565b67ffffffffffffffff61078a610af7565b6005016000846001600160a01b03166001600160a01b0316815260200190815260200160002054169050919050565b60008051602061167d83398151915254610100900460ff166107ee5760008051602061167d8339815191525460ff16156107f2565b303b155b6108685760405162461bcd60e51b815260206004820152603760248201527f455243373231415f5f496e697469616c697a61626c653a20636f6e747261637460448201527f20697320616c726561647920696e697469616c697a6564000000000000000000606482015260840160405180910390fd5b60008051602061167d83398151915254610100900460ff161580156108a45760008051602061167d833981519152805461ffff19166101011790555b80156108c35760008051602061167d833981519152805461ff00191690555b50565b60606000806108d3610d29565b905060608183146108ec576108e9858484610d39565b90505b949350505050565b60606108fe610af7565b600301805461041f90611594565b60606108ec848484610d39565b80610922610af7565b336000818152600792909201602090815260408084206001600160a01b03881680865290835293819020805460ff19169515159590951790945592518415158152919290917f17307eab39ab6107e8899845ad3d59bd9653f200f220920489ca2b5937696c31910160405180910390a35050565b6109a1848484610515565b6001600160a01b0383163b156109d1576109bd84848484610e3b565b6109d1576109d16368d2bf6b60e11b610b71565b50505050565b604080516080810182526000808252602082018190529181018290526060810191909152610a03610d29565b821015610a2d575b610a1482610fa7565b610a245760001990910190610a0b565b61040182610f1d565b919050565b6060610a3d82610b1b565b610a5157610a51630a14c4b560e41b610b71565b6000610a6860408051602081019091526000815290565b90508051600003610a885760405180602001604052806000815250610ab3565b80610a9284610fc7565b604051602001610aa39291906115ce565b6040516020818303038152906040525b9392505050565b6000610ac4610af7565b6001600160a01b039384166000908152600791909101602090815260408083209490951682529290925250205460ff1690565b7f2569078dfb4b0305704d3008e7403993ae9601b85f7ae5e742de3de8f8011c4090565b6000610b25610af7565b54821015610a2d5760005b610b38610af7565b600084815260049190910160205260408120549150819003610b6457610b5d836115fd565b9250610b30565b600160e01b161592915050565b8060005260046000fd5b6000610b868361074e565b9050818015610b9e5750336001600160a01b03821614155b15610bc157610bad8133610aba565b610bc157610bc16367d9dca160e11b610b71565b83610bca610af7565b6000858152600691909101602052604080822080546001600160a01b0319166001600160a01b0394851617905551859287811692908516917f8c5be1e5ebec7d5bd14f71427d1e84f3dd0314c0f7b2291e5b200ac8c7c3b9259190a450505050565b6000610c36610af7565b60008381526004919091016020526040902054905080600003610cc457610c5b610af7565b548210610c7257610c72636f96cda160e11b610b71565b610c7a610af7565b600019909201600081815260049390930160205260409092205490508015610c7257600160e01b8116600003610caf57919050565b610cbf636f96cda160e11b610b71565b610c72565b600160e01b8116600003610cd757919050565b610a2d636f96cda160e11b610b71565b6000806000610cf4610af7565b60009485526006016020525050604090912080549092909150565b6104f282826040518060200160405280600081525061100b565b6000610d33610af7565b54919050565b6060818310610d5257610d52631960ccad60e11b610b71565b6000610d5c610d29565b905080808410610d6a578093505b6000610d7587610759565b9050848610610d82575060005b8015610e31578086860311610d9657508484035b604080516001830160051b81019182905294506000610db4886109d7565b905060008160400151610dc5575080515b60005b610dd18a610f1d565b9250604083015160008114610de95760009250610e0e565b835115610df557835192505b8b831860601b610e0e576001820191508a8260051b8a01525b5060018a01995083604052888a1480610e2657508481145b15610dc85787525050505b5050509392505050565b604051630a85bd0160e11b81526000906001600160a01b0385169063150b7a0290610e70903390899088908890600401611622565b6020604051808303816000875af1925050508015610eab575060408051601f3d908101601f19168201909252610ea89181019061165f565b60015b610f00573d808015610ed9576040519150601f19603f3d011682016040523d82523d6000602084013e610ede565b606091505b508051600003610ef857610ef86368d2bf6b60e11b610b71565b805181602001fd5b6001600160e01b031916630a85bd0160e11b149050949350505050565b604080516080810182526000808252602082018190529181018290526060810191909152610401610f4c610af7565b60008481526004919091016020526040902054604080516080810182526001600160a01b038316815260a083901c67ffffffffffffffff166020820152600160e01b831615159181019190915260e89190911c606082015290565b6000610fb1610af7565b6000928352600401602052506040902054151590565b606060a06040510180604052602081039150506000815280825b600183039250600a81066030018353600a900480610fe15750819003601f19909101908152919050565b611015838361107f565b6001600160a01b0383163b156106fd57600061102f610af7565b5490508281035b6110496000868380600101945086610e3b565b61105d5761105d6368d2bf6b60e11b610b71565b818110611036578161106d610af7565b541461107857600080fd5b5050505050565b6000611089610af7565b54905060008290036110a5576110a563b562e8dd60e01b610b71565b6001600160a01b0383164260a01b6001841460e11b17176110c4610af7565b600083815260049190910160205260409020556801000000000000000182026110eb610af7565b6001600160a01b038516600081815260059290920160205260408220805490930190925581900361112557611125622e076360e81b610b71565b818301825b808360007fddf252ad1be2c89b69c2b068fc378daa952ba7f163c4a11628f55a4df523b3ef600080a481816001019150810361112a5781611169610af7565b55506106fd915050565b6001600160e01b0319811681146108c357600080fd5b60006020828403121561119b57600080fd5b8135610ab381611173565b60005b838110156111c15781810151838201526020016111a9565b50506000910152565b600081518084526111e28160208601602086016111a6565b601f01601f19169290920160200192915050565b602081526000610ab360208301846111ca565b60006020828403121561121b57600080fd5b5035919050565b80356001600160a01b0381168114610a2d57600080fd5b6000806040838503121561124c57600080fd5b61125583611222565b946020939093013593505050565b60008060006060848603121561127857600080fd5b61128184611222565b925061128f60208501611222565b9150604084013590509250925092565b600080602083850312156112b257600080fd5b823567ffffffffffffffff808211156112ca57600080fd5b818501915085601f8301126112de57600080fd5b8135818111156112ed57600080fd5b8660208260051b850101111561130257600080fd5b60209290920196919550909350505050565b80516001600160a01b0316825260208082015167ffffffffffffffff169083015260408082015115159083015260609081015162ffffff16910152565b6020808252825182820181905260009190848201906040850190845b8181101561139357611380838551611314565b928401926080929092019160010161136d565b50909695505050505050565b6000602082840312156113b157600080fd5b610ab382611222565b6020808252825182820181905260009190848201906040850190845b81811015611393578351835292840192918401916001016113d6565b60008060006060848603121561140757600080fd5b61141084611222565b95602085013595506040909401359392505050565b6000806040838503121561143857600080fd5b61144183611222565b91506020830135801515811461145657600080fd5b809150509250929050565b634e487b7160e01b600052604160045260246000fd5b6000806000806080858703121561148d57600080fd5b61149685611222565b93506114a460208601611222565b925060408501359150606085013567ffffffffffffffff808211156114c857600080fd5b818701915087601f8301126114dc57600080fd5b8135818111156114ee576114ee611461565b604051601f8201601f19908116603f0116810190838211818310171561151657611516611461565b816040528281528a602084870101111561152f57600080fd5b82602086016020830137600060208483010152809550505050505092959194509250565b608081016104018284611314565b6000806040838503121561157457600080fd5b61157d83611222565b915061158b60208401611222565b90509250929050565b600181811c908216806115a857607f821691505b6020821081036115c857634e487b7160e01b600052602260045260246000fd5b50919050565b600083516115e08184602088016111a6565b8351908301906115f48183602088016111a6565b01949350505050565b60008161161a57634e487b7160e01b600052601160045260246000fd5b506000190190565b6001600160a01b0385811682528416602082015260408101839052608060608201819052600090611655908301846111ca565b9695505050505050565b60006020828403121561167157600080fd5b8151610ab38161117356feee151c8401928dc223602bb187aff91b9a56c7cae5476ef1b3287b085a16c85fa2646970667358221220728c0d487620b62fcb57806a325e1241d98dafae32db8e4e9ba1001deeaf711b64736f6c63430008190033",
  "linkReferences": {},
  "deployedLinkReferences": {}
}