{
  "_format": "hh-sol-artifact-1",
  "contractName": "NodesSale",
  "sourceName": "contracts/NodesSale.sol",
  "abi": [
    {
      "inputs": [
        {
          "internalType": "address",
          "name": "owner",
          "type": "address"
        },
        {
          "internalType": "contract IERC20",
          "name": "erc20PaymentToken",
          "type": "address"
        },
        {
          "internalType": "address",
          "name": "nodeProviderPaymentAddress",
          "type": "address"
        },
        {
          "internalType": "address",
          "name": "ntPaymentAddress",
          "type": "address"
        },
        {
          "internalType": "uint256",
          "name": "maxAllowedNodes",
          "type": "uint256"
        },
        {
          "internalType": "uint256",
          "name": "ntCommissionsInBp",
          "type": "uint256"
        },
        {
          "internalType": "uint256",
          "name": "nodePrice",
          "type": "uint256"
        }
      ],
      "stateMutability": "nonpayable",
      "type": "constructor"
    },
    {
      "inputs": [],
      "name": "AccessControlBadConfirmation",
      "type": "error"
    },
    {
      "inputs": [
        {
          "internalType": "address",
          "name": "account",
          "type": "address"
        },
        {
          "internalType": "bytes32",
          "name": "neededRole",
          "type": "bytes32"
        }
      ],
      "name": "AccessControlUnauthorizedAccount",
      "type": "error"
    },
    {
      "inputs": [
        {
          "internalType": "address",
          "name": "target",
          "type": "address"
        }
      ],
      "name": "AddressEmptyCode",
      "type": "error"
    },
    {
      "inputs": [
        {
          "internalType": "address",
          "name": "account",
          "type": "address"
        }
      ],
      "name": "AddressInsufficientBalance",
      "type": "error"
    },
    {
      "inputs": [
        {
          "internalType": "bytes32",
          "name": "key",
          "type": "bytes32"
        }
      ],
      "name": "EnumerableMapNonexistentKey",
      "type": "error"
    },
    {
      "inputs": [],
      "name": "FailedInnerCall",
      "type": "error"
    },
    {
      "inputs": [],
      "name": "InsufficientAllowance",
      "type": "error"
    },
    {
      "inputs": [],
      "name": "InsufficientBalance",
      "type": "error"
    },
    {
      "inputs": [],
      "name": "InvalidParameter",
      "type": "error"
    },
    {
      "inputs": [],
      "name": "NodesAllAllocated",
      "type": "error"
    },
    {
      "inputs": [],
      "name": "ReentrancyGuardReentrantCall",
      "type": "error"
    },
    {
      "inputs": [
        {
          "internalType": "address",
          "name": "token",
          "type": "address"
        }
      ],
      "name": "SafeERC20FailedOperation",
      "type": "error"
    },
    {
      "inputs": [],
      "name": "SaleNotActive",
      "type": "error"
    },
    {
      "inputs": [],
      "name": "ZeroAddress",
      "type": "error"
    },
    {
      "anonymous": false,
      "inputs": [
        {
          "indexed": true,
          "internalType": "address",
          "name": "account",
          "type": "address"
        },
        {
          "indexed": false,
          "internalType": "uint256",
          "name": "numberOfNodes",
          "type": "uint256"
        }
      ],
      "name": "NodesAirdropped",
      "type": "event"
    },
    {
      "anonymous": false,
      "inputs": [
        {
          "indexed": true,
          "internalType": "address",
          "name": "account",
          "type": "address"
        },
        {
          "indexed": false,
          "internalType": "uint256",
          "name": "numberOfNodes",
          "type": "uint256"
        }
      ],
      "name": "NodesPurchased",
      "type": "event"
    },
    {
      "anonymous": false,
      "inputs": [
        {
          "indexed": true,
          "internalType": "address",
          "name": "account",
          "type": "address"
        },
        {
          "indexed": false,
          "internalType": "uint256",
          "name": "numberOfNodes",
          "type": "uint256"
        }
      ],
      "name": "NumberOfNodesUpdated",
      "type": "event"
    },
    {
      "anonymous": false,
      "inputs": [
        {
          "indexed": true,
          "internalType": "bytes32",
          "name": "role",
          "type": "bytes32"
        },
        {
          "indexed": true,
          "internalType": "bytes32",
          "name": "previousAdminRole",
          "type": "bytes32"
        },
        {
          "indexed": true,
          "internalType": "bytes32",
          "name": "newAdminRole",
          "type": "bytes32"
        }
      ],
      "name": "RoleAdminChanged",
      "type": "event"
    },
    {
      "anonymous": false,
      "inputs": [
        {
          "indexed": true,
          "internalType": "bytes32",
          "name": "role",
          "type": "bytes32"
        },
        {
          "indexed": true,
          "internalType": "address",
          "name": "account",
          "type": "address"
        },
        {
          "indexed": true,
          "internalType": "address",
          "name": "sender",
          "type": "address"
        }
      ],
      "name": "RoleGranted",
      "type": "event"
    },
    {
      "anonymous": false,
      "inputs": [
        {
          "indexed": true,
          "internalType": "bytes32",
          "name": "role",
          "type": "bytes32"
        },
        {
          "indexed": true,
          "internalType": "address",
          "name": "account",
          "type": "address"
        },
        {
          "indexed": true,
          "internalType": "address",
          "name": "sender",
          "type": "address"
        }
      ],
      "name": "RoleRevoked",
      "type": "event"
    },
    {
      "anonymous": false,
      "inputs": [
        {
          "indexed": true,
          "internalType": "bool",
          "name": "isActive",
          "type": "bool"
        }
      ],
      "name": "SaleActivationSet",
      "type": "event"
    },
    {
      "inputs": [],
      "name": "ADMIN_ROLE",
      "outputs": [
        {
          "internalType": "bytes32",
          "name": "",
          "type": "bytes32"
        }
      ],
      "stateMutability": "view",
      "type": "function"
    },
    {
      "inputs": [],
      "name": "DEFAULT_ADMIN_ROLE",
      "outputs": [
        {
          "internalType": "bytes32",
          "name": "",
          "type": "bytes32"
        }
      ],
      "stateMutability": "view",
      "type": "function"
    },
    {
      "inputs": [],
      "name": "MASTER_ROLE",
      "outputs": [
        {
          "internalType": "bytes32",
          "name": "",
          "type": "bytes32"
        }
      ],
      "stateMutability": "view",
      "type": "function"
    },
    {
      "inputs": [
        {
          "internalType": "address",
          "name": "account",
          "type": "address"
        },
        {
          "internalType": "uint256",
          "name": "numberOfNodes",
          "type": "uint256"
        }
      ],
      "name": "addMultipleNodes",
      "outputs": [],
      "stateMutability": "nonpayable",
      "type": "function"
    },
    {
      "inputs": [],
      "name": "commissionsWallet",
      "outputs": [
        {
          "internalType": "address",
          "name": "",
          "type": "address"
        }
      ],
      "stateMutability": "view",
      "type": "function"
    },
    {
      "inputs": [],
      "name": "getAccounts",
      "outputs": [
        {
          "internalType": "address[]",
          "name": "accounts",
          "type": "address[]"
        }
      ],
      "stateMutability": "view",
      "type": "function"
    },
    {
      "inputs": [],
      "name": "getAccountsAndNumberOfNodes",
      "outputs": [
        {
          "internalType": "address[]",
          "name": "accounts",
          "type": "address[]"
        },
        {
          "internalType": "uint256[]",
          "name": "nodes",
          "type": "uint256[]"
        }
      ],
      "stateMutability": "view",
      "type": "function"
    },
    {
      "inputs": [],
      "name": "getAvailableNodes",
      "outputs": [
        {
          "internalType": "uint256",
          "name": "available",
          "type": "uint256"
        }
      ],
      "stateMutability": "view",
      "type": "function"
    },
    {
      "inputs": [
        {
          "internalType": "address",
          "name": "account",
          "type": "address"
        }
      ],
      "name": "getNumberOfNodes",
      "outputs": [
        {
          "internalType": "uint256",
          "name": "",
          "type": "uint256"
        }
      ],
      "stateMutability": "view",
      "type": "function"
    },
    {
      "inputs": [],
      "name": "getPricePerNode",
      "outputs": [
        {
          "internalType": "uint256",
          "name": "price",
          "type": "uint256"
        }
      ],
      "stateMutability": "view",
      "type": "function"
    },
    {
      "inputs": [
        {
          "internalType": "bytes32",
          "name": "role",
          "type": "bytes32"
        }
      ],
      "name": "getRoleAdmin",
      "outputs": [
        {
          "internalType": "bytes32",
          "name": "",
          "type": "bytes32"
        }
      ],
      "stateMutability": "view",
      "type": "function"
    },
    {
      "inputs": [
        {
          "internalType": "bytes32",
          "name": "role",
          "type": "bytes32"
        },
        {
          "internalType": "uint256",
          "name": "index",
          "type": "uint256"
        }
      ],
      "name": "getRoleMember",
      "outputs": [
        {
          "internalType": "address",
          "name": "",
          "type": "address"
        }
      ],
      "stateMutability": "view",
      "type": "function"
    },
    {
      "inputs": [
        {
          "internalType": "bytes32",
          "name": "role",
          "type": "bytes32"
        }
      ],
      "name": "getRoleMemberCount",
      "outputs": [
        {
          "internalType": "uint256",
          "name": "",
          "type": "uint256"
        }
      ],
      "stateMutability": "view",
      "type": "function"
    },
    {
      "inputs": [
        {
          "internalType": "bytes32",
          "name": "role",
          "type": "bytes32"
        },
        {
          "internalType": "address",
          "name": "account",
          "type": "address"
        }
      ],
      "name": "grantRole",
      "outputs": [],
      "stateMutability": "nonpayable",
      "type": "function"
    },
    {
      "inputs": [
        {
          "internalType": "bytes32",
          "name": "role",
          "type": "bytes32"
        },
        {
          "internalType": "address",
          "name": "account",
          "type": "address"
        }
      ],
      "name": "hasRole",
      "outputs": [
        {
          "internalType": "bool",
          "name": "",
          "type": "bool"
        }
      ],
      "stateMutability": "view",
      "type": "function"
    },
    {
      "inputs": [],
      "name": "isSaleActive",
      "outputs": [
        {
          "internalType": "bool",
          "name": "",
          "type": "bool"
        }
      ],
      "stateMutability": "view",
      "type": "function"
    },
    {
      "inputs": [],
      "name": "maxSupply",
      "outputs": [
        {
          "internalType": "uint256",
          "name": "",
          "type": "uint256"
        }
      ],
      "stateMutability": "view",
      "type": "function"
    },
    {
      "inputs": [],
      "name": "nodeCount",
      "outputs": [
        {
          "internalType": "uint256",
          "name": "",
          "type": "uint256"
        }
      ],
      "stateMutability": "view",
      "type": "function"
    },
    {
      "inputs": [],
      "name": "nodeProviderWallet",
      "outputs": [
        {
          "internalType": "address",
          "name": "",
          "type": "address"
        }
      ],
      "stateMutability": "view",
      "type": "function"
    },
    {
      "inputs": [],
      "name": "ntCommissions",
      "outputs": [
        {
          "internalType": "uint256",
          "name": "",
          "type": "uint256"
        }
      ],
      "stateMutability": "view",
      "type": "function"
    },
    {
      "inputs": [],
      "name": "paymentToken",
      "outputs": [
        {
          "internalType": "contract IERC20",
          "name": "",
          "type": "address"
        }
      ],
      "stateMutability": "view",
      "type": "function"
    },
    {
      "inputs": [
        {
          "internalType": "uint256",
          "name": "numberOfNodes",
          "type": "uint256"
        }
      ],
      "name": "purchaseNodes",
      "outputs": [],
      "stateMutability": "nonpayable",
      "type": "function"
    },
    {
      "inputs": [
        {
          "internalType": "bytes32",
          "name": "role",
          "type": "bytes32"
        },
        {
          "internalType": "address",
          "name": "callerConfirmation",
          "type": "address"
        }
      ],
      "name": "renounceRole",
      "outputs": [],
      "stateMutability": "nonpayable",
      "type": "function"
    },
    {
      "inputs": [
        {
          "internalType": "bytes32",
          "name": "role",
          "type": "bytes32"
        },
        {
          "internalType": "address",
          "name": "account",
          "type": "address"
        }
      ],
      "name": "revokeRole",
      "outputs": [],
      "stateMutability": "nonpayable",
      "type": "function"
    },
    {
      "inputs": [
        {
          "internalType": "bool",
          "name": "state",
          "type": "bool"
        }
      ],
      "name": "setIsSaleActive",
      "outputs": [],
      "stateMutability": "nonpayable",
      "type": "function"
    },
    {
      "inputs": [
        {
          "internalType": "address",
          "name": "account",
          "type": "address"
        },
        {
          "internalType": "uint256",
          "name": "value",
          "type": "uint256"
        }
      ],
      "name": "setNumberOfNodes",
      "outputs": [],
      "stateMutability": "nonpayable",
      "type": "function"
    },
    {
      "inputs": [
        {
          "internalType": "bytes4",
          "name": "interfaceId",
          "type": "bytes4"
        }
      ],
      "name": "supportsInterface",
      "outputs": [
        {
          "internalType": "bool",
          "name": "",
          "type": "bool"
        }
      ],
      "stateMutability": "view",
      "type": "function"
    }
  ],
  "bytecode": "0x6101406040523480156200001257600080fd5b5060405162001a4c38038062001a4c83398101604081905262000035916200025e565b60016002556001600160a01b03871615806200005857506001600160a01b038616155b806200006b57506001600160a01b038516155b806200007e57506001600160a01b038416155b8062000088575082155b8062000092575081155b806200009c575080155b15620000bb57604051630309cb8760e51b815260040160405180910390fd5b60808390526001600160a01b0380871660a05285811660c052841660e052610100829052610120819052620000f260008862000100565b5050505050505050620002e5565b6000806200010f84846200013d565b9050801562000134576000848152600160205260409020620001329084620001eb565b505b90505b92915050565b6000828152602081815260408083206001600160a01b038516845290915281205460ff16620001e2576000838152602081815260408083206001600160a01b03861684529091529020805460ff19166001179055620001993390565b6001600160a01b0316826001600160a01b0316847f2f8788117e7eff1d82e926ec794901d17c78024a50270940304540a733656f0d60405160405180910390a450600162000137565b50600062000137565b600062000134836001600160a01b0384166000818152600183016020526040812054620001e25750815460018181018455600084815260208082209093018490558454848252828601909352604090209190915562000137565b6001600160a01b03811681146200025b57600080fd5b50565b600080600080600080600060e0888a0312156200027a57600080fd5b8751620002878162000245565b60208901519097506200029a8162000245565b6040890151909650620002ad8162000245565b6060890151909550620002c08162000245565b809450506080880151925060a0880151915060c0880151905092959891949750929550565b60805160a05160c05160e05161010051610120516116ca6200038260003960008181610315015281816104c60152610b350152600081816102c10152610b660152600081816103be0152610b9c01526000818161033e0152610bd40152600081816102470152818161050d015281816105b40152610db501526000818161041e01528181610758015281816107de0152610c0d01526116ca6000f3fe608060405234801561001057600080fd5b50600436106101a95760003560e01c80637caf7c92116100f9578063c3bc63e411610097578063d547741f11610071578063d547741f14610406578063d5abeb0114610419578063d79ed80414610440578063dc2248631461045357600080fd5b8063c3bc63e4146103b9578063ca15c873146103e0578063d2d65ff5146103f357600080fd5b80638d549f17116100d35780638d549f17146103755780639010d07c1461038b57806391d148541461039e578063a217fddf146103b157600080fd5b80637caf7c92146103135780637fcd7a54146103395780638a48ac031461036057600080fd5b806336568abe11610166578063564566a811610140578063564566a8146102af57806358a7dc2c146102bc5780636da49b83146102e357806375b238fc146102ec57600080fd5b806336568abe14610281578063436a014a1461029457806349b514f21461029c57600080fd5b806301be583b146101ae57806301ffc9a7146101c357806317fb4c3b146101eb578063248a9ca31461020c5780632f2ff15d1461022f5780633013ce2914610242575b600080fd5b6101c16101bc3660046113ac565b61047a565b005b6101d66101d13660046113c5565b6106a5565b60405190151581526020015b60405180910390f35b6101fe6101f936600461140b565b6106d0565b6040519081526020016101e2565b6101fe61021a3660046113ac565b60009081526020819052604090206001015490565b6101c161023d366004611426565b6106f3565b6102697f000000000000000000000000000000000000000000000000000000000000000081565b6040516001600160a01b0390911681526020016101e2565b6101c161028f366004611426565b61071e565b6101fe610751565b6101c16102aa366004611452565b610786565b6003546101d69060ff1681565b6101fe7f000000000000000000000000000000000000000000000000000000000000000081565b6101fe60045481565b6101fe7fa49807205ce4d355092ef5a8a18f56e8913cf4a201fbe287825b095693c2177581565b7f00000000000000000000000000000000000000000000000000000000000000006101fe565b6102697f000000000000000000000000000000000000000000000000000000000000000081565b610368610879565b6040516101e291906114c1565b61037d610885565b6040516101e29291906114d4565b61026961039936600461152b565b61099e565b6101d66103ac366004611426565b6109bd565b6101fe600081565b6102697f000000000000000000000000000000000000000000000000000000000000000081565b6101fe6103ee3660046113ac565b6109e6565b6101c161040136600461155b565b6109fd565b6101c1610414366004611426565b610a65565b6101fe7f000000000000000000000000000000000000000000000000000000000000000081565b6101c161044e366004611452565b610a8a565b6101fe7f8b8c0776df2c2176edf6f82391c35ea4891146d7a976ee36fd07f1a6fb4ead4c81565b60035460ff1661049d5760405163b7b2409760e01b815260040160405180910390fd5b80806000036104bf57604051630309cb8760e51b815260040160405180910390fd5b60006104eb7f00000000000000000000000000000000000000000000000000000000000000008361158e565b6040516370a0823160e01b815233600482015290915081906001600160a01b037f000000000000000000000000000000000000000000000000000000000000000016906370a0823190602401602060405180830381865afa158015610554573d6000803e3d6000fd5b505050506040513d601f19601f8201168201806040525081019061057891906115a5565b101561059757604051631e9acf1760e31b815260040160405180910390fd5b604051636eb1769f60e11b815233600482015230602482015281907f00000000000000000000000000000000000000000000000000000000000000006001600160a01b03169063dd62ed3e90604401602060405180830381865afa158015610603573d6000803e3d6000fd5b505050506040513d601f19601f8201168201806040525081019061062791906115a5565b1015610646576040516313be252b60e01b815260040160405180910390fd5b61064e610b06565b61065783610b2e565b6106613384610bf9565b60405183815233907fb1fa818518486db21d0612d7016d1f746b32651a7e8225bae5f00453713f2f909060200160405180910390a26106a06001600255565b505050565b60006001600160e01b03198216635a05180f60e01b14806106ca57506106ca82610c72565b92915050565b60006106dd600583610ca7565b6106e85760006106ca565b6106ca600583610cbc565b60008281526020819052604090206001015461070e81610cd1565b6107188383610cde565b50505050565b6001600160a01b03811633146107475760405163334bd91960e11b815260040160405180910390fd5b6106a08282610d13565b60006004547f000000000000000000000000000000000000000000000000000000000000000061078191906115be565b905090565b600061079181610cd1565b600061079c846106d0565b905060008184116107c3576107b184836115be565b6004546107be91906115be565b6107da565b6107cd82856115be565b6004546107da91906115d1565b90507f000000000000000000000000000000000000000000000000000000000000000081111561081d576040516373be2ceb60e01b815260040160405180910390fd5b600481905561082e60058686610d40565b50846001600160a01b03167f6084067be11d2a99b87a4584b9b4830451f2333678b321be652716ce0eb099028560405161086a91815260200190565b60405180910390a25050505050565b60606107816005610d5e565b60608060006108946005610d6b565b90508067ffffffffffffffff8111156108af576108af6115e4565b6040519080825280602002602001820160405280156108d8578160200160208202803683370190505b5092508067ffffffffffffffff8111156108f4576108f46115e4565b60405190808252806020026020018201604052801561091d578160200160208202803683370190505b50915060005b8181101561099857600080610939600584610d76565b9150915081868481518110610950576109506115fa565b60200260200101906001600160a01b031690816001600160a01b03168152505080858481518110610983576109836115fa565b60209081029190910101525050600101610923565b50509091565b60008281526001602052604081206109b69083610d92565b9392505050565b6000918252602082815260408084206001600160a01b0393909316845291905290205460ff1690565b60008181526001602052604081206106ca90610d9e565b7f8b8c0776df2c2176edf6f82391c35ea4891146d7a976ee36fd07f1a6fb4ead4c610a2781610cd1565b6003805460ff19168315159081179091556040517fbe3f4746d5114e9c4381d5d2ea1e5dc4e1acb7e7876b6a9a7b4e4a1179f572e490600090a25050565b600082815260208190526040902060010154610a8081610cd1565b6107188383610d13565b7fa49807205ce4d355092ef5a8a18f56e8913cf4a201fbe287825b095693c21775610ab481610cd1565b610abe8383610bf9565b826001600160a01b03167f3037cba7f4bf85701fc31c9d01f58f1e2e8604d58f4593ab104d9999a89b953083604051610af991815260200190565b60405180910390a2505050565b6002805403610b2857604051633ee5aeb560e01b815260040160405180910390fd5b60028055565b6000610b5a7f00000000000000000000000000000000000000000000000000000000000000008361158e565b90506000612710610b8b7f00000000000000000000000000000000000000000000000000000000000000008461158e565b610b959190611610565b9050610bc17f000000000000000000000000000000000000000000000000000000000000000082610da8565b6000610bcd82846115be565b90506107187f000000000000000000000000000000000000000000000000000000000000000082610da8565b600081600454610c0991906115d1565b90507f0000000000000000000000000000000000000000000000000000000000000000811115610c4c576040516373be2ceb60e01b815260040160405180910390fd5b60048190556107188383610c5f826106d0565b610c6991906115d1565b60059190610d40565b60006001600160e01b03198216637965db0b60e01b14806106ca57506301ffc9a760e01b6001600160e01b03198316146106ca565b60006109b6836001600160a01b038416610de1565b60006109b6836001600160a01b038416610ded565b610cdb8133610e39565b50565b600080610ceb8484610e72565b905080156109b6576000848152600160205260409020610d0b9084610f04565b509392505050565b600080610d208484610f19565b905080156109b6576000848152600160205260409020610d0b9084610f84565b6000610d56846001600160a01b03851684610f99565b949350505050565b606060006109b683610fb6565b60006106ca82610fc1565b6000808080610d858686610fcc565b9097909650945050505050565b60006109b68383610ff7565b60006106ca825490565b610ddd6001600160a01b037f000000000000000000000000000000000000000000000000000000000000000016338484611021565b5050565b60006109b6838361107b565b600081815260028301602052604081205480158015610e135750610e118484610de1565b155b156109b65760405163015ab34360e11b8152600481018490526024015b60405180910390fd5b610e4382826109bd565b610ddd5760405163e2517d3f60e01b81526001600160a01b038216600482015260248101839052604401610e30565b6000610e7e83836109bd565b610efc576000838152602081815260408083206001600160a01b03861684529091529020805460ff19166001179055610eb43390565b6001600160a01b0316826001600160a01b0316847f2f8788117e7eff1d82e926ec794901d17c78024a50270940304540a733656f0d60405160405180910390a45060016106ca565b5060006106ca565b60006109b6836001600160a01b038416611093565b6000610f2583836109bd565b15610efc576000838152602081815260408083206001600160a01b0386168085529252808320805460ff1916905551339286917ff6391f5c32d9c69d2a47ea670b442974b53935d1edc7fd64eb21e047a839171b9190a45060016106ca565b60006109b6836001600160a01b0384166110da565b60008281526002840160205260408120829055610d5684846111cd565b60606106ca826111d9565b60006106ca82610d9e565b60008080610fda8585610d92565b600081815260029690960160205260409095205494959350505050565b600082600001828154811061100e5761100e6115fa565b9060005260206000200154905092915050565b604080516001600160a01b0385811660248301528416604482015260648082018490528251808303909101815260849091019091526020810180516001600160e01b03166323b872dd60e01b1790526107189085906111e6565b600081815260018301602052604081205415156109b6565b6000818152600183016020526040812054610efc575081546001818101845560008481526020808220909301849055845484825282860190935260409020919091556106ca565b600081815260018301602052604081205480156111c35760006110fe6001836115be565b8554909150600090611112906001906115be565b9050808214611177576000866000018281548110611132576111326115fa565b9060005260206000200154905080876000018481548110611155576111556115fa565b6000918252602080832090910192909255918252600188019052604090208390555b855486908061118857611188611632565b6001900381819060005260206000200160009055905585600101600086815260200190815260200160002060009055600193505050506106ca565b60009150506106ca565b60006109b68383611093565b606060006109b683611249565b60006111fb6001600160a01b038416836112a5565b9050805160001415801561122057508080602001905181019061121e9190611648565b155b156106a057604051635274afe760e01b81526001600160a01b0384166004820152602401610e30565b60608160000180548060200260200160405190810160405280929190818152602001828054801561129957602002820191906000526020600020905b815481526020019060010190808311611285575b50505050509050919050565b60606109b68383600084600080856001600160a01b031684866040516112cb9190611665565b60006040518083038185875af1925050503d8060008114611308576040519150601f19603f3d011682016040523d82523d6000602084013e61130d565b606091505b509150915061131d868383611327565b9695505050505050565b60608261133c5761133782611383565b6109b6565b815115801561135357506001600160a01b0384163b155b1561137c57604051639996b31560e01b81526001600160a01b0385166004820152602401610e30565b50806109b6565b8051156113935780518082602001fd5b604051630a12f52160e11b815260040160405180910390fd5b6000602082840312156113be57600080fd5b5035919050565b6000602082840312156113d757600080fd5b81356001600160e01b0319811681146109b657600080fd5b80356001600160a01b038116811461140657600080fd5b919050565b60006020828403121561141d57600080fd5b6109b6826113ef565b6000806040838503121561143957600080fd5b82359150611449602084016113ef565b90509250929050565b6000806040838503121561146557600080fd5b61146e836113ef565b946020939093013593505050565b60008151808452602080850194506020840160005b838110156114b65781516001600160a01b031687529582019590820190600101611491565b509495945050505050565b6020815260006109b6602083018461147c565b6040815260006114e7604083018561147c565b82810360208481019190915284518083528582019282019060005b8181101561151e57845183529383019391830191600101611502565b5090979650505050505050565b6000806040838503121561153e57600080fd5b50508035926020909101359150565b8015158114610cdb57600080fd5b60006020828403121561156d57600080fd5b81356109b68161154d565b634e487b7160e01b600052601160045260246000fd5b80820281158282048414176106ca576106ca611578565b6000602082840312156115b757600080fd5b5051919050565b818103818111156106ca576106ca611578565b808201808211156106ca576106ca611578565b634e487b7160e01b600052604160045260246000fd5b634e487b7160e01b600052603260045260246000fd5b60008261162d57634e487b7160e01b600052601260045260246000fd5b500490565b634e487b7160e01b600052603160045260246000fd5b60006020828403121561165a57600080fd5b81516109b68161154d565b6000825160005b81811015611686576020818601810151858301520161166c565b50600092019182525091905056fea264697066735822122044e9a9552eb7ec0ccb610c28c86a159a5504404add67dc99ac6a866b16aca9c164736f6c63430008180033",
  "linkReferences": {},
  "deployedLinkReferences": {}
}