{
  "contracts/NodesSale.sol": {
    "NodesSale": {
      "abi": [
        {
          "inputs": [
            {
              "internalType": "address",
              "name": "owner",
              "type": "address"
            },
            {
              "internalType": "address",
              "name": "erc20PaymentToken",
              "type": "address"
            },
            {
              "internalType": "address",
              "name": "nodeProviderPaymentAddress",
              "type": "address"
            },
            {
              "internalType": "address",
              "name": "ntPaymentAddress",
              "type": "address"
            },
            {
              "internalType": "uint256",
              "name": "maxAllowedNodes",
              "type": "uint256"
            },
            {
              "internalType": "uint256",
              "name": "ntCommissionsInBp",
              "type": "uint256"
            },
            {
              "internalType": "uint256",
              "name": "nodePrice",
              "type": "uint256"
            },
            {
              "internalType": "uint256",
              "name": "commonCap",
              "type": "uint256"
            }
          ],
          "stateMutability": "nonpayable",
          "type": "constructor"
        },
        {
          "inputs": [],
          "name": "AccessControlBadConfirmation",
          "type": "error"
        },
        {
          "inputs": [
            {
              "internalType": "address",
              "name": "account",
              "type": "address"
            },
            {
              "internalType": "bytes32",
              "name": "neededRole",
              "type": "bytes32"
            }
          ],
          "name": "AccessControlUnauthorizedAccount",
          "type": "error"
        },
        {
          "inputs": [
            {
              "internalType": "address",
              "name": "target",
              "type": "address"
            }
          ],
          "name": "AddressEmptyCode",
          "type": "error"
        },
        {
          "inputs": [
            {
              "internalType": "address",
              "name": "account",
              "type": "address"
            }
          ],
          "name": "AddressInsufficientBalance",
          "type": "error"
        },
        {
          "inputs": [
            {
              "internalType": "bytes32",
              "name": "key",
              "type": "bytes32"
            }
          ],
          "name": "EnumerableMapNonexistentKey",
          "type": "error"
        },
        {
          "inputs": [],
          "name": "FailedInnerCall",
          "type": "error"
        },
        {
          "inputs": [],
          "name": "InsufficientAllowance",
          "type": "error"
        },
        {
          "inputs": [],
          "name": "InsufficientBalance",
          "type": "error"
        },
        {
          "inputs": [],
          "name": "InvalidParameter",
          "type": "error"
        },
        {
          "inputs": [],
          "name": "NodesAllAllocated",
          "type": "error"
        },
        {
          "inputs": [],
          "name": "ReentrancyGuardReentrantCall",
          "type": "error"
        },
        {
          "inputs": [
            {
              "internalType": "address",
              "name": "token",
              "type": "address"
            }
          ],
          "name": "SafeERC20FailedOperation",
          "type": "error"
        },
        {
          "inputs": [],
          "name": "SaleNotActive",
          "type": "error"
        },
        {
          "inputs": [],
          "name": "WalletCapExceeded",
          "type": "error"
        },
        {
          "inputs": [],
          "name": "ZeroAddress",
          "type": "error"
        },
        {
          "anonymous": false,
          "inputs": [
            {
              "indexed": true,
              "internalType": "address",
              "name": "caller",
              "type": "address"
            },
            {
              "indexed": true,
              "internalType": "uint256",
              "name": "newCap",
              "type": "uint256"
            }
          ],
          "name": "CommonWalletCapChanged",
          "type": "event"
        },
        {
          "anonymous": false,
          "inputs": [
            {
              "indexed": true,
              "internalType": "address",
              "name": "account",
              "type": "address"
            },
            {
              "indexed": true,
              "internalType": "uint256",
              "name": "newMaxSupply",
              "type": "uint256"
            }
          ],
          "name": "MaxSupplyChanged",
          "type": "event"
        },
        {
          "anonymous": false,
          "inputs": [
            {
              "indexed": true,
              "internalType": "address",
              "name": "account",
              "type": "address"
            },
            {
              "indexed": true,
              "internalType": "uint256",
              "name": "newPrice",
              "type": "uint256"
            }
          ],
          "name": "NodePriceChanged",
          "type": "event"
        },
        {
          "anonymous": false,
          "inputs": [
            {
              "indexed": true,
              "internalType": "address",
              "name": "account",
              "type": "address"
            },
            {
              "indexed": false,
              "internalType": "uint256",
              "name": "numberOfNodes",
              "type": "uint256"
            }
          ],
          "name": "NodesAirdropped",
          "type": "event"
        },
        {
          "anonymous": false,
          "inputs": [
            {
              "indexed": true,
              "internalType": "address",
              "name": "account",
              "type": "address"
            },
            {
              "indexed": false,
              "internalType": "uint256",
              "name": "numberOfNodes",
              "type": "uint256"
            }
          ],
          "name": "NodesPurchased",
          "type": "event"
        },
        {
          "anonymous": false,
          "inputs": [
            {
              "indexed": true,
              "internalType": "address",
              "name": "account",
              "type": "address"
            },
            {
              "indexed": false,
              "internalType": "uint256",
              "name": "numberOfNodes",
              "type": "uint256"
            }
          ],
          "name": "NumberOfNodesUpdated",
          "type": "event"
        },
        {
          "anonymous": false,
          "inputs": [
            {
              "indexed": true,
              "internalType": "bytes32",
              "name": "role",
              "type": "bytes32"
            },
            {
              "indexed": true,
              "internalType": "bytes32",
              "name": "previousAdminRole",
              "type": "bytes32"
            },
            {
              "indexed": true,
              "internalType": "bytes32",
              "name": "newAdminRole",
              "type": "bytes32"
            }
          ],
          "name": "RoleAdminChanged",
          "type": "event"
        },
        {
          "anonymous": false,
          "inputs": [
            {
              "indexed": true,
              "internalType": "bytes32",
              "name": "role",
              "type": "bytes32"
            },
            {
              "indexed": true,
              "internalType": "address",
              "name": "account",
              "type": "address"
            },
            {
              "indexed": true,
              "internalType": "address",
              "name": "sender",
              "type": "address"
            }
          ],
          "name": "RoleGranted",
          "type": "event"
        },
        {
          "anonymous": false,
          "inputs": [
            {
              "indexed": true,
              "internalType": "bytes32",
              "name": "role",
              "type": "bytes32"
            },
            {
              "indexed": true,
              "internalType": "address",
              "name": "account",
              "type": "address"
            },
            {
              "indexed": true,
              "internalType": "address",
              "name": "sender",
              "type": "address"
            }
          ],
          "name": "RoleRevoked",
          "type": "event"
        },
        {
          "anonymous": false,
          "inputs": [
            {
              "indexed": true,
              "internalType": "bool",
              "name": "isActive",
              "type": "bool"
            }
          ],
          "name": "SaleActivationSet",
          "type": "event"
        },
        {
          "anonymous": false,
          "inputs": [
            {
              "indexed": true,
              "internalType": "address",
              "name": "caller",
              "type": "address"
            },
            {
              "indexed": true,
              "internalType": "address",
              "name": "account",
              "type": "address"
            },
            {
              "indexed": true,
              "internalType": "uint256",
              "name": "newCap",
              "type": "uint256"
            }
          ],
          "name": "SingleWalletCapChanged",
          "type": "event"
        },
        {
          "inputs": [],
          "name": "ADMIN_ROLE",
          "outputs": [
            {
              "internalType": "bytes32",
              "name": "",
              "type": "bytes32"
            }
          ],
          "stateMutability": "view",
          "type": "function"
        },
        {
          "inputs": [],
          "name": "DEFAULT_ADMIN_ROLE",
          "outputs": [
            {
              "internalType": "bytes32",
              "name": "",
              "type": "bytes32"
            }
          ],
          "stateMutability": "view",
          "type": "function"
        },
        {
          "inputs": [],
          "name": "MASTER_ROLE",
          "outputs": [
            {
              "internalType": "bytes32",
              "name": "",
              "type": "bytes32"
            }
          ],
          "stateMutability": "view",
          "type": "function"
        },
        {
          "inputs": [
            {
              "internalType": "address",
              "name": "account",
              "type": "address"
            },
            {
              "internalType": "uint256",
              "name": "numberOfNodes",
              "type": "uint256"
            }
          ],
          "name": "addMultipleNodes",
          "outputs": [],
          "stateMutability": "nonpayable",
          "type": "function"
        },
        {
          "inputs": [],
          "name": "commissionsWallet",
          "outputs": [
            {
              "internalType": "address",
              "name": "",
              "type": "address"
            }
          ],
          "stateMutability": "view",
          "type": "function"
        },
        {
          "inputs": [],
          "name": "commonWalletCap",
          "outputs": [
            {
              "internalType": "uint256",
              "name": "",
              "type": "uint256"
            }
          ],
          "stateMutability": "view",
          "type": "function"
        },
        {
          "inputs": [],
          "name": "getAccounts",
          "outputs": [
            {
              "internalType": "address[]",
              "name": "accounts",
              "type": "address[]"
            }
          ],
          "stateMutability": "view",
          "type": "function"
        },
        {
          "inputs": [],
          "name": "getAccountsAndNumberOfNodes",
          "outputs": [
            {
              "internalType": "address[]",
              "name": "accounts",
              "type": "address[]"
            },
            {
              "internalType": "uint256[]",
              "name": "nodes",
              "type": "uint256[]"
            }
          ],
          "stateMutability": "view",
          "type": "function"
        },
        {
          "inputs": [],
          "name": "getAvailableNodes",
          "outputs": [
            {
              "internalType": "uint256",
              "name": "available",
              "type": "uint256"
            }
          ],
          "stateMutability": "view",
          "type": "function"
        },
        {
          "inputs": [
            {
              "internalType": "address",
              "name": "account",
              "type": "address"
            }
          ],
          "name": "getNumberOfNodes",
          "outputs": [
            {
              "internalType": "uint256",
              "name": "",
              "type": "uint256"
            }
          ],
          "stateMutability": "view",
          "type": "function"
        },
        {
          "inputs": [],
          "name": "getPricePerNode",
          "outputs": [
            {
              "internalType": "uint256",
              "name": "price",
              "type": "uint256"
            }
          ],
          "stateMutability": "view",
          "type": "function"
        },
        {
          "inputs": [
            {
              "internalType": "bytes32",
              "name": "role",
              "type": "bytes32"
            }
          ],
          "name": "getRoleAdmin",
          "outputs": [
            {
              "internalType": "bytes32",
              "name": "",
              "type": "bytes32"
            }
          ],
          "stateMutability": "view",
          "type": "function"
        },
        {
          "inputs": [
            {
              "internalType": "bytes32",
              "name": "role",
              "type": "bytes32"
            },
            {
              "internalType": "uint256",
              "name": "index",
              "type": "uint256"
            }
          ],
          "name": "getRoleMember",
          "outputs": [
            {
              "internalType": "address",
              "name": "",
              "type": "address"
            }
          ],
          "stateMutability": "view",
          "type": "function"
        },
        {
          "inputs": [
            {
              "internalType": "bytes32",
              "name": "role",
              "type": "bytes32"
            }
          ],
          "name": "getRoleMemberCount",
          "outputs": [
            {
              "internalType": "uint256",
              "name": "",
              "type": "uint256"
            }
          ],
          "stateMutability": "view",
          "type": "function"
        },
        {
          "inputs": [
            {
              "internalType": "address",
              "name": "account",
              "type": "address"
            }
          ],
          "name": "getWalletCap",
          "outputs": [
            {
              "internalType": "uint256",
              "name": "",
              "type": "uint256"
            }
          ],
          "stateMutability": "view",
          "type": "function"
        },
        {
          "inputs": [
            {
              "internalType": "bytes32",
              "name": "role",
              "type": "bytes32"
            },
            {
              "internalType": "address",
              "name": "account",
              "type": "address"
            }
          ],
          "name": "grantRole",
          "outputs": [],
          "stateMutability": "nonpayable",
          "type": "function"
        },
        {
          "inputs": [
            {
              "internalType": "bytes32",
              "name": "role",
              "type": "bytes32"
            },
            {
              "internalType": "address",
              "name": "account",
              "type": "address"
            }
          ],
          "name": "hasRole",
          "outputs": [
            {
              "internalType": "bool",
              "name": "",
              "type": "bool"
            }
          ],
          "stateMutability": "view",
          "type": "function"
        },
        {
          "inputs": [],
          "name": "isSaleActive",
          "outputs": [
            {
              "internalType": "bool",
              "name": "",
              "type": "bool"
            }
          ],
          "stateMutability": "view",
          "type": "function"
        },
        {
          "inputs": [],
          "name": "maxSupply",
          "outputs": [
            {
              "internalType": "uint256",
              "name": "",
              "type": "uint256"
            }
          ],
          "stateMutability": "view",
          "type": "function"
        },
        {
          "inputs": [],
          "name": "nodeCount",
          "outputs": [
            {
              "internalType": "uint256",
              "name": "",
              "type": "uint256"
            }
          ],
          "stateMutability": "view",
          "type": "function"
        },
        {
          "inputs": [],
          "name": "nodeProviderWallet",
          "outputs": [
            {
              "internalType": "address",
              "name": "",
              "type": "address"
            }
          ],
          "stateMutability": "view",
          "type": "function"
        },
        {
          "inputs": [],
          "name": "ntCommissions",
          "outputs": [
            {
              "internalType": "uint256",
              "name": "",
              "type": "uint256"
            }
          ],
          "stateMutability": "view",
          "type": "function"
        },
        {
          "inputs": [],
          "name": "paymentToken",
          "outputs": [
            {
              "internalType": "address",
              "name": "",
              "type": "address"
            }
          ],
          "stateMutability": "view",
          "type": "function"
        },
        {
          "inputs": [
            {
              "internalType": "uint256",
              "name": "numberOfNodes",
              "type": "uint256"
            }
          ],
          "name": "purchaseNodes",
          "outputs": [],
          "stateMutability": "payable",
          "type": "function"
        },
        {
          "inputs": [
            {
              "internalType": "bytes32",
              "name": "role",
              "type": "bytes32"
            },
            {
              "internalType": "address",
              "name": "callerConfirmation",
              "type": "address"
            }
          ],
          "name": "renounceRole",
          "outputs": [],
          "stateMutability": "nonpayable",
          "type": "function"
        },
        {
          "inputs": [
            {
              "internalType": "bytes32",
              "name": "role",
              "type": "bytes32"
            },
            {
              "internalType": "address",
              "name": "account",
              "type": "address"
            }
          ],
          "name": "revokeRole",
          "outputs": [],
          "stateMutability": "nonpayable",
          "type": "function"
        },
        {
          "inputs": [
            {
              "internalType": "uint256",
              "name": "cap",
              "type": "uint256"
            }
          ],
          "name": "setCommonWalletCap",
          "outputs": [],
          "stateMutability": "nonpayable",
          "type": "function"
        },
        {
          "inputs": [
            {
              "internalType": "bool",
              "name": "state",
              "type": "bool"
            }
          ],
          "name": "setIsSaleActive",
          "outputs": [],
          "stateMutability": "nonpayable",
          "type": "function"
        },
        {
          "inputs": [
            {
              "internalType": "uint256",
              "name": "value",
              "type": "uint256"
            }
          ],
          "name": "setMaxSupply",
          "outputs": [],
          "stateMutability": "nonpayable",
          "type": "function"
        },
        {
          "inputs": [
            {
              "internalType": "address",
              "name": "account",
              "type": "address"
            },
            {
              "internalType": "uint256",
              "name": "value",
              "type": "uint256"
            }
          ],
          "name": "setNumberOfNodes",
          "outputs": [],
          "stateMutability": "nonpayable",
          "type": "function"
        },
        {
          "inputs": [
            {
              "internalType": "uint256",
              "name": "newPrice",
              "type": "uint256"
            }
          ],
          "name": "setPricePerNode",
          "outputs": [],
          "stateMutability": "nonpayable",
          "type": "function"
        },
        {
          "inputs": [
            {
              "internalType": "address",
              "name": "account",
              "type": "address"
            },
            {
              "internalType": "uint256",
              "name": "cap",
              "type": "uint256"
            }
          ],
          "name": "setSingleWalletCap",
          "outputs": [],
          "stateMutability": "nonpayable",
          "type": "function"
        },
        {
          "inputs": [
            {
              "internalType": "bytes4",
              "name": "interfaceId",
              "type": "bytes4"
            }
          ],
          "name": "supportsInterface",
          "outputs": [
            {
              "internalType": "bool",
              "name": "",
              "type": "bool"
            }
          ],
          "stateMutability": "view",
          "type": "function"
        }
      ],
      "devdoc": {
        "errors": {
          "AccessControlBadConfirmation()": [
            {
              "details": "The caller of a function is not the expected one. NOTE: Don't confuse with {AccessControlUnauthorizedAccount}."
            }
          ],
          "AccessControlUnauthorizedAccount(address,bytes32)": [
            {
              "details": "The `account` is missing a role."
            }
          ],
          "AddressEmptyCode(address)": [
            {
              "details": "There's no code at `target` (it is not a contract)."
            }
          ],
          "AddressInsufficientBalance(address)": [
            {
              "details": "The ETH balance of the account is not enough to perform the operation."
            }
          ],
          "EnumerableMapNonexistentKey(bytes32)": [
            {
              "details": "Query for a nonexistent map key."
            }
          ],
          "FailedInnerCall()": [
            {
              "details": "A call to an address target failed. The target may have reverted."
            }
          ],
          "ReentrancyGuardReentrantCall()": [
            {
              "details": "Unauthorized reentrant call."
            }
          ],
          "SafeERC20FailedOperation(address)": [
            {
              "details": "An operation with an ERC20 token failed."
            }
          ]
        },
        "events": {
          "CommonWalletCapChanged(address,uint256)": {
            "params": {
              "caller": "Address of wallet that changes common wallet cap",
              "newCap": "New common wallet cap"
            }
          },
          "MaxSupplyChanged(address,uint256)": {
            "params": {
              "account": "Address of wallet that changes max supply",
              "newMaxSupply": "New max supply"
            }
          },
          "NodePriceChanged(address,uint256)": {
            "params": {
              "account": "Address of wallet that changes node price",
              "newPrice": "New node price"
            }
          },
          "NodesAirdropped(address,uint256)": {
            "params": {
              "account": "Address of wallet that receives nodes",
              "numberOfNodes": "Number of nodes"
            }
          },
          "NodesPurchased(address,uint256)": {
            "params": {
              "account": "Address of wallet that receives nodes",
              "numberOfNodes": "Number of nodes"
            }
          },
          "NumberOfNodesUpdated(address,uint256)": {
            "params": {
              "account": "Address of wallet that receives nodes",
              "numberOfNodes": "Number of nodes"
            }
          },
          "RoleAdminChanged(bytes32,bytes32,bytes32)": {
            "details": "Emitted when `newAdminRole` is set as ``role``'s admin role, replacing `previousAdminRole` `DEFAULT_ADMIN_ROLE` is the starting admin for all roles, despite {RoleAdminChanged} not being emitted signaling this."
          },
          "RoleGranted(bytes32,address,address)": {
            "details": "Emitted when `account` is granted `role`. `sender` is the account that originated the contract call, an admin role bearer except when using {AccessControl-_setupRole}."
          },
          "RoleRevoked(bytes32,address,address)": {
            "details": "Emitted when `account` is revoked `role`. `sender` is the account that originated the contract call:   - if using `revokeRole`, it is the admin role bearer   - if using `renounceRole`, it is the role bearer (i.e. `account`)"
          },
          "SaleActivationSet(bool)": {
            "params": {
              "isActive": "New activation status"
            }
          },
          "SingleWalletCapChanged(address,address,uint256)": {
            "params": {
              "account": "Address of wallet which cap is changed",
              "caller": "Address of wallet that changes single wallet cap",
              "newCap": "New single wallet cap"
            }
          }
        },
        "kind": "dev",
        "methods": {
          "addMultipleNodes(address,uint256)": {
            "details": "Requires admin role",
            "params": {
              "account": "Address of wallet that receives nodes",
              "numberOfNodes": "Number of nodes added"
            }
          },
          "constructor": {
            "params": {
              "commonCap": "Maximum number of nodes single wallet can purchase, if 0 then no limit",
              "erc20PaymentToken": "Address of payment token, if 0x0 then ETH is used",
              "maxAllowedNodes": "Maximum number of nodes put on sale",
              "nodePrice": "Price per node",
              "nodeProviderPaymentAddress": "Address of wallet that collects payment",
              "ntCommissionsInBp": "Commissions for NT in basis points",
              "ntPaymentAddress": "Address of wallet that collects commissions",
              "owner": "Address of contract owner"
            }
          },
          "getNumberOfNodes(address)": {
            "params": {
              "account": "Address of wallet"
            }
          },
          "getRoleAdmin(bytes32)": {
            "details": "Returns the admin role that controls `role`. See {grantRole} and {revokeRole}. To change a role's admin, use {_setRoleAdmin}."
          },
          "getRoleMember(bytes32,uint256)": {
            "details": "Returns one of the accounts that have `role`. `index` must be a value between 0 and {getRoleMemberCount}, non-inclusive. Role bearers are not sorted in any particular way, and their ordering may change at any point. WARNING: When using {getRoleMember} and {getRoleMemberCount}, make sure you perform all queries on the same block. See the following https://forum.openzeppelin.com/t/iterating-over-elements-on-enumerableset-in-openzeppelin-contracts/2296[forum post] for more information."
          },
          "getRoleMemberCount(bytes32)": {
            "details": "Returns the number of accounts that have `role`. Can be used together with {getRoleMember} to enumerate all bearers of a role."
          },
          "getWalletCap(address)": {
            "params": {
              "account": "Address of wallet"
            }
          },
          "grantRole(bytes32,address)": {
            "details": "Grants `role` to `account`. If `account` had not been already granted `role`, emits a {RoleGranted} event. Requirements: - the caller must have ``role``'s admin role. May emit a {RoleGranted} event."
          },
          "hasRole(bytes32,address)": {
            "details": "Returns `true` if `account` has been granted `role`."
          },
          "purchaseNodes(uint256)": {
            "details": "Requirements:- sale is active- account has sufficient balance- account has sufficient allowance",
            "params": {
              "numberOfNodes": "Number of nodes purchased"
            }
          },
          "renounceRole(bytes32,address)": {
            "details": "Revokes `role` from the calling account. Roles are often managed via {grantRole} and {revokeRole}: this function's purpose is to provide a mechanism for accounts to lose their privileges if they are compromised (such as when a trusted device is misplaced). If the calling account had been revoked `role`, emits a {RoleRevoked} event. Requirements: - the caller must be `callerConfirmation`. May emit a {RoleRevoked} event."
          },
          "revokeRole(bytes32,address)": {
            "details": "Revokes `role` from `account`. If `account` had been granted `role`, emits a {RoleRevoked} event. Requirements: - the caller must have ``role``'s admin role. May emit a {RoleRevoked} event."
          },
          "setCommonWalletCap(uint256)": {
            "details": "Requires admin role",
            "params": {
              "cap": "New wallet cap"
            }
          },
          "setIsSaleActive(bool)": {
            "details": "Requires master role",
            "params": {
              "state": "true or false"
            }
          },
          "setMaxSupply(uint256)": {
            "details": "Requires admin role",
            "params": {
              "value": "New max supply"
            }
          },
          "setNumberOfNodes(address,uint256)": {
            "details": "Requires default admin role",
            "params": {
              "account": "Address of wallet that receives nodes",
              "value": "New number of nodes"
            }
          },
          "setPricePerNode(uint256)": {
            "details": "Requires admin role",
            "params": {
              "newPrice": "New price per node"
            }
          },
          "setSingleWalletCap(address,uint256)": {
            "details": "Requires admin role",
            "params": {
              "account": "Address of wallet",
              "cap": "New wallet cap"
            }
          },
          "supportsInterface(bytes4)": {
            "details": "See {IERC165-supportsInterface}."
          }
        },
        "title": "Node sale contract for Node Terminal",
        "version": 1
      },
      "evm": {
        "bytecode": {
          "linkReferences": {},
          "object": "6101006040523480156200001257600080fd5b5060405162001f2938038062001f29833981016040819052620000359162000304565b60016002556001600160a01b03881615806200005857506001600160a01b038616155b806200006b57506001600160a01b038516155b8062000075575083155b806200007f575082155b8062000089575081155b15620000a857604051630309cb8760e51b815260040160405180910390fd5b6001600160a01b0380881660805286811660a052851660c05260e0839052620000d18262000103565b620000dc8462000138565b620000e7816200016d565b620000f4600089620001a2565b50505050505050505062000388565b6007819055604051819033907fabebbdca0a0eb22011751610703d50315edeb5985669335423b2f188ad4bc8f290600090a350565b6005819055604051819033907f28c4702f31a5488ef1826a30b4d837dab0940e925b9f503fe0644b7f1bd2f20f90600090a350565b6006819055604051819033907f4f1f7a7dd50dad7476574149e5ad81aeaf8b6e0a517c538da862b794cb0fb3f690600090a350565b600080620001b18484620001df565b90508015620001d6576000848152600160205260409020620001d490846200028d565b505b90505b92915050565b6000828152602081815260408083206001600160a01b038516845290915281205460ff1662000284576000838152602081815260408083206001600160a01b03861684529091529020805460ff191660011790556200023b3390565b6001600160a01b0316826001600160a01b0316847f2f8788117e7eff1d82e926ec794901d17c78024a50270940304540a733656f0d60405160405180910390a4506001620001d9565b506000620001d9565b6000620001d6836001600160a01b03841660008181526001830160205260408120546200028457508154600181810184556000848152602080822090930184905584548482528286019093526040902091909155620001d9565b80516001600160a01b0381168114620002ff57600080fd5b919050565b600080600080600080600080610100898b0312156200032257600080fd5b6200032d89620002e7565b97506200033d60208a01620002e7565b96506200034d60408a01620002e7565b95506200035d60608a01620002e7565b94506080890151935060a0890151925060c0890151915060e089015190509295985092959890939650565b60805160a05160c05160e051611b2f620003fa600039600081816103be0152610f2501526000818161058d0152610f5b01526000818161049f0152610f930152600081816102cd015281816106d701528181610740015281816107ef0152818161118f01526111fe0152611b2f6000f3fe6080604052600436106101ee5760003560e01c80636f8b44b01161010d578063a217fddf116100a0578063d2d65ff51161006f578063d2d65ff5146105cf578063d547741f146105ef578063d5abeb011461060f578063d79ed80414610625578063dc2248631461064557600080fd5b8063a217fddf14610546578063aaa1801e1461055b578063c3bc63e41461057b578063ca15c873146105af57600080fd5b80638a48ac03116100dc5780638a48ac03146104c15780638d549f17146104e35780639010d07c1461050657806391d148541461052657600080fd5b80636f8b44b01461043657806375b238fc146104565780637caf7c92146104785780637fcd7a541461048d57600080fd5b8063436a014a1161018557806358a7dc2c1161015457806358a7dc2c146103ac5780635a4074ef146103e05780636a991122146104005780636da49b831461042057600080fd5b8063436a014a1461033d57806349b514f214610352578063548cc74f14610372578063564566a81461039257600080fd5b80632f2ff15d116101c15780632f2ff15d1461029b5780633013ce29146102bb57806336568abe146103075780633d08c14f1461032757600080fd5b806301be583b146101f357806301ffc9a71461020857806317fb4c3b1461023d578063248a9ca31461026b575b600080fd5b6102066102013660046117f1565b610679565b005b34801561021457600080fd5b5061022861022336600461180a565b6108e0565b60405190151581526020015b60405180910390f35b34801561024957600080fd5b5061025d610258366004611850565b61090b565b604051908152602001610234565b34801561027757600080fd5b5061025d6102863660046117f1565b60009081526020819052604090206001015490565b3480156102a757600080fd5b506102066102b636600461186b565b61092e565b3480156102c757600080fd5b506102ef7f000000000000000000000000000000000000000000000000000000000000000081565b6040516001600160a01b039091168152602001610234565b34801561031357600080fd5b5061020661032236600461186b565b610959565b34801561033357600080fd5b5061025d60065481565b34801561034957600080fd5b5061025d61098c565b34801561035e57600080fd5b5061020661036d366004611897565b6109a3565b34801561037e57600080fd5b5061020661038d3660046117f1565b610a78565b34801561039e57600080fd5b506003546102289060ff1681565b3480156103b857600080fd5b5061025d7f000000000000000000000000000000000000000000000000000000000000000081565b3480156103ec57600080fd5b5061025d6103fb366004611850565b610abe565b34801561040c57600080fd5b5061020661041b366004611897565b610aed565b34801561042c57600080fd5b5061025d60045481565b34801561044257600080fd5b506102066104513660046117f1565b610b50565b34801561046257600080fd5b5061025d600080516020611ada83398151915281565b34801561048457600080fd5b5060075461025d565b34801561049957600080fd5b506102ef7f000000000000000000000000000000000000000000000000000000000000000081565b3480156104cd57600080fd5b506104d6610b94565b6040516102349190611906565b3480156104ef57600080fd5b506104f8610ba0565b604051610234929190611919565b34801561051257600080fd5b506102ef610521366004611970565b610cb9565b34801561053257600080fd5b5061022861054136600461186b565b610cd1565b34801561055257600080fd5b5061025d600081565b34801561056757600080fd5b506102066105763660046117f1565b610cfa565b34801561058757600080fd5b506102ef7f000000000000000000000000000000000000000000000000000000000000000081565b3480156105bb57600080fd5b5061025d6105ca3660046117f1565b610d1b565b3480156105db57600080fd5b506102066105ea3660046119a0565b610d32565b3480156105fb57600080fd5b5061020661060a36600461186b565b610d9a565b34801561061b57600080fd5b5061025d60055481565b34801561063157600080fd5b50610206610640366004611897565b610dbf565b34801561065157600080fd5b5061025d7f8b8c0776df2c2176edf6f82391c35ea4891146d7a976ee36fd07f1a6fb4ead4c81565b60035460ff1661069c5760405163b7b2409760e01b815260040160405180910390fd5b80806000036106be57604051630309cb8760e51b815260040160405180910390fd5b60006106c960075490565b6106d390836119d3565b90507f00000000000000000000000000000000000000000000000000000000000000006001600160a01b0316610729578034101561072457604051631e9acf1760e31b815260040160405180910390fd5b610881565b6040516370a0823160e01b815233600482015281907f00000000000000000000000000000000000000000000000000000000000000006001600160a01b0316906370a0823190602401602060405180830381865afa15801561078f573d6000803e3d6000fd5b505050506040513d601f19601f820116820180604052508101906107b391906119ea565b10156107d257604051631e9acf1760e31b815260040160405180910390fd5b604051636eb1769f60e11b815233600482015230602482015281907f00000000000000000000000000000000000000000000000000000000000000006001600160a01b03169063dd62ed3e90604401602060405180830381865afa15801561083e573d6000803e3d6000fd5b505050506040513d601f19601f8201168201806040525081019061086291906119ea565b1015610881576040516313be252b60e01b815260040160405180910390fd5b610889610e29565b6108933384610e51565b61089c83610f04565b60405183815233907fb1fa818518486db21d0612d7016d1f746b32651a7e8225bae5f00453713f2f909060200160405180910390a26108db6001600255565b505050565b60006001600160e01b03198216635a05180f60e01b1480610905575061090582610fb8565b92915050565b6000610918600883610fed565b610923576000610905565b610905600883611002565b60008281526020819052604090206001015461094981611017565b6109538383611024565b50505050565b6001600160a01b03811633146109825760405163334bd91960e11b815260040160405180910390fd5b6108db8282611059565b600060045460055461099e9190611a03565b905090565b60006109ae81611017565b60006109b98461090b565b905060008184116109e0576109ce8483611a03565b6004546109db9190611a03565b6109f7565b6109ea8285611a03565b6004546109f79190611a16565b9050600554811115610a1c576040516373be2ceb60e01b815260040160405180910390fd5b6004819055610a2d60088686611086565b50846001600160a01b03167f6084067be11d2a99b87a4584b9b4830451f2333678b321be652716ce0eb0990285604051610a6991815260200190565b60405180910390a25050505050565b600080516020611ada833981519152610a9081611017565b81600003610ab157604051630309cb8760e51b815260040160405180910390fd5b610aba826110a4565b5050565b6001600160a01b0381166000908152600b602052604081205480610ae457600654610ae6565b805b9392505050565b600080516020611ada833981519152610b0581611017565b6001600160a01b0383166000818152600b60205260408082208590555184929133917f1636bfb30653a611d751713530f2756f29de0cd0b8b675077b0b3bc85af712059190a4505050565b600080516020611ada833981519152610b6881611017565b600454821015610b8b57604051630309cb8760e51b815260040160405180910390fd5b610aba826110d9565b606061099e600861110e565b6060806000610baf600861111b565b90508067ffffffffffffffff811115610bca57610bca611a29565b604051908082528060200260200182016040528015610bf3578160200160208202803683370190505b5092508067ffffffffffffffff811115610c0f57610c0f611a29565b604051908082528060200260200182016040528015610c38578160200160208202803683370190505b50915060005b81811015610cb357600080610c54600884611126565b9150915081868481518110610c6b57610c6b611a3f565b60200260200101906001600160a01b031690816001600160a01b03168152505080858481518110610c9e57610c9e611a3f565b60209081029190910101525050600101610c3e565b50509091565b6000828152600160205260408120610ae69083611142565b6000918252602082815260408084206001600160a01b0393909316845291905290205460ff1690565b600080516020611ada833981519152610d1281611017565b610aba8261114e565b600081815260016020526040812061090590611183565b7f8b8c0776df2c2176edf6f82391c35ea4891146d7a976ee36fd07f1a6fb4ead4c610d5c81611017565b6003805460ff19168315159081179091556040517fbe3f4746d5114e9c4381d5d2ea1e5dc4e1acb7e7876b6a9a7b4e4a1179f572e490600090a25050565b600082815260208190526040902060010154610db581611017565b6109538383611059565b600080516020611ada833981519152610dd781611017565b610de18383610e51565b826001600160a01b03167f3037cba7f4bf85701fc31c9d01f58f1e2e8604d58f4593ab104d9999a89b953083604051610e1c91815260200190565b60405180910390a2505050565b6002805403610e4b57604051633ee5aeb560e01b815260040160405180910390fd5b60028055565b600081600454610e619190611a16565b9050600554811115610e86576040516373be2ceb60e01b815260040160405180910390fd5b600082610e928561090b565b610e9c9190611a16565b90506000610ea985610abe565b9050600081118015610eba57508082115b15610ed8576040516341f5f85960e11b815260040160405180910390fd5b8360046000828254610eea9190611a16565b90915550610efc905060088684611086565b505050505050565b6000610f0f60075490565b610f1990836119d3565b90506000612710610f4a7f0000000000000000000000000000000000000000000000000000000000000000846119d3565b610f549190611a55565b9050610f807f00000000000000000000000000000000000000000000000000000000000000008261118d565b6000610f8c8284611a03565b90506109537f00000000000000000000000000000000000000000000000000000000000000008261118d565b60006001600160e01b03198216637965db0b60e01b148061090557506301ffc9a760e01b6001600160e01b0319831614610905565b6000610ae6836001600160a01b038416611226565b6000610ae6836001600160a01b038416611232565b611021813361127e565b50565b60008061103184846112b7565b90508015610ae65760008481526001602052604090206110519084611349565b509392505050565b600080611066848461135e565b90508015610ae657600084815260016020526040902061105190846113c9565b600061109c846001600160a01b038516846113de565b949350505050565b6007819055604051819033907fabebbdca0a0eb22011751610703d50315edeb5985669335423b2f188ad4bc8f290600090a350565b6005819055604051819033907f28c4702f31a5488ef1826a30b4d837dab0940e925b9f503fe0644b7f1bd2f20f90600090a350565b60606000610ae6836113fb565b600061090582611406565b60008080806111358686611411565b9097909650945050505050565b6000610ae6838361143c565b6006819055604051819033907f4f1f7a7dd50dad7476574149e5ad81aeaf8b6e0a517c538da862b794cb0fb3f690600090a350565b6000610905825490565b7f00000000000000000000000000000000000000000000000000000000000000006001600160a01b03166111f1576040516001600160a01b0383169082156108fc029083906000818181858888f193505050501580156108db573d6000803e3d6000fd5b610aba6001600160a01b037f000000000000000000000000000000000000000000000000000000000000000016338484611466565b6000610ae683836114c0565b60008181526002830160205260408120548015801561125857506112568484611226565b155b15610ae65760405163015ab34360e11b8152600481018490526024015b60405180910390fd5b6112888282610cd1565b610aba5760405163e2517d3f60e01b81526001600160a01b038216600482015260248101839052604401611275565b60006112c38383610cd1565b611341576000838152602081815260408083206001600160a01b03861684529091529020805460ff191660011790556112f93390565b6001600160a01b0316826001600160a01b0316847f2f8788117e7eff1d82e926ec794901d17c78024a50270940304540a733656f0d60405160405180910390a4506001610905565b506000610905565b6000610ae6836001600160a01b0384166114d8565b600061136a8383610cd1565b15611341576000838152602081815260408083206001600160a01b0386168085529252808320805460ff1916905551339286917ff6391f5c32d9c69d2a47ea670b442974b53935d1edc7fd64eb21e047a839171b9190a4506001610905565b6000610ae6836001600160a01b03841661151f565b6000828152600284016020526040812082905561109c8484611612565b60606109058261161e565b600061090582611183565b6000808061141f8585611142565b600081815260029690960160205260409095205494959350505050565b600082600001828154811061145357611453611a3f565b9060005260206000200154905092915050565b604080516001600160a01b0385811660248301528416604482015260648082018490528251808303909101815260849091019091526020810180516001600160e01b03166323b872dd60e01b17905261095390859061162b565b60008181526001830160205260408120541515610ae6565b600081815260018301602052604081205461134157508154600181810184556000848152602080822090930184905584548482528286019093526040902091909155610905565b60008181526001830160205260408120548015611608576000611543600183611a03565b855490915060009061155790600190611a03565b90508082146115bc57600086600001828154811061157757611577611a3f565b906000526020600020015490508087600001848154811061159a5761159a611a3f565b6000918252602080832090910192909255918252600188019052604090208390555b85548690806115cd576115cd611a77565b600190038181906000526020600020016000905590558560010160008681526020019081526020016000206000905560019350505050610905565b6000915050610905565b6000610ae683836114d8565b60606000610ae68361168e565b60006116406001600160a01b038416836116ea565b905080516000141580156116655750808060200190518101906116639190611a8d565b155b156108db57604051635274afe760e01b81526001600160a01b0384166004820152602401611275565b6060816000018054806020026020016040519081016040528092919081815260200182805480156116de57602002820191906000526020600020905b8154815260200190600101908083116116ca575b50505050509050919050565b6060610ae68383600084600080856001600160a01b031684866040516117109190611aaa565b60006040518083038185875af1925050503d806000811461174d576040519150601f19603f3d011682016040523d82523d6000602084013e611752565b606091505b509150915061176286838361176c565b9695505050505050565b6060826117815761177c826117c8565b610ae6565b815115801561179857506001600160a01b0384163b155b156117c157604051639996b31560e01b81526001600160a01b0385166004820152602401611275565b5080610ae6565b8051156117d85780518082602001fd5b604051630a12f52160e11b815260040160405180910390fd5b60006020828403121561180357600080fd5b5035919050565b60006020828403121561181c57600080fd5b81356001600160e01b031981168114610ae657600080fd5b80356001600160a01b038116811461184b57600080fd5b919050565b60006020828403121561186257600080fd5b610ae682611834565b6000806040838503121561187e57600080fd5b8235915061188e60208401611834565b90509250929050565b600080604083850312156118aa57600080fd5b6118b383611834565b946020939093013593505050565b60008151808452602080850194506020840160005b838110156118fb5781516001600160a01b0316875295820195908201906001016118d6565b509495945050505050565b602081526000610ae660208301846118c1565b60408152600061192c60408301856118c1565b82810360208481019190915284518083528582019282019060005b8181101561196357845183529383019391830191600101611947565b5090979650505050505050565b6000806040838503121561198357600080fd5b50508035926020909101359150565b801515811461102157600080fd5b6000602082840312156119b257600080fd5b8135610ae681611992565b634e487b7160e01b600052601160045260246000fd5b8082028115828204841417610905576109056119bd565b6000602082840312156119fc57600080fd5b5051919050565b81810381811115610905576109056119bd565b80820180821115610905576109056119bd565b634e487b7160e01b600052604160045260246000fd5b634e487b7160e01b600052603260045260246000fd5b600082611a7257634e487b7160e01b600052601260045260246000fd5b500490565b634e487b7160e01b600052603160045260246000fd5b600060208284031215611a9f57600080fd5b8151610ae681611992565b6000825160005b81811015611acb5760208186018101518583015201611ab1565b50600092019182525091905056fea49807205ce4d355092ef5a8a18f56e8913cf4a201fbe287825b095693c21775a2646970667358221220f36425dee4796e94fcf9983e8639c5cd3add0795d3c6339297670bc191380a7564736f6c63430008180033",
          "opcodes": "PUSH2 0x100 PUSH1 0x40 MSTORE CALLVALUE DUP1 ISZERO PUSH3 0x12 JUMPI PUSH1 0x0 DUP1 REVERT JUMPDEST POP PUSH1 0x40 MLOAD PUSH3 0x1F29 CODESIZE SUB DUP1 PUSH3 0x1F29 DUP4 CODECOPY DUP2 ADD PUSH1 0x40 DUP2 SWAP1 MSTORE PUSH3 0x35 SWAP2 PUSH3 0x304 JUMP JUMPDEST PUSH1 0x1 PUSH1 0x2 SSTORE PUSH1 0x1 PUSH1 0x1 PUSH1 0xA0 SHL SUB DUP9 AND ISZERO DUP1 PUSH3 0x58 JUMPI POP PUSH1 0x1 PUSH1 0x1 PUSH1 0xA0 SHL SUB DUP7 AND ISZERO JUMPDEST DUP1 PUSH3 0x6B JUMPI POP PUSH1 0x1 PUSH1 0x1 PUSH1 0xA0 SHL SUB DUP6 AND ISZERO JUMPDEST DUP1 PUSH3 0x75 JUMPI POP DUP4 ISZERO JUMPDEST DUP1 PUSH3 0x7F JUMPI POP DUP3 ISZERO JUMPDEST DUP1 PUSH3 0x89 JUMPI POP DUP2 ISZERO JUMPDEST ISZERO PUSH3 0xA8 JUMPI PUSH1 0x40 MLOAD PUSH4 0x309CB87 PUSH1 0xE5 SHL DUP2 MSTORE PUSH1 0x4 ADD PUSH1 0x40 MLOAD DUP1 SWAP2 SUB SWAP1 REVERT JUMPDEST PUSH1 0x1 PUSH1 0x1 PUSH1 0xA0 SHL SUB DUP1 DUP9 AND PUSH1 0x80 MSTORE DUP7 DUP2 AND PUSH1 0xA0 MSTORE DUP6 AND PUSH1 0xC0 MSTORE PUSH1 0xE0 DUP4 SWAP1 MSTORE PUSH3 0xD1 DUP3 PUSH3 0x103 JUMP JUMPDEST PUSH3 0xDC DUP5 PUSH3 0x138 JUMP JUMPDEST PUSH3 0xE7 DUP2 PUSH3 0x16D JUMP JUMPDEST PUSH3 0xF4 PUSH1 0x0 DUP10 PUSH3 0x1A2 JUMP JUMPDEST POP POP POP POP POP POP POP POP POP PUSH3 0x388 JUMP JUMPDEST PUSH1 0x7 DUP2 SWAP1 SSTORE PUSH1 0x40 MLOAD DUP2 SWAP1 CALLER SWAP1 PUSH32 0xABEBBDCA0A0EB22011751610703D50315EDEB5985669335423B2F188AD4BC8F2 SWAP1 PUSH1 0x0 SWAP1 LOG3 POP JUMP JUMPDEST PUSH1 0x5 DUP2 SWAP1 SSTORE PUSH1 0x40 MLOAD DUP2 SWAP1 CALLER SWAP1 PUSH32 0x28C4702F31A5488EF1826A30B4D837DAB0940E925B9F503FE0644B7F1BD2F20F SWAP1 PUSH1 0x0 SWAP1 LOG3 POP JUMP JUMPDEST PUSH1 0x6 DUP2 SWAP1 SSTORE PUSH1 0x40 MLOAD DUP2 SWAP1 CALLER SWAP1 PUSH32 0x4F1F7A7DD50DAD7476574149E5AD81AEAF8B6E0A517C538DA862B794CB0FB3F6 SWAP1 PUSH1 0x0 SWAP1 LOG3 POP JUMP JUMPDEST PUSH1 0x0 DUP1 PUSH3 0x1B1 DUP5 DUP5 PUSH3 0x1DF JUMP JUMPDEST SWAP1 POP DUP1 ISZERO PUSH3 0x1D6 JUMPI PUSH1 0x0 DUP5 DUP2 MSTORE PUSH1 0x1 PUSH1 0x20 MSTORE PUSH1 0x40 SWAP1 KECCAK256 PUSH3 0x1D4 SWAP1 DUP5 PUSH3 0x28D JUMP JUMPDEST POP JUMPDEST SWAP1 POP JUMPDEST SWAP3 SWAP2 POP POP JUMP JUMPDEST PUSH1 0x0 DUP3 DUP2 MSTORE PUSH1 0x20 DUP2 DUP2 MSTORE PUSH1 0x40 DUP1 DUP4 KECCAK256 PUSH1 0x1 PUSH1 0x1 PUSH1 0xA0 SHL SUB DUP6 AND DUP5 MSTORE SWAP1 SWAP2 MSTORE DUP2 KECCAK256 SLOAD PUSH1 0xFF AND PUSH3 0x284 JUMPI PUSH1 0x0 DUP4 DUP2 MSTORE PUSH1 0x20 DUP2 DUP2 MSTORE PUSH1 0x40 DUP1 DUP4 KECCAK256 PUSH1 0x1 PUSH1 0x1 PUSH1 0xA0 SHL SUB DUP7 AND DUP5 MSTORE SWAP1 SWAP2 MSTORE SWAP1 KECCAK256 DUP1 SLOAD PUSH1 0xFF NOT AND PUSH1 0x1 OR SWAP1 SSTORE PUSH3 0x23B CALLER SWAP1 JUMP JUMPDEST PUSH1 0x1 PUSH1 0x1 PUSH1 0xA0 SHL SUB AND DUP3 PUSH1 0x1 PUSH1 0x1 PUSH1 0xA0 SHL SUB AND DUP5 PUSH32 0x2F8788117E7EFF1D82E926EC794901D17C78024A50270940304540A733656F0D PUSH1 0x40 MLOAD PUSH1 0x40 MLOAD DUP1 SWAP2 SUB SWAP1 LOG4 POP PUSH1 0x1 PUSH3 0x1D9 JUMP JUMPDEST POP PUSH1 0x0 PUSH3 0x1D9 JUMP JUMPDEST PUSH1 0x0 PUSH3 0x1D6 DUP4 PUSH1 0x1 PUSH1 0x1 PUSH1 0xA0 SHL SUB DUP5 AND PUSH1 0x0 DUP2 DUP2 MSTORE PUSH1 0x1 DUP4 ADD PUSH1 0x20 MSTORE PUSH1 0x40 DUP2 KECCAK256 SLOAD PUSH3 0x284 JUMPI POP DUP2 SLOAD PUSH1 0x1 DUP2 DUP2 ADD DUP5 SSTORE PUSH1 0x0 DUP5 DUP2 MSTORE PUSH1 0x20 DUP1 DUP3 KECCAK256 SWAP1 SWAP4 ADD DUP5 SWAP1 SSTORE DUP5 SLOAD DUP5 DUP3 MSTORE DUP3 DUP7 ADD SWAP1 SWAP4 MSTORE PUSH1 0x40 SWAP1 KECCAK256 SWAP2 SWAP1 SWAP2 SSTORE PUSH3 0x1D9 JUMP JUMPDEST DUP1 MLOAD PUSH1 0x1 PUSH1 0x1 PUSH1 0xA0 SHL SUB DUP2 AND DUP2 EQ PUSH3 0x2FF JUMPI PUSH1 0x0 DUP1 REVERT JUMPDEST SWAP2 SWAP1 POP JUMP JUMPDEST PUSH1 0x0 DUP1 PUSH1 0x0 DUP1 PUSH1 0x0 DUP1 PUSH1 0x0 DUP1 PUSH2 0x100 DUP10 DUP12 SUB SLT ISZERO PUSH3 0x322 JUMPI PUSH1 0x0 DUP1 REVERT JUMPDEST PUSH3 0x32D DUP10 PUSH3 0x2E7 JUMP JUMPDEST SWAP8 POP PUSH3 0x33D PUSH1 0x20 DUP11 ADD PUSH3 0x2E7 JUMP JUMPDEST SWAP7 POP PUSH3 0x34D PUSH1 0x40 DUP11 ADD PUSH3 0x2E7 JUMP JUMPDEST SWAP6 POP PUSH3 0x35D PUSH1 0x60 DUP11 ADD PUSH3 0x2E7 JUMP JUMPDEST SWAP5 POP PUSH1 0x80 DUP10 ADD MLOAD SWAP4 POP PUSH1 0xA0 DUP10 ADD MLOAD SWAP3 POP PUSH1 0xC0 DUP10 ADD MLOAD SWAP2 POP PUSH1 0xE0 DUP10 ADD MLOAD SWAP1 POP SWAP3 SWAP6 SWAP9 POP SWAP3 SWAP6 SWAP9 SWAP1 SWAP4 SWAP7 POP JUMP JUMPDEST PUSH1 0x80 MLOAD PUSH1 0xA0 MLOAD PUSH1 0xC0 MLOAD PUSH1 0xE0 MLOAD PUSH2 0x1B2F PUSH3 0x3FA PUSH1 0x0 CODECOPY PUSH1 0x0 DUP2 DUP2 PUSH2 0x3BE ADD MSTORE PUSH2 0xF25 ADD MSTORE PUSH1 0x0 DUP2 DUP2 PUSH2 0x58D ADD MSTORE PUSH2 0xF5B ADD MSTORE PUSH1 0x0 DUP2 DUP2 PUSH2 0x49F ADD MSTORE PUSH2 0xF93 ADD MSTORE PUSH1 0x0 DUP2 DUP2 PUSH2 0x2CD ADD MSTORE DUP2 DUP2 PUSH2 0x6D7 ADD MSTORE DUP2 DUP2 PUSH2 0x740 ADD MSTORE DUP2 DUP2 PUSH2 0x7EF ADD MSTORE DUP2 DUP2 PUSH2 0x118F ADD MSTORE PUSH2 0x11FE ADD MSTORE PUSH2 0x1B2F PUSH1 0x0 RETURN INVALID PUSH1 0x80 PUSH1 0x40 MSTORE PUSH1 0x4 CALLDATASIZE LT PUSH2 0x1EE JUMPI PUSH1 0x0 CALLDATALOAD PUSH1 0xE0 SHR DUP1 PUSH4 0x6F8B44B0 GT PUSH2 0x10D JUMPI DUP1 PUSH4 0xA217FDDF GT PUSH2 0xA0 JUMPI DUP1 PUSH4 0xD2D65FF5 GT PUSH2 0x6F JUMPI DUP1 PUSH4 0xD2D65FF5 EQ PUSH2 0x5CF JUMPI DUP1 PUSH4 0xD547741F EQ PUSH2 0x5EF JUMPI DUP1 PUSH4 0xD5ABEB01 EQ PUSH2 0x60F JUMPI DUP1 PUSH4 0xD79ED804 EQ PUSH2 0x625 JUMPI DUP1 PUSH4 0xDC224863 EQ PUSH2 0x645 JUMPI PUSH1 0x0 DUP1 REVERT JUMPDEST DUP1 PUSH4 0xA217FDDF EQ PUSH2 0x546 JUMPI DUP1 PUSH4 0xAAA1801E EQ PUSH2 0x55B JUMPI DUP1 PUSH4 0xC3BC63E4 EQ PUSH2 0x57B JUMPI DUP1 PUSH4 0xCA15C873 EQ PUSH2 0x5AF JUMPI PUSH1 0x0 DUP1 REVERT JUMPDEST DUP1 PUSH4 0x8A48AC03 GT PUSH2 0xDC JUMPI DUP1 PUSH4 0x8A48AC03 EQ PUSH2 0x4C1 JUMPI DUP1 PUSH4 0x8D549F17 EQ PUSH2 0x4E3 JUMPI DUP1 PUSH4 0x9010D07C EQ PUSH2 0x506 JUMPI DUP1 PUSH4 0x91D14854 EQ PUSH2 0x526 JUMPI PUSH1 0x0 DUP1 REVERT JUMPDEST DUP1 PUSH4 0x6F8B44B0 EQ PUSH2 0x436 JUMPI DUP1 PUSH4 0x75B238FC EQ PUSH2 0x456 JUMPI DUP1 PUSH4 0x7CAF7C92 EQ PUSH2 0x478 JUMPI DUP1 PUSH4 0x7FCD7A54 EQ PUSH2 0x48D JUMPI PUSH1 0x0 DUP1 REVERT JUMPDEST DUP1 PUSH4 0x436A014A GT PUSH2 0x185 JUMPI DUP1 PUSH4 0x58A7DC2C GT PUSH2 0x154 JUMPI DUP1 PUSH4 0x58A7DC2C EQ PUSH2 0x3AC JUMPI DUP1 PUSH4 0x5A4074EF EQ PUSH2 0x3E0 JUMPI DUP1 PUSH4 0x6A991122 EQ PUSH2 0x400 JUMPI DUP1 PUSH4 0x6DA49B83 EQ PUSH2 0x420 JUMPI PUSH1 0x0 DUP1 REVERT JUMPDEST DUP1 PUSH4 0x436A014A EQ PUSH2 0x33D JUMPI DUP1 PUSH4 0x49B514F2 EQ PUSH2 0x352 JUMPI DUP1 PUSH4 0x548CC74F EQ PUSH2 0x372 JUMPI DUP1 PUSH4 0x564566A8 EQ PUSH2 0x392 JUMPI PUSH1 0x0 DUP1 REVERT JUMPDEST DUP1 PUSH4 0x2F2FF15D GT PUSH2 0x1C1 JUMPI DUP1 PUSH4 0x2F2FF15D EQ PUSH2 0x29B JUMPI DUP1 PUSH4 0x3013CE29 EQ PUSH2 0x2BB JUMPI DUP1 PUSH4 0x36568ABE EQ PUSH2 0x307 JUMPI DUP1 PUSH4 0x3D08C14F EQ PUSH2 0x327 JUMPI PUSH1 0x0 DUP1 REVERT JUMPDEST DUP1 PUSH4 0x1BE583B EQ PUSH2 0x1F3 JUMPI DUP1 PUSH4 0x1FFC9A7 EQ PUSH2 0x208 JUMPI DUP1 PUSH4 0x17FB4C3B EQ PUSH2 0x23D JUMPI DUP1 PUSH4 0x248A9CA3 EQ PUSH2 0x26B JUMPI JUMPDEST PUSH1 0x0 DUP1 REVERT JUMPDEST PUSH2 0x206 PUSH2 0x201 CALLDATASIZE PUSH1 0x4 PUSH2 0x17F1 JUMP JUMPDEST PUSH2 0x679 JUMP JUMPDEST STOP JUMPDEST CALLVALUE DUP1 ISZERO PUSH2 0x214 JUMPI PUSH1 0x0 DUP1 REVERT JUMPDEST POP PUSH2 0x228 PUSH2 0x223 CALLDATASIZE PUSH1 0x4 PUSH2 0x180A JUMP JUMPDEST PUSH2 0x8E0 JUMP JUMPDEST PUSH1 0x40 MLOAD SWAP1 ISZERO ISZERO DUP2 MSTORE PUSH1 0x20 ADD JUMPDEST PUSH1 0x40 MLOAD DUP1 SWAP2 SUB SWAP1 RETURN JUMPDEST CALLVALUE DUP1 ISZERO PUSH2 0x249 JUMPI PUSH1 0x0 DUP1 REVERT JUMPDEST POP PUSH2 0x25D PUSH2 0x258 CALLDATASIZE PUSH1 0x4 PUSH2 0x1850 JUMP JUMPDEST PUSH2 0x90B JUMP JUMPDEST PUSH1 0x40 MLOAD SWAP1 DUP2 MSTORE PUSH1 0x20 ADD PUSH2 0x234 JUMP JUMPDEST CALLVALUE DUP1 ISZERO PUSH2 0x277 JUMPI PUSH1 0x0 DUP1 REVERT JUMPDEST POP PUSH2 0x25D PUSH2 0x286 CALLDATASIZE PUSH1 0x4 PUSH2 0x17F1 JUMP JUMPDEST PUSH1 0x0 SWAP1 DUP2 MSTORE PUSH1 0x20 DUP2 SWAP1 MSTORE PUSH1 0x40 SWAP1 KECCAK256 PUSH1 0x1 ADD SLOAD SWAP1 JUMP JUMPDEST CALLVALUE DUP1 ISZERO PUSH2 0x2A7 JUMPI PUSH1 0x0 DUP1 REVERT JUMPDEST POP PUSH2 0x206 PUSH2 0x2B6 CALLDATASIZE PUSH1 0x4 PUSH2 0x186B JUMP JUMPDEST PUSH2 0x92E JUMP JUMPDEST CALLVALUE DUP1 ISZERO PUSH2 0x2C7 JUMPI PUSH1 0x0 DUP1 REVERT JUMPDEST POP PUSH2 0x2EF PUSH32 0x0 DUP2 JUMP JUMPDEST PUSH1 0x40 MLOAD PUSH1 0x1 PUSH1 0x1 PUSH1 0xA0 SHL SUB SWAP1 SWAP2 AND DUP2 MSTORE PUSH1 0x20 ADD PUSH2 0x234 JUMP JUMPDEST CALLVALUE DUP1 ISZERO PUSH2 0x313 JUMPI PUSH1 0x0 DUP1 REVERT JUMPDEST POP PUSH2 0x206 PUSH2 0x322 CALLDATASIZE PUSH1 0x4 PUSH2 0x186B JUMP JUMPDEST PUSH2 0x959 JUMP JUMPDEST CALLVALUE DUP1 ISZERO PUSH2 0x333 JUMPI PUSH1 0x0 DUP1 REVERT JUMPDEST POP PUSH2 0x25D PUSH1 0x6 SLOAD DUP2 JUMP JUMPDEST CALLVALUE DUP1 ISZERO PUSH2 0x349 JUMPI PUSH1 0x0 DUP1 REVERT JUMPDEST POP PUSH2 0x25D PUSH2 0x98C JUMP JUMPDEST CALLVALUE DUP1 ISZERO PUSH2 0x35E JUMPI PUSH1 0x0 DUP1 REVERT JUMPDEST POP PUSH2 0x206 PUSH2 0x36D CALLDATASIZE PUSH1 0x4 PUSH2 0x1897 JUMP JUMPDEST PUSH2 0x9A3 JUMP JUMPDEST CALLVALUE DUP1 ISZERO PUSH2 0x37E JUMPI PUSH1 0x0 DUP1 REVERT JUMPDEST POP PUSH2 0x206 PUSH2 0x38D CALLDATASIZE PUSH1 0x4 PUSH2 0x17F1 JUMP JUMPDEST PUSH2 0xA78 JUMP JUMPDEST CALLVALUE DUP1 ISZERO PUSH2 0x39E JUMPI PUSH1 0x0 DUP1 REVERT JUMPDEST POP PUSH1 0x3 SLOAD PUSH2 0x228 SWAP1 PUSH1 0xFF AND DUP2 JUMP JUMPDEST CALLVALUE DUP1 ISZERO PUSH2 0x3B8 JUMPI PUSH1 0x0 DUP1 REVERT JUMPDEST POP PUSH2 0x25D PUSH32 0x0 DUP2 JUMP JUMPDEST CALLVALUE DUP1 ISZERO PUSH2 0x3EC JUMPI PUSH1 0x0 DUP1 REVERT JUMPDEST POP PUSH2 0x25D PUSH2 0x3FB CALLDATASIZE PUSH1 0x4 PUSH2 0x1850 JUMP JUMPDEST PUSH2 0xABE JUMP JUMPDEST CALLVALUE DUP1 ISZERO PUSH2 0x40C JUMPI PUSH1 0x0 DUP1 REVERT JUMPDEST POP PUSH2 0x206 PUSH2 0x41B CALLDATASIZE PUSH1 0x4 PUSH2 0x1897 JUMP JUMPDEST PUSH2 0xAED JUMP JUMPDEST CALLVALUE DUP1 ISZERO PUSH2 0x42C JUMPI PUSH1 0x0 DUP1 REVERT JUMPDEST POP PUSH2 0x25D PUSH1 0x4 SLOAD DUP2 JUMP JUMPDEST CALLVALUE DUP1 ISZERO PUSH2 0x442 JUMPI PUSH1 0x0 DUP1 REVERT JUMPDEST POP PUSH2 0x206 PUSH2 0x451 CALLDATASIZE PUSH1 0x4 PUSH2 0x17F1 JUMP JUMPDEST PUSH2 0xB50 JUMP JUMPDEST CALLVALUE DUP1 ISZERO PUSH2 0x462 JUMPI PUSH1 0x0 DUP1 REVERT JUMPDEST POP PUSH2 0x25D PUSH1 0x0 DUP1 MLOAD PUSH1 0x20 PUSH2 0x1ADA DUP4 CODECOPY DUP2 MLOAD SWAP2 MSTORE DUP2 JUMP JUMPDEST CALLVALUE DUP1 ISZERO PUSH2 0x484 JUMPI PUSH1 0x0 DUP1 REVERT JUMPDEST POP PUSH1 0x7 SLOAD PUSH2 0x25D JUMP JUMPDEST CALLVALUE DUP1 ISZERO PUSH2 0x499 JUMPI PUSH1 0x0 DUP1 REVERT JUMPDEST POP PUSH2 0x2EF PUSH32 0x0 DUP2 JUMP JUMPDEST CALLVALUE DUP1 ISZERO PUSH2 0x4CD JUMPI PUSH1 0x0 DUP1 REVERT JUMPDEST POP PUSH2 0x4D6 PUSH2 0xB94 JUMP JUMPDEST PUSH1 0x40 MLOAD PUSH2 0x234 SWAP2 SWAP1 PUSH2 0x1906 JUMP JUMPDEST CALLVALUE DUP1 ISZERO PUSH2 0x4EF JUMPI PUSH1 0x0 DUP1 REVERT JUMPDEST POP PUSH2 0x4F8 PUSH2 0xBA0 JUMP JUMPDEST PUSH1 0x40 MLOAD PUSH2 0x234 SWAP3 SWAP2 SWAP1 PUSH2 0x1919 JUMP JUMPDEST CALLVALUE DUP1 ISZERO PUSH2 0x512 JUMPI PUSH1 0x0 DUP1 REVERT JUMPDEST POP PUSH2 0x2EF PUSH2 0x521 CALLDATASIZE PUSH1 0x4 PUSH2 0x1970 JUMP JUMPDEST PUSH2 0xCB9 JUMP JUMPDEST CALLVALUE DUP1 ISZERO PUSH2 0x532 JUMPI PUSH1 0x0 DUP1 REVERT JUMPDEST POP PUSH2 0x228 PUSH2 0x541 CALLDATASIZE PUSH1 0x4 PUSH2 0x186B JUMP JUMPDEST PUSH2 0xCD1 JUMP JUMPDEST CALLVALUE DUP1 ISZERO PUSH2 0x552 JUMPI PUSH1 0x0 DUP1 REVERT JUMPDEST POP PUSH2 0x25D PUSH1 0x0 DUP2 JUMP JUMPDEST CALLVALUE DUP1 ISZERO PUSH2 0x567 JUMPI PUSH1 0x0 DUP1 REVERT JUMPDEST POP PUSH2 0x206 PUSH2 0x576 CALLDATASIZE PUSH1 0x4 PUSH2 0x17F1 JUMP JUMPDEST PUSH2 0xCFA JUMP JUMPDEST CALLVALUE DUP1 ISZERO PUSH2 0x587 JUMPI PUSH1 0x0 DUP1 REVERT JUMPDEST POP PUSH2 0x2EF PUSH32 0x0 DUP2 JUMP JUMPDEST CALLVALUE DUP1 ISZERO PUSH2 0x5BB JUMPI PUSH1 0x0 DUP1 REVERT JUMPDEST POP PUSH2 0x25D PUSH2 0x5CA CALLDATASIZE PUSH1 0x4 PUSH2 0x17F1 JUMP JUMPDEST PUSH2 0xD1B JUMP JUMPDEST CALLVALUE DUP1 ISZERO PUSH2 0x5DB JUMPI PUSH1 0x0 DUP1 REVERT JUMPDEST POP PUSH2 0x206 PUSH2 0x5EA CALLDATASIZE PUSH1 0x4 PUSH2 0x19A0 JUMP JUMPDEST PUSH2 0xD32 JUMP JUMPDEST CALLVALUE DUP1 ISZERO PUSH2 0x5FB JUMPI PUSH1 0x0 DUP1 REVERT JUMPDEST POP PUSH2 0x206 PUSH2 0x60A CALLDATASIZE PUSH1 0x4 PUSH2 0x186B JUMP JUMPDEST PUSH2 0xD9A JUMP JUMPDEST CALLVALUE DUP1 ISZERO PUSH2 0x61B JUMPI PUSH1 0x0 DUP1 REVERT JUMPDEST POP PUSH2 0x25D PUSH1 0x5 SLOAD DUP2 JUMP JUMPDEST CALLVALUE DUP1 ISZERO PUSH2 0x631 JUMPI PUSH1 0x0 DUP1 REVERT JUMPDEST POP PUSH2 0x206 PUSH2 0x640 CALLDATASIZE PUSH1 0x4 PUSH2 0x1897 JUMP JUMPDEST PUSH2 0xDBF JUMP JUMPDEST CALLVALUE DUP1 ISZERO PUSH2 0x651 JUMPI PUSH1 0x0 DUP1 REVERT JUMPDEST POP PUSH2 0x25D PUSH32 0x8B8C0776DF2C2176EDF6F82391C35EA4891146D7A976EE36FD07F1A6FB4EAD4C DUP2 JUMP JUMPDEST PUSH1 0x3 SLOAD PUSH1 0xFF AND PUSH2 0x69C JUMPI PUSH1 0x40 MLOAD PUSH4 0xB7B24097 PUSH1 0xE0 SHL DUP2 MSTORE PUSH1 0x4 ADD PUSH1 0x40 MLOAD DUP1 SWAP2 SUB SWAP1 REVERT JUMPDEST DUP1 DUP1 PUSH1 0x0 SUB PUSH2 0x6BE JUMPI PUSH1 0x40 MLOAD PUSH4 0x309CB87 PUSH1 0xE5 SHL DUP2 MSTORE PUSH1 0x4 ADD PUSH1 0x40 MLOAD DUP1 SWAP2 SUB SWAP1 REVERT JUMPDEST PUSH1 0x0 PUSH2 0x6C9 PUSH1 0x7 SLOAD SWAP1 JUMP JUMPDEST PUSH2 0x6D3 SWAP1 DUP4 PUSH2 0x19D3 JUMP JUMPDEST SWAP1 POP PUSH32 0x0 PUSH1 0x1 PUSH1 0x1 PUSH1 0xA0 SHL SUB AND PUSH2 0x729 JUMPI DUP1 CALLVALUE LT ISZERO PUSH2 0x724 JUMPI PUSH1 0x40 MLOAD PUSH4 0x1E9ACF17 PUSH1 0xE3 SHL DUP2 MSTORE PUSH1 0x4 ADD PUSH1 0x40 MLOAD DUP1 SWAP2 SUB SWAP1 REVERT JUMPDEST PUSH2 0x881 JUMP JUMPDEST PUSH1 0x40 MLOAD PUSH4 0x70A08231 PUSH1 0xE0 SHL DUP2 MSTORE CALLER PUSH1 0x4 DUP3 ADD MSTORE DUP2 SWAP1 PUSH32 0x0 PUSH1 0x1 PUSH1 0x1 PUSH1 0xA0 SHL SUB AND SWAP1 PUSH4 0x70A08231 SWAP1 PUSH1 0x24 ADD PUSH1 0x20 PUSH1 0x40 MLOAD DUP1 DUP4 SUB DUP2 DUP7 GAS STATICCALL ISZERO DUP1 ISZERO PUSH2 0x78F JUMPI RETURNDATASIZE PUSH1 0x0 DUP1 RETURNDATACOPY RETURNDATASIZE PUSH1 0x0 REVERT JUMPDEST POP POP POP POP PUSH1 0x40 MLOAD RETURNDATASIZE PUSH1 0x1F NOT PUSH1 0x1F DUP3 ADD AND DUP3 ADD DUP1 PUSH1 0x40 MSTORE POP DUP2 ADD SWAP1 PUSH2 0x7B3 SWAP2 SWAP1 PUSH2 0x19EA JUMP JUMPDEST LT ISZERO PUSH2 0x7D2 JUMPI PUSH1 0x40 MLOAD PUSH4 0x1E9ACF17 PUSH1 0xE3 SHL DUP2 MSTORE PUSH1 0x4 ADD PUSH1 0x40 MLOAD DUP1 SWAP2 SUB SWAP1 REVERT JUMPDEST PUSH1 0x40 MLOAD PUSH4 0x6EB1769F PUSH1 0xE1 SHL DUP2 MSTORE CALLER PUSH1 0x4 DUP3 ADD MSTORE ADDRESS PUSH1 0x24 DUP3 ADD MSTORE DUP2 SWAP1 PUSH32 0x0 PUSH1 0x1 PUSH1 0x1 PUSH1 0xA0 SHL SUB AND SWAP1 PUSH4 0xDD62ED3E SWAP1 PUSH1 0x44 ADD PUSH1 0x20 PUSH1 0x40 MLOAD DUP1 DUP4 SUB DUP2 DUP7 GAS STATICCALL ISZERO DUP1 ISZERO PUSH2 0x83E JUMPI RETURNDATASIZE PUSH1 0x0 DUP1 RETURNDATACOPY RETURNDATASIZE PUSH1 0x0 REVERT JUMPDEST POP POP POP POP PUSH1 0x40 MLOAD RETURNDATASIZE PUSH1 0x1F NOT PUSH1 0x1F DUP3 ADD AND DUP3 ADD DUP1 PUSH1 0x40 MSTORE POP DUP2 ADD SWAP1 PUSH2 0x862 SWAP2 SWAP1 PUSH2 0x19EA JUMP JUMPDEST LT ISZERO PUSH2 0x881 JUMPI PUSH1 0x40 MLOAD PUSH4 0x13BE252B PUSH1 0xE0 SHL DUP2 MSTORE PUSH1 0x4 ADD PUSH1 0x40 MLOAD DUP1 SWAP2 SUB SWAP1 REVERT JUMPDEST PUSH2 0x889 PUSH2 0xE29 JUMP JUMPDEST PUSH2 0x893 CALLER DUP5 PUSH2 0xE51 JUMP JUMPDEST PUSH2 0x89C DUP4 PUSH2 0xF04 JUMP JUMPDEST PUSH1 0x40 MLOAD DUP4 DUP2 MSTORE CALLER SWAP1 PUSH32 0xB1FA818518486DB21D0612D7016D1F746B32651A7E8225BAE5F00453713F2F90 SWAP1 PUSH1 0x20 ADD PUSH1 0x40 MLOAD DUP1 SWAP2 SUB SWAP1 LOG2 PUSH2 0x8DB PUSH1 0x1 PUSH1 0x2 SSTORE JUMP JUMPDEST POP POP POP JUMP JUMPDEST PUSH1 0x0 PUSH1 0x1 PUSH1 0x1 PUSH1 0xE0 SHL SUB NOT DUP3 AND PUSH4 0x5A05180F PUSH1 0xE0 SHL EQ DUP1 PUSH2 0x905 JUMPI POP PUSH2 0x905 DUP3 PUSH2 0xFB8 JUMP JUMPDEST SWAP3 SWAP2 POP POP JUMP JUMPDEST PUSH1 0x0 PUSH2 0x918 PUSH1 0x8 DUP4 PUSH2 0xFED JUMP JUMPDEST PUSH2 0x923 JUMPI PUSH1 0x0 PUSH2 0x905 JUMP JUMPDEST PUSH2 0x905 PUSH1 0x8 DUP4 PUSH2 0x1002 JUMP JUMPDEST PUSH1 0x0 DUP3 DUP2 MSTORE PUSH1 0x20 DUP2 SWAP1 MSTORE PUSH1 0x40 SWAP1 KECCAK256 PUSH1 0x1 ADD SLOAD PUSH2 0x949 DUP2 PUSH2 0x1017 JUMP JUMPDEST PUSH2 0x953 DUP4 DUP4 PUSH2 0x1024 JUMP JUMPDEST POP POP POP POP JUMP JUMPDEST PUSH1 0x1 PUSH1 0x1 PUSH1 0xA0 SHL SUB DUP2 AND CALLER EQ PUSH2 0x982 JUMPI PUSH1 0x40 MLOAD PUSH4 0x334BD919 PUSH1 0xE1 SHL DUP2 MSTORE PUSH1 0x4 ADD PUSH1 0x40 MLOAD DUP1 SWAP2 SUB SWAP1 REVERT JUMPDEST PUSH2 0x8DB DUP3 DUP3 PUSH2 0x1059 JUMP JUMPDEST PUSH1 0x0 PUSH1 0x4 SLOAD PUSH1 0x5 SLOAD PUSH2 0x99E SWAP2 SWAP1 PUSH2 0x1A03 JUMP JUMPDEST SWAP1 POP SWAP1 JUMP JUMPDEST PUSH1 0x0 PUSH2 0x9AE DUP2 PUSH2 0x1017 JUMP JUMPDEST PUSH1 0x0 PUSH2 0x9B9 DUP5 PUSH2 0x90B JUMP JUMPDEST SWAP1 POP PUSH1 0x0 DUP2 DUP5 GT PUSH2 0x9E0 JUMPI PUSH2 0x9CE DUP5 DUP4 PUSH2 0x1A03 JUMP JUMPDEST PUSH1 0x4 SLOAD PUSH2 0x9DB SWAP2 SWAP1 PUSH2 0x1A03 JUMP JUMPDEST PUSH2 0x9F7 JUMP JUMPDEST PUSH2 0x9EA DUP3 DUP6 PUSH2 0x1A03 JUMP JUMPDEST PUSH1 0x4 SLOAD PUSH2 0x9F7 SWAP2 SWAP1 PUSH2 0x1A16 JUMP JUMPDEST SWAP1 POP PUSH1 0x5 SLOAD DUP2 GT ISZERO PUSH2 0xA1C JUMPI PUSH1 0x40 MLOAD PUSH4 0x73BE2CEB PUSH1 0xE0 SHL DUP2 MSTORE PUSH1 0x4 ADD PUSH1 0x40 MLOAD DUP1 SWAP2 SUB SWAP1 REVERT JUMPDEST PUSH1 0x4 DUP2 SWAP1 SSTORE PUSH2 0xA2D PUSH1 0x8 DUP7 DUP7 PUSH2 0x1086 JUMP JUMPDEST POP DUP5 PUSH1 0x1 PUSH1 0x1 PUSH1 0xA0 SHL SUB AND PUSH32 0x6084067BE11D2A99B87A4584B9B4830451F2333678B321BE652716CE0EB09902 DUP6 PUSH1 0x40 MLOAD PUSH2 0xA69 SWAP2 DUP2 MSTORE PUSH1 0x20 ADD SWAP1 JUMP JUMPDEST PUSH1 0x40 MLOAD DUP1 SWAP2 SUB SWAP1 LOG2 POP POP POP POP POP JUMP JUMPDEST PUSH1 0x0 DUP1 MLOAD PUSH1 0x20 PUSH2 0x1ADA DUP4 CODECOPY DUP2 MLOAD SWAP2 MSTORE PUSH2 0xA90 DUP2 PUSH2 0x1017 JUMP JUMPDEST DUP2 PUSH1 0x0 SUB PUSH2 0xAB1 JUMPI PUSH1 0x40 MLOAD PUSH4 0x309CB87 PUSH1 0xE5 SHL DUP2 MSTORE PUSH1 0x4 ADD PUSH1 0x40 MLOAD DUP1 SWAP2 SUB SWAP1 REVERT JUMPDEST PUSH2 0xABA DUP3 PUSH2 0x10A4 JUMP JUMPDEST POP POP JUMP JUMPDEST PUSH1 0x1 PUSH1 0x1 PUSH1 0xA0 SHL SUB DUP2 AND PUSH1 0x0 SWAP1 DUP2 MSTORE PUSH1 0xB PUSH1 0x20 MSTORE PUSH1 0x40 DUP2 KECCAK256 SLOAD DUP1 PUSH2 0xAE4 JUMPI PUSH1 0x6 SLOAD PUSH2 0xAE6 JUMP JUMPDEST DUP1 JUMPDEST SWAP4 SWAP3 POP POP POP JUMP JUMPDEST PUSH1 0x0 DUP1 MLOAD PUSH1 0x20 PUSH2 0x1ADA DUP4 CODECOPY DUP2 MLOAD SWAP2 MSTORE PUSH2 0xB05 DUP2 PUSH2 0x1017 JUMP JUMPDEST PUSH1 0x1 PUSH1 0x1 PUSH1 0xA0 SHL SUB DUP4 AND PUSH1 0x0 DUP2 DUP2 MSTORE PUSH1 0xB PUSH1 0x20 MSTORE PUSH1 0x40 DUP1 DUP3 KECCAK256 DUP6 SWAP1 SSTORE MLOAD DUP5 SWAP3 SWAP2 CALLER SWAP2 PUSH32 0x1636BFB30653A611D751713530F2756F29DE0CD0B8B675077B0B3BC85AF71205 SWAP2 SWAP1 LOG4 POP POP POP JUMP JUMPDEST PUSH1 0x0 DUP1 MLOAD PUSH1 0x20 PUSH2 0x1ADA DUP4 CODECOPY DUP2 MLOAD SWAP2 MSTORE PUSH2 0xB68 DUP2 PUSH2 0x1017 JUMP JUMPDEST PUSH1 0x4 SLOAD DUP3 LT ISZERO PUSH2 0xB8B JUMPI PUSH1 0x40 MLOAD PUSH4 0x309CB87 PUSH1 0xE5 SHL DUP2 MSTORE PUSH1 0x4 ADD PUSH1 0x40 MLOAD DUP1 SWAP2 SUB SWAP1 REVERT JUMPDEST PUSH2 0xABA DUP3 PUSH2 0x10D9 JUMP JUMPDEST PUSH1 0x60 PUSH2 0x99E PUSH1 0x8 PUSH2 0x110E JUMP JUMPDEST PUSH1 0x60 DUP1 PUSH1 0x0 PUSH2 0xBAF PUSH1 0x8 PUSH2 0x111B JUMP JUMPDEST SWAP1 POP DUP1 PUSH8 0xFFFFFFFFFFFFFFFF DUP2 GT ISZERO PUSH2 0xBCA JUMPI PUSH2 0xBCA PUSH2 0x1A29 JUMP JUMPDEST PUSH1 0x40 MLOAD SWAP1 DUP1 DUP3 MSTORE DUP1 PUSH1 0x20 MUL PUSH1 0x20 ADD DUP3 ADD PUSH1 0x40 MSTORE DUP1 ISZERO PUSH2 0xBF3 JUMPI DUP2 PUSH1 0x20 ADD PUSH1 0x20 DUP3 MUL DUP1 CALLDATASIZE DUP4 CALLDATACOPY ADD SWAP1 POP JUMPDEST POP SWAP3 POP DUP1 PUSH8 0xFFFFFFFFFFFFFFFF DUP2 GT ISZERO PUSH2 0xC0F JUMPI PUSH2 0xC0F PUSH2 0x1A29 JUMP JUMPDEST PUSH1 0x40 MLOAD SWAP1 DUP1 DUP3 MSTORE DUP1 PUSH1 0x20 MUL PUSH1 0x20 ADD DUP3 ADD PUSH1 0x40 MSTORE DUP1 ISZERO PUSH2 0xC38 JUMPI DUP2 PUSH1 0x20 ADD PUSH1 0x20 DUP3 MUL DUP1 CALLDATASIZE DUP4 CALLDATACOPY ADD SWAP1 POP JUMPDEST POP SWAP2 POP PUSH1 0x0 JUMPDEST DUP2 DUP2 LT ISZERO PUSH2 0xCB3 JUMPI PUSH1 0x0 DUP1 PUSH2 0xC54 PUSH1 0x8 DUP5 PUSH2 0x1126 JUMP JUMPDEST SWAP2 POP SWAP2 POP DUP2 DUP7 DUP5 DUP2 MLOAD DUP2 LT PUSH2 0xC6B JUMPI PUSH2 0xC6B PUSH2 0x1A3F JUMP JUMPDEST PUSH1 0x20 MUL PUSH1 0x20 ADD ADD SWAP1 PUSH1 0x1 PUSH1 0x1 PUSH1 0xA0 SHL SUB AND SWAP1 DUP2 PUSH1 0x1 PUSH1 0x1 PUSH1 0xA0 SHL SUB AND DUP2 MSTORE POP POP DUP1 DUP6 DUP5 DUP2 MLOAD DUP2 LT PUSH2 0xC9E JUMPI PUSH2 0xC9E PUSH2 0x1A3F JUMP JUMPDEST PUSH1 0x20 SWAP1 DUP2 MUL SWAP2 SWAP1 SWAP2 ADD ADD MSTORE POP POP PUSH1 0x1 ADD PUSH2 0xC3E JUMP JUMPDEST POP POP SWAP1 SWAP2 JUMP JUMPDEST PUSH1 0x0 DUP3 DUP2 MSTORE PUSH1 0x1 PUSH1 0x20 MSTORE PUSH1 0x40 DUP2 KECCAK256 PUSH2 0xAE6 SWAP1 DUP4 PUSH2 0x1142 JUMP JUMPDEST PUSH1 0x0 SWAP2 DUP3 MSTORE PUSH1 0x20 DUP3 DUP2 MSTORE PUSH1 0x40 DUP1 DUP5 KECCAK256 PUSH1 0x1 PUSH1 0x1 PUSH1 0xA0 SHL SUB SWAP4 SWAP1 SWAP4 AND DUP5 MSTORE SWAP2 SWAP1 MSTORE SWAP1 KECCAK256 SLOAD PUSH1 0xFF AND SWAP1 JUMP JUMPDEST PUSH1 0x0 DUP1 MLOAD PUSH1 0x20 PUSH2 0x1ADA DUP4 CODECOPY DUP2 MLOAD SWAP2 MSTORE PUSH2 0xD12 DUP2 PUSH2 0x1017 JUMP JUMPDEST PUSH2 0xABA DUP3 PUSH2 0x114E JUMP JUMPDEST PUSH1 0x0 DUP2 DUP2 MSTORE PUSH1 0x1 PUSH1 0x20 MSTORE PUSH1 0x40 DUP2 KECCAK256 PUSH2 0x905 SWAP1 PUSH2 0x1183 JUMP JUMPDEST PUSH32 0x8B8C0776DF2C2176EDF6F82391C35EA4891146D7A976EE36FD07F1A6FB4EAD4C PUSH2 0xD5C DUP2 PUSH2 0x1017 JUMP JUMPDEST PUSH1 0x3 DUP1 SLOAD PUSH1 0xFF NOT AND DUP4 ISZERO ISZERO SWAP1 DUP2 OR SWAP1 SWAP2 SSTORE PUSH1 0x40 MLOAD PUSH32 0xBE3F4746D5114E9C4381D5D2EA1E5DC4E1ACB7E7876B6A9A7B4E4A1179F572E4 SWAP1 PUSH1 0x0 SWAP1 LOG2 POP POP JUMP JUMPDEST PUSH1 0x0 DUP3 DUP2 MSTORE PUSH1 0x20 DUP2 SWAP1 MSTORE PUSH1 0x40 SWAP1 KECCAK256 PUSH1 0x1 ADD SLOAD PUSH2 0xDB5 DUP2 PUSH2 0x1017 JUMP JUMPDEST PUSH2 0x953 DUP4 DUP4 PUSH2 0x1059 JUMP JUMPDEST PUSH1 0x0 DUP1 MLOAD PUSH1 0x20 PUSH2 0x1ADA DUP4 CODECOPY DUP2 MLOAD SWAP2 MSTORE PUSH2 0xDD7 DUP2 PUSH2 0x1017 JUMP JUMPDEST PUSH2 0xDE1 DUP4 DUP4 PUSH2 0xE51 JUMP JUMPDEST DUP3 PUSH1 0x1 PUSH1 0x1 PUSH1 0xA0 SHL SUB AND PUSH32 0x3037CBA7F4BF85701FC31C9D01F58F1E2E8604D58F4593AB104D9999A89B9530 DUP4 PUSH1 0x40 MLOAD PUSH2 0xE1C SWAP2 DUP2 MSTORE PUSH1 0x20 ADD SWAP1 JUMP JUMPDEST PUSH1 0x40 MLOAD DUP1 SWAP2 SUB SWAP1 LOG2 POP POP POP JUMP JUMPDEST PUSH1 0x2 DUP1 SLOAD SUB PUSH2 0xE4B JUMPI PUSH1 0x40 MLOAD PUSH4 0x3EE5AEB5 PUSH1 0xE0 SHL DUP2 MSTORE PUSH1 0x4 ADD PUSH1 0x40 MLOAD DUP1 SWAP2 SUB SWAP1 REVERT JUMPDEST PUSH1 0x2 DUP1 SSTORE JUMP JUMPDEST PUSH1 0x0 DUP2 PUSH1 0x4 SLOAD PUSH2 0xE61 SWAP2 SWAP1 PUSH2 0x1A16 JUMP JUMPDEST SWAP1 POP PUSH1 0x5 SLOAD DUP2 GT ISZERO PUSH2 0xE86 JUMPI PUSH1 0x40 MLOAD PUSH4 0x73BE2CEB PUSH1 0xE0 SHL DUP2 MSTORE PUSH1 0x4 ADD PUSH1 0x40 MLOAD DUP1 SWAP2 SUB SWAP1 REVERT JUMPDEST PUSH1 0x0 DUP3 PUSH2 0xE92 DUP6 PUSH2 0x90B JUMP JUMPDEST PUSH2 0xE9C SWAP2 SWAP1 PUSH2 0x1A16 JUMP JUMPDEST SWAP1 POP PUSH1 0x0 PUSH2 0xEA9 DUP6 PUSH2 0xABE JUMP JUMPDEST SWAP1 POP PUSH1 0x0 DUP2 GT DUP1 ISZERO PUSH2 0xEBA JUMPI POP DUP1 DUP3 GT JUMPDEST ISZERO PUSH2 0xED8 JUMPI PUSH1 0x40 MLOAD PUSH4 0x41F5F859 PUSH1 0xE1 SHL DUP2 MSTORE PUSH1 0x4 ADD PUSH1 0x40 MLOAD DUP1 SWAP2 SUB SWAP1 REVERT JUMPDEST DUP4 PUSH1 0x4 PUSH1 0x0 DUP3 DUP3 SLOAD PUSH2 0xEEA SWAP2 SWAP1 PUSH2 0x1A16 JUMP JUMPDEST SWAP1 SWAP2 SSTORE POP PUSH2 0xEFC SWAP1 POP PUSH1 0x8 DUP7 DUP5 PUSH2 0x1086 JUMP JUMPDEST POP POP POP POP POP POP JUMP JUMPDEST PUSH1 0x0 PUSH2 0xF0F PUSH1 0x7 SLOAD SWAP1 JUMP JUMPDEST PUSH2 0xF19 SWAP1 DUP4 PUSH2 0x19D3 JUMP JUMPDEST SWAP1 POP PUSH1 0x0 PUSH2 0x2710 PUSH2 0xF4A PUSH32 0x0 DUP5 PUSH2 0x19D3 JUMP JUMPDEST PUSH2 0xF54 SWAP2 SWAP1 PUSH2 0x1A55 JUMP JUMPDEST SWAP1 POP PUSH2 0xF80 PUSH32 0x0 DUP3 PUSH2 0x118D JUMP JUMPDEST PUSH1 0x0 PUSH2 0xF8C DUP3 DUP5 PUSH2 0x1A03 JUMP JUMPDEST SWAP1 POP PUSH2 0x953 PUSH32 0x0 DUP3 PUSH2 0x118D JUMP JUMPDEST PUSH1 0x0 PUSH1 0x1 PUSH1 0x1 PUSH1 0xE0 SHL SUB NOT DUP3 AND PUSH4 0x7965DB0B PUSH1 0xE0 SHL EQ DUP1 PUSH2 0x905 JUMPI POP PUSH4 0x1FFC9A7 PUSH1 0xE0 SHL PUSH1 0x1 PUSH1 0x1 PUSH1 0xE0 SHL SUB NOT DUP4 AND EQ PUSH2 0x905 JUMP JUMPDEST PUSH1 0x0 PUSH2 0xAE6 DUP4 PUSH1 0x1 PUSH1 0x1 PUSH1 0xA0 SHL SUB DUP5 AND PUSH2 0x1226 JUMP JUMPDEST PUSH1 0x0 PUSH2 0xAE6 DUP4 PUSH1 0x1 PUSH1 0x1 PUSH1 0xA0 SHL SUB DUP5 AND PUSH2 0x1232 JUMP JUMPDEST PUSH2 0x1021 DUP2 CALLER PUSH2 0x127E JUMP JUMPDEST POP JUMP JUMPDEST PUSH1 0x0 DUP1 PUSH2 0x1031 DUP5 DUP5 PUSH2 0x12B7 JUMP JUMPDEST SWAP1 POP DUP1 ISZERO PUSH2 0xAE6 JUMPI PUSH1 0x0 DUP5 DUP2 MSTORE PUSH1 0x1 PUSH1 0x20 MSTORE PUSH1 0x40 SWAP1 KECCAK256 PUSH2 0x1051 SWAP1 DUP5 PUSH2 0x1349 JUMP JUMPDEST POP SWAP4 SWAP3 POP POP POP JUMP JUMPDEST PUSH1 0x0 DUP1 PUSH2 0x1066 DUP5 DUP5 PUSH2 0x135E JUMP JUMPDEST SWAP1 POP DUP1 ISZERO PUSH2 0xAE6 JUMPI PUSH1 0x0 DUP5 DUP2 MSTORE PUSH1 0x1 PUSH1 0x20 MSTORE PUSH1 0x40 SWAP1 KECCAK256 PUSH2 0x1051 SWAP1 DUP5 PUSH2 0x13C9 JUMP JUMPDEST PUSH1 0x0 PUSH2 0x109C DUP5 PUSH1 0x1 PUSH1 0x1 PUSH1 0xA0 SHL SUB DUP6 AND DUP5 PUSH2 0x13DE JUMP JUMPDEST SWAP5 SWAP4 POP POP POP POP JUMP JUMPDEST PUSH1 0x7 DUP2 SWAP1 SSTORE PUSH1 0x40 MLOAD DUP2 SWAP1 CALLER SWAP1 PUSH32 0xABEBBDCA0A0EB22011751610703D50315EDEB5985669335423B2F188AD4BC8F2 SWAP1 PUSH1 0x0 SWAP1 LOG3 POP JUMP JUMPDEST PUSH1 0x5 DUP2 SWAP1 SSTORE PUSH1 0x40 MLOAD DUP2 SWAP1 CALLER SWAP1 PUSH32 0x28C4702F31A5488EF1826A30B4D837DAB0940E925B9F503FE0644B7F1BD2F20F SWAP1 PUSH1 0x0 SWAP1 LOG3 POP JUMP JUMPDEST PUSH1 0x60 PUSH1 0x0 PUSH2 0xAE6 DUP4 PUSH2 0x13FB JUMP JUMPDEST PUSH1 0x0 PUSH2 0x905 DUP3 PUSH2 0x1406 JUMP JUMPDEST PUSH1 0x0 DUP1 DUP1 DUP1 PUSH2 0x1135 DUP7 DUP7 PUSH2 0x1411 JUMP JUMPDEST SWAP1 SWAP8 SWAP1 SWAP7 POP SWAP5 POP POP POP POP POP JUMP JUMPDEST PUSH1 0x0 PUSH2 0xAE6 DUP4 DUP4 PUSH2 0x143C JUMP JUMPDEST PUSH1 0x6 DUP2 SWAP1 SSTORE PUSH1 0x40 MLOAD DUP2 SWAP1 CALLER SWAP1 PUSH32 0x4F1F7A7DD50DAD7476574149E5AD81AEAF8B6E0A517C538DA862B794CB0FB3F6 SWAP1 PUSH1 0x0 SWAP1 LOG3 POP JUMP JUMPDEST PUSH1 0x0 PUSH2 0x905 DUP3 SLOAD SWAP1 JUMP JUMPDEST PUSH32 0x0 PUSH1 0x1 PUSH1 0x1 PUSH1 0xA0 SHL SUB AND PUSH2 0x11F1 JUMPI PUSH1 0x40 MLOAD PUSH1 0x1 PUSH1 0x1 PUSH1 0xA0 SHL SUB DUP4 AND SWAP1 DUP3 ISZERO PUSH2 0x8FC MUL SWAP1 DUP4 SWAP1 PUSH1 0x0 DUP2 DUP2 DUP2 DUP6 DUP9 DUP9 CALL SWAP4 POP POP POP POP ISZERO DUP1 ISZERO PUSH2 0x8DB JUMPI RETURNDATASIZE PUSH1 0x0 DUP1 RETURNDATACOPY RETURNDATASIZE PUSH1 0x0 REVERT JUMPDEST PUSH2 0xABA PUSH1 0x1 PUSH1 0x1 PUSH1 0xA0 SHL SUB PUSH32 0x0 AND CALLER DUP5 DUP5 PUSH2 0x1466 JUMP JUMPDEST PUSH1 0x0 PUSH2 0xAE6 DUP4 DUP4 PUSH2 0x14C0 JUMP JUMPDEST PUSH1 0x0 DUP2 DUP2 MSTORE PUSH1 0x2 DUP4 ADD PUSH1 0x20 MSTORE PUSH1 0x40 DUP2 KECCAK256 SLOAD DUP1 ISZERO DUP1 ISZERO PUSH2 0x1258 JUMPI POP PUSH2 0x1256 DUP5 DUP5 PUSH2 0x1226 JUMP JUMPDEST ISZERO JUMPDEST ISZERO PUSH2 0xAE6 JUMPI PUSH1 0x40 MLOAD PUSH4 0x15AB343 PUSH1 0xE1 SHL DUP2 MSTORE PUSH1 0x4 DUP2 ADD DUP5 SWAP1 MSTORE PUSH1 0x24 ADD JUMPDEST PUSH1 0x40 MLOAD DUP1 SWAP2 SUB SWAP1 REVERT JUMPDEST PUSH2 0x1288 DUP3 DUP3 PUSH2 0xCD1 JUMP JUMPDEST PUSH2 0xABA JUMPI PUSH1 0x40 MLOAD PUSH4 0xE2517D3F PUSH1 0xE0 SHL DUP2 MSTORE PUSH1 0x1 PUSH1 0x1 PUSH1 0xA0 SHL SUB DUP3 AND PUSH1 0x4 DUP3 ADD MSTORE PUSH1 0x24 DUP2 ADD DUP4 SWAP1 MSTORE PUSH1 0x44 ADD PUSH2 0x1275 JUMP JUMPDEST PUSH1 0x0 PUSH2 0x12C3 DUP4 DUP4 PUSH2 0xCD1 JUMP JUMPDEST PUSH2 0x1341 JUMPI PUSH1 0x0 DUP4 DUP2 MSTORE PUSH1 0x20 DUP2 DUP2 MSTORE PUSH1 0x40 DUP1 DUP4 KECCAK256 PUSH1 0x1 PUSH1 0x1 PUSH1 0xA0 SHL SUB DUP7 AND DUP5 MSTORE SWAP1 SWAP2 MSTORE SWAP1 KECCAK256 DUP1 SLOAD PUSH1 0xFF NOT AND PUSH1 0x1 OR SWAP1 SSTORE PUSH2 0x12F9 CALLER SWAP1 JUMP JUMPDEST PUSH1 0x1 PUSH1 0x1 PUSH1 0xA0 SHL SUB AND DUP3 PUSH1 0x1 PUSH1 0x1 PUSH1 0xA0 SHL SUB AND DUP5 PUSH32 0x2F8788117E7EFF1D82E926EC794901D17C78024A50270940304540A733656F0D PUSH1 0x40 MLOAD PUSH1 0x40 MLOAD DUP1 SWAP2 SUB SWAP1 LOG4 POP PUSH1 0x1 PUSH2 0x905 JUMP JUMPDEST POP PUSH1 0x0 PUSH2 0x905 JUMP JUMPDEST PUSH1 0x0 PUSH2 0xAE6 DUP4 PUSH1 0x1 PUSH1 0x1 PUSH1 0xA0 SHL SUB DUP5 AND PUSH2 0x14D8 JUMP JUMPDEST PUSH1 0x0 PUSH2 0x136A DUP4 DUP4 PUSH2 0xCD1 JUMP JUMPDEST ISZERO PUSH2 0x1341 JUMPI PUSH1 0x0 DUP4 DUP2 MSTORE PUSH1 0x20 DUP2 DUP2 MSTORE PUSH1 0x40 DUP1 DUP4 KECCAK256 PUSH1 0x1 PUSH1 0x1 PUSH1 0xA0 SHL SUB DUP7 AND DUP1 DUP6 MSTORE SWAP3 MSTORE DUP1 DUP4 KECCAK256 DUP1 SLOAD PUSH1 0xFF NOT AND SWAP1 SSTORE MLOAD CALLER SWAP3 DUP7 SWAP2 PUSH32 0xF6391F5C32D9C69D2A47EA670B442974B53935D1EDC7FD64EB21E047A839171B SWAP2 SWAP1 LOG4 POP PUSH1 0x1 PUSH2 0x905 JUMP JUMPDEST PUSH1 0x0 PUSH2 0xAE6 DUP4 PUSH1 0x1 PUSH1 0x1 PUSH1 0xA0 SHL SUB DUP5 AND PUSH2 0x151F JUMP JUMPDEST PUSH1 0x0 DUP3 DUP2 MSTORE PUSH1 0x2 DUP5 ADD PUSH1 0x20 MSTORE PUSH1 0x40 DUP2 KECCAK256 DUP3 SWAP1 SSTORE PUSH2 0x109C DUP5 DUP5 PUSH2 0x1612 JUMP JUMPDEST PUSH1 0x60 PUSH2 0x905 DUP3 PUSH2 0x161E JUMP JUMPDEST PUSH1 0x0 PUSH2 0x905 DUP3 PUSH2 0x1183 JUMP JUMPDEST PUSH1 0x0 DUP1 DUP1 PUSH2 0x141F DUP6 DUP6 PUSH2 0x1142 JUMP JUMPDEST PUSH1 0x0 DUP2 DUP2 MSTORE PUSH1 0x2 SWAP7 SWAP1 SWAP7 ADD PUSH1 0x20 MSTORE PUSH1 0x40 SWAP1 SWAP6 KECCAK256 SLOAD SWAP5 SWAP6 SWAP4 POP POP POP POP JUMP JUMPDEST PUSH1 0x0 DUP3 PUSH1 0x0 ADD DUP3 DUP2 SLOAD DUP2 LT PUSH2 0x1453 JUMPI PUSH2 0x1453 PUSH2 0x1A3F JUMP JUMPDEST SWAP1 PUSH1 0x0 MSTORE PUSH1 0x20 PUSH1 0x0 KECCAK256 ADD SLOAD SWAP1 POP SWAP3 SWAP2 POP POP JUMP JUMPDEST PUSH1 0x40 DUP1 MLOAD PUSH1 0x1 PUSH1 0x1 PUSH1 0xA0 SHL SUB DUP6 DUP2 AND PUSH1 0x24 DUP4 ADD MSTORE DUP5 AND PUSH1 0x44 DUP3 ADD MSTORE PUSH1 0x64 DUP1 DUP3 ADD DUP5 SWAP1 MSTORE DUP3 MLOAD DUP1 DUP4 SUB SWAP1 SWAP2 ADD DUP2 MSTORE PUSH1 0x84 SWAP1 SWAP2 ADD SWAP1 SWAP2 MSTORE PUSH1 0x20 DUP2 ADD DUP1 MLOAD PUSH1 0x1 PUSH1 0x1 PUSH1 0xE0 SHL SUB AND PUSH4 0x23B872DD PUSH1 0xE0 SHL OR SWAP1 MSTORE PUSH2 0x953 SWAP1 DUP6 SWAP1 PUSH2 0x162B JUMP JUMPDEST PUSH1 0x0 DUP2 DUP2 MSTORE PUSH1 0x1 DUP4 ADD PUSH1 0x20 MSTORE PUSH1 0x40 DUP2 KECCAK256 SLOAD ISZERO ISZERO PUSH2 0xAE6 JUMP JUMPDEST PUSH1 0x0 DUP2 DUP2 MSTORE PUSH1 0x1 DUP4 ADD PUSH1 0x20 MSTORE PUSH1 0x40 DUP2 KECCAK256 SLOAD PUSH2 0x1341 JUMPI POP DUP2 SLOAD PUSH1 0x1 DUP2 DUP2 ADD DUP5 SSTORE PUSH1 0x0 DUP5 DUP2 MSTORE PUSH1 0x20 DUP1 DUP3 KECCAK256 SWAP1 SWAP4 ADD DUP5 SWAP1 SSTORE DUP5 SLOAD DUP5 DUP3 MSTORE DUP3 DUP7 ADD SWAP1 SWAP4 MSTORE PUSH1 0x40 SWAP1 KECCAK256 SWAP2 SWAP1 SWAP2 SSTORE PUSH2 0x905 JUMP JUMPDEST PUSH1 0x0 DUP2 DUP2 MSTORE PUSH1 0x1 DUP4 ADD PUSH1 0x20 MSTORE PUSH1 0x40 DUP2 KECCAK256 SLOAD DUP1 ISZERO PUSH2 0x1608 JUMPI PUSH1 0x0 PUSH2 0x1543 PUSH1 0x1 DUP4 PUSH2 0x1A03 JUMP JUMPDEST DUP6 SLOAD SWAP1 SWAP2 POP PUSH1 0x0 SWAP1 PUSH2 0x1557 SWAP1 PUSH1 0x1 SWAP1 PUSH2 0x1A03 JUMP JUMPDEST SWAP1 POP DUP1 DUP3 EQ PUSH2 0x15BC JUMPI PUSH1 0x0 DUP7 PUSH1 0x0 ADD DUP3 DUP2 SLOAD DUP2 LT PUSH2 0x1577 JUMPI PUSH2 0x1577 PUSH2 0x1A3F JUMP JUMPDEST SWAP1 PUSH1 0x0 MSTORE PUSH1 0x20 PUSH1 0x0 KECCAK256 ADD SLOAD SWAP1 POP DUP1 DUP8 PUSH1 0x0 ADD DUP5 DUP2 SLOAD DUP2 LT PUSH2 0x159A JUMPI PUSH2 0x159A PUSH2 0x1A3F JUMP JUMPDEST PUSH1 0x0 SWAP2 DUP3 MSTORE PUSH1 0x20 DUP1 DUP4 KECCAK256 SWAP1 SWAP2 ADD SWAP3 SWAP1 SWAP3 SSTORE SWAP2 DUP3 MSTORE PUSH1 0x1 DUP9 ADD SWAP1 MSTORE PUSH1 0x40 SWAP1 KECCAK256 DUP4 SWAP1 SSTORE JUMPDEST DUP6 SLOAD DUP7 SWAP1 DUP1 PUSH2 0x15CD JUMPI PUSH2 0x15CD PUSH2 0x1A77 JUMP JUMPDEST PUSH1 0x1 SWAP1 SUB DUP2 DUP2 SWAP1 PUSH1 0x0 MSTORE PUSH1 0x20 PUSH1 0x0 KECCAK256 ADD PUSH1 0x0 SWAP1 SSTORE SWAP1 SSTORE DUP6 PUSH1 0x1 ADD PUSH1 0x0 DUP7 DUP2 MSTORE PUSH1 0x20 ADD SWAP1 DUP2 MSTORE PUSH1 0x20 ADD PUSH1 0x0 KECCAK256 PUSH1 0x0 SWAP1 SSTORE PUSH1 0x1 SWAP4 POP POP POP POP PUSH2 0x905 JUMP JUMPDEST PUSH1 0x0 SWAP2 POP POP PUSH2 0x905 JUMP JUMPDEST PUSH1 0x0 PUSH2 0xAE6 DUP4 DUP4 PUSH2 0x14D8 JUMP JUMPDEST PUSH1 0x60 PUSH1 0x0 PUSH2 0xAE6 DUP4 PUSH2 0x168E JUMP JUMPDEST PUSH1 0x0 PUSH2 0x1640 PUSH1 0x1 PUSH1 0x1 PUSH1 0xA0 SHL SUB DUP5 AND DUP4 PUSH2 0x16EA JUMP JUMPDEST SWAP1 POP DUP1 MLOAD PUSH1 0x0 EQ ISZERO DUP1 ISZERO PUSH2 0x1665 JUMPI POP DUP1 DUP1 PUSH1 0x20 ADD SWAP1 MLOAD DUP2 ADD SWAP1 PUSH2 0x1663 SWAP2 SWAP1 PUSH2 0x1A8D JUMP JUMPDEST ISZERO JUMPDEST ISZERO PUSH2 0x8DB JUMPI PUSH1 0x40 MLOAD PUSH4 0x5274AFE7 PUSH1 0xE0 SHL DUP2 MSTORE PUSH1 0x1 PUSH1 0x1 PUSH1 0xA0 SHL SUB DUP5 AND PUSH1 0x4 DUP3 ADD MSTORE PUSH1 0x24 ADD PUSH2 0x1275 JUMP JUMPDEST PUSH1 0x60 DUP2 PUSH1 0x0 ADD DUP1 SLOAD DUP1 PUSH1 0x20 MUL PUSH1 0x20 ADD PUSH1 0x40 MLOAD SWAP1 DUP2 ADD PUSH1 0x40 MSTORE DUP1 SWAP3 SWAP2 SWAP1 DUP2 DUP2 MSTORE PUSH1 0x20 ADD DUP3 DUP1 SLOAD DUP1 ISZERO PUSH2 0x16DE JUMPI PUSH1 0x20 MUL DUP3 ADD SWAP2 SWAP1 PUSH1 0x0 MSTORE PUSH1 0x20 PUSH1 0x0 KECCAK256 SWAP1 JUMPDEST DUP2 SLOAD DUP2 MSTORE PUSH1 0x20 ADD SWAP1 PUSH1 0x1 ADD SWAP1 DUP1 DUP4 GT PUSH2 0x16CA JUMPI JUMPDEST POP POP POP POP POP SWAP1 POP SWAP2 SWAP1 POP JUMP JUMPDEST PUSH1 0x60 PUSH2 0xAE6 DUP4 DUP4 PUSH1 0x0 DUP5 PUSH1 0x0 DUP1 DUP6 PUSH1 0x1 PUSH1 0x1 PUSH1 0xA0 SHL SUB AND DUP5 DUP7 PUSH1 0x40 MLOAD PUSH2 0x1710 SWAP2 SWAP1 PUSH2 0x1AAA JUMP JUMPDEST PUSH1 0x0 PUSH1 0x40 MLOAD DUP1 DUP4 SUB DUP2 DUP6 DUP8 GAS CALL SWAP3 POP POP POP RETURNDATASIZE DUP1 PUSH1 0x0 DUP2 EQ PUSH2 0x174D JUMPI PUSH1 0x40 MLOAD SWAP2 POP PUSH1 0x1F NOT PUSH1 0x3F RETURNDATASIZE ADD AND DUP3 ADD PUSH1 0x40 MSTORE RETURNDATASIZE DUP3 MSTORE RETURNDATASIZE PUSH1 0x0 PUSH1 0x20 DUP5 ADD RETURNDATACOPY PUSH2 0x1752 JUMP JUMPDEST PUSH1 0x60 SWAP2 POP JUMPDEST POP SWAP2 POP SWAP2 POP PUSH2 0x1762 DUP7 DUP4 DUP4 PUSH2 0x176C JUMP JUMPDEST SWAP7 SWAP6 POP POP POP POP POP POP JUMP JUMPDEST PUSH1 0x60 DUP3 PUSH2 0x1781 JUMPI PUSH2 0x177C DUP3 PUSH2 0x17C8 JUMP JUMPDEST PUSH2 0xAE6 JUMP JUMPDEST DUP2 MLOAD ISZERO DUP1 ISZERO PUSH2 0x1798 JUMPI POP PUSH1 0x1 PUSH1 0x1 PUSH1 0xA0 SHL SUB DUP5 AND EXTCODESIZE ISZERO JUMPDEST ISZERO PUSH2 0x17C1 JUMPI PUSH1 0x40 MLOAD PUSH4 0x9996B315 PUSH1 0xE0 SHL DUP2 MSTORE PUSH1 0x1 PUSH1 0x1 PUSH1 0xA0 SHL SUB DUP6 AND PUSH1 0x4 DUP3 ADD MSTORE PUSH1 0x24 ADD PUSH2 0x1275 JUMP JUMPDEST POP DUP1 PUSH2 0xAE6 JUMP JUMPDEST DUP1 MLOAD ISZERO PUSH2 0x17D8 JUMPI DUP1 MLOAD DUP1 DUP3 PUSH1 0x20 ADD REVERT JUMPDEST PUSH1 0x40 MLOAD PUSH4 0xA12F521 PUSH1 0xE1 SHL DUP2 MSTORE PUSH1 0x4 ADD PUSH1 0x40 MLOAD DUP1 SWAP2 SUB SWAP1 REVERT JUMPDEST PUSH1 0x0 PUSH1 0x20 DUP3 DUP5 SUB SLT ISZERO PUSH2 0x1803 JUMPI PUSH1 0x0 DUP1 REVERT JUMPDEST POP CALLDATALOAD SWAP2 SWAP1 POP JUMP JUMPDEST PUSH1 0x0 PUSH1 0x20 DUP3 DUP5 SUB SLT ISZERO PUSH2 0x181C JUMPI PUSH1 0x0 DUP1 REVERT JUMPDEST DUP2 CALLDATALOAD PUSH1 0x1 PUSH1 0x1 PUSH1 0xE0 SHL SUB NOT DUP2 AND DUP2 EQ PUSH2 0xAE6 JUMPI PUSH1 0x0 DUP1 REVERT JUMPDEST DUP1 CALLDATALOAD PUSH1 0x1 PUSH1 0x1 PUSH1 0xA0 SHL SUB DUP2 AND DUP2 EQ PUSH2 0x184B JUMPI PUSH1 0x0 DUP1 REVERT JUMPDEST SWAP2 SWAP1 POP JUMP JUMPDEST PUSH1 0x0 PUSH1 0x20 DUP3 DUP5 SUB SLT ISZERO PUSH2 0x1862 JUMPI PUSH1 0x0 DUP1 REVERT JUMPDEST PUSH2 0xAE6 DUP3 PUSH2 0x1834 JUMP JUMPDEST PUSH1 0x0 DUP1 PUSH1 0x40 DUP4 DUP6 SUB SLT ISZERO PUSH2 0x187E JUMPI PUSH1 0x0 DUP1 REVERT JUMPDEST DUP3 CALLDATALOAD SWAP2 POP PUSH2 0x188E PUSH1 0x20 DUP5 ADD PUSH2 0x1834 JUMP JUMPDEST SWAP1 POP SWAP3 POP SWAP3 SWAP1 POP JUMP JUMPDEST PUSH1 0x0 DUP1 PUSH1 0x40 DUP4 DUP6 SUB SLT ISZERO PUSH2 0x18AA JUMPI PUSH1 0x0 DUP1 REVERT JUMPDEST PUSH2 0x18B3 DUP4 PUSH2 0x1834 JUMP JUMPDEST SWAP5 PUSH1 0x20 SWAP4 SWAP1 SWAP4 ADD CALLDATALOAD SWAP4 POP POP POP JUMP JUMPDEST PUSH1 0x0 DUP2 MLOAD DUP1 DUP5 MSTORE PUSH1 0x20 DUP1 DUP6 ADD SWAP5 POP PUSH1 0x20 DUP5 ADD PUSH1 0x0 JUMPDEST DUP4 DUP2 LT ISZERO PUSH2 0x18FB JUMPI DUP2 MLOAD PUSH1 0x1 PUSH1 0x1 PUSH1 0xA0 SHL SUB AND DUP8 MSTORE SWAP6 DUP3 ADD SWAP6 SWAP1 DUP3 ADD SWAP1 PUSH1 0x1 ADD PUSH2 0x18D6 JUMP JUMPDEST POP SWAP5 SWAP6 SWAP5 POP POP POP POP POP JUMP JUMPDEST PUSH1 0x20 DUP2 MSTORE PUSH1 0x0 PUSH2 0xAE6 PUSH1 0x20 DUP4 ADD DUP5 PUSH2 0x18C1 JUMP JUMPDEST PUSH1 0x40 DUP2 MSTORE PUSH1 0x0 PUSH2 0x192C PUSH1 0x40 DUP4 ADD DUP6 PUSH2 0x18C1 JUMP JUMPDEST DUP3 DUP2 SUB PUSH1 0x20 DUP5 DUP2 ADD SWAP2 SWAP1 SWAP2 MSTORE DUP5 MLOAD DUP1 DUP4 MSTORE DUP6 DUP3 ADD SWAP3 DUP3 ADD SWAP1 PUSH1 0x0 JUMPDEST DUP2 DUP2 LT ISZERO PUSH2 0x1963 JUMPI DUP5 MLOAD DUP4 MSTORE SWAP4 DUP4 ADD SWAP4 SWAP2 DUP4 ADD SWAP2 PUSH1 0x1 ADD PUSH2 0x1947 JUMP JUMPDEST POP SWAP1 SWAP8 SWAP7 POP POP POP POP POP POP POP JUMP JUMPDEST PUSH1 0x0 DUP1 PUSH1 0x40 DUP4 DUP6 SUB SLT ISZERO PUSH2 0x1983 JUMPI PUSH1 0x0 DUP1 REVERT JUMPDEST POP POP DUP1 CALLDATALOAD SWAP3 PUSH1 0x20 SWAP1 SWAP2 ADD CALLDATALOAD SWAP2 POP JUMP JUMPDEST DUP1 ISZERO ISZERO DUP2 EQ PUSH2 0x1021 JUMPI PUSH1 0x0 DUP1 REVERT JUMPDEST PUSH1 0x0 PUSH1 0x20 DUP3 DUP5 SUB SLT ISZERO PUSH2 0x19B2 JUMPI PUSH1 0x0 DUP1 REVERT JUMPDEST DUP2 CALLDATALOAD PUSH2 0xAE6 DUP2 PUSH2 0x1992 JUMP JUMPDEST PUSH4 0x4E487B71 PUSH1 0xE0 SHL PUSH1 0x0 MSTORE PUSH1 0x11 PUSH1 0x4 MSTORE PUSH1 0x24 PUSH1 0x0 REVERT JUMPDEST DUP1 DUP3 MUL DUP2 ISZERO DUP3 DUP3 DIV DUP5 EQ OR PUSH2 0x905 JUMPI PUSH2 0x905 PUSH2 0x19BD JUMP JUMPDEST PUSH1 0x0 PUSH1 0x20 DUP3 DUP5 SUB SLT ISZERO PUSH2 0x19FC JUMPI PUSH1 0x0 DUP1 REVERT JUMPDEST POP MLOAD SWAP2 SWAP1 POP JUMP JUMPDEST DUP2 DUP2 SUB DUP2 DUP2 GT ISZERO PUSH2 0x905 JUMPI PUSH2 0x905 PUSH2 0x19BD JUMP JUMPDEST DUP1 DUP3 ADD DUP1 DUP3 GT ISZERO PUSH2 0x905 JUMPI PUSH2 0x905 PUSH2 0x19BD JUMP JUMPDEST PUSH4 0x4E487B71 PUSH1 0xE0 SHL PUSH1 0x0 MSTORE PUSH1 0x41 PUSH1 0x4 MSTORE PUSH1 0x24 PUSH1 0x0 REVERT JUMPDEST PUSH4 0x4E487B71 PUSH1 0xE0 SHL PUSH1 0x0 MSTORE PUSH1 0x32 PUSH1 0x4 MSTORE PUSH1 0x24 PUSH1 0x0 REVERT JUMPDEST PUSH1 0x0 DUP3 PUSH2 0x1A72 JUMPI PUSH4 0x4E487B71 PUSH1 0xE0 SHL PUSH1 0x0 MSTORE PUSH1 0x12 PUSH1 0x4 MSTORE PUSH1 0x24 PUSH1 0x0 REVERT JUMPDEST POP DIV SWAP1 JUMP JUMPDEST PUSH4 0x4E487B71 PUSH1 0xE0 SHL PUSH1 0x0 MSTORE PUSH1 0x31 PUSH1 0x4 MSTORE PUSH1 0x24 PUSH1 0x0 REVERT JUMPDEST PUSH1 0x0 PUSH1 0x20 DUP3 DUP5 SUB SLT ISZERO PUSH2 0x1A9F JUMPI PUSH1 0x0 DUP1 REVERT JUMPDEST DUP2 MLOAD PUSH2 0xAE6 DUP2 PUSH2 0x1992 JUMP JUMPDEST PUSH1 0x0 DUP3 MLOAD PUSH1 0x0 JUMPDEST DUP2 DUP2 LT ISZERO PUSH2 0x1ACB JUMPI PUSH1 0x20 DUP2 DUP7 ADD DUP2 ADD MLOAD DUP6 DUP4 ADD MSTORE ADD PUSH2 0x1AB1 JUMP JUMPDEST POP PUSH1 0x0 SWAP3 ADD SWAP2 DUP3 MSTORE POP SWAP2 SWAP1 POP JUMP INVALID LOG4 SWAP9 SMOD KECCAK256 TLOAD 0xE4 0xD3 SSTORE MULMOD 0x2E CREATE2 0xA8 LOG1 DUP16 JUMP 0xE8 SWAP2 EXTCODECOPY DELEGATECALL LOG2 ADD 0xFB 0xE2 DUP8 DUP3 JUMPDEST MULMOD JUMP SWAP4 0xC2 OR PUSH22 0xA2646970667358221220F36425DEE4796E94FCF9983E DUP7 CODECOPY 0xC5 0xCD GASPRICE 0xDD SMOD SWAP6 0xD3 0xC6 CALLER SWAP3 SWAP8 PUSH8 0xBC191380A756473 PUSH16 0x6C634300081800330000000000000000 "
        },
        "methodIdentifiers": {
          "ADMIN_ROLE()": "75b238fc",
          "DEFAULT_ADMIN_ROLE()": "a217fddf",
          "MASTER_ROLE()": "dc224863",
          "addMultipleNodes(address,uint256)": "d79ed804",
          "commissionsWallet()": "c3bc63e4",
          "commonWalletCap()": "3d08c14f",
          "getAccounts()": "8a48ac03",
          "getAccountsAndNumberOfNodes()": "8d549f17",
          "getAvailableNodes()": "436a014a",
          "getNumberOfNodes(address)": "17fb4c3b",
          "getPricePerNode()": "7caf7c92",
          "getRoleAdmin(bytes32)": "248a9ca3",
          "getRoleMember(bytes32,uint256)": "9010d07c",
          "getRoleMemberCount(bytes32)": "ca15c873",
          "getWalletCap(address)": "5a4074ef",
          "grantRole(bytes32,address)": "2f2ff15d",
          "hasRole(bytes32,address)": "91d14854",
          "isSaleActive()": "564566a8",
          "maxSupply()": "d5abeb01",
          "nodeCount()": "6da49b83",
          "nodeProviderWallet()": "7fcd7a54",
          "ntCommissions()": "58a7dc2c",
          "paymentToken()": "3013ce29",
          "purchaseNodes(uint256)": "01be583b",
          "renounceRole(bytes32,address)": "36568abe",
          "revokeRole(bytes32,address)": "d547741f",
          "setCommonWalletCap(uint256)": "aaa1801e",
          "setIsSaleActive(bool)": "d2d65ff5",
          "setMaxSupply(uint256)": "6f8b44b0",
          "setNumberOfNodes(address,uint256)": "49b514f2",
          "setPricePerNode(uint256)": "548cc74f",
          "setSingleWalletCap(address,uint256)": "6a991122",
          "supportsInterface(bytes4)": "01ffc9a7"
        }
      },
      "storageLayout": {
        "storage": [
          {
            "astId": 26,
            "contract": "contracts/NodesSale.sol:NodesSale",
            "label": "_roles",
            "offset": 0,
            "slot": "0",
            "type": "t_mapping(t_bytes32,t_struct(RoleData)21_storage)"
          },
          {
            "astId": 400,
            "contract": "contracts/NodesSale.sol:NodesSale",
            "label": "_roleMembers",
            "offset": 0,
            "slot": "1",
            "type": "t_mapping(t_bytes32,t_struct(AddressSet)2779_storage)"
          },
          {
            "astId": 1244,
            "contract": "contracts/NodesSale.sol:NodesSale",
            "label": "_status",
            "offset": 0,
            "slot": "2",
            "type": "t_uint256"
          },
          {
            "astId": 3107,
            "contract": "contracts/NodesSale.sol:NodesSale",
            "label": "isSaleActive",
            "offset": 0,
            "slot": "3",
            "type": "t_bool"
          },
          {
            "astId": 3110,
            "contract": "contracts/NodesSale.sol:NodesSale",
            "label": "nodeCount",
            "offset": 0,
            "slot": "4",
            "type": "t_uint256"
          },
          {
            "astId": 3113,
            "contract": "contracts/NodesSale.sol:NodesSale",
            "label": "maxSupply",
            "offset": 0,
            "slot": "5",
            "type": "t_uint256"
          },
          {
            "astId": 3116,
            "contract": "contracts/NodesSale.sol:NodesSale",
            "label": "commonWalletCap",
            "offset": 0,
            "slot": "6",
            "type": "t_uint256"
          },
          {
            "astId": 3130,
            "contract": "contracts/NodesSale.sol:NodesSale",
            "label": "pricePerNode",
            "offset": 0,
            "slot": "7",
            "type": "t_uint256"
          },
          {
            "astId": 3133,
            "contract": "contracts/NodesSale.sol:NodesSale",
            "label": "purchasedNodes",
            "offset": 0,
            "slot": "8",
            "type": "t_struct(AddressToUintMap)2018_storage"
          },
          {
            "astId": 3137,
            "contract": "contracts/NodesSale.sol:NodesSale",
            "label": "singleWalletCap",
            "offset": 0,
            "slot": "11",
            "type": "t_mapping(t_address,t_uint256)"
          }
        ],
        "types": {
          "t_address": {
            "encoding": "inplace",
            "label": "address",
            "numberOfBytes": "20"
          },
          "t_array(t_bytes32)dyn_storage": {
            "base": "t_bytes32",
            "encoding": "dynamic_array",
            "label": "bytes32[]",
            "numberOfBytes": "32"
          },
          "t_bool": {
            "encoding": "inplace",
            "label": "bool",
            "numberOfBytes": "1"
          },
          "t_bytes32": {
            "encoding": "inplace",
            "label": "bytes32",
            "numberOfBytes": "32"
          },
          "t_mapping(t_address,t_bool)": {
            "encoding": "mapping",
            "key": "t_address",
            "label": "mapping(address => bool)",
            "numberOfBytes": "32",
            "value": "t_bool"
          },
          "t_mapping(t_address,t_uint256)": {
            "encoding": "mapping",
            "key": "t_address",
            "label": "mapping(address => uint256)",
            "numberOfBytes": "32",
            "value": "t_uint256"
          },
          "t_mapping(t_bytes32,t_bytes32)": {
            "encoding": "mapping",
            "key": "t_bytes32",
            "label": "mapping(bytes32 => bytes32)",
            "numberOfBytes": "32",
            "value": "t_bytes32"
          },
          "t_mapping(t_bytes32,t_struct(AddressSet)2779_storage)": {
            "encoding": "mapping",
            "key": "t_bytes32",
            "label": "mapping(bytes32 => struct EnumerableSet.AddressSet)",
            "numberOfBytes": "32",
            "value": "t_struct(AddressSet)2779_storage"
          },
          "t_mapping(t_bytes32,t_struct(RoleData)21_storage)": {
            "encoding": "mapping",
            "key": "t_bytes32",
            "label": "mapping(bytes32 => struct AccessControl.RoleData)",
            "numberOfBytes": "32",
            "value": "t_struct(RoleData)21_storage"
          },
          "t_mapping(t_bytes32,t_uint256)": {
            "encoding": "mapping",
            "key": "t_bytes32",
            "label": "mapping(bytes32 => uint256)",
            "numberOfBytes": "32",
            "value": "t_uint256"
          },
          "t_struct(AddressSet)2779_storage": {
            "encoding": "inplace",
            "label": "struct EnumerableSet.AddressSet",
            "members": [
              {
                "astId": 2778,
                "contract": "contracts/NodesSale.sol:NodesSale",
                "label": "_inner",
                "offset": 0,
                "slot": "0",
                "type": "t_struct(Set)2464_storage"
              }
            ],
            "numberOfBytes": "64"
          },
          "t_struct(AddressToUintMap)2018_storage": {
            "encoding": "inplace",
            "label": "struct EnumerableMap.AddressToUintMap",
            "members": [
              {
                "astId": 2017,
                "contract": "contracts/NodesSale.sol:NodesSale",
                "label": "_inner",
                "offset": 0,
                "slot": "0",
                "type": "t_struct(Bytes32ToBytes32Map)1360_storage"
              }
            ],
            "numberOfBytes": "96"
          },
          "t_struct(Bytes32Set)2658_storage": {
            "encoding": "inplace",
            "label": "struct EnumerableSet.Bytes32Set",
            "members": [
              {
                "astId": 2657,
                "contract": "contracts/NodesSale.sol:NodesSale",
                "label": "_inner",
                "offset": 0,
                "slot": "0",
                "type": "t_struct(Set)2464_storage"
              }
            ],
            "numberOfBytes": "64"
          },
          "t_struct(Bytes32ToBytes32Map)1360_storage": {
            "encoding": "inplace",
            "label": "struct EnumerableMap.Bytes32ToBytes32Map",
            "members": [
              {
                "astId": 1355,
                "contract": "contracts/NodesSale.sol:NodesSale",
                "label": "_keys",
                "offset": 0,
                "slot": "0",
                "type": "t_struct(Bytes32Set)2658_storage"
              },
              {
                "astId": 1359,
                "contract": "contracts/NodesSale.sol:NodesSale",
                "label": "_values",
                "offset": 0,
                "slot": "2",
                "type": "t_mapping(t_bytes32,t_bytes32)"
              }
            ],
            "numberOfBytes": "96"
          },
          "t_struct(RoleData)21_storage": {
            "encoding": "inplace",
            "label": "struct AccessControl.RoleData",
            "members": [
              {
                "astId": 18,
                "contract": "contracts/NodesSale.sol:NodesSale",
                "label": "hasRole",
                "offset": 0,
                "slot": "0",
                "type": "t_mapping(t_address,t_bool)"
              },
              {
                "astId": 20,
                "contract": "contracts/NodesSale.sol:NodesSale",
                "label": "adminRole",
                "offset": 0,
                "slot": "1",
                "type": "t_bytes32"
              }
            ],
            "numberOfBytes": "64"
          },
          "t_struct(Set)2464_storage": {
            "encoding": "inplace",
            "label": "struct EnumerableSet.Set",
            "members": [
              {
                "astId": 2459,
                "contract": "contracts/NodesSale.sol:NodesSale",
                "label": "_values",
                "offset": 0,
                "slot": "0",
                "type": "t_array(t_bytes32)dyn_storage"
              },
              {
                "astId": 2463,
                "contract": "contracts/NodesSale.sol:NodesSale",
                "label": "_positions",
                "offset": 0,
                "slot": "1",
                "type": "t_mapping(t_bytes32,t_uint256)"
              }
            ],
            "numberOfBytes": "64"
          },
          "t_uint256": {
            "encoding": "inplace",
            "label": "uint256",
            "numberOfBytes": "32"
          }
        }
      },
      "userdoc": {
        "errors": {
          "InsufficientAllowance()": [
            {
              "notice": "Raised when user allowance for token is insufficient"
            }
          ],
          "InsufficientBalance()": [
            {
              "notice": "Raised when user balance is insufficient"
            }
          ],
          "InvalidParameter()": [
            {
              "notice": "Raised invalid parameter passed"
            }
          ],
          "NodesAllAllocated()": [
            {
              "notice": "Raised when number of nodes exceeds the available ones"
            }
          ],
          "SaleNotActive()": [
            {
              "notice": "Raised when sale is not active"
            }
          ],
          "WalletCapExceeded()": [
            {
              "notice": "Raised when wallet cap is exceeded"
            }
          ],
          "ZeroAddress()": [
            {
              "notice": "Raised when address is zero address"
            }
          ]
        },
        "events": {
          "CommonWalletCapChanged(address,uint256)": {
            "notice": "Emitted when common wallet cap is changed"
          },
          "MaxSupplyChanged(address,uint256)": {
            "notice": "Emitted when max supply is changed"
          },
          "NodePriceChanged(address,uint256)": {
            "notice": "Emitted when node price is changed"
          },
          "NodesAirdropped(address,uint256)": {
            "notice": "Emitted when nodes are airdropped"
          },
          "NodesPurchased(address,uint256)": {
            "notice": "Emitted when nodes are purchased"
          },
          "NumberOfNodesUpdated(address,uint256)": {
            "notice": "Emitted when number of nodes are updated"
          },
          "SaleActivationSet(bool)": {
            "notice": "Emitted when sale activation status is set"
          },
          "SingleWalletCapChanged(address,address,uint256)": {
            "notice": "Emitted when single wallet cap is changed"
          }
        },
        "kind": "user",
        "methods": {
          "addMultipleNodes(address,uint256)": {
            "notice": "Adds nodes to account"
          },
          "commissionsWallet()": {
            "notice": "Address of wallet that collects commissions"
          },
          "commonWalletCap()": {
            "notice": "Maximum number of nodes single wallet can purchase"
          },
          "constructor": {
            "notice": "Initialize smart contract"
          },
          "getAccounts()": {
            "notice": "Returns all accounts that purchased nodes"
          },
          "getAccountsAndNumberOfNodes()": {
            "notice": "Returns accounts addresses and corresponding number of purchased nodes"
          },
          "getAvailableNodes()": {
            "notice": "Returns number of available nodes that can be purchased"
          },
          "getNumberOfNodes(address)": {
            "notice": "Returns number of purchased nodes by account"
          },
          "getPricePerNode()": {
            "notice": "Returns node price"
          },
          "getWalletCap(address)": {
            "notice": "Returns wallet cap"
          },
          "isSaleActive()": {
            "notice": "Returns if sale is active"
          },
          "maxSupply()": {
            "notice": "Maximum number of nodes for sale"
          },
          "nodeCount()": {
            "notice": "Returns number of purchased nodes"
          },
          "nodeProviderWallet()": {
            "notice": "Address of wallet that collects payments"
          },
          "ntCommissions()": {
            "notice": "Commissions in basis points"
          },
          "paymentToken()": {
            "notice": "Address of token used for payment"
          },
          "purchaseNodes(uint256)": {
            "notice": "Performs nodes purchase"
          },
          "setCommonWalletCap(uint256)": {
            "notice": "Sets wallet cap"
          },
          "setIsSaleActive(bool)": {
            "notice": "Sets if sale is active"
          },
          "setMaxSupply(uint256)": {
            "notice": "Sets max supply"
          },
          "setNumberOfNodes(address,uint256)": {
            "notice": "Assigns number of nodes to account"
          },
          "setPricePerNode(uint256)": {
            "notice": "Sets price per node"
          },
          "setSingleWalletCap(address,uint256)": {
            "notice": "Sets single wallet cap"
          }
        },
        "notice": "This is smart contract that is responsible for handling nodes sale using Node Terminal platform. It collects payments in ERC-20 token (in particular USDT) and increases number of nodes assigned to the account. This data will be used for future NFT airdrop.",
        "version": 1
      }
    }
  }
}