{
  "_format": "hh-sol-artifact-1",
  "contractName": "ERC20TestToken2",
  "sourceName": "contracts/test/ERC20TestToken2.sol",
  "abi": [
    {
      "inputs": [],
      "stateMutability": "nonpayable",
      "type": "constructor"
    },
    {
      "inputs": [
        {
          "internalType": "address",
          "name": "spender",
          "type": "address"
        },
        {
          "internalType": "uint256",
          "name": "allowance",
          "type": "uint256"
        },
        {
          "internalType": "uint256",
          "name": "needed",
          "type": "uint256"
        }
      ],
      "name": "ERC20InsufficientAllowance",
      "type": "error"
    },
    {
      "inputs": [
        {
          "internalType": "address",
          "name": "sender",
          "type": "address"
        },
        {
          "internalType": "uint256",
          "name": "balance",
          "type": "uint256"
        },
        {
          "internalType": "uint256",
          "name": "needed",
          "type": "uint256"
        }
      ],
      "name": "ERC20InsufficientBalance",
      "type": "error"
    },
    {
      "inputs": [
        {
          "internalType": "address",
          "name": "approver",
          "type": "address"
        }
      ],
      "name": "ERC20InvalidApprover",
      "type": "error"
    },
    {
      "inputs": [
        {
          "internalType": "address",
          "name": "receiver",
          "type": "address"
        }
      ],
      "name": "ERC20InvalidReceiver",
      "type": "error"
    },
    {
      "inputs": [
        {
          "internalType": "address",
          "name": "sender",
          "type": "address"
        }
      ],
      "name": "ERC20InvalidSender",
      "type": "error"
    },
    {
      "inputs": [
        {
          "internalType": "address",
          "name": "spender",
          "type": "address"
        }
      ],
      "name": "ERC20InvalidSpender",
      "type": "error"
    },
    {
      "inputs": [],
      "name": "InvalidInitialization",
      "type": "error"
    },
    {
      "inputs": [],
      "name": "NotInitializing",
      "type": "error"
    },
    {
      "anonymous": false,
      "inputs": [
        {
          "indexed": true,
          "internalType": "address",
          "name": "owner",
          "type": "address"
        },
        {
          "indexed": true,
          "internalType": "address",
          "name": "spender",
          "type": "address"
        },
        {
          "indexed": false,
          "internalType": "uint256",
          "name": "value",
          "type": "uint256"
        }
      ],
      "name": "Approval",
      "type": "event"
    },
    {
      "anonymous": false,
      "inputs": [
        {
          "indexed": false,
          "internalType": "uint64",
          "name": "version",
          "type": "uint64"
        }
      ],
      "name": "Initialized",
      "type": "event"
    },
    {
      "anonymous": false,
      "inputs": [
        {
          "indexed": true,
          "internalType": "address",
          "name": "from",
          "type": "address"
        },
        {
          "indexed": true,
          "internalType": "address",
          "name": "to",
          "type": "address"
        },
        {
          "indexed": false,
          "internalType": "uint256",
          "name": "value",
          "type": "uint256"
        }
      ],
      "name": "Transfer",
      "type": "event"
    },
    {
      "inputs": [
        {
          "internalType": "address",
          "name": "owner",
          "type": "address"
        },
        {
          "internalType": "address",
          "name": "spender",
          "type": "address"
        }
      ],
      "name": "allowance",
      "outputs": [
        {
          "internalType": "uint256",
          "name": "",
          "type": "uint256"
        }
      ],
      "stateMutability": "view",
      "type": "function"
    },
    {
      "inputs": [
        {
          "internalType": "address",
          "name": "spender",
          "type": "address"
        },
        {
          "internalType": "uint256",
          "name": "value",
          "type": "uint256"
        }
      ],
      "name": "approve",
      "outputs": [
        {
          "internalType": "bool",
          "name": "",
          "type": "bool"
        }
      ],
      "stateMutability": "nonpayable",
      "type": "function"
    },
    {
      "inputs": [
        {
          "internalType": "address",
          "name": "account",
          "type": "address"
        }
      ],
      "name": "balanceOf",
      "outputs": [
        {
          "internalType": "uint256",
          "name": "",
          "type": "uint256"
        }
      ],
      "stateMutability": "view",
      "type": "function"
    },
    {
      "inputs": [],
      "name": "decimals",
      "outputs": [
        {
          "internalType": "uint8",
          "name": "",
          "type": "uint8"
        }
      ],
      "stateMutability": "view",
      "type": "function"
    },
    {
      "inputs": [
        {
          "internalType": "uint256",
          "name": "decimals_",
          "type": "uint256"
        }
      ],
      "name": "initialize",
      "outputs": [],
      "stateMutability": "nonpayable",
      "type": "function"
    },
    {
      "inputs": [
        {
          "internalType": "address",
          "name": "account",
          "type": "address"
        },
        {
          "internalType": "uint256",
          "name": "amount",
          "type": "uint256"
        }
      ],
      "name": "mint",
      "outputs": [],
      "stateMutability": "nonpayable",
      "type": "function"
    },
    {
      "inputs": [],
      "name": "name",
      "outputs": [
        {
          "internalType": "string",
          "name": "",
          "type": "string"
        }
      ],
      "stateMutability": "view",
      "type": "function"
    },
    {
      "inputs": [],
      "name": "symbol",
      "outputs": [
        {
          "internalType": "string",
          "name": "",
          "type": "string"
        }
      ],
      "stateMutability": "view",
      "type": "function"
    },
    {
      "inputs": [],
      "name": "totalSupply",
      "outputs": [
        {
          "internalType": "uint256",
          "name": "",
          "type": "uint256"
        }
      ],
      "stateMutability": "view",
      "type": "function"
    },
    {
      "inputs": [
        {
          "internalType": "address",
          "name": "to",
          "type": "address"
        },
        {
          "internalType": "uint256",
          "name": "value",
          "type": "uint256"
        }
      ],
      "name": "transfer",
      "outputs": [
        {
          "internalType": "bool",
          "name": "",
          "type": "bool"
        }
      ],
      "stateMutability": "nonpayable",
      "type": "function"
    },
    {
      "inputs": [
        {
          "internalType": "address",
          "name": "from",
          "type": "address"
        },
        {
          "internalType": "address",
          "name": "to",
          "type": "address"
        },
        {
          "internalType": "uint256",
          "name": "value",
          "type": "uint256"
        }
      ],
      "name": "transferFrom",
      "outputs": [
        {
          "internalType": "bool",
          "name": "",
          "type": "bool"
        }
      ],
      "stateMutability": "nonpayable",
      "type": "function"
    }
  ],
  "bytecode": "0x608060405234801561001057600080fd5b5061001961001e565b6100d0565b7ff0c57e16840df040f15088dc2f81fe391c3923bec73e23a9662efc9c229c6a00805468010000000000000000900460ff161561006e5760405163f92ee8a960e01b815260040160405180910390fd5b80546001600160401b03908116146100cd5780546001600160401b0319166001600160401b0390811782556040519081527fc7f505b2f371ae2175ee4913f4499e1f2633a7b5936321eed1cdaeb6115181d29060200160405180910390a15b50565b610d02806100df6000396000f3fe608060405234801561001057600080fd5b50600436106100a95760003560e01c806340c10f191161007157806340c10f191461014857806370a082311461015d57806395d89b4114610193578063a9059cbb1461019b578063dd62ed3e146101ae578063fe4b84df146101c157600080fd5b806306fdde03146100ae578063095ea7b3146100cc57806318160ddd146100ef57806323b872dd14610120578063313ce56714610133575b600080fd5b6100b66101d4565b6040516100c391906108e5565b60405180910390f35b6100df6100da366004610950565b610297565b60405190151581526020016100c3565b7f52c63247e1f47db19d5ce0460030c497f067ca4cebf71ba98eeadabe20bace02545b6040519081526020016100c3565b6100df61012e36600461097a565b6102b1565b60005460405160ff90911681526020016100c3565b61015b610156366004610950565b6102d5565b005b61011261016b3660046109b6565b6001600160a01b03166000908152600080516020610cad833981519152602052604090205490565b6100b66102e3565b6100df6101a9366004610950565b610322565b6101126101bc3660046109d8565b610330565b61015b6101cf366004610a0b565b61037a565b7f52c63247e1f47db19d5ce0460030c497f067ca4cebf71ba98eeadabe20bace038054606091600080516020610cad8339815191529161021390610a24565b80601f016020809104026020016040519081016040528092919081815260200182805461023f90610a24565b801561028c5780601f106102615761010080835404028352916020019161028c565b820191906000526020600020905b81548152906001019060200180831161026f57829003601f168201915b505050505091505090565b6000336102a58185856104ff565b60019150505b92915050565b6000336102bf858285610511565b6102ca85858561057c565b506001949350505050565b6102df82826105db565b5050565b7f52c63247e1f47db19d5ce0460030c497f067ca4cebf71ba98eeadabe20bace048054606091600080516020610cad8339815191529161021390610a24565b6000336102a581858561057c565b6001600160a01b0391821660009081527f52c63247e1f47db19d5ce0460030c497f067ca4cebf71ba98eeadabe20bace016020908152604080832093909416825291909152205490565b7ff0c57e16840df040f15088dc2f81fe391c3923bec73e23a9662efc9c229c6a008054600160401b810460ff16159067ffffffffffffffff166000811580156103c05750825b905060008267ffffffffffffffff1660011480156103dd5750303b155b9050811580156103eb575080155b156104095760405163f92ee8a960e01b815260040160405180910390fd5b845467ffffffffffffffff19166001178555831561043357845460ff60401b1916600160401b1785555b6104806040518060400160405280601081526020016f22a9219918102a32b9ba102a37b5b2b760811b8152506040518060400160405280600381526020016211551560ea1b815250610611565b6000805460ff191660ff88161790556104b13361049e88600a610b58565b6104ac90633b9aca00610b64565b6105db565b83156104f757845460ff60401b19168555604051600181527fc7f505b2f371ae2175ee4913f4499e1f2633a7b5936321eed1cdaeb6115181d29060200160405180910390a15b505050505050565b61050c8383836001610623565b505050565b600061051d8484610330565b90506000198114610576578181101561056757604051637dc7a0d960e11b81526001600160a01b038416600482015260248101829052604481018390526064015b60405180910390fd5b61057684848484036000610623565b50505050565b6001600160a01b0383166105a657604051634b637e8f60e11b81526000600482015260240161055e565b6001600160a01b0382166105d05760405163ec442f0560e01b81526000600482015260240161055e565b61050c83838361070b565b6001600160a01b0382166106055760405163ec442f0560e01b81526000600482015260240161055e565b6102df6000838361070b565b610619610849565b6102df8282610894565b600080516020610cad8339815191526001600160a01b03851661065c5760405163e602df0560e01b81526000600482015260240161055e565b6001600160a01b03841661068657604051634a1406b160e11b81526000600482015260240161055e565b6001600160a01b0380861660009081526001830160209081526040808320938816835292905220839055811561070457836001600160a01b0316856001600160a01b03167f8c5be1e5ebec7d5bd14f71427d1e84f3dd0314c0f7b2291e5b200ac8c7c3b925856040516106fb91815260200190565b60405180910390a35b5050505050565b600080516020610cad8339815191526001600160a01b038416610747578181600201600082825461073c9190610b7b565b909155506107b99050565b6001600160a01b0384166000908152602082905260409020548281101561079a5760405163391434e360e21b81526001600160a01b0386166004820152602481018290526044810184905260640161055e565b6001600160a01b03851660009081526020839052604090209083900390555b6001600160a01b0383166107d75760028101805483900390556107f6565b6001600160a01b03831660009081526020829052604090208054830190555b826001600160a01b0316846001600160a01b03167fddf252ad1be2c89b69c2b068fc378daa952ba7f163c4a11628f55a4df523b3ef8460405161083b91815260200190565b60405180910390a350505050565b7ff0c57e16840df040f15088dc2f81fe391c3923bec73e23a9662efc9c229c6a0054600160401b900460ff1661089257604051631afcd79f60e31b815260040160405180910390fd5b565b61089c610849565b600080516020610cad8339815191527f52c63247e1f47db19d5ce0460030c497f067ca4cebf71ba98eeadabe20bace036108d68482610bec565b50600481016105768382610bec565b60006020808352835180602085015260005b81811015610913578581018301518582016040015282016108f7565b506000604082860101526040601f19601f8301168501019250505092915050565b80356001600160a01b038116811461094b57600080fd5b919050565b6000806040838503121561096357600080fd5b61096c83610934565b946020939093013593505050565b60008060006060848603121561098f57600080fd5b61099884610934565b92506109a660208501610934565b9150604084013590509250925092565b6000602082840312156109c857600080fd5b6109d182610934565b9392505050565b600080604083850312156109eb57600080fd5b6109f483610934565b9150610a0260208401610934565b90509250929050565b600060208284031215610a1d57600080fd5b5035919050565b600181811c90821680610a3857607f821691505b602082108103610a5857634e487b7160e01b600052602260045260246000fd5b50919050565b634e487b7160e01b600052601160045260246000fd5b600181815b80851115610aaf578160001904821115610a9557610a95610a5e565b80851615610aa257918102915b93841c9390800290610a79565b509250929050565b600082610ac6575060016102ab565b81610ad3575060006102ab565b8160018114610ae95760028114610af357610b0f565b60019150506102ab565b60ff841115610b0457610b04610a5e565b50506001821b6102ab565b5060208310610133831016604e8410600b8410161715610b32575081810a6102ab565b610b3c8383610a74565b8060001904821115610b5057610b50610a5e565b029392505050565b60006109d18383610ab7565b80820281158282048414176102ab576102ab610a5e565b808201808211156102ab576102ab610a5e565b634e487b7160e01b600052604160045260246000fd5b601f82111561050c576000816000526020600020601f850160051c81016020861015610bcd5750805b601f850160051c820191505b818110156104f757828155600101610bd9565b815167ffffffffffffffff811115610c0657610c06610b8e565b610c1a81610c148454610a24565b84610ba4565b602080601f831160018114610c4f5760008415610c375750858301515b600019600386901b1c1916600185901b1785556104f7565b600085815260208120601f198616915b82811015610c7e57888601518255948401946001909101908401610c5f565b5085821015610c9c5787850151600019600388901b60f8161c191681555b5050505050600190811b0190555056fe52c63247e1f47db19d5ce0460030c497f067ca4cebf71ba98eeadabe20bace00a26469706673582212206acf830dee3e8257986602a15b33b9666dfa0a882eeab6443943c924fc6e166964736f6c63430008180033",
  "linkReferences": {},
  "deployedLinkReferences": {}
}