{
  "_format": "hh-sol-artifact-1",
  "contractName": "ERC20TestToken",
  "sourceName": "contracts/test/ERC20TestToken.sol",
  "abi": [
    {
      "inputs": [],
      "stateMutability": "nonpayable",
      "type": "constructor"
    },
    {
      "inputs": [
        {
          "internalType": "address",
          "name": "spender",
          "type": "address"
        },
        {
          "internalType": "uint256",
          "name": "allowance",
          "type": "uint256"
        },
        {
          "internalType": "uint256",
          "name": "needed",
          "type": "uint256"
        }
      ],
      "name": "ERC20InsufficientAllowance",
      "type": "error"
    },
    {
      "inputs": [
        {
          "internalType": "address",
          "name": "sender",
          "type": "address"
        },
        {
          "internalType": "uint256",
          "name": "balance",
          "type": "uint256"
        },
        {
          "internalType": "uint256",
          "name": "needed",
          "type": "uint256"
        }
      ],
      "name": "ERC20InsufficientBalance",
      "type": "error"
    },
    {
      "inputs": [
        {
          "internalType": "address",
          "name": "approver",
          "type": "address"
        }
      ],
      "name": "ERC20InvalidApprover",
      "type": "error"
    },
    {
      "inputs": [
        {
          "internalType": "address",
          "name": "receiver",
          "type": "address"
        }
      ],
      "name": "ERC20InvalidReceiver",
      "type": "error"
    },
    {
      "inputs": [
        {
          "internalType": "address",
          "name": "sender",
          "type": "address"
        }
      ],
      "name": "ERC20InvalidSender",
      "type": "error"
    },
    {
      "inputs": [
        {
          "internalType": "address",
          "name": "spender",
          "type": "address"
        }
      ],
      "name": "ERC20InvalidSpender",
      "type": "error"
    },
    {
      "inputs": [],
      "name": "InvalidInitialization",
      "type": "error"
    },
    {
      "inputs": [],
      "name": "NotInitializing",
      "type": "error"
    },
    {
      "anonymous": false,
      "inputs": [
        {
          "indexed": true,
          "internalType": "address",
          "name": "owner",
          "type": "address"
        },
        {
          "indexed": true,
          "internalType": "address",
          "name": "spender",
          "type": "address"
        },
        {
          "indexed": false,
          "internalType": "uint256",
          "name": "value",
          "type": "uint256"
        }
      ],
      "name": "Approval",
      "type": "event"
    },
    {
      "anonymous": false,
      "inputs": [
        {
          "indexed": false,
          "internalType": "uint64",
          "name": "version",
          "type": "uint64"
        }
      ],
      "name": "Initialized",
      "type": "event"
    },
    {
      "anonymous": false,
      "inputs": [
        {
          "indexed": true,
          "internalType": "address",
          "name": "from",
          "type": "address"
        },
        {
          "indexed": true,
          "internalType": "address",
          "name": "to",
          "type": "address"
        },
        {
          "indexed": false,
          "internalType": "uint256",
          "name": "value",
          "type": "uint256"
        }
      ],
      "name": "Transfer",
      "type": "event"
    },
    {
      "inputs": [
        {
          "internalType": "address",
          "name": "owner",
          "type": "address"
        },
        {
          "internalType": "address",
          "name": "spender",
          "type": "address"
        }
      ],
      "name": "allowance",
      "outputs": [
        {
          "internalType": "uint256",
          "name": "",
          "type": "uint256"
        }
      ],
      "stateMutability": "view",
      "type": "function"
    },
    {
      "inputs": [
        {
          "internalType": "address",
          "name": "spender",
          "type": "address"
        },
        {
          "internalType": "uint256",
          "name": "value",
          "type": "uint256"
        }
      ],
      "name": "approve",
      "outputs": [
        {
          "internalType": "bool",
          "name": "",
          "type": "bool"
        }
      ],
      "stateMutability": "nonpayable",
      "type": "function"
    },
    {
      "inputs": [
        {
          "internalType": "address",
          "name": "account",
          "type": "address"
        }
      ],
      "name": "balanceOf",
      "outputs": [
        {
          "internalType": "uint256",
          "name": "",
          "type": "uint256"
        }
      ],
      "stateMutability": "view",
      "type": "function"
    },
    {
      "inputs": [],
      "name": "decimals",
      "outputs": [
        {
          "internalType": "uint8",
          "name": "",
          "type": "uint8"
        }
      ],
      "stateMutability": "pure",
      "type": "function"
    },
    {
      "inputs": [],
      "name": "initialize",
      "outputs": [],
      "stateMutability": "nonpayable",
      "type": "function"
    },
    {
      "inputs": [
        {
          "internalType": "address",
          "name": "account",
          "type": "address"
        },
        {
          "internalType": "uint256",
          "name": "amount",
          "type": "uint256"
        }
      ],
      "name": "mint",
      "outputs": [],
      "stateMutability": "nonpayable",
      "type": "function"
    },
    {
      "inputs": [],
      "name": "name",
      "outputs": [
        {
          "internalType": "string",
          "name": "",
          "type": "string"
        }
      ],
      "stateMutability": "view",
      "type": "function"
    },
    {
      "inputs": [],
      "name": "symbol",
      "outputs": [
        {
          "internalType": "string",
          "name": "",
          "type": "string"
        }
      ],
      "stateMutability": "view",
      "type": "function"
    },
    {
      "inputs": [],
      "name": "totalSupply",
      "outputs": [
        {
          "internalType": "uint256",
          "name": "",
          "type": "uint256"
        }
      ],
      "stateMutability": "view",
      "type": "function"
    },
    {
      "inputs": [
        {
          "internalType": "address",
          "name": "to",
          "type": "address"
        },
        {
          "internalType": "uint256",
          "name": "value",
          "type": "uint256"
        }
      ],
      "name": "transfer",
      "outputs": [
        {
          "internalType": "bool",
          "name": "",
          "type": "bool"
        }
      ],
      "stateMutability": "nonpayable",
      "type": "function"
    },
    {
      "inputs": [
        {
          "internalType": "address",
          "name": "from",
          "type": "address"
        },
        {
          "internalType": "address",
          "name": "to",
          "type": "address"
        },
        {
          "internalType": "uint256",
          "name": "value",
          "type": "uint256"
        }
      ],
      "name": "transferFrom",
      "outputs": [
        {
          "internalType": "bool",
          "name": "",
          "type": "bool"
        }
      ],
      "stateMutability": "nonpayable",
      "type": "function"
    }
  ],
  "bytecode": "0x608060405234801561001057600080fd5b5061001961001e565b6100d0565b7ff0c57e16840df040f15088dc2f81fe391c3923bec73e23a9662efc9c229c6a00805468010000000000000000900460ff161561006e5760405163f92ee8a960e01b815260040160405180910390fd5b80546001600160401b03908116146100cd5780546001600160401b0319166001600160401b0390811782556040519081527fc7f505b2f371ae2175ee4913f4499e1f2633a7b5936321eed1cdaeb6115181d29060200160405180910390a15b50565b610baf806100df6000396000f3fe608060405234801561001057600080fd5b50600436106100a95760003560e01c806340c10f191161007157806340c10f191461014257806370a08231146101575780638129fc1c1461018d57806395d89b4114610195578063a9059cbb1461019d578063dd62ed3e146101b057600080fd5b806306fdde03146100ae578063095ea7b3146100cc57806318160ddd146100ef57806323b872dd14610120578063313ce56714610133575b600080fd5b6100b66101c3565b6040516100c391906108b2565b60405180910390f35b6100df6100da36600461091d565b610286565b60405190151581526020016100c3565b7f52c63247e1f47db19d5ce0460030c497f067ca4cebf71ba98eeadabe20bace02545b6040519081526020016100c3565b6100df61012e366004610947565b6102a0565b604051600681526020016100c3565b61015561015036600461091d565b6102c4565b005b610112610165366004610983565b6001600160a01b03166000908152600080516020610b5a833981519152602052604090205490565b6101556102d2565b6100b6610436565b6100df6101ab36600461091d565b610475565b6101126101be3660046109a5565b610483565b7f52c63247e1f47db19d5ce0460030c497f067ca4cebf71ba98eeadabe20bace038054606091600080516020610b5a83398151915291610202906109d8565b80601f016020809104026020016040519081016040528092919081815260200182805461022e906109d8565b801561027b5780601f106102505761010080835404028352916020019161027b565b820191906000526020600020905b81548152906001019060200180831161025e57829003601f168201915b505050505091505090565b6000336102948185856104cd565b60019150505b92915050565b6000336102ae8582856104df565b6102b985858561054a565b506001949350505050565b6102ce82826105a9565b5050565b7ff0c57e16840df040f15088dc2f81fe391c3923bec73e23a9662efc9c229c6a008054600160401b810460ff16159067ffffffffffffffff166000811580156103185750825b905060008267ffffffffffffffff1660011480156103355750303b155b905081158015610343575080155b156103615760405163f92ee8a960e01b815260040160405180910390fd5b845467ffffffffffffffff19166001178555831561038b57845460ff60401b1916600160401b1785555b6103d86040518060400160405280601081526020016f22a9219918102a32b9ba102a37b5b2b760811b8152506040518060400160405280600381526020016211551560ea1b8152506105df565b6103e93366038d7ea4c680006105a9565b831561042f57845460ff60401b19168555604051600181527fc7f505b2f371ae2175ee4913f4499e1f2633a7b5936321eed1cdaeb6115181d29060200160405180910390a15b5050505050565b7f52c63247e1f47db19d5ce0460030c497f067ca4cebf71ba98eeadabe20bace048054606091600080516020610b5a83398151915291610202906109d8565b60003361029481858561054a565b6001600160a01b0391821660009081527f52c63247e1f47db19d5ce0460030c497f067ca4cebf71ba98eeadabe20bace016020908152604080832093909416825291909152205490565b6104da83838360016105f1565b505050565b60006104eb8484610483565b90506000198114610544578181101561053557604051637dc7a0d960e11b81526001600160a01b038416600482015260248101829052604481018390526064015b60405180910390fd5b610544848484840360006105f1565b50505050565b6001600160a01b03831661057457604051634b637e8f60e11b81526000600482015260240161052c565b6001600160a01b03821661059e5760405163ec442f0560e01b81526000600482015260240161052c565b6104da8383836106d8565b6001600160a01b0382166105d35760405163ec442f0560e01b81526000600482015260240161052c565b6102ce600083836106d8565b6105e7610816565b6102ce8282610861565b600080516020610b5a8339815191526001600160a01b03851661062a5760405163e602df0560e01b81526000600482015260240161052c565b6001600160a01b03841661065457604051634a1406b160e11b81526000600482015260240161052c565b6001600160a01b0380861660009081526001830160209081526040808320938816835292905220839055811561042f57836001600160a01b0316856001600160a01b03167f8c5be1e5ebec7d5bd14f71427d1e84f3dd0314c0f7b2291e5b200ac8c7c3b925856040516106c991815260200190565b60405180910390a35050505050565b600080516020610b5a8339815191526001600160a01b03841661071457818160020160008282546107099190610a12565b909155506107869050565b6001600160a01b038416600090815260208290526040902054828110156107675760405163391434e360e21b81526001600160a01b0386166004820152602481018290526044810184905260640161052c565b6001600160a01b03851660009081526020839052604090209083900390555b6001600160a01b0383166107a45760028101805483900390556107c3565b6001600160a01b03831660009081526020829052604090208054830190555b826001600160a01b0316846001600160a01b03167fddf252ad1be2c89b69c2b068fc378daa952ba7f163c4a11628f55a4df523b3ef8460405161080891815260200190565b60405180910390a350505050565b7ff0c57e16840df040f15088dc2f81fe391c3923bec73e23a9662efc9c229c6a0054600160401b900460ff1661085f57604051631afcd79f60e31b815260040160405180910390fd5b565b610869610816565b600080516020610b5a8339815191527f52c63247e1f47db19d5ce0460030c497f067ca4cebf71ba98eeadabe20bace036108a38482610a99565b50600481016105448382610a99565b60006020808352835180602085015260005b818110156108e0578581018301518582016040015282016108c4565b506000604082860101526040601f19601f8301168501019250505092915050565b80356001600160a01b038116811461091857600080fd5b919050565b6000806040838503121561093057600080fd5b61093983610901565b946020939093013593505050565b60008060006060848603121561095c57600080fd5b61096584610901565b925061097360208501610901565b9150604084013590509250925092565b60006020828403121561099557600080fd5b61099e82610901565b9392505050565b600080604083850312156109b857600080fd5b6109c183610901565b91506109cf60208401610901565b90509250929050565b600181811c908216806109ec57607f821691505b602082108103610a0c57634e487b7160e01b600052602260045260246000fd5b50919050565b8082018082111561029a57634e487b7160e01b600052601160045260246000fd5b634e487b7160e01b600052604160045260246000fd5b601f8211156104da576000816000526020600020601f850160051c81016020861015610a725750805b601f850160051c820191505b81811015610a9157828155600101610a7e565b505050505050565b815167ffffffffffffffff811115610ab357610ab3610a33565b610ac781610ac184546109d8565b84610a49565b602080601f831160018114610afc5760008415610ae45750858301515b600019600386901b1c1916600185901b178555610a91565b600085815260208120601f198616915b82811015610b2b57888601518255948401946001909101908401610b0c565b5085821015610b495787850151600019600388901b60f8161c191681555b5050505050600190811b0190555056fe52c63247e1f47db19d5ce0460030c497f067ca4cebf71ba98eeadabe20bace00a264697066735822122050a79affd0123a3111e7470b8558f2948ec176cad8d1f0a04c55e47097b4e60b64736f6c63430008180033",
  "linkReferences": {},
  "deployedLinkReferences": {}
}