{
  "contracts/providers/lumia/LumiaNodeNT.sol": {
    "LumiaNodeNT": {
      "abi": [
        {
          "inputs": [
            {
              "internalType": "address",
              "name": "owner",
              "type": "address"
            },
            {
              "internalType": "contract IERC20",
              "name": "erc20PaymentToken",
              "type": "address"
            },
            {
              "internalType": "address",
              "name": "lumiaPaymentAddress",
              "type": "address"
            },
            {
              "internalType": "address",
              "name": "ntPaymentAddress",
              "type": "address"
            },
            {
              "internalType": "uint256",
              "name": "maxAllowedNodes",
              "type": "uint256"
            }
          ],
          "stateMutability": "nonpayable",
          "type": "constructor"
        },
        {
          "inputs": [],
          "name": "AccessControlBadConfirmation",
          "type": "error"
        },
        {
          "inputs": [
            {
              "internalType": "address",
              "name": "account",
              "type": "address"
            },
            {
              "internalType": "bytes32",
              "name": "neededRole",
              "type": "bytes32"
            }
          ],
          "name": "AccessControlUnauthorizedAccount",
          "type": "error"
        },
        {
          "inputs": [
            {
              "internalType": "address",
              "name": "target",
              "type": "address"
            }
          ],
          "name": "AddressEmptyCode",
          "type": "error"
        },
        {
          "inputs": [
            {
              "internalType": "address",
              "name": "account",
              "type": "address"
            }
          ],
          "name": "AddressInsufficientBalance",
          "type": "error"
        },
        {
          "inputs": [
            {
              "internalType": "bytes32",
              "name": "key",
              "type": "bytes32"
            }
          ],
          "name": "EnumerableMapNonexistentKey",
          "type": "error"
        },
        {
          "inputs": [],
          "name": "FailedInnerCall",
          "type": "error"
        },
        {
          "inputs": [],
          "name": "InsufficientAllowance",
          "type": "error"
        },
        {
          "inputs": [],
          "name": "InsufficientBalance",
          "type": "error"
        },
        {
          "inputs": [],
          "name": "InvalidParameter",
          "type": "error"
        },
        {
          "inputs": [],
          "name": "NodesAllAllocated",
          "type": "error"
        },
        {
          "inputs": [],
          "name": "ReentrancyGuardReentrantCall",
          "type": "error"
        },
        {
          "inputs": [
            {
              "internalType": "address",
              "name": "token",
              "type": "address"
            }
          ],
          "name": "SafeERC20FailedOperation",
          "type": "error"
        },
        {
          "inputs": [],
          "name": "SaleNotActive",
          "type": "error"
        },
        {
          "inputs": [],
          "name": "ZeroAddress",
          "type": "error"
        },
        {
          "anonymous": false,
          "inputs": [
            {
              "indexed": true,
              "internalType": "address",
              "name": "account",
              "type": "address"
            },
            {
              "indexed": false,
              "internalType": "uint256",
              "name": "numberOfNodes",
              "type": "uint256"
            }
          ],
          "name": "NodesAirdropped",
          "type": "event"
        },
        {
          "anonymous": false,
          "inputs": [
            {
              "indexed": true,
              "internalType": "address",
              "name": "account",
              "type": "address"
            },
            {
              "indexed": false,
              "internalType": "uint256",
              "name": "numberOfNodes",
              "type": "uint256"
            }
          ],
          "name": "NodesPurchased",
          "type": "event"
        },
        {
          "anonymous": false,
          "inputs": [
            {
              "indexed": true,
              "internalType": "address",
              "name": "account",
              "type": "address"
            },
            {
              "indexed": false,
              "internalType": "uint256",
              "name": "numberOfNodes",
              "type": "uint256"
            }
          ],
          "name": "NumberOfNodesUpdated",
          "type": "event"
        },
        {
          "anonymous": false,
          "inputs": [
            {
              "indexed": true,
              "internalType": "bytes32",
              "name": "role",
              "type": "bytes32"
            },
            {
              "indexed": true,
              "internalType": "bytes32",
              "name": "previousAdminRole",
              "type": "bytes32"
            },
            {
              "indexed": true,
              "internalType": "bytes32",
              "name": "newAdminRole",
              "type": "bytes32"
            }
          ],
          "name": "RoleAdminChanged",
          "type": "event"
        },
        {
          "anonymous": false,
          "inputs": [
            {
              "indexed": true,
              "internalType": "bytes32",
              "name": "role",
              "type": "bytes32"
            },
            {
              "indexed": true,
              "internalType": "address",
              "name": "account",
              "type": "address"
            },
            {
              "indexed": true,
              "internalType": "address",
              "name": "sender",
              "type": "address"
            }
          ],
          "name": "RoleGranted",
          "type": "event"
        },
        {
          "anonymous": false,
          "inputs": [
            {
              "indexed": true,
              "internalType": "bytes32",
              "name": "role",
              "type": "bytes32"
            },
            {
              "indexed": true,
              "internalType": "address",
              "name": "account",
              "type": "address"
            },
            {
              "indexed": true,
              "internalType": "address",
              "name": "sender",
              "type": "address"
            }
          ],
          "name": "RoleRevoked",
          "type": "event"
        },
        {
          "inputs": [],
          "name": "ADMIN_ROLE",
          "outputs": [
            {
              "internalType": "bytes32",
              "name": "",
              "type": "bytes32"
            }
          ],
          "stateMutability": "view",
          "type": "function"
        },
        {
          "inputs": [],
          "name": "DEFAULT_ADMIN_ROLE",
          "outputs": [
            {
              "internalType": "bytes32",
              "name": "",
              "type": "bytes32"
            }
          ],
          "stateMutability": "view",
          "type": "function"
        },
        {
          "inputs": [],
          "name": "MASTER_ROLE",
          "outputs": [
            {
              "internalType": "bytes32",
              "name": "",
              "type": "bytes32"
            }
          ],
          "stateMutability": "view",
          "type": "function"
        },
        {
          "inputs": [
            {
              "internalType": "address",
              "name": "account",
              "type": "address"
            },
            {
              "internalType": "uint256",
              "name": "numberOfNodes",
              "type": "uint256"
            }
          ],
          "name": "addMultipleNodes",
          "outputs": [],
          "stateMutability": "nonpayable",
          "type": "function"
        },
        {
          "inputs": [],
          "name": "getAccounts",
          "outputs": [
            {
              "internalType": "address[]",
              "name": "accounts",
              "type": "address[]"
            }
          ],
          "stateMutability": "view",
          "type": "function"
        },
        {
          "inputs": [],
          "name": "getAccountsAndNumberOfNodes",
          "outputs": [
            {
              "internalType": "address[]",
              "name": "accounts",
              "type": "address[]"
            },
            {
              "internalType": "uint256[]",
              "name": "nodes",
              "type": "uint256[]"
            }
          ],
          "stateMutability": "view",
          "type": "function"
        },
        {
          "inputs": [],
          "name": "getAvailableNodes",
          "outputs": [
            {
              "internalType": "uint256",
              "name": "available",
              "type": "uint256"
            }
          ],
          "stateMutability": "view",
          "type": "function"
        },
        {
          "inputs": [
            {
              "internalType": "address",
              "name": "account",
              "type": "address"
            }
          ],
          "name": "getNumberOfNodes",
          "outputs": [
            {
              "internalType": "uint256",
              "name": "",
              "type": "uint256"
            }
          ],
          "stateMutability": "view",
          "type": "function"
        },
        {
          "inputs": [],
          "name": "getPricePerNode",
          "outputs": [
            {
              "internalType": "uint256",
              "name": "price",
              "type": "uint256"
            }
          ],
          "stateMutability": "pure",
          "type": "function"
        },
        {
          "inputs": [
            {
              "internalType": "bytes32",
              "name": "role",
              "type": "bytes32"
            }
          ],
          "name": "getRoleAdmin",
          "outputs": [
            {
              "internalType": "bytes32",
              "name": "",
              "type": "bytes32"
            }
          ],
          "stateMutability": "view",
          "type": "function"
        },
        {
          "inputs": [
            {
              "internalType": "bytes32",
              "name": "role",
              "type": "bytes32"
            },
            {
              "internalType": "uint256",
              "name": "index",
              "type": "uint256"
            }
          ],
          "name": "getRoleMember",
          "outputs": [
            {
              "internalType": "address",
              "name": "",
              "type": "address"
            }
          ],
          "stateMutability": "view",
          "type": "function"
        },
        {
          "inputs": [
            {
              "internalType": "bytes32",
              "name": "role",
              "type": "bytes32"
            }
          ],
          "name": "getRoleMemberCount",
          "outputs": [
            {
              "internalType": "uint256",
              "name": "",
              "type": "uint256"
            }
          ],
          "stateMutability": "view",
          "type": "function"
        },
        {
          "inputs": [
            {
              "internalType": "bytes32",
              "name": "role",
              "type": "bytes32"
            },
            {
              "internalType": "address",
              "name": "account",
              "type": "address"
            }
          ],
          "name": "grantRole",
          "outputs": [],
          "stateMutability": "nonpayable",
          "type": "function"
        },
        {
          "inputs": [
            {
              "internalType": "bytes32",
              "name": "role",
              "type": "bytes32"
            },
            {
              "internalType": "address",
              "name": "account",
              "type": "address"
            }
          ],
          "name": "hasRole",
          "outputs": [
            {
              "internalType": "bool",
              "name": "",
              "type": "bool"
            }
          ],
          "stateMutability": "view",
          "type": "function"
        },
        {
          "inputs": [],
          "name": "isSaleActive",
          "outputs": [
            {
              "internalType": "bool",
              "name": "",
              "type": "bool"
            }
          ],
          "stateMutability": "view",
          "type": "function"
        },
        {
          "inputs": [],
          "name": "lumiaAddress",
          "outputs": [
            {
              "internalType": "address",
              "name": "",
              "type": "address"
            }
          ],
          "stateMutability": "view",
          "type": "function"
        },
        {
          "inputs": [],
          "name": "maxSupply",
          "outputs": [
            {
              "internalType": "uint256",
              "name": "",
              "type": "uint256"
            }
          ],
          "stateMutability": "view",
          "type": "function"
        },
        {
          "inputs": [],
          "name": "nodeCount",
          "outputs": [
            {
              "internalType": "uint256",
              "name": "",
              "type": "uint256"
            }
          ],
          "stateMutability": "view",
          "type": "function"
        },
        {
          "inputs": [],
          "name": "ntAddress",
          "outputs": [
            {
              "internalType": "address",
              "name": "",
              "type": "address"
            }
          ],
          "stateMutability": "view",
          "type": "function"
        },
        {
          "inputs": [],
          "name": "paymentToken",
          "outputs": [
            {
              "internalType": "contract IERC20",
              "name": "",
              "type": "address"
            }
          ],
          "stateMutability": "view",
          "type": "function"
        },
        {
          "inputs": [
            {
              "internalType": "uint256",
              "name": "numberOfNodes",
              "type": "uint256"
            }
          ],
          "name": "purchaseNodes",
          "outputs": [],
          "stateMutability": "nonpayable",
          "type": "function"
        },
        {
          "inputs": [
            {
              "internalType": "bytes32",
              "name": "role",
              "type": "bytes32"
            },
            {
              "internalType": "address",
              "name": "callerConfirmation",
              "type": "address"
            }
          ],
          "name": "renounceRole",
          "outputs": [],
          "stateMutability": "nonpayable",
          "type": "function"
        },
        {
          "inputs": [
            {
              "internalType": "bytes32",
              "name": "role",
              "type": "bytes32"
            },
            {
              "internalType": "address",
              "name": "account",
              "type": "address"
            }
          ],
          "name": "revokeRole",
          "outputs": [],
          "stateMutability": "nonpayable",
          "type": "function"
        },
        {
          "inputs": [
            {
              "internalType": "bool",
              "name": "state",
              "type": "bool"
            }
          ],
          "name": "setIsSaleActive",
          "outputs": [],
          "stateMutability": "nonpayable",
          "type": "function"
        },
        {
          "inputs": [
            {
              "internalType": "address",
              "name": "account",
              "type": "address"
            },
            {
              "internalType": "uint256",
              "name": "value",
              "type": "uint256"
            }
          ],
          "name": "setNumberOfNodes",
          "outputs": [],
          "stateMutability": "nonpayable",
          "type": "function"
        },
        {
          "inputs": [
            {
              "internalType": "bytes4",
              "name": "interfaceId",
              "type": "bytes4"
            }
          ],
          "name": "supportsInterface",
          "outputs": [
            {
              "internalType": "bool",
              "name": "",
              "type": "bool"
            }
          ],
          "stateMutability": "view",
          "type": "function"
        }
      ],
      "devdoc": {
        "errors": {
          "AccessControlBadConfirmation()": [
            {
              "details": "The caller of a function is not the expected one. NOTE: Don't confuse with {AccessControlUnauthorizedAccount}."
            }
          ],
          "AccessControlUnauthorizedAccount(address,bytes32)": [
            {
              "details": "The `account` is missing a role."
            }
          ],
          "AddressEmptyCode(address)": [
            {
              "details": "There's no code at `target` (it is not a contract)."
            }
          ],
          "AddressInsufficientBalance(address)": [
            {
              "details": "The ETH balance of the account is not enough to perform the operation."
            }
          ],
          "EnumerableMapNonexistentKey(bytes32)": [
            {
              "details": "Query for a nonexistent map key."
            }
          ],
          "FailedInnerCall()": [
            {
              "details": "A call to an address target failed. The target may have reverted."
            }
          ],
          "ReentrancyGuardReentrantCall()": [
            {
              "details": "Unauthorized reentrant call."
            }
          ],
          "SafeERC20FailedOperation(address)": [
            {
              "details": "An operation with an ERC20 token failed."
            }
          ]
        },
        "events": {
          "NodesAirdropped(address,uint256)": {
            "params": {
              "account": "Address of wallet that receives nodes",
              "numberOfNodes": "Number of nodes"
            }
          },
          "NodesPurchased(address,uint256)": {
            "params": {
              "account": "Address of wallet that receives nodes",
              "numberOfNodes": "Number of nodes"
            }
          },
          "NumberOfNodesUpdated(address,uint256)": {
            "params": {
              "account": "Address of wallet that receives nodes",
              "numberOfNodes": "Number of nodes"
            }
          },
          "RoleAdminChanged(bytes32,bytes32,bytes32)": {
            "details": "Emitted when `newAdminRole` is set as ``role``'s admin role, replacing `previousAdminRole` `DEFAULT_ADMIN_ROLE` is the starting admin for all roles, despite {RoleAdminChanged} not being emitted signaling this."
          },
          "RoleGranted(bytes32,address,address)": {
            "details": "Emitted when `account` is granted `role`. `sender` is the account that originated the contract call, an admin role bearer except when using {AccessControl-_setupRole}."
          },
          "RoleRevoked(bytes32,address,address)": {
            "details": "Emitted when `account` is revoked `role`. `sender` is the account that originated the contract call:   - if using `revokeRole`, it is the admin role bearer   - if using `renounceRole`, it is the role bearer (i.e. `account`)"
          }
        },
        "kind": "dev",
        "methods": {
          "addMultipleNodes(address,uint256)": {
            "details": "Requires admin role",
            "params": {
              "account": "Address of wallet that receives nodes",
              "numberOfNodes": "Number of nodes added"
            }
          },
          "constructor": {
            "params": {
              "erc20PaymentToken": "Address of payment token",
              "lumiaPaymentAddress": "Address of wallet that collects payment",
              "ntPaymentAddress": "Address of wallet that collects commissions",
              "owner": "Address of contract owner"
            }
          },
          "getNumberOfNodes(address)": {
            "params": {
              "account": "Address of wallet"
            }
          },
          "getRoleAdmin(bytes32)": {
            "details": "Returns the admin role that controls `role`. See {grantRole} and {revokeRole}. To change a role's admin, use {_setRoleAdmin}."
          },
          "getRoleMember(bytes32,uint256)": {
            "details": "Returns one of the accounts that have `role`. `index` must be a value between 0 and {getRoleMemberCount}, non-inclusive. Role bearers are not sorted in any particular way, and their ordering may change at any point. WARNING: When using {getRoleMember} and {getRoleMemberCount}, make sure you perform all queries on the same block. See the following https://forum.openzeppelin.com/t/iterating-over-elements-on-enumerableset-in-openzeppelin-contracts/2296[forum post] for more information."
          },
          "getRoleMemberCount(bytes32)": {
            "details": "Returns the number of accounts that have `role`. Can be used together with {getRoleMember} to enumerate all bearers of a role."
          },
          "grantRole(bytes32,address)": {
            "details": "Grants `role` to `account`. If `account` had not been already granted `role`, emits a {RoleGranted} event. Requirements: - the caller must have ``role``'s admin role. May emit a {RoleGranted} event."
          },
          "hasRole(bytes32,address)": {
            "details": "Returns `true` if `account` has been granted `role`."
          },
          "purchaseNodes(uint256)": {
            "details": "Requirements:- sale is active- account has sufficient balance- account has sufficient allowance",
            "params": {
              "numberOfNodes": "Number of nodes purchased"
            }
          },
          "renounceRole(bytes32,address)": {
            "details": "Revokes `role` from the calling account. Roles are often managed via {grantRole} and {revokeRole}: this function's purpose is to provide a mechanism for accounts to lose their privileges if they are compromised (such as when a trusted device is misplaced). If the calling account had been revoked `role`, emits a {RoleRevoked} event. Requirements: - the caller must be `callerConfirmation`. May emit a {RoleRevoked} event."
          },
          "revokeRole(bytes32,address)": {
            "details": "Revokes `role` from `account`. If `account` had been granted `role`, emits a {RoleRevoked} event. Requirements: - the caller must have ``role``'s admin role. May emit a {RoleRevoked} event."
          },
          "setIsSaleActive(bool)": {
            "details": "Requires master role",
            "params": {
              "state": "true or false"
            }
          },
          "setNumberOfNodes(address,uint256)": {
            "details": "Requires default admin role",
            "params": {
              "account": "Address of wallet that receives nodes",
              "value": "New number of nodes"
            }
          },
          "supportsInterface(bytes4)": {
            "details": "See {IERC165-supportsInterface}."
          }
        },
        "version": 1
      },
      "evm": {
        "bytecode": {
          "linkReferences": {},
          "object": "61010060405234801561001157600080fd5b506040516118ea3803806118ea83398101604081905261003091610222565b60016002556001600160a01b038516158061005257506001600160a01b038416155b8061006457506001600160a01b038316155b8061007657506001600160a01b038216155b8061007f575080155b1561009d57604051630309cb8760e51b815260040160405180910390fd5b6001600160a01b0380851660805283811660a052821660c05260e08190526100c66000866100d1565b50505050505061028d565b6000806100de8484610109565b905080156101005760008481526001602052604090206100fe90846101b3565b505b90505b92915050565b6000828152602081815260408083206001600160a01b038516845290915281205460ff166101ab576000838152602081815260408083206001600160a01b03861684529091529020805460ff191660011790556101633390565b6001600160a01b0316826001600160a01b0316847f2f8788117e7eff1d82e926ec794901d17c78024a50270940304540a733656f0d60405160405180910390a4506001610103565b506000610103565b6000610100836001600160a01b03841660008181526001830160205260408120546101ab57508154600181810184556000848152602080822090930184905584548482528286019093526040902091909155610103565b6001600160a01b038116811461021f57600080fd5b50565b600080600080600060a0868803121561023a57600080fd5b85516102458161020a565b60208701519095506102568161020a565b60408701519094506102678161020a565b60608701519093506102788161020a565b80925050608086015190509295509295909350565b60805160a05160c05160e0516115ec6102fe60003960008181610399015281816106de015281816107640152610b2f0152600081816103fa0152610abe0152600081816103390152610af601526000818161022c015281816104930152818161053a0152610cd701526115ec6000f3fe608060405234801561001057600080fd5b506004361061018e5760003560e01c80638a48ac03116100de578063ca15c87311610097578063d5abeb0111610071578063d5abeb0114610394578063d79ed804146103bb578063dc224863146103ce578063eb7269d6146103f557600080fd5b8063ca15c8731461035b578063d2d65ff51461036e578063d547741f1461038157600080fd5b80638a48ac03146102db5780638d549f17146102f05780639010d07c1461030657806391d1485414610319578063a217fddf1461032c578063b22a1cba1461033457600080fd5b806336568abe1161014b578063564566a811610125578063564566a8146102945780636da49b83146102a157806375b238fc146102aa5780637caf7c92146102d157600080fd5b806336568abe14610266578063436a014a1461027957806349b514f21461028157600080fd5b806301be583b1461019357806301ffc9a7146101a857806317fb4c3b146101d0578063248a9ca3146101f15780632f2ff15d146102145780633013ce2914610227575b600080fd5b6101a66101a13660046112ce565b61041c565b005b6101bb6101b63660046112e7565b61062b565b60405190151581526020015b60405180910390f35b6101e36101de36600461132d565b610656565b6040519081526020016101c7565b6101e36101ff3660046112ce565b60009081526020819052604090206001015490565b6101a6610222366004611348565b610679565b61024e7f000000000000000000000000000000000000000000000000000000000000000081565b6040516001600160a01b0390911681526020016101c7565b6101a6610274366004611348565b6106a4565b6101e36106d7565b6101a661028f366004611374565b61070c565b6003546101bb9060ff1681565b6101e360045481565b6101e37fa49807205ce4d355092ef5a8a18f56e8913cf4a201fbe287825b095693c2177581565b633b9aca006101e3565b6102e36107ff565b6040516101c791906113e3565b6102f861080b565b6040516101c79291906113f6565b61024e61031436600461144d565b610924565b6101bb610327366004611348565b610943565b6101e3600081565b61024e7f000000000000000000000000000000000000000000000000000000000000000081565b6101e36103693660046112ce565b61096c565b6101a661037c36600461147d565b610983565b6101a661038f366004611348565b6109c1565b6101e37f000000000000000000000000000000000000000000000000000000000000000081565b6101a66103c9366004611374565b6109e6565b6101e37f8b8c0776df2c2176edf6f82391c35ea4891146d7a976ee36fd07f1a6fb4ead4c81565b61024e7f000000000000000000000000000000000000000000000000000000000000000081565b60035460ff1661043f5760405163b7b2409760e01b815260040160405180910390fd5b808060000361046157604051630309cb8760e51b815260040160405180910390fd5b6000610471633b9aca00836114b0565b6040516370a0823160e01b815233600482015290915081906001600160a01b037f000000000000000000000000000000000000000000000000000000000000000016906370a0823190602401602060405180830381865afa1580156104da573d6000803e3d6000fd5b505050506040513d601f19601f820116820180604052508101906104fe91906114c7565b101561051d57604051631e9acf1760e31b815260040160405180910390fd5b604051636eb1769f60e11b815233600482015230602482015281907f00000000000000000000000000000000000000000000000000000000000000006001600160a01b03169063dd62ed3e90604401602060405180830381865afa158015610589573d6000803e3d6000fd5b505050506040513d601f19601f820116820180604052508101906105ad91906114c7565b10156105cc576040516313be252b60e01b815260040160405180910390fd5b6105d4610a62565b6105dd83610a8a565b6105e73384610b1b565b60405183815233907fb1fa818518486db21d0612d7016d1f746b32651a7e8225bae5f00453713f2f909060200160405180910390a26106266001600255565b505050565b60006001600160e01b03198216635a05180f60e01b1480610650575061065082610b94565b92915050565b6000610663600583610bc9565b61066e576000610650565b610650600583610bde565b60008281526020819052604090206001015461069481610bf3565b61069e8383610c00565b50505050565b6001600160a01b03811633146106cd5760405163334bd91960e11b815260040160405180910390fd5b6106268282610c35565b60006004547f000000000000000000000000000000000000000000000000000000000000000061070791906114e0565b905090565b600061071781610bf3565b600061072284610656565b905060008184116107495761073784836114e0565b60045461074491906114e0565b610760565b61075382856114e0565b60045461076091906114f3565b90507f00000000000000000000000000000000000000000000000000000000000000008111156107a3576040516373be2ceb60e01b815260040160405180910390fd5b60048190556107b460058686610c62565b50846001600160a01b03167f6084067be11d2a99b87a4584b9b4830451f2333678b321be652716ce0eb09902856040516107f091815260200190565b60405180910390a25050505050565b60606107076005610c80565b606080600061081a6005610c8d565b90508067ffffffffffffffff81111561083557610835611506565b60405190808252806020026020018201604052801561085e578160200160208202803683370190505b5092508067ffffffffffffffff81111561087a5761087a611506565b6040519080825280602002602001820160405280156108a3578160200160208202803683370190505b50915060005b8181101561091e576000806108bf600584610c98565b91509150818684815181106108d6576108d661151c565b60200260200101906001600160a01b031690816001600160a01b031681525050808584815181106109095761090961151c565b602090810291909101015250506001016108a9565b50509091565b600082815260016020526040812061093c9083610cb4565b9392505050565b6000918252602082815260408084206001600160a01b0393909316845291905290205460ff1690565b600081815260016020526040812061065090610cc0565b7f8b8c0776df2c2176edf6f82391c35ea4891146d7a976ee36fd07f1a6fb4ead4c6109ad81610bf3565b506003805460ff1916911515919091179055565b6000828152602081905260409020600101546109dc81610bf3565b61069e8383610c35565b7fa49807205ce4d355092ef5a8a18f56e8913cf4a201fbe287825b095693c21775610a1081610bf3565b610a1a8383610b1b565b826001600160a01b03167f3037cba7f4bf85701fc31c9d01f58f1e2e8604d58f4593ab104d9999a89b953083604051610a5591815260200190565b60405180910390a2505050565b6002805403610a8457604051633ee5aeb560e01b815260040160405180910390fd5b60028055565b6000610a9a633b9aca00836114b0565b90506000612710610aad6104e2846114b0565b610ab79190611532565b9050610ae37f000000000000000000000000000000000000000000000000000000000000000082610cca565b6000610aef82846114e0565b905061069e7f000000000000000000000000000000000000000000000000000000000000000082610cca565b600081600454610b2b91906114f3565b90507f0000000000000000000000000000000000000000000000000000000000000000811115610b6e576040516373be2ceb60e01b815260040160405180910390fd5b600481905561069e8383610b8182610656565b610b8b91906114f3565b60059190610c62565b60006001600160e01b03198216637965db0b60e01b148061065057506301ffc9a760e01b6001600160e01b0319831614610650565b600061093c836001600160a01b038416610d03565b600061093c836001600160a01b038416610d0f565b610bfd8133610d5b565b50565b600080610c0d8484610d94565b9050801561093c576000848152600160205260409020610c2d9084610e26565b509392505050565b600080610c428484610e3b565b9050801561093c576000848152600160205260409020610c2d9084610ea6565b6000610c78846001600160a01b03851684610ebb565b949350505050565b6060600061093c83610ed8565b600061065082610ee3565b6000808080610ca78686610eee565b9097909650945050505050565b600061093c8383610f19565b6000610650825490565b610cff6001600160a01b037f000000000000000000000000000000000000000000000000000000000000000016338484610f43565b5050565b600061093c8383610f9d565b600081815260028301602052604081205480158015610d355750610d338484610d03565b155b1561093c5760405163015ab34360e11b8152600481018490526024015b60405180910390fd5b610d658282610943565b610cff5760405163e2517d3f60e01b81526001600160a01b038216600482015260248101839052604401610d52565b6000610da08383610943565b610e1e576000838152602081815260408083206001600160a01b03861684529091529020805460ff19166001179055610dd63390565b6001600160a01b0316826001600160a01b0316847f2f8788117e7eff1d82e926ec794901d17c78024a50270940304540a733656f0d60405160405180910390a4506001610650565b506000610650565b600061093c836001600160a01b038416610fb5565b6000610e478383610943565b15610e1e576000838152602081815260408083206001600160a01b0386168085529252808320805460ff1916905551339286917ff6391f5c32d9c69d2a47ea670b442974b53935d1edc7fd64eb21e047a839171b9190a4506001610650565b600061093c836001600160a01b038416610ffc565b60008281526002840160205260408120829055610c7884846110ef565b6060610650826110fb565b600061065082610cc0565b60008080610efc8585610cb4565b600081815260029690960160205260409095205494959350505050565b6000826000018281548110610f3057610f3061151c565b9060005260206000200154905092915050565b604080516001600160a01b0385811660248301528416604482015260648082018490528251808303909101815260849091019091526020810180516001600160e01b03166323b872dd60e01b17905261069e908590611108565b6000818152600183016020526040812054151561093c565b6000818152600183016020526040812054610e1e57508154600181810184556000848152602080822090930184905584548482528286019093526040902091909155610650565b600081815260018301602052604081205480156110e55760006110206001836114e0565b8554909150600090611034906001906114e0565b90508082146110995760008660000182815481106110545761105461151c565b90600052602060002001549050808760000184815481106110775761107761151c565b6000918252602080832090910192909255918252600188019052604090208390555b85548690806110aa576110aa611554565b600190038181906000526020600020016000905590558560010160008681526020019081526020016000206000905560019350505050610650565b6000915050610650565b600061093c8383610fb5565b6060600061093c8361116b565b600061111d6001600160a01b038416836111c7565b90508051600014158015611142575080806020019051810190611140919061156a565b155b1561062657604051635274afe760e01b81526001600160a01b0384166004820152602401610d52565b6060816000018054806020026020016040519081016040528092919081815260200182805480156111bb57602002820191906000526020600020905b8154815260200190600101908083116111a7575b50505050509050919050565b606061093c8383600084600080856001600160a01b031684866040516111ed9190611587565b60006040518083038185875af1925050503d806000811461122a576040519150601f19603f3d011682016040523d82523d6000602084013e61122f565b606091505b509150915061123f868383611249565b9695505050505050565b60608261125e57611259826112a5565b61093c565b815115801561127557506001600160a01b0384163b155b1561129e57604051639996b31560e01b81526001600160a01b0385166004820152602401610d52565b508061093c565b8051156112b55780518082602001fd5b604051630a12f52160e11b815260040160405180910390fd5b6000602082840312156112e057600080fd5b5035919050565b6000602082840312156112f957600080fd5b81356001600160e01b03198116811461093c57600080fd5b80356001600160a01b038116811461132857600080fd5b919050565b60006020828403121561133f57600080fd5b61093c82611311565b6000806040838503121561135b57600080fd5b8235915061136b60208401611311565b90509250929050565b6000806040838503121561138757600080fd5b61139083611311565b946020939093013593505050565b60008151808452602080850194506020840160005b838110156113d85781516001600160a01b0316875295820195908201906001016113b3565b509495945050505050565b60208152600061093c602083018461139e565b604081526000611409604083018561139e565b82810360208481019190915284518083528582019282019060005b8181101561144057845183529383019391830191600101611424565b5090979650505050505050565b6000806040838503121561146057600080fd5b50508035926020909101359150565b8015158114610bfd57600080fd5b60006020828403121561148f57600080fd5b813561093c8161146f565b634e487b7160e01b600052601160045260246000fd5b80820281158282048414176106505761065061149a565b6000602082840312156114d957600080fd5b5051919050565b818103818111156106505761065061149a565b808201808211156106505761065061149a565b634e487b7160e01b600052604160045260246000fd5b634e487b7160e01b600052603260045260246000fd5b60008261154f57634e487b7160e01b600052601260045260246000fd5b500490565b634e487b7160e01b600052603160045260246000fd5b60006020828403121561157c57600080fd5b815161093c8161146f565b6000825160005b818110156115a8576020818601810151858301520161158e565b50600092019182525091905056fea2646970667358221220fb59a45a63ecf3e2f9cf63f15a11f73250e89d61c8eb1ce3759096f1604b2a0264736f6c63430008190033",
          "opcodes": "PUSH2 0x100 PUSH1 0x40 MSTORE CALLVALUE DUP1 ISZERO PUSH2 0x11 JUMPI PUSH1 0x0 DUP1 REVERT JUMPDEST POP PUSH1 0x40 MLOAD PUSH2 0x18EA CODESIZE SUB DUP1 PUSH2 0x18EA DUP4 CODECOPY DUP2 ADD PUSH1 0x40 DUP2 SWAP1 MSTORE PUSH2 0x30 SWAP2 PUSH2 0x222 JUMP JUMPDEST PUSH1 0x1 PUSH1 0x2 SSTORE PUSH1 0x1 PUSH1 0x1 PUSH1 0xA0 SHL SUB DUP6 AND ISZERO DUP1 PUSH2 0x52 JUMPI POP PUSH1 0x1 PUSH1 0x1 PUSH1 0xA0 SHL SUB DUP5 AND ISZERO JUMPDEST DUP1 PUSH2 0x64 JUMPI POP PUSH1 0x1 PUSH1 0x1 PUSH1 0xA0 SHL SUB DUP4 AND ISZERO JUMPDEST DUP1 PUSH2 0x76 JUMPI POP PUSH1 0x1 PUSH1 0x1 PUSH1 0xA0 SHL SUB DUP3 AND ISZERO JUMPDEST DUP1 PUSH2 0x7F JUMPI POP DUP1 ISZERO JUMPDEST ISZERO PUSH2 0x9D JUMPI PUSH1 0x40 MLOAD PUSH4 0x309CB87 PUSH1 0xE5 SHL DUP2 MSTORE PUSH1 0x4 ADD PUSH1 0x40 MLOAD DUP1 SWAP2 SUB SWAP1 REVERT JUMPDEST PUSH1 0x1 PUSH1 0x1 PUSH1 0xA0 SHL SUB DUP1 DUP6 AND PUSH1 0x80 MSTORE DUP4 DUP2 AND PUSH1 0xA0 MSTORE DUP3 AND PUSH1 0xC0 MSTORE PUSH1 0xE0 DUP2 SWAP1 MSTORE PUSH2 0xC6 PUSH1 0x0 DUP7 PUSH2 0xD1 JUMP JUMPDEST POP POP POP POP POP POP PUSH2 0x28D JUMP JUMPDEST PUSH1 0x0 DUP1 PUSH2 0xDE DUP5 DUP5 PUSH2 0x109 JUMP JUMPDEST SWAP1 POP DUP1 ISZERO PUSH2 0x100 JUMPI PUSH1 0x0 DUP5 DUP2 MSTORE PUSH1 0x1 PUSH1 0x20 MSTORE PUSH1 0x40 SWAP1 KECCAK256 PUSH2 0xFE SWAP1 DUP5 PUSH2 0x1B3 JUMP JUMPDEST POP JUMPDEST SWAP1 POP JUMPDEST SWAP3 SWAP2 POP POP JUMP JUMPDEST PUSH1 0x0 DUP3 DUP2 MSTORE PUSH1 0x20 DUP2 DUP2 MSTORE PUSH1 0x40 DUP1 DUP4 KECCAK256 PUSH1 0x1 PUSH1 0x1 PUSH1 0xA0 SHL SUB DUP6 AND DUP5 MSTORE SWAP1 SWAP2 MSTORE DUP2 KECCAK256 SLOAD PUSH1 0xFF AND PUSH2 0x1AB JUMPI PUSH1 0x0 DUP4 DUP2 MSTORE PUSH1 0x20 DUP2 DUP2 MSTORE PUSH1 0x40 DUP1 DUP4 KECCAK256 PUSH1 0x1 PUSH1 0x1 PUSH1 0xA0 SHL SUB DUP7 AND DUP5 MSTORE SWAP1 SWAP2 MSTORE SWAP1 KECCAK256 DUP1 SLOAD PUSH1 0xFF NOT AND PUSH1 0x1 OR SWAP1 SSTORE PUSH2 0x163 CALLER SWAP1 JUMP JUMPDEST PUSH1 0x1 PUSH1 0x1 PUSH1 0xA0 SHL SUB AND DUP3 PUSH1 0x1 PUSH1 0x1 PUSH1 0xA0 SHL SUB AND DUP5 PUSH32 0x2F8788117E7EFF1D82E926EC794901D17C78024A50270940304540A733656F0D PUSH1 0x40 MLOAD PUSH1 0x40 MLOAD DUP1 SWAP2 SUB SWAP1 LOG4 POP PUSH1 0x1 PUSH2 0x103 JUMP JUMPDEST POP PUSH1 0x0 PUSH2 0x103 JUMP JUMPDEST PUSH1 0x0 PUSH2 0x100 DUP4 PUSH1 0x1 PUSH1 0x1 PUSH1 0xA0 SHL SUB DUP5 AND PUSH1 0x0 DUP2 DUP2 MSTORE PUSH1 0x1 DUP4 ADD PUSH1 0x20 MSTORE PUSH1 0x40 DUP2 KECCAK256 SLOAD PUSH2 0x1AB JUMPI POP DUP2 SLOAD PUSH1 0x1 DUP2 DUP2 ADD DUP5 SSTORE PUSH1 0x0 DUP5 DUP2 MSTORE PUSH1 0x20 DUP1 DUP3 KECCAK256 SWAP1 SWAP4 ADD DUP5 SWAP1 SSTORE DUP5 SLOAD DUP5 DUP3 MSTORE DUP3 DUP7 ADD SWAP1 SWAP4 MSTORE PUSH1 0x40 SWAP1 KECCAK256 SWAP2 SWAP1 SWAP2 SSTORE PUSH2 0x103 JUMP JUMPDEST PUSH1 0x1 PUSH1 0x1 PUSH1 0xA0 SHL SUB DUP2 AND DUP2 EQ PUSH2 0x21F JUMPI PUSH1 0x0 DUP1 REVERT JUMPDEST POP JUMP JUMPDEST PUSH1 0x0 DUP1 PUSH1 0x0 DUP1 PUSH1 0x0 PUSH1 0xA0 DUP7 DUP9 SUB SLT ISZERO PUSH2 0x23A JUMPI PUSH1 0x0 DUP1 REVERT JUMPDEST DUP6 MLOAD PUSH2 0x245 DUP2 PUSH2 0x20A JUMP JUMPDEST PUSH1 0x20 DUP8 ADD MLOAD SWAP1 SWAP6 POP PUSH2 0x256 DUP2 PUSH2 0x20A JUMP JUMPDEST PUSH1 0x40 DUP8 ADD MLOAD SWAP1 SWAP5 POP PUSH2 0x267 DUP2 PUSH2 0x20A JUMP JUMPDEST PUSH1 0x60 DUP8 ADD MLOAD SWAP1 SWAP4 POP PUSH2 0x278 DUP2 PUSH2 0x20A JUMP JUMPDEST DUP1 SWAP3 POP POP PUSH1 0x80 DUP7 ADD MLOAD SWAP1 POP SWAP3 SWAP6 POP SWAP3 SWAP6 SWAP1 SWAP4 POP JUMP JUMPDEST PUSH1 0x80 MLOAD PUSH1 0xA0 MLOAD PUSH1 0xC0 MLOAD PUSH1 0xE0 MLOAD PUSH2 0x15EC PUSH2 0x2FE PUSH1 0x0 CODECOPY PUSH1 0x0 DUP2 DUP2 PUSH2 0x399 ADD MSTORE DUP2 DUP2 PUSH2 0x6DE ADD MSTORE DUP2 DUP2 PUSH2 0x764 ADD MSTORE PUSH2 0xB2F ADD MSTORE PUSH1 0x0 DUP2 DUP2 PUSH2 0x3FA ADD MSTORE PUSH2 0xABE ADD MSTORE PUSH1 0x0 DUP2 DUP2 PUSH2 0x339 ADD MSTORE PUSH2 0xAF6 ADD MSTORE PUSH1 0x0 DUP2 DUP2 PUSH2 0x22C ADD MSTORE DUP2 DUP2 PUSH2 0x493 ADD MSTORE DUP2 DUP2 PUSH2 0x53A ADD MSTORE PUSH2 0xCD7 ADD MSTORE PUSH2 0x15EC PUSH1 0x0 RETURN INVALID PUSH1 0x80 PUSH1 0x40 MSTORE CALLVALUE DUP1 ISZERO PUSH2 0x10 JUMPI PUSH1 0x0 DUP1 REVERT JUMPDEST POP PUSH1 0x4 CALLDATASIZE LT PUSH2 0x18E JUMPI PUSH1 0x0 CALLDATALOAD PUSH1 0xE0 SHR DUP1 PUSH4 0x8A48AC03 GT PUSH2 0xDE JUMPI DUP1 PUSH4 0xCA15C873 GT PUSH2 0x97 JUMPI DUP1 PUSH4 0xD5ABEB01 GT PUSH2 0x71 JUMPI DUP1 PUSH4 0xD5ABEB01 EQ PUSH2 0x394 JUMPI DUP1 PUSH4 0xD79ED804 EQ PUSH2 0x3BB JUMPI DUP1 PUSH4 0xDC224863 EQ PUSH2 0x3CE JUMPI DUP1 PUSH4 0xEB7269D6 EQ PUSH2 0x3F5 JUMPI PUSH1 0x0 DUP1 REVERT JUMPDEST DUP1 PUSH4 0xCA15C873 EQ PUSH2 0x35B JUMPI DUP1 PUSH4 0xD2D65FF5 EQ PUSH2 0x36E JUMPI DUP1 PUSH4 0xD547741F EQ PUSH2 0x381 JUMPI PUSH1 0x0 DUP1 REVERT JUMPDEST DUP1 PUSH4 0x8A48AC03 EQ PUSH2 0x2DB JUMPI DUP1 PUSH4 0x8D549F17 EQ PUSH2 0x2F0 JUMPI DUP1 PUSH4 0x9010D07C EQ PUSH2 0x306 JUMPI DUP1 PUSH4 0x91D14854 EQ PUSH2 0x319 JUMPI DUP1 PUSH4 0xA217FDDF EQ PUSH2 0x32C JUMPI DUP1 PUSH4 0xB22A1CBA EQ PUSH2 0x334 JUMPI PUSH1 0x0 DUP1 REVERT JUMPDEST DUP1 PUSH4 0x36568ABE GT PUSH2 0x14B JUMPI DUP1 PUSH4 0x564566A8 GT PUSH2 0x125 JUMPI DUP1 PUSH4 0x564566A8 EQ PUSH2 0x294 JUMPI DUP1 PUSH4 0x6DA49B83 EQ PUSH2 0x2A1 JUMPI DUP1 PUSH4 0x75B238FC EQ PUSH2 0x2AA JUMPI DUP1 PUSH4 0x7CAF7C92 EQ PUSH2 0x2D1 JUMPI PUSH1 0x0 DUP1 REVERT JUMPDEST DUP1 PUSH4 0x36568ABE EQ PUSH2 0x266 JUMPI DUP1 PUSH4 0x436A014A EQ PUSH2 0x279 JUMPI DUP1 PUSH4 0x49B514F2 EQ PUSH2 0x281 JUMPI PUSH1 0x0 DUP1 REVERT JUMPDEST DUP1 PUSH4 0x1BE583B EQ PUSH2 0x193 JUMPI DUP1 PUSH4 0x1FFC9A7 EQ PUSH2 0x1A8 JUMPI DUP1 PUSH4 0x17FB4C3B EQ PUSH2 0x1D0 JUMPI DUP1 PUSH4 0x248A9CA3 EQ PUSH2 0x1F1 JUMPI DUP1 PUSH4 0x2F2FF15D EQ PUSH2 0x214 JUMPI DUP1 PUSH4 0x3013CE29 EQ PUSH2 0x227 JUMPI JUMPDEST PUSH1 0x0 DUP1 REVERT JUMPDEST PUSH2 0x1A6 PUSH2 0x1A1 CALLDATASIZE PUSH1 0x4 PUSH2 0x12CE JUMP JUMPDEST PUSH2 0x41C JUMP JUMPDEST STOP JUMPDEST PUSH2 0x1BB PUSH2 0x1B6 CALLDATASIZE PUSH1 0x4 PUSH2 0x12E7 JUMP JUMPDEST PUSH2 0x62B JUMP JUMPDEST PUSH1 0x40 MLOAD SWAP1 ISZERO ISZERO DUP2 MSTORE PUSH1 0x20 ADD JUMPDEST PUSH1 0x40 MLOAD DUP1 SWAP2 SUB SWAP1 RETURN JUMPDEST PUSH2 0x1E3 PUSH2 0x1DE CALLDATASIZE PUSH1 0x4 PUSH2 0x132D JUMP JUMPDEST PUSH2 0x656 JUMP JUMPDEST PUSH1 0x40 MLOAD SWAP1 DUP2 MSTORE PUSH1 0x20 ADD PUSH2 0x1C7 JUMP JUMPDEST PUSH2 0x1E3 PUSH2 0x1FF CALLDATASIZE PUSH1 0x4 PUSH2 0x12CE JUMP JUMPDEST PUSH1 0x0 SWAP1 DUP2 MSTORE PUSH1 0x20 DUP2 SWAP1 MSTORE PUSH1 0x40 SWAP1 KECCAK256 PUSH1 0x1 ADD SLOAD SWAP1 JUMP JUMPDEST PUSH2 0x1A6 PUSH2 0x222 CALLDATASIZE PUSH1 0x4 PUSH2 0x1348 JUMP JUMPDEST PUSH2 0x679 JUMP JUMPDEST PUSH2 0x24E PUSH32 0x0 DUP2 JUMP JUMPDEST PUSH1 0x40 MLOAD PUSH1 0x1 PUSH1 0x1 PUSH1 0xA0 SHL SUB SWAP1 SWAP2 AND DUP2 MSTORE PUSH1 0x20 ADD PUSH2 0x1C7 JUMP JUMPDEST PUSH2 0x1A6 PUSH2 0x274 CALLDATASIZE PUSH1 0x4 PUSH2 0x1348 JUMP JUMPDEST PUSH2 0x6A4 JUMP JUMPDEST PUSH2 0x1E3 PUSH2 0x6D7 JUMP JUMPDEST PUSH2 0x1A6 PUSH2 0x28F CALLDATASIZE PUSH1 0x4 PUSH2 0x1374 JUMP JUMPDEST PUSH2 0x70C JUMP JUMPDEST PUSH1 0x3 SLOAD PUSH2 0x1BB SWAP1 PUSH1 0xFF AND DUP2 JUMP JUMPDEST PUSH2 0x1E3 PUSH1 0x4 SLOAD DUP2 JUMP JUMPDEST PUSH2 0x1E3 PUSH32 0xA49807205CE4D355092EF5A8A18F56E8913CF4A201FBE287825B095693C21775 DUP2 JUMP JUMPDEST PUSH4 0x3B9ACA00 PUSH2 0x1E3 JUMP JUMPDEST PUSH2 0x2E3 PUSH2 0x7FF JUMP JUMPDEST PUSH1 0x40 MLOAD PUSH2 0x1C7 SWAP2 SWAP1 PUSH2 0x13E3 JUMP JUMPDEST PUSH2 0x2F8 PUSH2 0x80B JUMP JUMPDEST PUSH1 0x40 MLOAD PUSH2 0x1C7 SWAP3 SWAP2 SWAP1 PUSH2 0x13F6 JUMP JUMPDEST PUSH2 0x24E PUSH2 0x314 CALLDATASIZE PUSH1 0x4 PUSH2 0x144D JUMP JUMPDEST PUSH2 0x924 JUMP JUMPDEST PUSH2 0x1BB PUSH2 0x327 CALLDATASIZE PUSH1 0x4 PUSH2 0x1348 JUMP JUMPDEST PUSH2 0x943 JUMP JUMPDEST PUSH2 0x1E3 PUSH1 0x0 DUP2 JUMP JUMPDEST PUSH2 0x24E PUSH32 0x0 DUP2 JUMP JUMPDEST PUSH2 0x1E3 PUSH2 0x369 CALLDATASIZE PUSH1 0x4 PUSH2 0x12CE JUMP JUMPDEST PUSH2 0x96C JUMP JUMPDEST PUSH2 0x1A6 PUSH2 0x37C CALLDATASIZE PUSH1 0x4 PUSH2 0x147D JUMP JUMPDEST PUSH2 0x983 JUMP JUMPDEST PUSH2 0x1A6 PUSH2 0x38F CALLDATASIZE PUSH1 0x4 PUSH2 0x1348 JUMP JUMPDEST PUSH2 0x9C1 JUMP JUMPDEST PUSH2 0x1E3 PUSH32 0x0 DUP2 JUMP JUMPDEST PUSH2 0x1A6 PUSH2 0x3C9 CALLDATASIZE PUSH1 0x4 PUSH2 0x1374 JUMP JUMPDEST PUSH2 0x9E6 JUMP JUMPDEST PUSH2 0x1E3 PUSH32 0x8B8C0776DF2C2176EDF6F82391C35EA4891146D7A976EE36FD07F1A6FB4EAD4C DUP2 JUMP JUMPDEST PUSH2 0x24E PUSH32 0x0 DUP2 JUMP JUMPDEST PUSH1 0x3 SLOAD PUSH1 0xFF AND PUSH2 0x43F JUMPI PUSH1 0x40 MLOAD PUSH4 0xB7B24097 PUSH1 0xE0 SHL DUP2 MSTORE PUSH1 0x4 ADD PUSH1 0x40 MLOAD DUP1 SWAP2 SUB SWAP1 REVERT JUMPDEST DUP1 DUP1 PUSH1 0x0 SUB PUSH2 0x461 JUMPI PUSH1 0x40 MLOAD PUSH4 0x309CB87 PUSH1 0xE5 SHL DUP2 MSTORE PUSH1 0x4 ADD PUSH1 0x40 MLOAD DUP1 SWAP2 SUB SWAP1 REVERT JUMPDEST PUSH1 0x0 PUSH2 0x471 PUSH4 0x3B9ACA00 DUP4 PUSH2 0x14B0 JUMP JUMPDEST PUSH1 0x40 MLOAD PUSH4 0x70A08231 PUSH1 0xE0 SHL DUP2 MSTORE CALLER PUSH1 0x4 DUP3 ADD MSTORE SWAP1 SWAP2 POP DUP2 SWAP1 PUSH1 0x1 PUSH1 0x1 PUSH1 0xA0 SHL SUB PUSH32 0x0 AND SWAP1 PUSH4 0x70A08231 SWAP1 PUSH1 0x24 ADD PUSH1 0x20 PUSH1 0x40 MLOAD DUP1 DUP4 SUB DUP2 DUP7 GAS STATICCALL ISZERO DUP1 ISZERO PUSH2 0x4DA JUMPI RETURNDATASIZE PUSH1 0x0 DUP1 RETURNDATACOPY RETURNDATASIZE PUSH1 0x0 REVERT JUMPDEST POP POP POP POP PUSH1 0x40 MLOAD RETURNDATASIZE PUSH1 0x1F NOT PUSH1 0x1F DUP3 ADD AND DUP3 ADD DUP1 PUSH1 0x40 MSTORE POP DUP2 ADD SWAP1 PUSH2 0x4FE SWAP2 SWAP1 PUSH2 0x14C7 JUMP JUMPDEST LT ISZERO PUSH2 0x51D JUMPI PUSH1 0x40 MLOAD PUSH4 0x1E9ACF17 PUSH1 0xE3 SHL DUP2 MSTORE PUSH1 0x4 ADD PUSH1 0x40 MLOAD DUP1 SWAP2 SUB SWAP1 REVERT JUMPDEST PUSH1 0x40 MLOAD PUSH4 0x6EB1769F PUSH1 0xE1 SHL DUP2 MSTORE CALLER PUSH1 0x4 DUP3 ADD MSTORE ADDRESS PUSH1 0x24 DUP3 ADD MSTORE DUP2 SWAP1 PUSH32 0x0 PUSH1 0x1 PUSH1 0x1 PUSH1 0xA0 SHL SUB AND SWAP1 PUSH4 0xDD62ED3E SWAP1 PUSH1 0x44 ADD PUSH1 0x20 PUSH1 0x40 MLOAD DUP1 DUP4 SUB DUP2 DUP7 GAS STATICCALL ISZERO DUP1 ISZERO PUSH2 0x589 JUMPI RETURNDATASIZE PUSH1 0x0 DUP1 RETURNDATACOPY RETURNDATASIZE PUSH1 0x0 REVERT JUMPDEST POP POP POP POP PUSH1 0x40 MLOAD RETURNDATASIZE PUSH1 0x1F NOT PUSH1 0x1F DUP3 ADD AND DUP3 ADD DUP1 PUSH1 0x40 MSTORE POP DUP2 ADD SWAP1 PUSH2 0x5AD SWAP2 SWAP1 PUSH2 0x14C7 JUMP JUMPDEST LT ISZERO PUSH2 0x5CC JUMPI PUSH1 0x40 MLOAD PUSH4 0x13BE252B PUSH1 0xE0 SHL DUP2 MSTORE PUSH1 0x4 ADD PUSH1 0x40 MLOAD DUP1 SWAP2 SUB SWAP1 REVERT JUMPDEST PUSH2 0x5D4 PUSH2 0xA62 JUMP JUMPDEST PUSH2 0x5DD DUP4 PUSH2 0xA8A JUMP JUMPDEST PUSH2 0x5E7 CALLER DUP5 PUSH2 0xB1B JUMP JUMPDEST PUSH1 0x40 MLOAD DUP4 DUP2 MSTORE CALLER SWAP1 PUSH32 0xB1FA818518486DB21D0612D7016D1F746B32651A7E8225BAE5F00453713F2F90 SWAP1 PUSH1 0x20 ADD PUSH1 0x40 MLOAD DUP1 SWAP2 SUB SWAP1 LOG2 PUSH2 0x626 PUSH1 0x1 PUSH1 0x2 SSTORE JUMP JUMPDEST POP POP POP JUMP JUMPDEST PUSH1 0x0 PUSH1 0x1 PUSH1 0x1 PUSH1 0xE0 SHL SUB NOT DUP3 AND PUSH4 0x5A05180F PUSH1 0xE0 SHL EQ DUP1 PUSH2 0x650 JUMPI POP PUSH2 0x650 DUP3 PUSH2 0xB94 JUMP JUMPDEST SWAP3 SWAP2 POP POP JUMP JUMPDEST PUSH1 0x0 PUSH2 0x663 PUSH1 0x5 DUP4 PUSH2 0xBC9 JUMP JUMPDEST PUSH2 0x66E JUMPI PUSH1 0x0 PUSH2 0x650 JUMP JUMPDEST PUSH2 0x650 PUSH1 0x5 DUP4 PUSH2 0xBDE JUMP JUMPDEST PUSH1 0x0 DUP3 DUP2 MSTORE PUSH1 0x20 DUP2 SWAP1 MSTORE PUSH1 0x40 SWAP1 KECCAK256 PUSH1 0x1 ADD SLOAD PUSH2 0x694 DUP2 PUSH2 0xBF3 JUMP JUMPDEST PUSH2 0x69E DUP4 DUP4 PUSH2 0xC00 JUMP JUMPDEST POP POP POP POP JUMP JUMPDEST PUSH1 0x1 PUSH1 0x1 PUSH1 0xA0 SHL SUB DUP2 AND CALLER EQ PUSH2 0x6CD JUMPI PUSH1 0x40 MLOAD PUSH4 0x334BD919 PUSH1 0xE1 SHL DUP2 MSTORE PUSH1 0x4 ADD PUSH1 0x40 MLOAD DUP1 SWAP2 SUB SWAP1 REVERT JUMPDEST PUSH2 0x626 DUP3 DUP3 PUSH2 0xC35 JUMP JUMPDEST PUSH1 0x0 PUSH1 0x4 SLOAD PUSH32 0x0 PUSH2 0x707 SWAP2 SWAP1 PUSH2 0x14E0 JUMP JUMPDEST SWAP1 POP SWAP1 JUMP JUMPDEST PUSH1 0x0 PUSH2 0x717 DUP2 PUSH2 0xBF3 JUMP JUMPDEST PUSH1 0x0 PUSH2 0x722 DUP5 PUSH2 0x656 JUMP JUMPDEST SWAP1 POP PUSH1 0x0 DUP2 DUP5 GT PUSH2 0x749 JUMPI PUSH2 0x737 DUP5 DUP4 PUSH2 0x14E0 JUMP JUMPDEST PUSH1 0x4 SLOAD PUSH2 0x744 SWAP2 SWAP1 PUSH2 0x14E0 JUMP JUMPDEST PUSH2 0x760 JUMP JUMPDEST PUSH2 0x753 DUP3 DUP6 PUSH2 0x14E0 JUMP JUMPDEST PUSH1 0x4 SLOAD PUSH2 0x760 SWAP2 SWAP1 PUSH2 0x14F3 JUMP JUMPDEST SWAP1 POP PUSH32 0x0 DUP2 GT ISZERO PUSH2 0x7A3 JUMPI PUSH1 0x40 MLOAD PUSH4 0x73BE2CEB PUSH1 0xE0 SHL DUP2 MSTORE PUSH1 0x4 ADD PUSH1 0x40 MLOAD DUP1 SWAP2 SUB SWAP1 REVERT JUMPDEST PUSH1 0x4 DUP2 SWAP1 SSTORE PUSH2 0x7B4 PUSH1 0x5 DUP7 DUP7 PUSH2 0xC62 JUMP JUMPDEST POP DUP5 PUSH1 0x1 PUSH1 0x1 PUSH1 0xA0 SHL SUB AND PUSH32 0x6084067BE11D2A99B87A4584B9B4830451F2333678B321BE652716CE0EB09902 DUP6 PUSH1 0x40 MLOAD PUSH2 0x7F0 SWAP2 DUP2 MSTORE PUSH1 0x20 ADD SWAP1 JUMP JUMPDEST PUSH1 0x40 MLOAD DUP1 SWAP2 SUB SWAP1 LOG2 POP POP POP POP POP JUMP JUMPDEST PUSH1 0x60 PUSH2 0x707 PUSH1 0x5 PUSH2 0xC80 JUMP JUMPDEST PUSH1 0x60 DUP1 PUSH1 0x0 PUSH2 0x81A PUSH1 0x5 PUSH2 0xC8D JUMP JUMPDEST SWAP1 POP DUP1 PUSH8 0xFFFFFFFFFFFFFFFF DUP2 GT ISZERO PUSH2 0x835 JUMPI PUSH2 0x835 PUSH2 0x1506 JUMP JUMPDEST PUSH1 0x40 MLOAD SWAP1 DUP1 DUP3 MSTORE DUP1 PUSH1 0x20 MUL PUSH1 0x20 ADD DUP3 ADD PUSH1 0x40 MSTORE DUP1 ISZERO PUSH2 0x85E JUMPI DUP2 PUSH1 0x20 ADD PUSH1 0x20 DUP3 MUL DUP1 CALLDATASIZE DUP4 CALLDATACOPY ADD SWAP1 POP JUMPDEST POP SWAP3 POP DUP1 PUSH8 0xFFFFFFFFFFFFFFFF DUP2 GT ISZERO PUSH2 0x87A JUMPI PUSH2 0x87A PUSH2 0x1506 JUMP JUMPDEST PUSH1 0x40 MLOAD SWAP1 DUP1 DUP3 MSTORE DUP1 PUSH1 0x20 MUL PUSH1 0x20 ADD DUP3 ADD PUSH1 0x40 MSTORE DUP1 ISZERO PUSH2 0x8A3 JUMPI DUP2 PUSH1 0x20 ADD PUSH1 0x20 DUP3 MUL DUP1 CALLDATASIZE DUP4 CALLDATACOPY ADD SWAP1 POP JUMPDEST POP SWAP2 POP PUSH1 0x0 JUMPDEST DUP2 DUP2 LT ISZERO PUSH2 0x91E JUMPI PUSH1 0x0 DUP1 PUSH2 0x8BF PUSH1 0x5 DUP5 PUSH2 0xC98 JUMP JUMPDEST SWAP2 POP SWAP2 POP DUP2 DUP7 DUP5 DUP2 MLOAD DUP2 LT PUSH2 0x8D6 JUMPI PUSH2 0x8D6 PUSH2 0x151C JUMP JUMPDEST PUSH1 0x20 MUL PUSH1 0x20 ADD ADD SWAP1 PUSH1 0x1 PUSH1 0x1 PUSH1 0xA0 SHL SUB AND SWAP1 DUP2 PUSH1 0x1 PUSH1 0x1 PUSH1 0xA0 SHL SUB AND DUP2 MSTORE POP POP DUP1 DUP6 DUP5 DUP2 MLOAD DUP2 LT PUSH2 0x909 JUMPI PUSH2 0x909 PUSH2 0x151C JUMP JUMPDEST PUSH1 0x20 SWAP1 DUP2 MUL SWAP2 SWAP1 SWAP2 ADD ADD MSTORE POP POP PUSH1 0x1 ADD PUSH2 0x8A9 JUMP JUMPDEST POP POP SWAP1 SWAP2 JUMP JUMPDEST PUSH1 0x0 DUP3 DUP2 MSTORE PUSH1 0x1 PUSH1 0x20 MSTORE PUSH1 0x40 DUP2 KECCAK256 PUSH2 0x93C SWAP1 DUP4 PUSH2 0xCB4 JUMP JUMPDEST SWAP4 SWAP3 POP POP POP JUMP JUMPDEST PUSH1 0x0 SWAP2 DUP3 MSTORE PUSH1 0x20 DUP3 DUP2 MSTORE PUSH1 0x40 DUP1 DUP5 KECCAK256 PUSH1 0x1 PUSH1 0x1 PUSH1 0xA0 SHL SUB SWAP4 SWAP1 SWAP4 AND DUP5 MSTORE SWAP2 SWAP1 MSTORE SWAP1 KECCAK256 SLOAD PUSH1 0xFF AND SWAP1 JUMP JUMPDEST PUSH1 0x0 DUP2 DUP2 MSTORE PUSH1 0x1 PUSH1 0x20 MSTORE PUSH1 0x40 DUP2 KECCAK256 PUSH2 0x650 SWAP1 PUSH2 0xCC0 JUMP JUMPDEST PUSH32 0x8B8C0776DF2C2176EDF6F82391C35EA4891146D7A976EE36FD07F1A6FB4EAD4C PUSH2 0x9AD DUP2 PUSH2 0xBF3 JUMP JUMPDEST POP PUSH1 0x3 DUP1 SLOAD PUSH1 0xFF NOT AND SWAP2 ISZERO ISZERO SWAP2 SWAP1 SWAP2 OR SWAP1 SSTORE JUMP JUMPDEST PUSH1 0x0 DUP3 DUP2 MSTORE PUSH1 0x20 DUP2 SWAP1 MSTORE PUSH1 0x40 SWAP1 KECCAK256 PUSH1 0x1 ADD SLOAD PUSH2 0x9DC DUP2 PUSH2 0xBF3 JUMP JUMPDEST PUSH2 0x69E DUP4 DUP4 PUSH2 0xC35 JUMP JUMPDEST PUSH32 0xA49807205CE4D355092EF5A8A18F56E8913CF4A201FBE287825B095693C21775 PUSH2 0xA10 DUP2 PUSH2 0xBF3 JUMP JUMPDEST PUSH2 0xA1A DUP4 DUP4 PUSH2 0xB1B JUMP JUMPDEST DUP3 PUSH1 0x1 PUSH1 0x1 PUSH1 0xA0 SHL SUB AND PUSH32 0x3037CBA7F4BF85701FC31C9D01F58F1E2E8604D58F4593AB104D9999A89B9530 DUP4 PUSH1 0x40 MLOAD PUSH2 0xA55 SWAP2 DUP2 MSTORE PUSH1 0x20 ADD SWAP1 JUMP JUMPDEST PUSH1 0x40 MLOAD DUP1 SWAP2 SUB SWAP1 LOG2 POP POP POP JUMP JUMPDEST PUSH1 0x2 DUP1 SLOAD SUB PUSH2 0xA84 JUMPI PUSH1 0x40 MLOAD PUSH4 0x3EE5AEB5 PUSH1 0xE0 SHL DUP2 MSTORE PUSH1 0x4 ADD PUSH1 0x40 MLOAD DUP1 SWAP2 SUB SWAP1 REVERT JUMPDEST PUSH1 0x2 DUP1 SSTORE JUMP JUMPDEST PUSH1 0x0 PUSH2 0xA9A PUSH4 0x3B9ACA00 DUP4 PUSH2 0x14B0 JUMP JUMPDEST SWAP1 POP PUSH1 0x0 PUSH2 0x2710 PUSH2 0xAAD PUSH2 0x4E2 DUP5 PUSH2 0x14B0 JUMP JUMPDEST PUSH2 0xAB7 SWAP2 SWAP1 PUSH2 0x1532 JUMP JUMPDEST SWAP1 POP PUSH2 0xAE3 PUSH32 0x0 DUP3 PUSH2 0xCCA JUMP JUMPDEST PUSH1 0x0 PUSH2 0xAEF DUP3 DUP5 PUSH2 0x14E0 JUMP JUMPDEST SWAP1 POP PUSH2 0x69E PUSH32 0x0 DUP3 PUSH2 0xCCA JUMP JUMPDEST PUSH1 0x0 DUP2 PUSH1 0x4 SLOAD PUSH2 0xB2B SWAP2 SWAP1 PUSH2 0x14F3 JUMP JUMPDEST SWAP1 POP PUSH32 0x0 DUP2 GT ISZERO PUSH2 0xB6E JUMPI PUSH1 0x40 MLOAD PUSH4 0x73BE2CEB PUSH1 0xE0 SHL DUP2 MSTORE PUSH1 0x4 ADD PUSH1 0x40 MLOAD DUP1 SWAP2 SUB SWAP1 REVERT JUMPDEST PUSH1 0x4 DUP2 SWAP1 SSTORE PUSH2 0x69E DUP4 DUP4 PUSH2 0xB81 DUP3 PUSH2 0x656 JUMP JUMPDEST PUSH2 0xB8B SWAP2 SWAP1 PUSH2 0x14F3 JUMP JUMPDEST PUSH1 0x5 SWAP2 SWAP1 PUSH2 0xC62 JUMP JUMPDEST PUSH1 0x0 PUSH1 0x1 PUSH1 0x1 PUSH1 0xE0 SHL SUB NOT DUP3 AND PUSH4 0x7965DB0B PUSH1 0xE0 SHL EQ DUP1 PUSH2 0x650 JUMPI POP PUSH4 0x1FFC9A7 PUSH1 0xE0 SHL PUSH1 0x1 PUSH1 0x1 PUSH1 0xE0 SHL SUB NOT DUP4 AND EQ PUSH2 0x650 JUMP JUMPDEST PUSH1 0x0 PUSH2 0x93C DUP4 PUSH1 0x1 PUSH1 0x1 PUSH1 0xA0 SHL SUB DUP5 AND PUSH2 0xD03 JUMP JUMPDEST PUSH1 0x0 PUSH2 0x93C DUP4 PUSH1 0x1 PUSH1 0x1 PUSH1 0xA0 SHL SUB DUP5 AND PUSH2 0xD0F JUMP JUMPDEST PUSH2 0xBFD DUP2 CALLER PUSH2 0xD5B JUMP JUMPDEST POP JUMP JUMPDEST PUSH1 0x0 DUP1 PUSH2 0xC0D DUP5 DUP5 PUSH2 0xD94 JUMP JUMPDEST SWAP1 POP DUP1 ISZERO PUSH2 0x93C JUMPI PUSH1 0x0 DUP5 DUP2 MSTORE PUSH1 0x1 PUSH1 0x20 MSTORE PUSH1 0x40 SWAP1 KECCAK256 PUSH2 0xC2D SWAP1 DUP5 PUSH2 0xE26 JUMP JUMPDEST POP SWAP4 SWAP3 POP POP POP JUMP JUMPDEST PUSH1 0x0 DUP1 PUSH2 0xC42 DUP5 DUP5 PUSH2 0xE3B JUMP JUMPDEST SWAP1 POP DUP1 ISZERO PUSH2 0x93C JUMPI PUSH1 0x0 DUP5 DUP2 MSTORE PUSH1 0x1 PUSH1 0x20 MSTORE PUSH1 0x40 SWAP1 KECCAK256 PUSH2 0xC2D SWAP1 DUP5 PUSH2 0xEA6 JUMP JUMPDEST PUSH1 0x0 PUSH2 0xC78 DUP5 PUSH1 0x1 PUSH1 0x1 PUSH1 0xA0 SHL SUB DUP6 AND DUP5 PUSH2 0xEBB JUMP JUMPDEST SWAP5 SWAP4 POP POP POP POP JUMP JUMPDEST PUSH1 0x60 PUSH1 0x0 PUSH2 0x93C DUP4 PUSH2 0xED8 JUMP JUMPDEST PUSH1 0x0 PUSH2 0x650 DUP3 PUSH2 0xEE3 JUMP JUMPDEST PUSH1 0x0 DUP1 DUP1 DUP1 PUSH2 0xCA7 DUP7 DUP7 PUSH2 0xEEE JUMP JUMPDEST SWAP1 SWAP8 SWAP1 SWAP7 POP SWAP5 POP POP POP POP POP JUMP JUMPDEST PUSH1 0x0 PUSH2 0x93C DUP4 DUP4 PUSH2 0xF19 JUMP JUMPDEST PUSH1 0x0 PUSH2 0x650 DUP3 SLOAD SWAP1 JUMP JUMPDEST PUSH2 0xCFF PUSH1 0x1 PUSH1 0x1 PUSH1 0xA0 SHL SUB PUSH32 0x0 AND CALLER DUP5 DUP5 PUSH2 0xF43 JUMP JUMPDEST POP POP JUMP JUMPDEST PUSH1 0x0 PUSH2 0x93C DUP4 DUP4 PUSH2 0xF9D JUMP JUMPDEST PUSH1 0x0 DUP2 DUP2 MSTORE PUSH1 0x2 DUP4 ADD PUSH1 0x20 MSTORE PUSH1 0x40 DUP2 KECCAK256 SLOAD DUP1 ISZERO DUP1 ISZERO PUSH2 0xD35 JUMPI POP PUSH2 0xD33 DUP5 DUP5 PUSH2 0xD03 JUMP JUMPDEST ISZERO JUMPDEST ISZERO PUSH2 0x93C JUMPI PUSH1 0x40 MLOAD PUSH4 0x15AB343 PUSH1 0xE1 SHL DUP2 MSTORE PUSH1 0x4 DUP2 ADD DUP5 SWAP1 MSTORE PUSH1 0x24 ADD JUMPDEST PUSH1 0x40 MLOAD DUP1 SWAP2 SUB SWAP1 REVERT JUMPDEST PUSH2 0xD65 DUP3 DUP3 PUSH2 0x943 JUMP JUMPDEST PUSH2 0xCFF JUMPI PUSH1 0x40 MLOAD PUSH4 0xE2517D3F PUSH1 0xE0 SHL DUP2 MSTORE PUSH1 0x1 PUSH1 0x1 PUSH1 0xA0 SHL SUB DUP3 AND PUSH1 0x4 DUP3 ADD MSTORE PUSH1 0x24 DUP2 ADD DUP4 SWAP1 MSTORE PUSH1 0x44 ADD PUSH2 0xD52 JUMP JUMPDEST PUSH1 0x0 PUSH2 0xDA0 DUP4 DUP4 PUSH2 0x943 JUMP JUMPDEST PUSH2 0xE1E JUMPI PUSH1 0x0 DUP4 DUP2 MSTORE PUSH1 0x20 DUP2 DUP2 MSTORE PUSH1 0x40 DUP1 DUP4 KECCAK256 PUSH1 0x1 PUSH1 0x1 PUSH1 0xA0 SHL SUB DUP7 AND DUP5 MSTORE SWAP1 SWAP2 MSTORE SWAP1 KECCAK256 DUP1 SLOAD PUSH1 0xFF NOT AND PUSH1 0x1 OR SWAP1 SSTORE PUSH2 0xDD6 CALLER SWAP1 JUMP JUMPDEST PUSH1 0x1 PUSH1 0x1 PUSH1 0xA0 SHL SUB AND DUP3 PUSH1 0x1 PUSH1 0x1 PUSH1 0xA0 SHL SUB AND DUP5 PUSH32 0x2F8788117E7EFF1D82E926EC794901D17C78024A50270940304540A733656F0D PUSH1 0x40 MLOAD PUSH1 0x40 MLOAD DUP1 SWAP2 SUB SWAP1 LOG4 POP PUSH1 0x1 PUSH2 0x650 JUMP JUMPDEST POP PUSH1 0x0 PUSH2 0x650 JUMP JUMPDEST PUSH1 0x0 PUSH2 0x93C DUP4 PUSH1 0x1 PUSH1 0x1 PUSH1 0xA0 SHL SUB DUP5 AND PUSH2 0xFB5 JUMP JUMPDEST PUSH1 0x0 PUSH2 0xE47 DUP4 DUP4 PUSH2 0x943 JUMP JUMPDEST ISZERO PUSH2 0xE1E JUMPI PUSH1 0x0 DUP4 DUP2 MSTORE PUSH1 0x20 DUP2 DUP2 MSTORE PUSH1 0x40 DUP1 DUP4 KECCAK256 PUSH1 0x1 PUSH1 0x1 PUSH1 0xA0 SHL SUB DUP7 AND DUP1 DUP6 MSTORE SWAP3 MSTORE DUP1 DUP4 KECCAK256 DUP1 SLOAD PUSH1 0xFF NOT AND SWAP1 SSTORE MLOAD CALLER SWAP3 DUP7 SWAP2 PUSH32 0xF6391F5C32D9C69D2A47EA670B442974B53935D1EDC7FD64EB21E047A839171B SWAP2 SWAP1 LOG4 POP PUSH1 0x1 PUSH2 0x650 JUMP JUMPDEST PUSH1 0x0 PUSH2 0x93C DUP4 PUSH1 0x1 PUSH1 0x1 PUSH1 0xA0 SHL SUB DUP5 AND PUSH2 0xFFC JUMP JUMPDEST PUSH1 0x0 DUP3 DUP2 MSTORE PUSH1 0x2 DUP5 ADD PUSH1 0x20 MSTORE PUSH1 0x40 DUP2 KECCAK256 DUP3 SWAP1 SSTORE PUSH2 0xC78 DUP5 DUP5 PUSH2 0x10EF JUMP JUMPDEST PUSH1 0x60 PUSH2 0x650 DUP3 PUSH2 0x10FB JUMP JUMPDEST PUSH1 0x0 PUSH2 0x650 DUP3 PUSH2 0xCC0 JUMP JUMPDEST PUSH1 0x0 DUP1 DUP1 PUSH2 0xEFC DUP6 DUP6 PUSH2 0xCB4 JUMP JUMPDEST PUSH1 0x0 DUP2 DUP2 MSTORE PUSH1 0x2 SWAP7 SWAP1 SWAP7 ADD PUSH1 0x20 MSTORE PUSH1 0x40 SWAP1 SWAP6 KECCAK256 SLOAD SWAP5 SWAP6 SWAP4 POP POP POP POP JUMP JUMPDEST PUSH1 0x0 DUP3 PUSH1 0x0 ADD DUP3 DUP2 SLOAD DUP2 LT PUSH2 0xF30 JUMPI PUSH2 0xF30 PUSH2 0x151C JUMP JUMPDEST SWAP1 PUSH1 0x0 MSTORE PUSH1 0x20 PUSH1 0x0 KECCAK256 ADD SLOAD SWAP1 POP SWAP3 SWAP2 POP POP JUMP JUMPDEST PUSH1 0x40 DUP1 MLOAD PUSH1 0x1 PUSH1 0x1 PUSH1 0xA0 SHL SUB DUP6 DUP2 AND PUSH1 0x24 DUP4 ADD MSTORE DUP5 AND PUSH1 0x44 DUP3 ADD MSTORE PUSH1 0x64 DUP1 DUP3 ADD DUP5 SWAP1 MSTORE DUP3 MLOAD DUP1 DUP4 SUB SWAP1 SWAP2 ADD DUP2 MSTORE PUSH1 0x84 SWAP1 SWAP2 ADD SWAP1 SWAP2 MSTORE PUSH1 0x20 DUP2 ADD DUP1 MLOAD PUSH1 0x1 PUSH1 0x1 PUSH1 0xE0 SHL SUB AND PUSH4 0x23B872DD PUSH1 0xE0 SHL OR SWAP1 MSTORE PUSH2 0x69E SWAP1 DUP6 SWAP1 PUSH2 0x1108 JUMP JUMPDEST PUSH1 0x0 DUP2 DUP2 MSTORE PUSH1 0x1 DUP4 ADD PUSH1 0x20 MSTORE PUSH1 0x40 DUP2 KECCAK256 SLOAD ISZERO ISZERO PUSH2 0x93C JUMP JUMPDEST PUSH1 0x0 DUP2 DUP2 MSTORE PUSH1 0x1 DUP4 ADD PUSH1 0x20 MSTORE PUSH1 0x40 DUP2 KECCAK256 SLOAD PUSH2 0xE1E JUMPI POP DUP2 SLOAD PUSH1 0x1 DUP2 DUP2 ADD DUP5 SSTORE PUSH1 0x0 DUP5 DUP2 MSTORE PUSH1 0x20 DUP1 DUP3 KECCAK256 SWAP1 SWAP4 ADD DUP5 SWAP1 SSTORE DUP5 SLOAD DUP5 DUP3 MSTORE DUP3 DUP7 ADD SWAP1 SWAP4 MSTORE PUSH1 0x40 SWAP1 KECCAK256 SWAP2 SWAP1 SWAP2 SSTORE PUSH2 0x650 JUMP JUMPDEST PUSH1 0x0 DUP2 DUP2 MSTORE PUSH1 0x1 DUP4 ADD PUSH1 0x20 MSTORE PUSH1 0x40 DUP2 KECCAK256 SLOAD DUP1 ISZERO PUSH2 0x10E5 JUMPI PUSH1 0x0 PUSH2 0x1020 PUSH1 0x1 DUP4 PUSH2 0x14E0 JUMP JUMPDEST DUP6 SLOAD SWAP1 SWAP2 POP PUSH1 0x0 SWAP1 PUSH2 0x1034 SWAP1 PUSH1 0x1 SWAP1 PUSH2 0x14E0 JUMP JUMPDEST SWAP1 POP DUP1 DUP3 EQ PUSH2 0x1099 JUMPI PUSH1 0x0 DUP7 PUSH1 0x0 ADD DUP3 DUP2 SLOAD DUP2 LT PUSH2 0x1054 JUMPI PUSH2 0x1054 PUSH2 0x151C JUMP JUMPDEST SWAP1 PUSH1 0x0 MSTORE PUSH1 0x20 PUSH1 0x0 KECCAK256 ADD SLOAD SWAP1 POP DUP1 DUP8 PUSH1 0x0 ADD DUP5 DUP2 SLOAD DUP2 LT PUSH2 0x1077 JUMPI PUSH2 0x1077 PUSH2 0x151C JUMP JUMPDEST PUSH1 0x0 SWAP2 DUP3 MSTORE PUSH1 0x20 DUP1 DUP4 KECCAK256 SWAP1 SWAP2 ADD SWAP3 SWAP1 SWAP3 SSTORE SWAP2 DUP3 MSTORE PUSH1 0x1 DUP9 ADD SWAP1 MSTORE PUSH1 0x40 SWAP1 KECCAK256 DUP4 SWAP1 SSTORE JUMPDEST DUP6 SLOAD DUP7 SWAP1 DUP1 PUSH2 0x10AA JUMPI PUSH2 0x10AA PUSH2 0x1554 JUMP JUMPDEST PUSH1 0x1 SWAP1 SUB DUP2 DUP2 SWAP1 PUSH1 0x0 MSTORE PUSH1 0x20 PUSH1 0x0 KECCAK256 ADD PUSH1 0x0 SWAP1 SSTORE SWAP1 SSTORE DUP6 PUSH1 0x1 ADD PUSH1 0x0 DUP7 DUP2 MSTORE PUSH1 0x20 ADD SWAP1 DUP2 MSTORE PUSH1 0x20 ADD PUSH1 0x0 KECCAK256 PUSH1 0x0 SWAP1 SSTORE PUSH1 0x1 SWAP4 POP POP POP POP PUSH2 0x650 JUMP JUMPDEST PUSH1 0x0 SWAP2 POP POP PUSH2 0x650 JUMP JUMPDEST PUSH1 0x0 PUSH2 0x93C DUP4 DUP4 PUSH2 0xFB5 JUMP JUMPDEST PUSH1 0x60 PUSH1 0x0 PUSH2 0x93C DUP4 PUSH2 0x116B JUMP JUMPDEST PUSH1 0x0 PUSH2 0x111D PUSH1 0x1 PUSH1 0x1 PUSH1 0xA0 SHL SUB DUP5 AND DUP4 PUSH2 0x11C7 JUMP JUMPDEST SWAP1 POP DUP1 MLOAD PUSH1 0x0 EQ ISZERO DUP1 ISZERO PUSH2 0x1142 JUMPI POP DUP1 DUP1 PUSH1 0x20 ADD SWAP1 MLOAD DUP2 ADD SWAP1 PUSH2 0x1140 SWAP2 SWAP1 PUSH2 0x156A JUMP JUMPDEST ISZERO JUMPDEST ISZERO PUSH2 0x626 JUMPI PUSH1 0x40 MLOAD PUSH4 0x5274AFE7 PUSH1 0xE0 SHL DUP2 MSTORE PUSH1 0x1 PUSH1 0x1 PUSH1 0xA0 SHL SUB DUP5 AND PUSH1 0x4 DUP3 ADD MSTORE PUSH1 0x24 ADD PUSH2 0xD52 JUMP JUMPDEST PUSH1 0x60 DUP2 PUSH1 0x0 ADD DUP1 SLOAD DUP1 PUSH1 0x20 MUL PUSH1 0x20 ADD PUSH1 0x40 MLOAD SWAP1 DUP2 ADD PUSH1 0x40 MSTORE DUP1 SWAP3 SWAP2 SWAP1 DUP2 DUP2 MSTORE PUSH1 0x20 ADD DUP3 DUP1 SLOAD DUP1 ISZERO PUSH2 0x11BB JUMPI PUSH1 0x20 MUL DUP3 ADD SWAP2 SWAP1 PUSH1 0x0 MSTORE PUSH1 0x20 PUSH1 0x0 KECCAK256 SWAP1 JUMPDEST DUP2 SLOAD DUP2 MSTORE PUSH1 0x20 ADD SWAP1 PUSH1 0x1 ADD SWAP1 DUP1 DUP4 GT PUSH2 0x11A7 JUMPI JUMPDEST POP POP POP POP POP SWAP1 POP SWAP2 SWAP1 POP JUMP JUMPDEST PUSH1 0x60 PUSH2 0x93C DUP4 DUP4 PUSH1 0x0 DUP5 PUSH1 0x0 DUP1 DUP6 PUSH1 0x1 PUSH1 0x1 PUSH1 0xA0 SHL SUB AND DUP5 DUP7 PUSH1 0x40 MLOAD PUSH2 0x11ED SWAP2 SWAP1 PUSH2 0x1587 JUMP JUMPDEST PUSH1 0x0 PUSH1 0x40 MLOAD DUP1 DUP4 SUB DUP2 DUP6 DUP8 GAS CALL SWAP3 POP POP POP RETURNDATASIZE DUP1 PUSH1 0x0 DUP2 EQ PUSH2 0x122A JUMPI PUSH1 0x40 MLOAD SWAP2 POP PUSH1 0x1F NOT PUSH1 0x3F RETURNDATASIZE ADD AND DUP3 ADD PUSH1 0x40 MSTORE RETURNDATASIZE DUP3 MSTORE RETURNDATASIZE PUSH1 0x0 PUSH1 0x20 DUP5 ADD RETURNDATACOPY PUSH2 0x122F JUMP JUMPDEST PUSH1 0x60 SWAP2 POP JUMPDEST POP SWAP2 POP SWAP2 POP PUSH2 0x123F DUP7 DUP4 DUP4 PUSH2 0x1249 JUMP JUMPDEST SWAP7 SWAP6 POP POP POP POP POP POP JUMP JUMPDEST PUSH1 0x60 DUP3 PUSH2 0x125E JUMPI PUSH2 0x1259 DUP3 PUSH2 0x12A5 JUMP JUMPDEST PUSH2 0x93C JUMP JUMPDEST DUP2 MLOAD ISZERO DUP1 ISZERO PUSH2 0x1275 JUMPI POP PUSH1 0x1 PUSH1 0x1 PUSH1 0xA0 SHL SUB DUP5 AND EXTCODESIZE ISZERO JUMPDEST ISZERO PUSH2 0x129E JUMPI PUSH1 0x40 MLOAD PUSH4 0x9996B315 PUSH1 0xE0 SHL DUP2 MSTORE PUSH1 0x1 PUSH1 0x1 PUSH1 0xA0 SHL SUB DUP6 AND PUSH1 0x4 DUP3 ADD MSTORE PUSH1 0x24 ADD PUSH2 0xD52 JUMP JUMPDEST POP DUP1 PUSH2 0x93C JUMP JUMPDEST DUP1 MLOAD ISZERO PUSH2 0x12B5 JUMPI DUP1 MLOAD DUP1 DUP3 PUSH1 0x20 ADD REVERT JUMPDEST PUSH1 0x40 MLOAD PUSH4 0xA12F521 PUSH1 0xE1 SHL DUP2 MSTORE PUSH1 0x4 ADD PUSH1 0x40 MLOAD DUP1 SWAP2 SUB SWAP1 REVERT JUMPDEST PUSH1 0x0 PUSH1 0x20 DUP3 DUP5 SUB SLT ISZERO PUSH2 0x12E0 JUMPI PUSH1 0x0 DUP1 REVERT JUMPDEST POP CALLDATALOAD SWAP2 SWAP1 POP JUMP JUMPDEST PUSH1 0x0 PUSH1 0x20 DUP3 DUP5 SUB SLT ISZERO PUSH2 0x12F9 JUMPI PUSH1 0x0 DUP1 REVERT JUMPDEST DUP2 CALLDATALOAD PUSH1 0x1 PUSH1 0x1 PUSH1 0xE0 SHL SUB NOT DUP2 AND DUP2 EQ PUSH2 0x93C JUMPI PUSH1 0x0 DUP1 REVERT JUMPDEST DUP1 CALLDATALOAD PUSH1 0x1 PUSH1 0x1 PUSH1 0xA0 SHL SUB DUP2 AND DUP2 EQ PUSH2 0x1328 JUMPI PUSH1 0x0 DUP1 REVERT JUMPDEST SWAP2 SWAP1 POP JUMP JUMPDEST PUSH1 0x0 PUSH1 0x20 DUP3 DUP5 SUB SLT ISZERO PUSH2 0x133F JUMPI PUSH1 0x0 DUP1 REVERT JUMPDEST PUSH2 0x93C DUP3 PUSH2 0x1311 JUMP JUMPDEST PUSH1 0x0 DUP1 PUSH1 0x40 DUP4 DUP6 SUB SLT ISZERO PUSH2 0x135B JUMPI PUSH1 0x0 DUP1 REVERT JUMPDEST DUP3 CALLDATALOAD SWAP2 POP PUSH2 0x136B PUSH1 0x20 DUP5 ADD PUSH2 0x1311 JUMP JUMPDEST SWAP1 POP SWAP3 POP SWAP3 SWAP1 POP JUMP JUMPDEST PUSH1 0x0 DUP1 PUSH1 0x40 DUP4 DUP6 SUB SLT ISZERO PUSH2 0x1387 JUMPI PUSH1 0x0 DUP1 REVERT JUMPDEST PUSH2 0x1390 DUP4 PUSH2 0x1311 JUMP JUMPDEST SWAP5 PUSH1 0x20 SWAP4 SWAP1 SWAP4 ADD CALLDATALOAD SWAP4 POP POP POP JUMP JUMPDEST PUSH1 0x0 DUP2 MLOAD DUP1 DUP5 MSTORE PUSH1 0x20 DUP1 DUP6 ADD SWAP5 POP PUSH1 0x20 DUP5 ADD PUSH1 0x0 JUMPDEST DUP4 DUP2 LT ISZERO PUSH2 0x13D8 JUMPI DUP2 MLOAD PUSH1 0x1 PUSH1 0x1 PUSH1 0xA0 SHL SUB AND DUP8 MSTORE SWAP6 DUP3 ADD SWAP6 SWAP1 DUP3 ADD SWAP1 PUSH1 0x1 ADD PUSH2 0x13B3 JUMP JUMPDEST POP SWAP5 SWAP6 SWAP5 POP POP POP POP POP JUMP JUMPDEST PUSH1 0x20 DUP2 MSTORE PUSH1 0x0 PUSH2 0x93C PUSH1 0x20 DUP4 ADD DUP5 PUSH2 0x139E JUMP JUMPDEST PUSH1 0x40 DUP2 MSTORE PUSH1 0x0 PUSH2 0x1409 PUSH1 0x40 DUP4 ADD DUP6 PUSH2 0x139E JUMP JUMPDEST DUP3 DUP2 SUB PUSH1 0x20 DUP5 DUP2 ADD SWAP2 SWAP1 SWAP2 MSTORE DUP5 MLOAD DUP1 DUP4 MSTORE DUP6 DUP3 ADD SWAP3 DUP3 ADD SWAP1 PUSH1 0x0 JUMPDEST DUP2 DUP2 LT ISZERO PUSH2 0x1440 JUMPI DUP5 MLOAD DUP4 MSTORE SWAP4 DUP4 ADD SWAP4 SWAP2 DUP4 ADD SWAP2 PUSH1 0x1 ADD PUSH2 0x1424 JUMP JUMPDEST POP SWAP1 SWAP8 SWAP7 POP POP POP POP POP POP POP JUMP JUMPDEST PUSH1 0x0 DUP1 PUSH1 0x40 DUP4 DUP6 SUB SLT ISZERO PUSH2 0x1460 JUMPI PUSH1 0x0 DUP1 REVERT JUMPDEST POP POP DUP1 CALLDATALOAD SWAP3 PUSH1 0x20 SWAP1 SWAP2 ADD CALLDATALOAD SWAP2 POP JUMP JUMPDEST DUP1 ISZERO ISZERO DUP2 EQ PUSH2 0xBFD JUMPI PUSH1 0x0 DUP1 REVERT JUMPDEST PUSH1 0x0 PUSH1 0x20 DUP3 DUP5 SUB SLT ISZERO PUSH2 0x148F JUMPI PUSH1 0x0 DUP1 REVERT JUMPDEST DUP2 CALLDATALOAD PUSH2 0x93C DUP2 PUSH2 0x146F JUMP JUMPDEST PUSH4 0x4E487B71 PUSH1 0xE0 SHL PUSH1 0x0 MSTORE PUSH1 0x11 PUSH1 0x4 MSTORE PUSH1 0x24 PUSH1 0x0 REVERT JUMPDEST DUP1 DUP3 MUL DUP2 ISZERO DUP3 DUP3 DIV DUP5 EQ OR PUSH2 0x650 JUMPI PUSH2 0x650 PUSH2 0x149A JUMP JUMPDEST PUSH1 0x0 PUSH1 0x20 DUP3 DUP5 SUB SLT ISZERO PUSH2 0x14D9 JUMPI PUSH1 0x0 DUP1 REVERT JUMPDEST POP MLOAD SWAP2 SWAP1 POP JUMP JUMPDEST DUP2 DUP2 SUB DUP2 DUP2 GT ISZERO PUSH2 0x650 JUMPI PUSH2 0x650 PUSH2 0x149A JUMP JUMPDEST DUP1 DUP3 ADD DUP1 DUP3 GT ISZERO PUSH2 0x650 JUMPI PUSH2 0x650 PUSH2 0x149A JUMP JUMPDEST PUSH4 0x4E487B71 PUSH1 0xE0 SHL PUSH1 0x0 MSTORE PUSH1 0x41 PUSH1 0x4 MSTORE PUSH1 0x24 PUSH1 0x0 REVERT JUMPDEST PUSH4 0x4E487B71 PUSH1 0xE0 SHL PUSH1 0x0 MSTORE PUSH1 0x32 PUSH1 0x4 MSTORE PUSH1 0x24 PUSH1 0x0 REVERT JUMPDEST PUSH1 0x0 DUP3 PUSH2 0x154F JUMPI PUSH4 0x4E487B71 PUSH1 0xE0 SHL PUSH1 0x0 MSTORE PUSH1 0x12 PUSH1 0x4 MSTORE PUSH1 0x24 PUSH1 0x0 REVERT JUMPDEST POP DIV SWAP1 JUMP JUMPDEST PUSH4 0x4E487B71 PUSH1 0xE0 SHL PUSH1 0x0 MSTORE PUSH1 0x31 PUSH1 0x4 MSTORE PUSH1 0x24 PUSH1 0x0 REVERT JUMPDEST PUSH1 0x0 PUSH1 0x20 DUP3 DUP5 SUB SLT ISZERO PUSH2 0x157C JUMPI PUSH1 0x0 DUP1 REVERT JUMPDEST DUP2 MLOAD PUSH2 0x93C DUP2 PUSH2 0x146F JUMP JUMPDEST PUSH1 0x0 DUP3 MLOAD PUSH1 0x0 JUMPDEST DUP2 DUP2 LT ISZERO PUSH2 0x15A8 JUMPI PUSH1 0x20 DUP2 DUP7 ADD DUP2 ADD MLOAD DUP6 DUP4 ADD MSTORE ADD PUSH2 0x158E JUMP JUMPDEST POP PUSH1 0x0 SWAP3 ADD SWAP2 DUP3 MSTORE POP SWAP2 SWAP1 POP JUMP INVALID LOG2 PUSH5 0x6970667358 0x22 SLT KECCAK256 0xFB MSIZE LOG4 GAS PUSH4 0xECF3E2F9 0xCF PUSH4 0xF15A11F7 ORIGIN POP 0xE8 SWAP14 PUSH2 0xC8EB SHR 0xE3 PUSH22 0x9096F1604B2A0264736F6C6343000819003300000000 "
        },
        "methodIdentifiers": {
          "ADMIN_ROLE()": "75b238fc",
          "DEFAULT_ADMIN_ROLE()": "a217fddf",
          "MASTER_ROLE()": "dc224863",
          "addMultipleNodes(address,uint256)": "d79ed804",
          "getAccounts()": "8a48ac03",
          "getAccountsAndNumberOfNodes()": "8d549f17",
          "getAvailableNodes()": "436a014a",
          "getNumberOfNodes(address)": "17fb4c3b",
          "getPricePerNode()": "7caf7c92",
          "getRoleAdmin(bytes32)": "248a9ca3",
          "getRoleMember(bytes32,uint256)": "9010d07c",
          "getRoleMemberCount(bytes32)": "ca15c873",
          "grantRole(bytes32,address)": "2f2ff15d",
          "hasRole(bytes32,address)": "91d14854",
          "isSaleActive()": "564566a8",
          "lumiaAddress()": "b22a1cba",
          "maxSupply()": "d5abeb01",
          "nodeCount()": "6da49b83",
          "ntAddress()": "eb7269d6",
          "paymentToken()": "3013ce29",
          "purchaseNodes(uint256)": "01be583b",
          "renounceRole(bytes32,address)": "36568abe",
          "revokeRole(bytes32,address)": "d547741f",
          "setIsSaleActive(bool)": "d2d65ff5",
          "setNumberOfNodes(address,uint256)": "49b514f2",
          "supportsInterface(bytes4)": "01ffc9a7"
        }
      },
      "storageLayout": {
        "storage": [
          {
            "astId": 26,
            "contract": "contracts/providers/lumia/LumiaNodeNT.sol:LumiaNodeNT",
            "label": "_roles",
            "offset": 0,
            "slot": "0",
            "type": "t_mapping(t_bytes32,t_struct(RoleData)21_storage)"
          },
          {
            "astId": 400,
            "contract": "contracts/providers/lumia/LumiaNodeNT.sol:LumiaNodeNT",
            "label": "_roleMembers",
            "offset": 0,
            "slot": "1",
            "type": "t_mapping(t_bytes32,t_struct(AddressSet)2779_storage)"
          },
          {
            "astId": 1244,
            "contract": "contracts/providers/lumia/LumiaNodeNT.sol:LumiaNodeNT",
            "label": "_status",
            "offset": 0,
            "slot": "2",
            "type": "t_uint256"
          },
          {
            "astId": 3112,
            "contract": "contracts/providers/lumia/LumiaNodeNT.sol:LumiaNodeNT",
            "label": "isSaleActive",
            "offset": 0,
            "slot": "3",
            "type": "t_bool"
          },
          {
            "astId": 3115,
            "contract": "contracts/providers/lumia/LumiaNodeNT.sol:LumiaNodeNT",
            "label": "nodeCount",
            "offset": 0,
            "slot": "4",
            "type": "t_uint256"
          },
          {
            "astId": 3131,
            "contract": "contracts/providers/lumia/LumiaNodeNT.sol:LumiaNodeNT",
            "label": "purchasedNodes",
            "offset": 0,
            "slot": "5",
            "type": "t_struct(AddressToUintMap)2018_storage"
          }
        ],
        "types": {
          "t_address": {
            "encoding": "inplace",
            "label": "address",
            "numberOfBytes": "20"
          },
          "t_array(t_bytes32)dyn_storage": {
            "base": "t_bytes32",
            "encoding": "dynamic_array",
            "label": "bytes32[]",
            "numberOfBytes": "32"
          },
          "t_bool": {
            "encoding": "inplace",
            "label": "bool",
            "numberOfBytes": "1"
          },
          "t_bytes32": {
            "encoding": "inplace",
            "label": "bytes32",
            "numberOfBytes": "32"
          },
          "t_mapping(t_address,t_bool)": {
            "encoding": "mapping",
            "key": "t_address",
            "label": "mapping(address => bool)",
            "numberOfBytes": "32",
            "value": "t_bool"
          },
          "t_mapping(t_bytes32,t_bytes32)": {
            "encoding": "mapping",
            "key": "t_bytes32",
            "label": "mapping(bytes32 => bytes32)",
            "numberOfBytes": "32",
            "value": "t_bytes32"
          },
          "t_mapping(t_bytes32,t_struct(AddressSet)2779_storage)": {
            "encoding": "mapping",
            "key": "t_bytes32",
            "label": "mapping(bytes32 => struct EnumerableSet.AddressSet)",
            "numberOfBytes": "32",
            "value": "t_struct(AddressSet)2779_storage"
          },
          "t_mapping(t_bytes32,t_struct(RoleData)21_storage)": {
            "encoding": "mapping",
            "key": "t_bytes32",
            "label": "mapping(bytes32 => struct AccessControl.RoleData)",
            "numberOfBytes": "32",
            "value": "t_struct(RoleData)21_storage"
          },
          "t_mapping(t_bytes32,t_uint256)": {
            "encoding": "mapping",
            "key": "t_bytes32",
            "label": "mapping(bytes32 => uint256)",
            "numberOfBytes": "32",
            "value": "t_uint256"
          },
          "t_struct(AddressSet)2779_storage": {
            "encoding": "inplace",
            "label": "struct EnumerableSet.AddressSet",
            "members": [
              {
                "astId": 2778,
                "contract": "contracts/providers/lumia/LumiaNodeNT.sol:LumiaNodeNT",
                "label": "_inner",
                "offset": 0,
                "slot": "0",
                "type": "t_struct(Set)2464_storage"
              }
            ],
            "numberOfBytes": "64"
          },
          "t_struct(AddressToUintMap)2018_storage": {
            "encoding": "inplace",
            "label": "struct EnumerableMap.AddressToUintMap",
            "members": [
              {
                "astId": 2017,
                "contract": "contracts/providers/lumia/LumiaNodeNT.sol:LumiaNodeNT",
                "label": "_inner",
                "offset": 0,
                "slot": "0",
                "type": "t_struct(Bytes32ToBytes32Map)1360_storage"
              }
            ],
            "numberOfBytes": "96"
          },
          "t_struct(Bytes32Set)2658_storage": {
            "encoding": "inplace",
            "label": "struct EnumerableSet.Bytes32Set",
            "members": [
              {
                "astId": 2657,
                "contract": "contracts/providers/lumia/LumiaNodeNT.sol:LumiaNodeNT",
                "label": "_inner",
                "offset": 0,
                "slot": "0",
                "type": "t_struct(Set)2464_storage"
              }
            ],
            "numberOfBytes": "64"
          },
          "t_struct(Bytes32ToBytes32Map)1360_storage": {
            "encoding": "inplace",
            "label": "struct EnumerableMap.Bytes32ToBytes32Map",
            "members": [
              {
                "astId": 1355,
                "contract": "contracts/providers/lumia/LumiaNodeNT.sol:LumiaNodeNT",
                "label": "_keys",
                "offset": 0,
                "slot": "0",
                "type": "t_struct(Bytes32Set)2658_storage"
              },
              {
                "astId": 1359,
                "contract": "contracts/providers/lumia/LumiaNodeNT.sol:LumiaNodeNT",
                "label": "_values",
                "offset": 0,
                "slot": "2",
                "type": "t_mapping(t_bytes32,t_bytes32)"
              }
            ],
            "numberOfBytes": "96"
          },
          "t_struct(RoleData)21_storage": {
            "encoding": "inplace",
            "label": "struct AccessControl.RoleData",
            "members": [
              {
                "astId": 18,
                "contract": "contracts/providers/lumia/LumiaNodeNT.sol:LumiaNodeNT",
                "label": "hasRole",
                "offset": 0,
                "slot": "0",
                "type": "t_mapping(t_address,t_bool)"
              },
              {
                "astId": 20,
                "contract": "contracts/providers/lumia/LumiaNodeNT.sol:LumiaNodeNT",
                "label": "adminRole",
                "offset": 0,
                "slot": "1",
                "type": "t_bytes32"
              }
            ],
            "numberOfBytes": "64"
          },
          "t_struct(Set)2464_storage": {
            "encoding": "inplace",
            "label": "struct EnumerableSet.Set",
            "members": [
              {
                "astId": 2459,
                "contract": "contracts/providers/lumia/LumiaNodeNT.sol:LumiaNodeNT",
                "label": "_values",
                "offset": 0,
                "slot": "0",
                "type": "t_array(t_bytes32)dyn_storage"
              },
              {
                "astId": 2463,
                "contract": "contracts/providers/lumia/LumiaNodeNT.sol:LumiaNodeNT",
                "label": "_positions",
                "offset": 0,
                "slot": "1",
                "type": "t_mapping(t_bytes32,t_uint256)"
              }
            ],
            "numberOfBytes": "64"
          },
          "t_uint256": {
            "encoding": "inplace",
            "label": "uint256",
            "numberOfBytes": "32"
          }
        }
      },
      "userdoc": {
        "errors": {
          "InsufficientAllowance()": [
            {
              "notice": "Raised when user allowance for token is insufficient"
            }
          ],
          "InsufficientBalance()": [
            {
              "notice": "Raised when user balance is insufficient"
            }
          ],
          "InvalidParameter()": [
            {
              "notice": "Raised invalid parameter passed"
            }
          ],
          "NodesAllAllocated()": [
            {
              "notice": "Raised when number of nodes exceeds the available ones"
            }
          ],
          "SaleNotActive()": [
            {
              "notice": "Raised when sale is not active"
            }
          ],
          "ZeroAddress()": [
            {
              "notice": "Raised when address is zero address"
            }
          ]
        },
        "events": {
          "NodesAirdropped(address,uint256)": {
            "notice": "Emitted when nodes are airdropped"
          },
          "NodesPurchased(address,uint256)": {
            "notice": "Emitted when nodes are purchased"
          },
          "NumberOfNodesUpdated(address,uint256)": {
            "notice": "Emitted when number of nodes are updated"
          }
        },
        "kind": "user",
        "methods": {
          "addMultipleNodes(address,uint256)": {
            "notice": "Adds nodes to account"
          },
          "constructor": {
            "notice": "Initialize smart contract"
          },
          "getAccounts()": {
            "notice": "Returns all accounts that purchased nodes"
          },
          "getAccountsAndNumberOfNodes()": {
            "notice": "Returns accounts addresses and corresponding number of purchased nodes"
          },
          "getAvailableNodes()": {
            "notice": "Returns number of available nodes that can be purchased"
          },
          "getNumberOfNodes(address)": {
            "notice": "Returns number of purchased nodes by account"
          },
          "getPricePerNode()": {
            "notice": "Returns node price"
          },
          "isSaleActive()": {
            "notice": "Returns if sale is active"
          },
          "lumiaAddress()": {
            "notice": "Address of wallet that collects payments"
          },
          "maxSupply()": {
            "notice": "Maximum number of nodes for sale"
          },
          "nodeCount()": {
            "notice": "Returns number of purchased nodes"
          },
          "ntAddress()": {
            "notice": "Address of wallet that collects commissions"
          },
          "paymentToken()": {
            "notice": "Address of token used for payment"
          },
          "purchaseNodes(uint256)": {
            "notice": "Performs nodes purchase"
          },
          "setIsSaleActive(bool)": {
            "notice": "Sets if sale is active"
          },
          "setNumberOfNodes(address,uint256)": {
            "notice": "Assigns number of nodes to account"
          }
        },
        "version": 1
      }
    }
  }
}